:020000040040BA
:10000000A55AA55A01000000FFFFFFFF0020400095
:10001000FFFFFFFF00204000FFFFFFFF0020400028
:10002000FFFFFFFF0000000000204000FFFFFFFF78
:10003000FFFFFFFFFFFFFFFFFFFFFFFFFFFFFFFFD0
:10004000FFFFFFFFFFFFFFFFFFFFFFFFFFFFFFFFC0
:10005000FFFFFFFFFFFFFFFFFFFFFFFFFFFFFFFFB0
:10006000FFFFFFFFFFFFFFFFFFFFFFFFFFFFFFFFA0
:102000000000012021244000852A4000872A40004A
:10201000892A40008B2A40008D2A400000000000E1
:102020000000000000000000000000008F2A4000B7
:10203000912A400000000000932A4000952A4000A9
:10204000972A4000972A4000972A4000972A40008C
:10205000972A4000972A4000972A4000972A40007C
:10206000972A4000972A4000972A4000972A40006C
:10207000972A4000972A4000972A4000972A40005C
:10240000972A4000972A400000BF00BF00BF00BFCE
:10241000FFF7FABF0000000000000000000000000D
:1024200072B64FF000004FF000014FF000024FF085
:1024300000034FF000044FF000054FF000064FF08E
:1024400000074FF0640001380028FCDC5C4801689C
:102450004FF0807201EA0201002924D15948016835
:102460004FF0807241EA02010160574801684FF065
:10247000010241EA02010160544845F6F021016081
:102480004AF20F510160504801684FF0010201EA21
:1024900002010129F7D04A4801684FF0807201EA31
:1024A00002010029F7D04A484CF2205101604DF654
:1024B000281101604748484901604848484901607F
:1024C0004849086820F0040040F0010008604649CF
:1024D000086820F0040040F001000860434800282C
:1024E00014D0434801684FF0010201EA02010029BB
:1024F00002D0404A404B01E0404A3F4B9A4205DA45
:1025000000200021E2E802019A42FBDB3C4800285F
:1025100016D03C4A12684FF07F4302EA03024FEAAA
:102520001262092A02D1384A384B01E0364A384B48
:102530009A4205DA00200021E2E802019A42FBDB20
:102540003448002816D02F4A12684FF47F0302EA5D
:1025500003024FEA1242082A02D12F4A2F4B01E010
:102560002D4A2F4B9A4205DA00200021E2E80201B1
:102570009A42FBDB2B4800684FF05A318842F9D071
:10258000294880F3088800F0B3FC284801684FF020
:102590000000814202D000F0EFFA01E000F0A6FA5C
:1025A0000E482349016000F01FFB62B600F012FBE9
:1025B00000F040F800BFFEE7AFF30080AFF300800B
:1025C00010C32D4030C32D4004C32D4000C02D400A
:1025D0001000274000002740400000FF08ED00E009
:1025E0000020400094EF00E090EF00E001000000C8
:1025F00000C0284000004020008041200000402012
:10260000010000001400264000000020000002200D
:102610000000012001000000000000000000010097
:1026200000800000900240200000012004002640AD
:102630000000002038B51B48002501F003F81A49B6
:1026400003201A4C05F0D8FA194802F09AFE1949ED
:10265000002003F013F84FF6FF73422216490020C2
:1026600003F0F4F84FF480720021144800F002FAED
:1026700001221249002003F001FB94F80532002BDF
:10268000FBD00021084603F0C3F9022805D094F8D6
:10269000042100200A4903F05BF984F8045184F80E
:1026A0000552EAE7A4834000648140008000402096
:1026B000C0874000D4874000218140008200402034
:1026C0008501402082B08DF807009DF807300BB9D6
:1026D00000BEFDE702B0704782B08DF807009DF89C
:1026E00007300BB900BEFDE702B07047EFF3108072
:1026F0007047EFF310807047EFF310807047EFF3EF
:1027000010807047EFF31080704782B08DF807009B
:102710009DF807300BB900BEFDE702B0704782B0EC
:102720008DF807009DF807300BB900BEFDE702B039
:102730007047000053B94AB9002908BF00281CBFE0
:102740004FF0FF314FF0FF3000F078B9ADF1080CD9
:102750006DE904CE00F006F8DDF804E0DDE90223BF
:1027600004B070472DE9F047089D0E4604468E469A
:10277000002B4CD18A42944667D9B2FA82F252B108
:1027800001FA02F3C2F1200120FA01F10CFA02FC75
:1027900041EA030E94404FEA1C48210CBEFBF8F6B8
:1027A0001FFA8CF708FB16E341EA034306FB07F127
:1027B00099420AD91CEB030306F1FF3080F01E8119
:1027C000994240F21B81023E63445B1AA4B2B3FB00
:1027D000F8F008FB103344EA034400FB07F7A74274
:1027E0000AD91CEB040400F1FF3380F00981A742F1
:1027F00040F2068164440238E41B40EA06400021AE
:102800001DB1D4400023C5E90043BDE8F0878B42E9
:1028100008D9002D00F0EF800021C5E90006084628
:10282000BDE8F087B3FA83F1002949D1B34202D35E
:10283000824200F2FF80841A66EB030301209E4669
:10284000002DE2D0C5E9004EDFE702B9FFDEB2FAA3
:1028500082F2002A40F08E80A1EB0C064FEA1C4762
:102860001FFA8CF30121B6FBF7FE07FB1E60260C56
:1028700046EA004603FB0EF0B04208D91CEB060600
:102880000EF1FF3802D2B04200F2D080C646361AAE
:10289000A4B2B6FBF7F007FB106644EA064400FB5F
:1028A00003F3A34208D91CEB040400F1FF3602D263
:1028B000A34200F2B8803046E41A40EA0E409FE797
:1028C000C1F1200722FA07F48B40234306FA01FCEA
:1028D00026FA07F420FA07F646EA0C064FEA1349EF
:1028E00000FA01F8B4FBF9FE300C1FFA83FC09FB77
:1028F0001E4440EA04440EFB0CF0A04202FA01F22E
:102900000AD91C190EF1FF3A80F08B80A04240F2E8
:102910008880AEF1020E1C44241AB6B2B4FBF9F062
:1029200009FB104446EA044400FB0CFCA44507D90B
:102930001C1900F1FF3670D2A4456ED902381C4430
:1029400040EA0E40A0FB02E6A4EB0C04B442F446BD
:10295000B14659D356D0002D6ED0B8EB0C0364EBC2
:102960000904CB4004FA07F71F43CC40C5E90074C3
:1029700000214AE7C2F1200024FA00F10CFA02FC1F
:1029800006FA02F326FA00F04FEA1C4741EA030672
:10299000B0FBF7F11FFA8CF307FB110E300C40EA85
:1029A0000E4001FB03FE864504FA02F408D91CEB35
:1029B000000001F1FF3832D2864530D90239604437
:1029C000A0EB0E00B6B2B0FBF7FE07FB1E0046EA16
:1029D00000460EFB03F0B04209D91CEB06060EF1CF
:1029E000FF3818D2B04216D9AEF1020E6644361A3C
:1029F0004EEA014137E72946284606E70646E4E65F
:102A00001846F9E6F045A6D2BEEB020C66EB0303CE
:102A1000013899469FE7C646E9E7304690E74146C8
:102A2000CEE7D64678E76444023845E7AEF1020EB9
:102A300066442CE7084603E72946E6E6704700BFF0
:102A4000884210B501EB020402D98442234607D81C
:102A5000431EA14208D011F8012B03F8012FF8E71B
:102A6000024401468A4200D110BD13F8014D02F81C
:102A7000014DF7E702440346934200D1704703F843
:102A8000011BF9E7FEE7FEE7FEE7FEE7FEE7FEE7EC
:102A9000FEE7FEE7FEE7FEE74FF0E022D2F80C3D4E
:102AA00023F4E0631843C2F80C0D70474309012278
:102AB00000F01F00403302FA00F04FF0E02242F82D
:102AC000230070474309012200F01F00603302FA1F
:102AD00000F04FF0E02242F823007047090100F1B6
:102AE000E020C9B280F80014704700002DE9F843D7
:102AF0001F4B00251E68B54207D11E4C00262768D3
:102B0000B046BE4221D1BDE8F883D3E90101DA68BD
:102B10000024521A02F0030C9208A24209D101EBE0
:102B2000820100EB82020020844508D801350C3375
:102B3000E1E751F8247040F824700134EDE711F812
:102B4000014B013002F8014BEEE7D4E901350021D9
:102B50000136ED1A1846083425F003024FEA9509AC
:102B6000FFF788FFAA0718BF40F82980C9E700BF10
:102B70003498400080984000144B0C22F0B5144D5E
:102B80001E6802FB0533B54200D3F0BDD3E9010155
:102B9000DA680024521A02F0030C9208A24209D10A
:102BA00001EB820100EB82020020844508D8013548
:102BB0000C33E8E751F8247040F824700134EDE755
:102BC00011F8014B013002F8014BEEE73498400058
:102BD000030000007047FEE7024B586800F0030056
:102BE000704700BF00002640A64B00215A68F0B590
:102BF00012F0030F5C695869C4F3074408BF01254C
:102C00004FEA106018BF00254B00013103F18043EB
:102C1000F02903F51813B3F8802892B242EA0502AE
:102C2000A3F88028F0D1984B0022082C97491A600D
:102C3000974A1A64974A5A600CBF974A974A0928DC
:102C40005A64974A9A60974A9A64974ADA60974A10
:102C5000DA644FF0D8521A61954A1A65954A5A615A
:102C60000CBF954A8C4A5A65944A9A61944A42EA42
:102C7000410294499A65944ADA61944A42EA4101D0
:102C8000D96593491962934942EA41024FF0CE4116
:102C90001A664FF080425A628F4A5A668F4A9A6289
:102CA00000229A66D9628E49D9664FF0D0411963E5
:102CB0008C4919674FF0604159638B4959678B49BB
:102CC00099634FF088419A67D963DA67BFF34F8FF2
:102CD000BFF36F8F4FF0E022D2F8141D8F0303D49F
:102CE000D2F8142DD6036AD54FF0E0210022C1F8A6
:102CF000842DBFF34F8FD1F8802D43F6E075C2F3DA
:102D0000C904C2F34E32520102EA0507204647EADF
:102D10008076C1F8746FBFF34F8F0138F7D2203A35
:102D200012F1200FF0D1D1F8842D42F00102C1F848
:102D3000842D0022C1F8502FBFF34F8FBFF36F8F48
:102D4000C1F8842DBFF34F8FD1F8802D43F6E07585
:102D50004FF0E021C2F3C904C2F34E32520102EA3D
:102D60000507204647EA8076C1F8746FBFF34F8F9E
:102D70000138F7D2203A12F1200FF0D1D1F8842D8A
:102D800042F00102C1F8842D0022C1F8502FBFF398
:102D90004F8FBFF36F8FD1F8142D22F40032C1F89A
:102DA000142DBFF34F8FBFF36F8FD1F8142D22F482
:102DB0008032C1F8142DBFF34F8FBFF36F8F002205
:102DC0004FF0E020114603EB8204256CED070AD595
:102DD000C0F8981D013153F82250C9B2C0F89C5D6B
:102DE000246CC0F8A04D0132102AECD14FF0E02342
:102DF000D3F8942D42F00302C3F8942DBFF34F8F04
:102E0000BFF36F8F0022C3F8842DBFF34F8FD3F829
:102E1000802D43F6E074C2F3C900C2F34E32520172
:102E200002EA0406014646EA8175C3F8605FBFF313
:102E30004F8F0139F7D2203A12F1200FF0D1BFF3B2
:102E40004F8FD3F8142D42F48032C3F8142DBFF302
:102E50004F8FBFF36F8FBFF34F8FBFF36F8F002282
:102E6000C3F8502FBFF34F8FBFF36F8FD3F8142DDC
:102E700042F40032C3F8142DBFF34F8FBFF36F8FAE
:102E8000F0BD00BF00002640000040200E00000002
:102E90003F000410000000001F0008031D0008038D
:102EA0000000400029000B070000001023000B1653
:102EB00019000B160000002021000803000040202C
:102EC00001000B030E0000000080402001000C13E5
:102ED000000041200E0000002DC0041300006040DF
:102EE0001300041335000B032700041300008000B7
:102EF0004FF0E022D2F8883D43F47003C2F8883DD9
:102F0000BFF34F8FBFF36F8F704700BF70472DE93E
:102F1000F047B54D01210446286001F0B3FD2B6850
:102F2000002B40F03981E67BB04FDFF8F882DFF804
:102F3000F892002E40F03781A67CAD4FDFF8EC828E
:102F4000DFF8E492002E40F03E81A67BA94FDFF827
:102F5000E082DFF8D492002E40F07C81667BA64FA1
:102F6000DFF8D082DFF8C092002E40F0848137462F
:102F7000DFF89C82DFF8C092DFF8ACA2237BBB4273
:102F800000F2898128680025022101F07BFDE27CA6
:102F9000EBB29A4200F29181984B1D78002D38D106
:102FA0000122974F294628461A707B689847BB68CC
:102FB00057208F4F9847934B28461B689847924B52
:102FC00028461B6898478C4B28461B6898477B68A7
:102FD00028469847BB688D4F2846984728463B6847
:102FE000984729467B6828469847894B814F284651
:102FF0001B6898477B6828469847BB6828469847CF
:103000007A4B28465B689847824B294628461B68BE
:10301000984701238049E27D9A4200F259810025B8
:10302000754FDFF81082DFF80092637BAB4200F24D
:1030300056810025774FDFF80482DFF8EC91637D3D
:10304000AB4200F25D8100256F4FDFF8F481DFF8BD
:10305000D891637CAB4200F264810025694FDFF8B0
:10306000E481DFF8C491237CAB4200F26A81002541
:10307000654FDFF8CC81DFF8B091637CAB4200F2A2
:10308000708100255B4FDFF8A881DFF89C91A37B5E
:10309000AB4200F277810025594FDFF88481DFF8D9
:1030A0008891A37DAB4200F27F810025524FDFF86B
:1030B0008481DFF87491637BAB4200F28781002545
:1030C0004C4FDFF86C81DFF86091A37BAB4200F2DC
:1030D0008E810025464FDFF85481DFF84C91A37CA8
:1030E000AB4200F29681DFF8608101234B4F00254F
:1030F00057210420BB70D8F800303D707D70FD7002
:10310000984701F0E7FCD8F8003057210520984790
:10311000D8F80030572106209847DFF8D09001F00A
:1031200039FBDFF800A1D8F800305721DFF81C8107
:1031300007209847E37BAB4200F27D813D78002D6C
:1031400040F0B381314FDFF80881DFF8DC90237D58
:10315000AB4200F28A812A4D314FDFF8CC80A37D4B
:10316000B34200F2928120460421BDE8F04701F00D
:1031700089BC1C22206C724301368358104403EB37
:10318000C3034B445B7818F803301B01FB58984786
:10319000A37DB342EDD8C6E60026194FDFF8808044
:1031A000DFF88490F4E7606A013E50F8363000EBB7
:1031B000C60003EBC3034B445B7818F8033057F8A1
:1031C00033309847B5E6013E206B0C223301C358DB
:1031D00000EB061003EBC3034B445B7818F8033095
:1031E0005343FB589847ADE6F0024020EC9740006F
:1031F00050974000BC97400020974000F4024020C8
:103200009C974000FC964000109740005C9740005F
:103210006C974000E49740009802402094024020C0
:1032200096964000AA96400087934000BE964000C4
:10323000B4964000DC964000D2964000A096400034
:10324000E6964000F0964000B40340203C914000D8
:10325000C8964000013E2822206A142172438358F8
:10326000104403EBC3034B445B7818F803304B4323
:10327000FB5898476FE6013E1422E0697243835879
:10328000104403EBC3034B445B7818F803301B0175
:10329000FB58984768E60C21A06901FB07F201374B
:1032A0008358104403EBC30353445B7819F803308D
:1032B0004B4358F80330984760E6616B18010135BD
:1032C00001EB03130858D3E9022300F0AEFC5EE6DD
:1032D000626C52F833208B540133DBB29BE614222C
:1032E000E0696A4301358358104403EBC3034B4440
:1032F0005B7818F8033007EB03135B68984794E694
:103300001422E06B29466A4301358358104403EBCD
:10331000C3034B445B7818F8033057F823309847C1
:103320008DE60C22E06A6A4301358358104403EBB2
:10333000C3034B445B7818F8033057F83330984791
:1033400087E60C22A06A6A4301358358104403EBD8
:10335000C3034B445B7818F8033057F82330984781
:1033600081E60C22E06A6A4301358358104403EB7E
:10337000C3034B445B7818F8033007EBC3035B6867
:1033800098477AE62822206A14216A430135835837
:10339000104403EBC3034B445B7818F8033001FB84
:1033A00003735B68984772E61C22206C29466A43C7
:1033B00001358358104403EBC3034B445B7818F882
:1033C000033007EB03135B6898476AE61422E06951
:1033D0006A4301358358104403EBC3034B445B78C5
:1033E00018F8033007EB03139B68984763E628221D
:1033F000206A14216A4301358358104403EBC30348
:103400004B445B7818F8033001FB0373DB68984783
:103410005BE6206B2B010C22C35800EB0510013535
:1034200003EBC3034B445B7818F8033002FB0373D0
:103430005B68984753E6626A02EBC500436858F838
:103440002330032B0ED052F83530194A03EBC30357
:1034500013445B781AF8033009EBC3035B689847A1
:10346000013567E601233B70FAE7A06B50F8353071
:1034700000EBC500013503EBC3034B445B7818F840
:10348000033057F83330984761E61C22206C7243B2
:1034900001368358104403EBC30343445B78FB5C61
:1034A00005EB0313DB68984759E6BDE8F08700BFDA
:1034B000879340002DE9F0471F4F002502241F4E3F
:1034C000DFF88880B378AB421CD864BB1C4F25461C
:1034D000DFF87C80DFF87C90DFF868A0F3789D420D
:1034E00021D257F8040B0C2200EBC00353445B7845
:1034F00019F8033002FB03839B689847012811D019
:103500000135EBE757F8040B0E4B00EBC0021344F8
:103510000D4A5B78D35C142202FB03839B689847B7
:10352000012803D101242046BDE8F087022805F1D7
:10353000010508BF0024C5E73891400094024020EF
:103540003491400087934000B4964000BC974000FF
:1035500050974000BE9640002DE9F0412F4D2B685A
:103560002BBBBDE8F0815B6A03EBC400426856F8F0
:103570002220032A0CD153F83430294A03EBC30329
:1035800013445B7818F8033007EBC3035B68984774
:1035900001342B68DA7B9442E5D3224B1B78002B55
:1035A000DFD00024204E214FDFF8748013E0002488
:1035B0001F4E204FDFF88880EBE7986B50F83430CF
:1035C00000EBC400013403EBC30343445B78FB5CB2
:1035D00056F8333098472B681A7D9442EDD3002477
:1035E000154E164FDFF838802868837D9C4204D33F
:1035F0000421BDE8F04101F045BA1C22006C624391
:1036000001348358104403EBC30343445B78FB5CF1
:1036100006EB0313DB689847E6E700BFF0024020A3
:1036200087934000940240205C974000C896400079
:103630003C914000EC9740009C97400096964000DB
:10364000AA96400010B5FFF762FC064B1C782CB11F
:10365000FFF730FF044618B9FFF77EFF204610BD84
:103660000124FBE794024020054A00EBC003134409
:10367000044A5B78D25C044B03EB02139B68184747
:1036800087934000969640009C974000014B18603D
:10369000704700BFB4034020064A00EBC00301217D
:1036A0001344054A5B78D25C044B03EBC2035B68AE
:1036B000184700BF87934000C89640005C974000C1
:1036C000064A00EBC00300211344054A5B78D25C34
:1036D000044B03EBC2035B68184700BF87934000AD
:1036E000C89640005C97400008B5044B022118685A
:1036F00001F0C8F9BDE8084001F098B9F002402097
:1037000008B5044B0221186801F0BCF9BDE8084077
:1037100001F094B9F002402008B5044B022118686A
:1037200001F0B0F9BDE8084001F096B9F002402080
:1037300008B5044B0221186801F0A4F9BDE808405F
:1037400001F092B9F0024020014B1B68184700BFFE
:10375000B4034020F8B5074600200E4614461D4627
:1037600002F05DFD002138602846316002F05EFD08
:103770002060F8BD38B50C460021154602F051FD19
:1037800023681844A842206034BF0020012038BDBF
:10379000704710B5D0B14368C3B10268013B0C4912
:1037A00002EBC2021B04885C8C180A4A03F47023E3
:1037B000617952F8302002EB8102D2F8801021F4B6
:1037C00070210B4343F00043C2F8803010BD00BFAE
:1037D000879340007892400098B10368094A03EB50
:1037E000C303D25C084B53F8321043688A68012B3C
:1037F00022F0FC4238BF01235B0603F0FC43134375
:103800008B60704787934000789240002DE9F04329
:10381000044685B0002858D002682D4D02EBC20244
:103820002C49A818837801EB0311AB5C15250279AC
:1038300005FB0322284B457953F82260636806EBA9
:103840008505D1E90271AA68002B35D0013B8B4078
:1038500053403B40534043F00047DFF880804CF238
:10386000503303AA02A901A8FFF774FFD8F8889182
:1038700002A9039A01A8FFF77DFFB9F1000F1EDB33
:103880000028F3D021680120FFF75EFF4CF250338F
:1038900003AA02A901A8FFF75DFFF56B02A9039A2D
:1038A00001A8FFF767FFEB070DD50028F5D02168C9
:1038B0000120FFF749FF08E022F00047CDE700288C
:1038C000E0D1AF60E2E70028F1D105B0BDE8F083B8
:1038D00087934000E48E40009492400000C02D4049
:1038E000F0B5044685B000283BD002681E4D02EBBF
:1038F000C2021E49A818837801EB0311AB5C027960
:10390000D1E90267152101FB0322194B417953F8D4
:103910002250636805EB81018A68EBB1013BBB4033
:10392000534033405A4042F000428A604CF25033D8
:1039300003AA02A901A8FFF70DFFEE6B02A9039AE3
:1039400001A8FFF717FFF30709D50028F5D0216874
:103950000120FFF7F9FE04E022F00042E5E700282D
:10396000F5D105B0F0BD00BF87934000E48E400064
:1039700094924000704780B103680A4A03EBC30386
:10398000D118D25C0B79152101FB0233064A52F89B
:103990002330426812B101225A6370475A6B22F0F9
:1039A0000102F9E787934000949240007FB50446F6
:1039B00040B3436833B3036801A8134A03EBC3035E
:1039C000D118D25C0B79152101FB02330F4A02A9F1
:1039D00052F82350012303AAAB634CF25033FFF794
:1039E000B9FEEE6B02A9039A01A8FFF7C3FEF30725
:1039F00006D50028F5D021680120FFF7A5FE01E0DB
:103A00000028F8D104B070BD879340009492400024
:103A1000704708B30389FBB10368104A03EBC30383
:103A2000D25C0F4B53F822104389427C1B04920056
:103A300003F47F0302F004021343027B43EAC273E0
:103A4000827B1201D2B21343427B120602F08072D3
:103A5000134343F001030B60704700BF879340009E
:103A60008892400070B10389012B0BD10368064A8C
:103A700003EBC303D25C054B53F82220136843F0D9
:103A800001031360704700BF879340008892400095
:103A900058B10368054A03EBC303D25C044B53F8E7
:103AA0002220136823F001031360704787934000BE
:103AB00088924000B0B10389A3B103680A4A03EBBE
:103AC000C303D25C094B53F8221043890A681B04D4
:103AD00022F47F0203F47F0322F00102134343F038
:103AE00001030B60704700BF87934000889240003D
:103AF0007FB5044618B303890BB3037B016803BB8E
:103B000001EBC101124B03AA01A85D5C4CF25033DA
:103B100002A9FFF71FFE0F4B53F825506E6802A94C
:103B2000039A01A8FFF726FE002E06DB0028F5D039
:103B300021680120FFF708FE01E00028F8D104B059
:103B400070BD022004B0BDE87040FFF7FDBD00BFAE
:103B500087934000889240007FB5044628B30389CC
:103B60001BB3437B0BB3037B016803BB01EBC101B8
:103B7000124B03AA01A85D5C4CF2503302A9FFF777
:103B8000E9FD0F4B53F825506E6802A9039A01A86E
:103B9000FFF7F0FD002E06DB0028F5D0216801209C
:103BA000FFF7D2FD01E00028F8D104B070BD02207B
:103BB00004B0BDE87040FFF7C7BD00BF8793400069
:103BC000889240007FB5044618B3036802A9124AE0
:103BD00001A803EBC303D25C104B53F8225003AA95
:103BE0002B6823F001032B604CF25033FFF7B2FD3A
:103BF0006E6802A9039A01A8FFF7BCFD002E06DA41
:103C00000028F5D021680120FFF79EFD01E0002883
:103C1000F8D104B070BD00BF879340008892400087
:103C2000704700BF7047002070477047704770476B
:103C30002DE9FF41002800F088800668444B06EB20
:103C4000C60281881344434A9B7912F8338002EB01
:103C5000C302414B5778546853F82830002939D0B3
:103C600053F827100C4270D153F82710214343F822
:103C700027103A4B53F828502B6843F001032B6070
:103C80006B6843F001036B6000F086FD6A68344B9B
:103C9000D10753F8288058F8273001D41C4254D15A
:103CA0004CF2503303AA02A901A8FFF753FD039A6F
:103CB00002A901A8FFF75EFD6A6858F82730D2070D
:103CC00001D41C423FD10028F1D031460120FFF73A
:103CD0003BFD3AE053F827100C4236D053F827103A
:103CE00021EA040143F827101C4B53F828502B6895
:103CF00043F001032B606B6843F001036B6000F03D
:103D00004BFD174B6A6853F8288002F0010258F8FF
:103D100027302340134318D04CF2503303AA02A992
:103D200001A8FFF717FD039A02A901A8FFF722FDDA
:103D30006A6858F8273002F001022340134302D08A
:103D40000028F0D0C1E70028BFD104B0BDE8F08161
:103D500087934000FC874000A4914000849140007C
:103D60009491400007B581F0010100906846ADF8DC
:103D70000410FFF75DFF03B05DF804FB7047704768
:103D8000024A936843F001039360704700002D409E
:103D9000024A936823F001039360704700002D40AE
:103DA000024AD36843F48073D360704700802C408C
:103DB000024AD36823F48073D360704700802C409C
:103DC000F0B5044685B000282BD0C379013BDBB2A7
:103DD000022B26D8174A526E520F052A23D1164AB3
:103DE00002A9164E01A8D55C4CF2503303AAFFF786
:103DF000B1FCD6F8887102A9039A01A8FFF7BAFCB2
:103E0000002F06DB0028F4D021680120FFF79CFC7E
:103E100007E00028F8D1074A536E23F003031D433F
:103E2000556605B0F0BD01680A2005B0BDE8F04058
:103E3000FFF78ABC00C03940E880400000C02D4038
:103E400030B18288054B22B19A6842F001029A6033
:103E500070479A6822F00102F9E700BF00002D4088
:103E600030B18288054B22B1DA6842F48072DA60A0
:103E70007047DA6822F48072F9E700BF00802C40B6
:103E800000F01EB970477047704780B10368142175
:103E9000094A03EBC30313441A7A084B01FB0233AC
:103EA00001791A69136819B143F00103136070476F
:103EB00023F00103FAE700BF87934000B49140006C
:103EC0007FB500EBC0021B4B1421054613441A7A40
:103ED000194B01FB02331C6902F0CCFA2368DA07A4
:103EE00014D54CF2503303AA02A901A8FFF732FC03
:103EF000266902A9039A01A8FFF73CFCF30609D43E
:103F00000028F5D029460120FFF71EFC02F0CCFA6C
:103F100004B070BD0028F5D1236823F001032360AD
:103F2000636923F00F036361236943F00303236193
:103F3000ECE700BF87934000B491400008B10068EF
:103F4000BEE770472DE9F74F0646002800F0A48031
:103F50000379002B00F0A0800368524A03EBC300F2
:103F6000776902447B4092F808A04F4A52F821003A
:103F7000984200F0898042F8213014214B4A4C4B82
:103F800001FB0A214B4C1B6848685B6C205C03EB0F
:103F9000C0004568002D77D0C968615C03EBC103A0
:103FA0005B68002B70D0002F6ED005EB45043169A3
:103FB000013CB4FBF3F405EB85030134013BB3FB97
:103FC000F7F309339C4238BF1C46642904D066D8F5
:103FD000012901D00A2907D1374BB3FBF1F1B5FB19
:103FE000F1F18C4238BF0C46F36842F210784FF082
:103FF00000090093142303FB0A229368D2F810B03F
:104000000193009BCBF8044013EB080049EB090334
:10401000A0FB070107FB0313A0FB0401013804FB0D
:104020000311019B41F1FF31B8EB03026CEB0C0C67
:10403000A2FB052305FB0C33FEF77CFB1F4B043072
:10404000984294BFCBF80800CBF80830009BB8EB3F
:10405000030063EB0303A0FB070107FB0317019BAE
:10406000A0FB040113EB080204FB071149EB09094B
:10407000A2FB052305FB0933FEF75CFB033803288D
:1040800038BF0320CBF80C00084B142202FB0A3A7D
:10409000B268DAF810305A6103B0BDE8F08FB1F5BC
:1040A0007A7F98E787934000F8024020B49140005F
:1040B000F00240209802402040420F00FCFFFF0029
:1040C000F8B50D4D00240D4E0D4F55F8042B6AB177
:1040D0001369316803F0030361B151690B4005D0E6
:1040E00057F8241000201361FFF72EFB0134072C32
:1040F000EBD1F8BD1361F9E75C924000F00240207B
:1041000040924000704702207047704710B590B150
:1041100003680E4A03EBC303D25C0D4B03EBC201F1
:1041200053F8322000230C79D9B28C4204D813689A
:1041300043F00043136010BD02EB83000133D0F85D
:10414000801021F00041C0F88010EDE78793400017
:104150007892400010B5002849D08388002B46D0C3
:104160000368234A03EBC303047DD25C214B53F85D
:104170003220437B91681B0321F4E14103F4E043C7
:1041800021F07F012343448A0B431B49C4F30E04EF
:10419000936013691940037F9B0703F08043234317
:1041A0000B431361447D837DA107002C4FEA4373C9
:1041B00001F0804103F0005343EA0103418B008B7F
:1041C000C1F30A0143EA01030C4901EA004143EA51
:1041D0000103D36008BF8023916918BF002321F435
:1041E000C0710B439361136823F00043136010BD4B
:1041F00087934000789240000080FFBF0000FF03DB
:1042000070B18388012B0BD10368064A03EBC3030B
:10421000D25C054B53F83220136823F0004313603F
:10422000704700BF87934000789240007FB500EB55
:10423000C003134A0446D25C124B53F832502B6829
:10424000002B1BDB4CF2503303AA02A901A8FFF795
:1042500081FA6E6802A9039A01A8FFF78BFA730727
:1042600008D40028F5D001202146FFF76DFA01207F
:1042700004B070BD0028F6D10220F9E70020F7E76E
:1042800087934000789240007047F0B5002873D0C3
:10429000C6680468036986EA0405DFF814E1D0E91A
:1042A00001275D405EF8210055407D40A84263D063
:1042B000DFF800C106EBC6064EF8215004EBC4043B
:1042C0001CF8066036486444364D50F826002D68C8
:1042D000354E6D6C7678354905EBC605E4794A4371
:1042E0006E68B3FBF1F3B6FBF1F640F638115943B3
:1042F000B2FBF1F2052A42D9C72A3ED80A2A3ED992
:10430000972A34BF302570254FF4FA1206FB05FCBE
:1043100002FB03F1B2FBF5F2B1FBFCF1891A4FF09D
:10432000804C01F580718C452BD80022BCF1000F28
:104330002AD192007743BF32BFB2D109076004EBA4
:10434000440701FB05F200EB870745EA024501FB44
:1043500002227D604FF47A7552086B4302F2E73215
:10436000B3FBF6F3013BC2F31302C3F31303BB60C9
:104370000C2303FB0400C260F0BDB825C4E70C2584
:10438000C2E74FEA9C0CCEE70CEB020E8E459CBFB9
:1043900002EB4C02A1EB0E014FEA9C0C5208C5E760
:1043A00090924000F00240209802402040420F00CE
:1043B0000403402087934000704710B5C0B10368E4
:1043C0000C4803EBC3030C4CC1188A781201A458A3
:1043D000C25C0B79152101FB0233084A52F82330E5
:1043E000196841F0080119601A6822EA04021A608B
:1043F00010BD00BF87934000E48E400094924000BF
:10440000DBE72DE9FF41044600286ED0384A394EDB
:10441000D0E90031384803EBC30332F81150C1181A
:104420008A78170106EB0212F759D2F80480C25CB1
:104430000B79152101FB0233304A52F8236073686F
:104440003B4023FA08F3AB424FD04CF2503303AA5F
:1044500002A901A8FFF77EF902A9039A01A8FFF7B4
:1044600089F97368D90304D50028F5D021680120A3
:1044700039E00028FAD1336805FA08F503AA02A941
:104480005D4001A83D405D404CF2503345F00705CA
:104490003560FFF75FF9039A02A901A8FFF76AF9EF
:1044A00073685A0702D40028F5D0DFE70028DDD171
:1044B0004CF2503303AA02A901A8FFF74BF9039A63
:1044C00002A901A8FFF756F97368DB0302D500289B
:1044D000F5D0CBE70028C9D17368C3F34243012B61
:1044E00003D021680320FFF72FF904B0BDE8F08165
:1044F0000C934000E48E400087934000949240006B
:104500002DE9FF41044600286ED0394A394ED0E9E2
:104510000031394803EBC30332F81150C1188A78CF
:10452000170106EB0212F759D2F80480C25C0B792E
:10453000152101FB0233314A52F8236073683B4076
:1045400023FA08F3AB424FD04CF2503303AA02A92E
:1045500001A8FFF7FFF802A9039A01A8FFF70AF9DB
:104560007368D90304D50028F5D02168012039E00B
:104570000028FAD1336805FA08F503AA02A95D40BC
:1045800001A83D405D404CF2503345F004053560D4
:10459000FFF7E0F8039A02A901A8FFF7EBF87368A8
:1045A0005A0702D40028F5D0DFE70028DDD14CF20D
:1045B000503303AA02A901A8FFF7CCF8039A02A975
:1045C00001A8FFF7D7F87368DB0302D50028F5D000
:1045D000CBE70028C9D17368C3F34243012B03D052
:1045E00021680320FFF7B0F804B0BDE8F08100BFF8
:1045F0000C934000E48E400087934000949240006A
:104600002DE9FF410546002855D02C4A2C4CD0E915
:1046100000312C4803EBC30332F81160C1188A78CB
:10462000170104EB0212E759D2F80480C25C01A81A
:104630000B79152101FB0233234A02A952F82340CA
:1046400003AA236843F0040323604CF25033FFF7BE
:1046500081F8039A02A901A8FFF78CF863689A030E
:1046600004D50028F5D0296801201FE00028FAD1E0
:10467000236806FA08F603AA02A95E4001A83E4094
:104680005E402660236823F00C0323604CF2503315
:10469000FFF760F8039A02A901A8FFF76BF86368B7
:1046A0009B0306D40028F5D029680320FFF74CF8B7
:1046B00001E00028F8D104B0BDE8F0810C9340007F
:1046C000E48E400087934000949240002DE9FF4122
:1046D000064600283DD003681F4A2048D55C03EBFE
:1046E000C3031F4CC1188A78170104EB0212E75963
:1046F000D2F80480C25C01A80B79152101FB0233BA
:10470000184A02A952F8234003AA236843F00C0375
:1047100023604CF25033FFF71DF8039A02A901A859
:10472000FFF728F863689B0306D50028F5D03168A9
:104730000120FFF709F80CE00028F8D1236805FAFA
:1047400008F55D403D405D402560236823F00C0383
:10475000236004B0BDE8F0813093400087934000AF
:10476000E48E4000949240004068064B064933F8BE
:1047700010304A681B0322F4405203F440531343A1
:104780004B607047E89240000080284008B1FFF776
:10479000EBBF704703F0A4BC034B45F6F0221A6050
:1047A0004AF20F521A60704700C02D401FB59E4953
:1047B000D1F81433DC0139D4D1F8343343F08073A9
:1047C000C1F83433D1F8003343F00103C1F80033AA
:1047D000D1F8043343F00103C1F80433FFF7DCFFE1
:1047E000D1F80433D80703D4D1F81433D9011DD438
:1047F0008D4C4CF2503303AA02A901A8FEF7AAFF80
:10480000039A02A901A8FEF7B5FFD4F80433DA072A
:1048100003D4D4F81433DB0106D40028F0D00721E8
:104820000120FEF791FF01E00028F8D17E49D1F880
:1048300014339C0239D4D1F8343343F40013C1F853
:104840003433D1F8003343F00103C1F80033D1F819
:10485000043343F00103C1F80433FFF79DFFD1F89F
:104860000433D80703D4D1F8143399021DD46E4C05
:104870004CF2503303AA02A901A8FEF76BFF039A7A
:1048800002A901A8FEF776FFD4F80433DA0703D4AF
:10489000D4F814339B0206D40028F0D0052101205F
:1048A000FEF752FF01E00028F8D15F49D1F8143338
:1048B0001C0339D4D1F8343343F40023C1F8343322
:1048C000D1F8003343F00103C1F80033D1F80433C9
:1048D00043F00103C1F80433FFF75EFFD1F804335E
:1048E000D80703D4D1F8143319031DD44E4C4CF21D
:1048F000503303AA02A901A8FEF72CFF039A02A9CC
:1049000001A8FEF737FFD4F80433DA0703D4D4F84C
:1049100014331B0306D40028F0D006210120FEF733
:1049200013FF01E00028F8D13F49D1F814331C04EB
:1049300039D4D1F8343343F40043C1F83433D1F8D7
:10494000003343F00103C1F80033D1F8043343F0DE
:104950000103C1F80433FFF71FFFD1F80433D80770
:1049600003D4D1F8143319041DD42F4C4CF2503316
:1049700003AA02A901A8FEF7EDFE039A02A901A865
:10498000FEF7F8FED4F80433DA0703D4D4F814336E
:104990001B0406D40028F0D057210120FEF7D4FED6
:1049A00001E00028F8D12049D1F81033DC0139D4D6
:1049B000D1F8303343F08073C1F83033D1F800338D
:1049C00043F00103C1F80033D1F8043343F001038D
:1049D000C1F80433FFF7E0FED1F80433D80703D45D
:1049E000D1F81033D9011DD40F4C4CF2503303AA27
:1049F00002A901A8FEF7AEFE039A02A901A8FEF7DC
:104A0000B9FED4F80433DA0703D4D4F81033DB0149
:104A100006D40028F0D057210120FEF795FE01E0D2
:104A20000028F8D104B010BD00C02D40024B012079
:104A30001B689B68184700BF0C0340201FB501236B
:104A400001A8ADF80830034B1B685B68984705B0B8
:104A50005DF804FB0C034020024B03201B689B689D
:104A6000184700BF100340201FB5012301A8ADF86F
:104A70000830034B1B685B68984705B05DF804FB82
:104A800010034020012917D0022917D10C4B1A78A6
:104A9000A2B901220B490C481A70CB780B4A03EBE0
:104AA000430302EB830303608B7803EB430302EBC6
:104AB0008302074B1A607047FFF778BE704700BF4C
:104AC00008034020D2964000100340206C9740001D
:104AD0000C03402003F0E4BA70472DE9F74FCDE90D
:104AE00000010C9908690068092835D8CF684FF68D
:104AF000FF7E0C68D1E901560021A44688B2023439
:104B0000BCF80080F04521D115F8018005EB010AC1
:104B1000B8F1FF0F1AD116F8018006EB0109B8F1C0
:104B2000FF0F13D117F801B007EB0108BBF1FF0F1E
:104B30000CD10099ACF8001001998AF8001089F89E
:104B4000002088F8003003B0BDE8F08F01310A2959
:104B5000D3D14FF6FF70F6E70B6A01221A70F8E71F
:104B600030B54C694FF6FF7334F810209A420DD1DE
:104B70000A69D1E90635198824F8101018801368DD
:104B800003B9288001330020136030BD0120FCE709
:104B90002DE9F04F8DB0CDE90A23169B1A69CDE9B6
:104BA00008011068002870D01A684FF0000C4FF60A
:104BB000FF714FF0FF0900925A6801929A680292C1
:104BC000DA6803929A6914886700009A0898254663
:104BD000D25BA2465E69824236F8144046D1019A01
:104BE0000998525D824241D1029A0A98525D8242EE
:104BF0003CD1039A0B98525D824237D11A68D3F8A0
:104C000010E004925A6805929A68D3E906C00692A9
:104C1000DA680792BCF80020954203D1ACF8004056
:104C2000F1530EE0B0F80080454525D106EB420B6C
:104C3000924636F812209045F8D1ABF80010A0F853
:104C400000A0DEF80020013ACEF8002012B9ACF83E
:104C500000100180049A4FF0010CD153059A515570
:104C6000069A02F80590079A02F805908C42ABD19B
:104C700060460DB0BDE8F08F06EB420836F8122012
:104C80009245F9D1A8F80040CAE78446F0E7F0B5AC
:104C9000C16900234FF6FF72D0E900C7D0E9026571
:104CA000D0E905E42EF813202CF81320FA54F2541E
:104CB000EA5401330A2BF5D12280036A0A800022CC
:104CC0001A70F0BD2DE9F84FFDF786FFDFF8A4A1BB
:104CD0000546DFF8A491FDF77FFF5C4F02B2002389
:104CE000DFF898E12424DFF89881594E44434EF8C8
:104CF0002030DFF890C14AF820300AEB820A49F8E8
:104D000020300CEB04013B54074408F8003009EB59
:104D10008209335402EB8203DFF86CB18044C1F89E
:104D200010A006440BEB830BDFF860A10F624CF878
:104D300004B00AEB830ADFF858B1C1F814A00BEBFA
:104D4000430BDFF850A1434FC1F804B00AEB420A0D
:104D5000DFF844B1C1F818A00BEB430BDFF83CA11E
:104D6000C1F808B00AEB420ADFF834B1C1F81CA060
:104D70000BEB430BDFF82CA1C1F80CB039190AEB8F
:104D8000830AC1F81090DFF8209147F804A009EBDE
:104D90008309DFF818A1C1F82080C1F814900AEB4C
:104DA000430ADFF80C91C1F804A009EB4209DFF8CF
:104DB00004A1DFF80481C1F818900AEB430ADFF878
:104DC000FC90C1F808A009EB4209DFF8F4A0C1F893
:104DD0001C900AEB430ADFF8EC90C1F80CA008EB3A
:104DE000040109EB830948F804901B4C04EB4304CD
:104DF0004C601A4C04EB43048C60194C04EB4304E4
:104E0000CC600EEB82040C61164C04EB83034B6107
:104E1000154B03EB42038B61144B03EB4202144B23
:104E2000CA6101220E6243F8202028B200EBC000C4
:104E300084000CEB8000FFF72AFF3819FFF727FFEB
:104E400008EB0400BDE8F84FFFF721BFF8824020CF
:104E5000688340206881402058824020D4834020CD
:104E6000D082402024844020FC82402004854020C1
:104E70002C83402074834020BC8340204882402003
:104E80003C83402088804020F881402010804020D2
:104E9000948340206C834020FC8340208C834020FE
:104EA0000C854020808240201881402004834020CF
:104EB000848340204083402074844020CC83402061
:104EC00060804020348540202DE9F34105460E46A0
:104ED00017469846FDF780FE044672B60F4B53F80E
:104EE00020300BB9FFF7EEFE24B20D4B3A463146A7
:104EF00004EBC404284603EB840443460094FFF704
:104F0000ECFD4FF6FF73984206D02146FFF728FECE
:104F100062B602B0BDE8F0810120F9E72C834020A1
:104F2000888040202DE9F34105460E4617469846F5
:104F3000FDF752FE044672B60F4B53F820300BB902
:104F4000FFF7C0FE24B20D4B3A46314604EBC404D1
:104F5000284603EB840443460094FFF7BEFD4FF65A
:104F6000FF73984206D02146FFF7FAFD62B602B001
:104F7000BDE8F0810120F9E72C83402068814020C2
:104F80002DE9F34105460E4617469846FDF724FEE7
:104F9000044672B60F4B53F820300BB9FFF792FE60
:104FA00024B20D4B3A46314604EBC404284603EBC9
:104FB000840443460094FFF790FD4FF6FF73984238
:104FC00006D02146FFF7CCFD62B602B0BDE8F08105
:104FD0000120F9E72C8340207484402070B586B00E
:104FE0000646CDE904210393FDF7F6FD044672B6AB
:104FF0000B48059950F82450DDE903322DB9FFF72D
:1050000061FE284662B606B070BD24B2054804EBC6
:10501000C40400EB840430460094FFF7B9FDF1E7C7
:105020002C8340208880402070B586B00646CDE9AC
:1050300004210393FDF7D0FD044672B60B48059991
:1050400050F82450DDE903322DB9FFF73BFE284626
:1050500062B606B070BD24B2054804EBC40400EB90
:10506000840430460094FFF793FDF1E72C83402041
:105070006881402070B586B00646CDE904210393CF
:10508000FDF7AAFD044672B60B48059950F8245066
:10509000DDE903322DB9FFF715FE284662B606B0EA
:1050A00070BD24B2054804EBC40400EB8404304610
:1050B0000094FFF76DFDF1E72C83402074844020BD
:1050C00010B5FDF789FD72B60D4B53F820302BB9A2
:1050D0000124FFF7F7FD62B6204610BD094B002200
:1050E00053F8204043F8202000B2074BB4FA84F470
:1050F00000EBC000640903EB8000FFF7C8FDEAE79E
:105100002C834020748340208880402010B5FDF718
:1051100063FD72B60D4B53F820302BB90124FFF715
:10512000D1FD62B6204610BD094B002253F8204045
:1051300043F8202000B2074BB4FA84F400EBC0001F
:10514000640903EB8000FFF7A2FDEAE72C8340200F
:10515000BC8340206881402010B5FDF73DFD72B64C
:105160000D4B53F820302BB90124FFF7ABFD62B68D
:10517000204610BD094B002253F8204043F8202060
:1051800000B2074BB4FA84F400EBC000640903EBEF
:105190008000FFF77CFDEAE72C8340204882402016
:1051A00074844020032810B50446D4BF0020012099
:1051B000FDF788FAD42C04F11004CCBF00200120A4
:1051C000FDF780FA4FF0E023D3F8083D12B153F811
:1051D0002400106043F82410BFF36F8FBFF34F8F8C
:1051E00010BD0246C04308B5C00FFDF76BFAD42AC4
:1051F000CCBF00200120FDF765FABFF36F8FBFF32E
:105200004F8F0120530902F01F024FF0E02140337D
:1052100000FA02F241F82320BFF36F8FBFF34F8FE4
:1052200008BD0246C04308B5C00FFDF74BFAD42AAB
:10523000CCBF00200120FDF745FABFF36F8FBFF30D
:105240004F8F0120530902F01F024FF0E02160331D
:1052500000FA02F241F82320BFF36F8FBFF34F8FA4
:1052600008BD0328024608B5D4BF00200120FDF781
:1052700029FAD42A02F1E022CCBF00200120FDF758
:1052800021FA0F294FEA01118CBF00200120C9B279
:10529000FDF718FA82F8001408BD0328024608B585
:1052A000D4BF00200120FDF70DFAD42A02F1E0223C
:1052B000CCBF00200120FDF705FA92F80004000998
:1052C00008BD0246C0434FF0E021C00F08B5FDF70E
:1052D000F9F9D42ACCBF00200120FDF7F3F9012011
:1052E000530902F01F02A03300FA02F241F8232012
:1052F00008BD0246C0434FF0E021C00F08B5FDF7DE
:10530000E1F9D42ACCBF00200120FDF7DBF9012010
:10531000530902F01F02803300FA02F241F8232001
:1053200008BD0246C0434FF0E021C00F08B5FDF7AD
:10533000C9F9D42ACCBF00200120FDF7C3F95309D5
:1053400002F01F02803351F82300D04000F001002A
:1053500008BD0246C0434FF0E021C00F08B5FDF77D
:10536000B1F9D42ACCBF00200120FDF7ABF95309D5
:1053700002F01F02C03351F82300D04000F00100BA
:1053800008BDF8B5044600384FF000064FF00C0792
:1053900018BF0120FDF796F920685F288CBF002018
:1053A0000120FDF78FF92368B34201D80020F8BD32
:1053B00007FB06F563685859FFF783FF63685A19BE
:1053C00058595179FFF74DFF636800225919585910
:1053D0008968FFF7E7FE63685A19585912791AB1BC
:1053E000FFF7FFFE0136DEE7FFF71BFFFAE7FFF7E7
:1053F000D9BEFFF7F6BEFFF714BFFFF732BFFFF7C6
:105400004CBFFFF75EBFFFF774BF08B5FFF789FF1A
:10541000003818BF012008BD08B5FFF79AFF003813
:1054200018BF012008BD00001E4B1F4A53F8201072
:105430001E4B52F8202053F8203070B5586855693B
:105440000446012D14F8012B05D8D8685C6001389A
:10545000D8600A7770BDDE6892B25C60012E10D110
:10546000D8680138D860022DC2F30023D4B24FEAC5
:1054700083700ED18A6922F0804202438A610C77E0
:10548000E8E744780230586042EA0422D8680238DB
:10549000E8E78B69C2F3402223F04043034343EA29
:1054A000C272EBE714984000C4854020A4854020D8
:1054B000204A214B10B552F8204053F82010626961
:1054C0001E4B012A53F8203098680FD8CA69027021
:1054D000626922B999680A7802F07F020A709A68B4
:1054E00001329A601A69013A1A6110BD022A15D177
:1054F0008C69CA69E10FD2B242EA01221C69D1B2B9
:10550000012C0170EBD09968120A481C98604A700F
:105510009A6801329A601A69023AE5E78A698C69E9
:10552000C969520DE40FC9B202F4007241EA0421C4
:105530000A43E3E7C485402014984000A485402036
:1055400038B50C460021154600F06BFE2368184460
:10555000A842206034BF0020012038BD244B002128
:1055600030B553F8204085B0224B039153F82050BA
:10557000A36923F00063A361A36923F08073A3618F
:10558000A36923F08063A361A36923F00073A3617F
:10559000A36923F40013A361A36923F48023A36107
:1055A000EB69062B1AD1084600F039FE0021029063
:1055B000084600F03BFE0246A3695B0307D503A93A
:1055C00002A80192FFF7BCFF019A0028F4D003A9BA
:1055D00002A8FFF7B5FF08B10323EB61E3690023DD
:1055E0006B75EA69022A00D1EB6105B030BD00BFDE
:1055F00014984000A485402030B5002385B0039363
:105600001C4B53F820401C4B53F82050AB69022B25
:1056100003D0A36923F40003A361A369002023F44A
:105620008003A36100F0FBFD00210290084600F01A
:10563000FDFD024663695B0207D403A902A801923B
:10564000FFF77EFF019A0028F4D003A902A8FFF714
:1056500077FF08B10323AB61A36923F40023A3619F
:10566000AB69022B4FF0000300D1AB612B7505B085
:1056700030BD00BF14984000A48540200728024692
:1056800070B58CBF00200120FDF726F8081E0D46DE
:10569000494918BF0120FDF71FF851F82200B0FA60
:1056A00080F04009FDF718F8287A20288CBF0020E8
:1056B0000120FDF711F8686841F6FE730138984241
:1056C0008CBF00200120FDF707F83C4B6E6A53F8B1
:1056D00022403B4B41F82260002143F82250202217
:1056E0006B69032B09BFE8680120B0FA80F040091C
:1056F000FCF7F2FF3046FDF7BDF9324B2361324B28
:1057000063610023A3612B7A072B03D8226942F43B
:1057100000322261013B22691B0622F0F85203F09D
:10572000F8531343236122696B6822F4FF52C3F3D9
:105730000C0322F01F021343EA6823616B69002AFD
:105740002FD0022B1ED1236943F00053236122F096
:105750000101A36902F0010223F002030B43A361DC
:10576000A36923F0010313432A69A361236923F486
:10577000005343EA423323610023B361F3612B6892
:10578000336070BD3BB9A36923F40163A36123694E
:1057900023F00053DAE7A16921F0100141EA031375
:1057A000F4E7032BCFD01BB9A36943F40063EDE703
:1057B000A169013BF0E700BFA48540201498400098
:1057C000C48540200400000F00C01FC00728014608
:1057D00038B51C4C8CBF00200120FCF77DFF54F82D
:1057E0002150194B281E53F8212018BF0120FCF727
:1057F00073FF2B7D1BBB687D00F0FF03F8B9906938
:1058000044F8213020F400009061906920F4800079
:105810009061906920F400109061906920F0006020
:105820009061906920F080709061906920F08060B4
:105830009061906920F000709061184638BD012099
:10584000FCE700BFA48540201498400007282DE9FC
:10585000F04F064685B08CBF002001209946FCF72A
:105860003BFF081EDFF8E4B08846174618BF01204A
:10587000FCF732FF101E18BF0120FCF72DFF5BF86C
:105880002650314B281E53F8264018BF0120FCF744
:1058900023FF01F0CBFB2B7D03F0FF0A53BB012359
:1058A0002B7501F0DDFB0223EF605046AB61A3696D
:1058B000C5F8048023F400035BF82670CDF80CA033
:1058C000A361A36923F48003A361A36943F40023C4
:1058D000A36100F0A4FC51460290484600F0A6FCEB
:1058E0000246FB6863B903A902A8FFF729FE00BBC3
:1058F000B86120E001F0B4FB022005B0BDE8F08FF4
:1059000003A902A80192FFF71BFE019A0028EAD121
:1059100030460192FFF788FD019A63691B02E0D4CB
:1059200003A902A80192FFF70BFE019A0028F4D008
:10593000D7E70323BB61A36923F40023A3610023FA
:105940002B75A869D9E700BF14984000A4854020B2
:1059500007282DE9F04704468CBF00200120DFF81E
:10596000ACA0FCF7B9FE081E0F46164618BF012072
:10597000FCF7B2FE101E18BF0120FCF7ADFE5AF86E
:105980002490204BB9F1000053F8248018BF012067
:10599000FCF7A2FE01F07CFB99F8143003F0FF0540
:1059A000C3B9012389F8143001F08CFBB8F1000071
:1059B00018BF0120FCF790FED8F8180001288CBF12
:1059C00000200120FCF788FED8F81830012B06D003
:1059D000284602E001F076FB0220BDE8F0870A4B82
:1059E00002215AF8242053F82430D6605760916180
:1059F0009A6942F400229A619A6942F400029A611B
:105A0000E6E700BFC485402014984000A4854020EC
:105A10000728024670B58CBF00200120FCF75CFE11
:105A2000134B0D4653F82240124B201E53F82220F0
:105A300018BF0120FCF750FE101E18BF0120FCF714
:105A40004BFE89B19369012B0ED101F0E9FBA669E8
:105A5000237D03F0FF022BB1E3682B6001F0FAFB1A
:105A6000304670BD2A60F9E701F0DAFBA669F5E778
:105A7000A4854020C48540200728024638B58CBF45
:105A800000200120FCF728FE124B53F82250124B45
:105A900053F82240114B201E53F8221018BF01204A
:105AA000FCF71AFE081E18BF0120FCF715FE237D27
:105AB0005BB10623A3618B69012B02D11046FFF76E
:105AC0009BFDAB6A43F40043AB62A069C31E58421E
:105AD000584138BD14984000A4854020C48540201A
:105AE00007282DE9F04F06468CBF00200120DFF883
:105AF0008491884617462DED028B91B008EE103A3E
:105B0000FCF7EAFD081E18BF0120FCF7E5FD101E9A
:105B100018BF0120FCF7E0FD59F82650544B281E11
:105B200053F8264018BF0120FCF7D6FD01F0E2FA39
:105B30006B7D03F0FF0B002B40F08B8001230DF1F8
:105B4000100A6B7501F0F0FA02232F6108AFEB61C8
:105B5000A36AC5F808800DF1300843F48043DFF8EC
:105B600018C1CDF80CB0A362A36923F40013A3619C
:105B7000A36943F48023A3619CE80F008AE80F0027
:105B80000CF110030CF1200C0FCB87E80F009CE800
:105B90000F0088E80F00584659F8269000F03FFBA8
:105BA0005946029018EE100A00F040FB0246D9F860
:105BB0001030002B31D003A902A80192FFF7C0FCDE
:105BC000019A50BB6369990207D403A902A8019204
:105BD000FFF7B6FC019A0028F4D00021D44608460D
:105BE0005CF804EB636923FA0EF3DB0706D557F87C
:105BF0002130C9F81C3058F82130184301310429EC
:105C0000EED170B3A36923F48023A361636923F009
:105C1000C02323F4F8130343636103A902A8FFF729
:105C20008FFC10B10323C9F81C30EB69022B01D1A2
:105C30000023EB612B691BB9EA69052A00D1EB61EE
:105C4000A36923F48023A36100236B75E369E869EA
:105C500002E001F069FA022011B0BDEC028BBDE850
:105C6000F08F30460192FFF723FC019A9FE700BFB7
:105C700014984000A4854020EC80400007282DE9BE
:105C8000F04704468CBF00200120DFF8E4A0FCF7B9
:105C900023FD081E0F46164618BF0120FCF71CFD09
:105CA000101E18BF0120FCF717FD5AF824902E4B48
:105CB000B9F1000053F8248018BF0120FCF70CFD57
:105CC00001F04AFA99F8153003F0FF0553B90123A2
:105CD00089F8153001F05AFAD8F81820012A14D0A2
:105CE000284610E001F052FAB8F1000018BF012078
:105CF000FCF7F2FCD8F8180001288CBF0020012026
:105D0000FCF7EAFC0220BDE8F0875AF82400174BA4
:105D10004275022253F824300661C2615A698760D5
:105D200022F0C02222F4F81242F470225A619A6AD8
:105D300042F480429A629A6942F480229A619A6996
:105D400042F000629A619A6942F080729A619A699F
:105D500042F080629A619A6942F000729A619A698F
:105D600042F400129A61BBE7C485402014984000B9
:105D7000A48540200728024670B58CBF0020012072
:105D8000FCF7AAFC134B0D4653F82240124B201E81
:105D900053F8222018BF0120FCF79EFC101E18BFEC
:105DA0000120FCF799FC89B19369012B0ED101F018
:105DB00005FAE669637D03F0FF022BB123692B60CE
:105DC00001F016FA304670BD2A60F9E701F0F6F9E5
:105DD000E669F5E7A4854020C485402007280246EF
:105DE00038B58CBF00200120FCF776FC174B53F828
:105DF0002250174B53F82240164B201E53F8221006
:105E000018BF0120FCF768FC081E18BF0120FCF732
:105E100063FC637D03F0FF00BBB10623E3618B6984
:105E2000012B02D11046FFF799FB6B6923F0C023C9
:105E300023F4F81343F470236B61AB6A43F480439B
:105E4000AB62E069C31E5842584138BD1498400007
:105E5000A4854020C485402007282DE9F843054645
:105E60008CBF00200120FCF737FC3A4B53F825404B
:105E7000394B53F82550281E18BF0120FCF72CFC85
:105E80002B7D002B64D16B7D002B61D1101E4FEA5E
:105E9000810718BF0120FCF71FFCB2EB810F2CBF5C
:105EA00001200020FCF718FCB2FBF7F39EB2B30010
:105EB000B2FBF3F3B2FBF1FE994234BFA3EB01084E
:105EC000A1EB0308BEF1200F08D8BEF1040F07D8DC
:105ED0000420226942F40032226123E04FF0200EB8
:105EE0000F4404204FF0050CB2FBF7F91FFA89F3B9
:105EF0000F440CFB03F3B2FBF3F3994234BF5B1A7C
:105F0000CB1A434598BF60460CF1010C9CBF1FFAA9
:105F100089F69846E645E7D200FB06F30728B2FB70
:105F2000F3F3D6D901382269C6F30C06000622F035
:105F3000F85200F0F850104320610020226922F44A
:105F4000FF5222F01F02324322612B60BDE8F8832A
:105F50000220FBE714984000A48540200728024651
:105F600008B58CBF00200120FCF7B6FB081E18BF47
:105F70000120FCF7B1FB034B53F822301B680B6088
:105F800008BD00BFA4854020072810B504468CBF7B
:105F900000200120FCF7A0FB081E18BF0120FCF721
:105FA0009BFB101E18BF0120FCF796FB024B53F819
:105FB00024305960DA6010BDA4854020072810B550
:105FC00004468CBF00200120FCF786FB081E18BF8A
:105FD0000120FCF781FB101E18BF0120FCF77CFBA1
:105FE000024B53F8243099601A6110BDA4854020FB
:105FF00007282DE9F14F0546824F8CBF0020012074
:10600000FCF76AFB804B57F8251053F8254059B927
:10601000E369636923F0C02323F4F81343F4702386
:10602000636101B0BDE8F08F6269784EC2F3C0438E
:10603000120356F825805CD5A069C0F3C062000148
:106040000AD50523CB61636923F0C02323F4F81339
:1060500043F40023636100236069C0F3404C800374
:1060600010D57BB9A069C0F3406E800143D50722EB
:10607000CA61626922F0C02222F4F81242F40032AE
:10608000626172466069C0F3004CC00310D57BB9F1
:10609000A069C0F3006EC0012FD50822CA616269F1
:1060A00022F0C02222F4F81242F480326261724679
:1060B0006069400323D52BBBA369580122D509236E
:1060C000CB61636923F0C02323F4F81343F48023E6
:1060D0006361D8F81830012B02D12846FFF73EFA49
:1060E000D8F81C3073B1D8F82020032128469847EF
:1060F00008E01A46B0E76346C4E76346D8E70BB941
:10610000002AE6D163699A02C3F3405824D5A369F3
:10611000C3F3405A9B021FD557F825B0284656F8BE
:106120002590FFF7C5F9DBF8101031B9D9F81C300C
:106130001BB1D9F8202028469847DBF810305BB90E
:106140002846FFF70BFAD9F81C302BB1D046D9F806
:10615000202002212846984763691802C3F3C05AD9
:1061600003D5B8F1000F25D0D04663695A027FF5F8
:1061700058AFB8F1000F7FF454AFA3695B027FF50D
:1061800050AF57F82530DB68002B7FF44AAF56F844
:106190002540A369012B02D12846FFF72DFAE369B8
:1061A000002B3FF43EAF226A0221284601B0BDE831
:1061B000F04F1847A3691902C3F3C058D5D557F853
:1061C0002590D9F80C30002BCED0284656F825B0B3
:1061D000FFF72AF9D9F80C303BB9DBF81C3023B1B2
:1061E000DBF82020012128469847D9F80C30002BF5
:1061F000BAD1A36923F40003A361A36943F4800324
:10620000A361B2E7A485402014984000C4854020D3
:106210000020FFF7EDBE08B100BEFDE7704700208B
:106220007047B1FA81F0400970477047002918BFE4
:10623000002070474FF0E02300226FF07F411A6189
:1062400059619A6105221A6170474FF0E0239869FD
:1062500020F07F40704701464FF0E020826943699B
:1062600022F07F42934209D30B68934204D24069E3
:10627000801A18440A607047981AFBE70020F9E773
:1062800008B5FCF7A9FC094B53F820203AB9EFF305
:106290001082D10700D472B6054941F8202053F886
:1062A0002020013243F8202008BD00BF0486402092
:1062B0001486402008B5FCF78FFC084B53F82020CB
:1062C000013A43F82020064A52F82020D20703D48E
:1062D00053F8203003B962B608BD00BF04864020E1
:1062E0001486402008B5FCF777FC094B53F82020B2
:1062F0003AB9EFF31082D10700D472B6054941F8DC
:10630000202053F82020013243F8202008BD00BF90
:10631000E4854020F485402008B5FCF75DFC084B7F
:1063200053F82020013A43F82020064A52F8202052
:10633000D20703D453F8203003B962B608BD00BFBA
:10634000E4854020F485402008B5FCF745FC094B66
:1063500053F820203AB9EFF31082D10700D472B677
:10636000054941F8202053F82020013243F820202D
:1063700008BD00BF448640205486402008B5FCF785
:106380002BFC084B53F82020013A43F82020064A02
:1063900052F82020D20703D453F8203003B962B654
:1063A00008BD00BF448640205486402008B5FCF755
:1063B00013FC094B53F820203AB9EFF31082D107B0
:1063C00000D472B6054941F8202053F8202001324C
:1063D00043F8202008BD00BF24864020348640209A
:1063E00008B5FCF7F9FB084B53F82020013A43F8B5
:1063F0002020064A52F82020D20703D453F8203038
:1064000003B962B608BD00BF248640203486402010
:1064100008B5FCF7E1FB094B53F820203AB9EFF33C
:106420001082D10700D472B6054941F8202053F8F4
:106430002020013243F8202008BD00BFA486402060
:10644000B486402008B5FCF7C7FB084B53F8202062
:10645000013A43F82020064A52F82020D20703D4FC
:1064600053F8203003B962B608BD00BFA4864020AF
:10647000B486402008B5FCF7AFFB094B53F8202049
:106480003AB9EFF31082D10700D472B6054941F84A
:10649000202053F82020013243F8202008BD00BFFF
:1064A000648640207486402008B5FCF795FB084BB5
:1064B00053F82020013A43F82020064A52F82020C1
:1064C000D20703D453F8203003B962B608BD00BF29
:1064D000648640207486402008B5FCF77DFB094B9C
:1064E00053F820203AB9EFF31082D10700D472B6E6
:1064F000054941F8202053F82020013243F820209C
:1065000008BD00BF848640209486402008B5FCF773
:1065100063FB084B53F82020013A43F82020064A39
:1065200052F82020D20703D453F8203003B962B6C2
:1065300008BD00BF848640209486402008B5FCF743
:106540004BFB094B53F820203AB9EFF31082D107E7
:1065500000D472B6054941F8202053F820200132BA
:1065600043F8202008BD00BF94894020D4884020F3
:1065700008B5FCF731FB084B53F82020013A43F8EB
:106580002020064A52F82020D20703D453F82030A6
:1065900003B962B608BD00BF94894020D48840206A
:1065A00008B5FCF719FB094B53F820203AB9EFF373
:1065B0001082D10700D472B6054941F8202053F863
:1065C0002020013243F8202008BD00BF048740206E
:1065D0009487402008B5FCF7FFFA084B53F82020B9
:1065E000013A43F82020064A52F82020D20703D46B
:1065F00053F8203003B962B608BD00BF04874020BD
:106600009487402008B5FCF7E7FA094B53F820209F
:106610003AB9EFF31082D10700D472B6054941F8B8
:10662000202053F82020013243F8202008BD00BF6D
:1066300064894020B487402008B5FCF7CDFA084BA8
:1066400053F82020013A43F82020064A52F820202F
:10665000D20703D453F8203003B962B608BD00BF97
:1066600064894020B487402008B5FCF7B5FA094B8F
:1066700053F820203AB9EFF31082D10700D472B654
:10668000054941F8202053F82020013243F820200A
:1066900008BD00BF24894020A489402008B5FCF72C
:1066A0009BFA084B53F82020013A43F82020064A71
:1066B00052F82020D20703D453F8203003B962B631
:1066C00008BD00BF24894020A489402008B5FCF7FC
:1066D00083FA094B53F820203AB9EFF31082D1071F
:1066E00000D472B6054941F8202053F82020013229
:1066F00043F8202008BD00BF148A402014874020A2
:1067000008B5FCF769FA084B53F82020013A43F822
:106710002020064A52F82020D20703D453F8203014
:1067200003B962B608BD00BF148A40201487402018
:1067300008B5FCF751FA094B53F820203AB9EFF3AA
:106740001082D10700D472B6054941F8202053F8D1
:106750002020013243F8202008BD00BFF4884020EB
:106760004487402008B5FCF737FA084B53F820203F
:10677000013A43F82020064A52F82020D20703D4D9
:1067800053F8203003B962B608BD00BFF48840203A
:106790004487402008B5FCF71FFA094B53F8202026
:1067A0003AB9EFF31082D10700D472B6054941F827
:1067B000202053F82020013243F8202008BD00BFDC
:1067C000A48840203489402008B5FCF705FA084B1E
:1067D00053F82020013A43F82020064A52F820209E
:1067E000D20703D453F8203003B962B608BD00BF06
:1067F000A48840203489402008B5FCF7EDF9094B06
:1068000053F820203AB9EFF31082D10700D472B6C2
:10681000054941F8202053F82020013243F8202078
:1068200008BD00BF74874020248A402008B5FCF7CB
:10683000D3F9084B53F82020013A43F82020064AA8
:1068400052F82020D20703D453F8203003B962B69F
:1068500008BD00BF74874020248A402008B5FCF79B
:10686000BBF9094B53F820203AB9EFF31082D10756
:1068700000D472B6054941F8202053F82020013297
:1068800043F8202008BD00BF74884020C486402003
:1068900008B5FCF7A1F9084B53F82020013A43F85A
:1068A0002020064A52F82020D20703D453F8203083
:1068B00003B962B608BD00BF74884020C48640207A
:1068C00008B5FCF789F9094B53F820203AB9EFF3E2
:1068D0001082D10700D472B6054941F8202053F840
:1068E0002020013243F8202008BD00BF348840201A
:1068F000048A402008B5FCF76FF9084B53F82020B4
:10690000013A43F82020064A52F82020D20703D447
:1069100053F8203003B962B608BD00BF3488402068
:10692000048A402008B5FCF757F9094B53F820209A
:106930003AB9EFF31082D10700D472B6054941F895
:10694000202053F82020013243F8202008BD00BF4A
:10695000F4864020B489402008B5FCF73DF9084B87
:1069600053F82020013A43F82020064A52F820200C
:10697000D20703D453F8203003B962B608BD00BF74
:10698000F4864020B489402008B5FCF725F9094B6E
:1069900053F820203AB9EFF31082D10700D472B631
:1069A000054941F8202053F82020013243F82020E7
:1069B00008BD00BF04884020D489402008B5FCF7FA
:1069C0000BF9084B53F82020013A43F82020064ADF
:1069D00052F82020D20703D453F8203003B962B60E
:1069E00008BD00BF04884020D489402008B5FCF7CA
:1069F000F3F8094B53F820203AB9EFF31082D1078E
:106A000000D472B6054941F8202053F82020013205
:106A100043F8202008BD00BF4489402064884020FE
:106A200008B5FCF7D9F8084B53F82020013A43F891
:106A30002020064A52F82020D20703D453F82030F1
:106A400003B962B608BD00BF448940206488402075
:106A500008B5FCF7C1F8094B53F820203AB9EFF319
:106A60001082D10700D472B6054941F8202053F8AE
:106A70002020013243F8202008BD00BFE4884020D8
:106A80005489402008B5FCF7A7F8084B53F820209C
:106A9000013A43F82020064A52F82020D20703D4B6
:106AA00053F8203003B962B608BD00BFE488402027
:106AB0005489402008B5FCF78FF8094B53F8202083
:106AC0003AB9EFF31082D10700D472B6054941F804
:106AD000202053F82020013243F8202008BD00BFB9
:106AE000C4894020348A402008B5FCF775F8084B6B
:106AF00053F82020013A43F82020064A52F820207B
:106B0000D20703D453F8203003B962B608BD00BFE2
:106B1000C4894020348A402008B5FCF75DF8094B51
:106B200053F820203AB9EFF31082D10700D472B69F
:106B3000054941F8202053F82020013243F8202055
:106B400008BD00BF24874020A487402008B5FCF77B
:106B500043F8084B53F82020013A43F82020064A16
:106B600052F82020D20703D453F8203003B962B67C
:106B700008BD00BF24874020A487402008B5FCF74B
:106B80002BF8094B53F820203AB9EFF31082D107C4
:106B900000D472B6054941F8202053F82020013274
:106BA00043F8202008BD00BF14884020948840206E
:106BB00008B5FCF711F8084B53F82020013A43F8C8
:106BC0002020064A52F82020D20703D453F8203060
:106BD00003B962B608BD00BF1488402094884020E5
:106BE00008B5FBF7F9FF094B53F820203AB9EFF34A
:106BF0001082D10700D472B6054941F8202053F81D
:106C00002020013243F8202008BD00BF0489402025
:106C10008489402008B5FBF7DFFF084B53F820209C
:106C2000013A43F82020064A52F82020D20703D424
:106C300053F8203003B962B608BD00BF0489402074
:106C40008489402008B5FBF7C7FF094B53F8202083
:106C50003AB9EFF31082D10700D472B6054941F872
:106C6000202053F82020013243F8202008BD00BF27
:106C7000E4894020E486402008B5FBF7ADFF084BCF
:106C800053F82020013A43F82020064A52F82020E9
:106C9000D20703D453F8203003B962B608BD00BF51
:106CA000E4894020E486402008B5FBF795FF094BB6
:106CB00053F820203AB9EFF31082D10700D472B60E
:106CC000054941F8202053F82020013243F82020C4
:106CD00008BD00BF54874020D487402008B5FBF78B
:106CE0007BFF084B53F82020013A43F82020064A46
:106CF00052F82020D20703D453F8203003B962B6EB
:106D000008BD00BF54874020D487402008B5FBF75A
:106D100063FF094B53F820203AB9EFF31082D107F3
:106D200000D472B6054941F8202053F820200132E2
:106D300043F8202008BD00BF44884020C48840207C
:106D400008B5FBF749FF084B53F82020013A43F8F8
:106D50002020064A52F82020D20703D453F82030CE
:106D600003B962B608BD00BF44884020C4884020F3
:106D700008B5FBF731FF094B53F820203AB9EFF380
:106D80001082D10700D472B6054941F8202053F88B
:106D90002020013243F8202008BD00BFE4874020B6
:106DA0005488402008B5FBF717FF084B53F8202004
:106DB000013A43F82020064A52F82020D20703D493
:106DC00053F8203003B962B608BD00BFE487402005
:106DD0005488402008B5FBF7FFFE094B53F82020EC
:106DE0003AB9EFF31082D10700D472B6054941F8E1
:106DF000202053F82020013243F8202008BD00BF96
:106E000084874020F487402008B5FBF7E5FE084B57
:106E100053F82020013A43F82020064A52F8202057
:106E2000D20703D453F8203003B962B608BD00BFBF
:106E300084874020F487402008B5FBF7CDFE094B3E
:106E400053F820203AB9EFF31082D10700D472B67C
:106E5000054941F8202053F82020013243F8202032
:106E600008BD00BF848840203487402008B5FBF768
:106E7000B3FE084B53F82020013A43F82020064A7D
:106E800052F82020D20703D453F8203003B962B659
:106E900008BD00BF848840203487402008B5FBF738
:106EA0009BFE094B53F820203AB9EFF31082D1072B
:106EB00000D472B6054941F8202053F82020013251
:106EC00043F8202008BD00BF74894020248840205A
:106ED00008B5FBF781FE084B53F82020013A43F830
:106EE0002020064A52F82020D20703D453F820303D
:106EF00003B962B608BD00BF7489402024884020D1
:106F000008B5FBF769FE094B53F820203AB9EFF3B7
:106F10001082D10700D472B6054941F8202053F8F9
:106F20002020013243F8202008BD00BFD486402035
:106F30001489402008B5FBF74FFE084B53F820207A
:106F4000013A43F82020064A52F82020D20703D401
:106F500053F8203003B962B608BD00BFD486402084
:106F60001489402008B5FBF737FE094B53F8202061
:106F70003AB9EFF31082D10700D472B6054941F84F
:106F8000202053F82020013243F8202008BD00BF04
:106F9000C4874020F489402008B5FBF71DFE084B4C
:106FA00053F82020013A43F82020064A52F82020C6
:106FB000D20703D453F8203003B962B608BD00BF2E
:106FC000C4874020F489402008B5FBF705FE094B33
:106FD00053F820203AB9EFF31082D10700D472B6EB
:106FE000054941F8202053F82020013243F82020A1
:106FF00008BD00BFB48840206487402008B5FBF777
:10700000EBFD084B53F82020013A43F82020064AB4
:1070100052F82020D20703D453F8203003B962B6C7
:1070200008BD00BFB48840206487402008B5FBF746
:10703000D3FD094B53F820203AB9EFF31082D10762
:1070400000D472B6054941F8202053F820200132BF
:1070500043F8202008BD00BF048C4020648C4020F1
:1070600008B5FBF7B9FD084B53F82020013A43F867
:107070002020064A52F82020D20703D453F82030AB
:1070800003B962B608BD00BF048C4020648C402068
:1070900008B5FBF7A1FD094B53F820203AB9EFF3EF
:1070A0001082D10700D472B6054941F8202053F868
:1070B0002020013243F8202008BD00BF048B40206F
:1070C000448B402008B5FBF787FD084B53F8202080
:1070D000013A43F82020064A52F82020D20703D470
:1070E00053F8203003B962B608BD00BF048B4020BE
:1070F000448B402008B5FBF76FFD094B53F8202067
:107100003AB9EFF31082D10700D472B6054941F8BD
:10711000202053F82020013243F8202008BD00BF72
:10712000848B4020C48B402008B5FBF755FD084BED
:1071300053F82020013A43F82020064A52F8202034
:10714000D20703D453F8203003B962B608BD00BF9C
:10715000848B4020C48B402008B5FBF73DFD094BD4
:1071600053F820203AB9EFF31082D10700D472B659
:10717000054941F8202053F82020013243F820200F
:1071800008BD00BF948A4020E48A402008B5FBF780
:1071900023FD084B53F82020013A43F82020064AEB
:1071A00052F82020D20703D453F8203003B962B636
:1071B00008BD00BF948A4020E48A402008B5FBF750
:1071C0000BFD094B53F820203AB9EFF31082D10799
:1071D00000D472B6054941F8202053F8202001322E
:1071E00043F8202008BD00BF548C4020948C4020E0
:1071F00008B5FBF7F1FC084B53F82020013A43F89F
:107200002020064A52F82020D20703D453F8203019
:1072100003B962B608BD00BF548C4020948C402056
:1072200008B5FBF7D9FC094B53F820203AB9EFF326
:107230001082D10700D472B6054941F8202053F8D6
:107240002020013243F8202008BD00BFD48C40200C
:10725000548A402008B5FBF7BFFC084B53F82020A8
:10726000013A43F82020064A52F82020D20703D4DE
:1072700053F8203003B962B608BD00BFD48C40205B
:10728000548A402008B5FBF7A7FC094B53F820208F
:107290003AB9EFF31082D10700D472B6054941F82C
:1072A000202053F82020013243F8202008BD00BFE1
:1072B000E48B4020348C402008B5FBF78DFC084B54
:1072C00053F82020013A43F82020064A52F82020A3
:1072D000D20703D453F8203003B962B608BD00BF0B
:1072E000E48B4020348C402008B5FBF775FC094B3B
:1072F00053F820203AB9EFF31082D10700D472B6C8
:10730000054941F8202053F82020013243F820207D
:1073100008BD00BFD48A4020248B402008B5FBF76D
:107320005BFC084B53F82020013A43F82020064A22
:1073300052F82020D20703D453F8203003B962B6A4
:1073400008BD00BFD48A4020248B402008B5FBF73D
:1073500043FC094B53F820203AB9EFF31082D107D0
:1073600000D472B6054941F8202053F8202001329C
:1073700043F8202008BD00BF648B4020A48B402030
:1073800008B5FBF729FC084B53F82020013A43F8D5
:107390002020064A52F82020D20703D453F8203088
:1073A00003B962B608BD00BF648B4020A48B4020A7
:1073B00008B5FBF711FC094B53F820203AB9EFF35D
:1073C0001082D10700D472B6054941F8202053F845
:1073D0002020013243F8202008BD00BF748A4020DD
:1073E000B48A402008B5FBF7F7FB084B53F8202080
:1073F000013A43F82020064A52F82020D20703D44D
:1074000053F8203003B962B608BD00BF748A40202B
:10741000B48A402008B5FBF7DFFB094B53F8202066
:107420003AB9EFF31082D10700D472B6054941F89A
:10743000202053F82020013243F8202008BD00BF4F
:10744000248C4020748C402008B5FBF7C5FB084B0A
:1074500053F82020013A43F82020064A52F8202011
:10746000D20703D453F8203003B962B608BD00BF79
:10747000248C4020748C402008B5FBF7ADFB094BF1
:1074800053F820203AB9EFF31082D10700D472B636
:10749000054941F8202053F82020013243F82020EC
:1074A00008BD00BFB48C4020F48C402008B5FBF729
:1074B00093FB084B53F82020013A43F82020064A5A
:1074C00052F82020D20703D453F8203003B962B613
:1074D00008BD00BFB48C4020F48C402008B5FBF7F9
:1074E0007BFB094B53F820203AB9EFF31082D10708
:1074F00000D472B6054941F8202053F8202001320B
:1075000043F8202008BD00BF148B4020848C40200D
:1075100008B5FBF761FB084B53F82020013A43F80C
:107520002020064A52F82020D20703D453F82030F6
:1075300003B962B608BD00BF148B4020848C402084
:1075400008B5FBF749FB094B53F820203AB9EFF394
:107550001082D10700D472B6054941F8202053F8B3
:107560002020013243F8202008BD00BF348B40208A
:10757000A48C402008B5FBF72FFB084B53F82020C4
:10758000013A43F82020064A52F82020D20703D4BB
:1075900053F8203003B962B608BD00BF348B4020D9
:1075A000A48C402008B5FBF717FB094B53F82020AB
:1075B0003AB9EFF31082D10700D472B6054941F809
:1075C000202053F82020013243F8202008BD00BFBE
:1075D000548B4020C48C402008B5FBF7FDFA084BC3
:1075E00053F82020013A43F82020064A52F8202080
:1075F000D20703D453F8203003B962B608BD00BFE8
:10760000548B4020C48C402008B5FBF7E5FA094BA9
:1076100053F820203AB9EFF31082D10700D472B6A4
:10762000054941F8202053F82020013243F820205A
:1076300008BD00BF748B4020E48C402008B5FBF7E8
:10764000CBFA084B53F82020013A43F82020064A91
:1076500052F82020D20703D453F8203003B962B681
:1076600008BD00BF748B4020E48C402008B5FBF7B8
:10767000B3FA094B53F820203AB9EFF31082D1073F
:1076800000D472B6054941F8202053F82020013279
:1076900043F8202008BD00BF948B4020448A40203E
:1076A00008B5FBF799FA084B53F82020013A43F844
:1076B0002020064A52F82020D20703D453F8203065
:1076C00003B962B608BD00BF948B4020448A4020B5
:1076D00008B5FBF781FA094B53F820203AB9EFF3CC
:1076E0001082D10700D472B6054941F8202053F822
:1076F0002020013243F8202008BD00BFB48B402079
:10770000648A402008B5FBF767FA084B53F820203D
:10771000013A43F82020064A52F82020D20703D429
:1077200053F8203003B962B608BD00BFB48B4020C7
:10773000648A402008B5FBF74FFA094B53F8202024
:107740003AB9EFF31082D10700D472B6054941F877
:10775000202053F82020013243F8202008BD00BF2C
:10776000D48B4020848A402008B5FBF735FA084BBB
:1077700053F82020013A43F82020064A52F82020EE
:10778000D20703D453F8203003B962B608BD00BF56
:10779000D48B4020848A402008B5FBF71DFA094BA2
:1077A00053F820203AB9EFF31082D10700D472B613
:1077B000054941F8202053F82020013243F82020C9
:1077C00008BD00BFF48B4020A48A402008B5FBF719
:1077D00003FA084B53F82020013A43F82020064AC8
:1077E00052F82020D20703D453F8203003B962B6F0
:1077F00008BD00BFF48B4020A48A402008B5FBF7E9
:10780000EBF9094B53F820203AB9EFF31082D10776
:1078100000D472B6054941F8202053F820200132E7
:1078200043F8202008BD00BF148C4020C48A4020AB
:1078300008B5FBF7D1F9084B53F82020013A43F87B
:107840002020064A52F82020D20703D453F82030D3
:1078500003B962B608BD00BF148C4020C48A402022
:1078600008B5FBF7B9F9094B53F820203AB9EFF303
:107870001082D10700D472B6054941F8202053F890
:107880002020013243F8202008BD00BF448C402056
:10789000F48A402008B5FBF79FF9084B53F82020E5
:1078A000013A43F82020064A52F82020D20703D498
:1078B00053F8203003B962B608BD00BF448C4020A5
:1078C000F48A4020002330B50446184644FA03F2F7
:1078D00004FA03F1C3F10F05013302F0010201F4D0
:1078E0000041082B02FA05F221FA05F142EA0102F1
:1078F00042EA000290B2E9D130BDF8B5071E064653
:107900000D46144618BF0127C5F10F0504F0010408
:107910003846FAF7FAFE0F2904FA05F48CBF002165
:1079200001210846FAF7F1FE012A8CBF002201224C
:107930001046FAF7EAFE3846FAF7E7FE0846FAF785
:10794000E4FE1046FAF7E1FEFEF730FD338801222F
:107950009BB2AA4023EA020323439BB23380BDE8D3
:10796000F840FEF73DBD054B81F0030153F8203090
:107970001944012301F598510B707047B80340205A
:10798000054B81F0030153F820301944002301F521
:1079900098510B70704700BFB803402010B50446E3
:1079A000003818BF0120FAF7B0FE0846FFF78AFF3B
:1079B000208010BD0246003808B518BF0120FAF734
:1079C000A4FE1088BDE8084080B27BE710B50446ED
:1079D000003818BF0120FAF798FE0846FFF772FF3B
:1079E0002388184380B2208010BD10B504460038AB
:1079F00018BF0120FAF789FE0846FFF763FF2388C6
:107A00009BB223EA0000208010BD10B50446003868
:107A100018BF0120FAF779FE0846FFF753FF2388C5
:107A2000584080B2208010BD0246003808B518BF0B
:107A30000120FAF76AFEB2F84000BDE8084080B2C3
:107A400040E70246003810B518BF01200C46FAF78F
:107A50005CFE0F298CBF00200120FAF756FEB2F819
:107A6000400080B2FFF72EFF0123A34018402041C1
:107A7000C0B210BDF8B51746064618460D46FFF7CA
:107A800021FF04463846FFF71DFF054B40EA04403E
:107A900053F8261001EB850101F5BC510860F8BDD3
:107AA000B80340200246003870B518BF0120FAF72D
:107AB00036FE50689A288CBF00200120FAF72FFE6E
:107AC0009368D06A022B17BFDB02002303F4006324
:107AD00043F4005302281EBF410501F400110B437B
:107AE000916A02291EBF490401F400310B43516A17
:107AF00002291EBF090401F480310B439169022958
:107B00001EBF090201F480710B43D16902291EBF17
:107B1000890101F040010B43116B02291EBFC9040A
:107B200001F400210B43516902291EBF890301F4AE
:107B300080410B43116902291EBF490101F0200158
:107B40000B43D16801F00F04234351B9012808D138
:107B500092F8BC00022804D09188244C81F00301E3
:107B60000855116B01291CD0D2E90001903140F871
:107B700021301F4B516BD3F80C3641BB926B62B175
:107B8000110449BF42F07F42134342F47F0242F4A2
:107B9000794244BF42F081021340154AC2F80C36C4
:107BA00070BD02F13C0102F17C05124E51F8044B0C
:107BB000102C09D0C86BB0F5CC7F05D804F00F04A9
:107BC00000F5247046F820408D42EFD1CCE7080440
:107BD00049BF41F07F410B4341F47F0141F47941BA
:107BE00044BF41F081010B40C8E700BF00132940AA
:107BF00000C02A4000002940F8B5094B04460E4653
:107C000000251960C027074B1860A54201D100204C
:107C1000F8BD07FB05600135FFF744FFF5E700BF3E
:107C2000140340201803402070B50446003816465F
:107C30000D4618BF0120FAF772FD0F298CBF0020F6
:107C40000120FAF76CFDFEF7ABFC012E13D0022EDB
:107C500007D0AEB954F8253023F4006343F4005341
:107C600003E054F8253023F4005344F82530BDE8F0
:107C70007040FEF7AFBC54F8253043F42053F4E7CE
:107C800000BEFDE7F8B5044600381E460D4618BF95
:107C900001201746FAF743FD0F2906F00F068CBFA7
:107CA00000200120FAF73BFDFEF7ACFC54F825302C
:107CB000002F23F4001314BF4FF40012002244F8E5
:107CC000253054F82530134344F8253054F8253036
:107CD00023F00F0344F8253054F825301E4344F8B0
:107CE0002560BDE8F840FEF7A7BC0F292DE9F0415B
:107CF00005468CBF002001200E4690461C46069F7C
:107D0000FAF70DFDFEF7B0FC85B155F82630B8F155
:107D1000000F23F4002314BF4FF40022002245F883
:107D2000263055F82630134345F82630102F10D052
:107D3000B4F5CC7F0DD8A30007F00F0703F1804303
:107D400003F52413D3F8402A22F00F021743C3F897
:107D5000407ABDE8F041FEF7A1BC70B5044600389A
:107D600016460D4618BF0120FAF7D9FC0F298CBF23
:107D700000200120FAF7D3FCFEF7A8FC032E0FD851
:107D8000DFE806F002121D2254F8253023F4001318
:107D900044F8253054F8253043F4002344F82530C6
:107DA000BDE87040FEF7ACBC54F8253023F4002346
:107DB00044F8253054F8253043F40013EEE754F826
:107DC000253043F42013E9E754F8253023F4201339
:107DD000E4E7F8B5144B044600380D461A68134B17
:107DE00018BF01201E68FAF79AFC0F298CBF0020EB
