:020000040040BA
:10000000A55AA55A01000000FFFFFFFF0020400095
:10001000FFFFFFFF00204000FFFFFFFF0020400028
:10002000FFFFFFFF0000000000204000FFFFFFFF78
:10003000FFFFFFFFFFFFFFFFFFFFFFFFFFFFFFFFD0
:10004000FFFFFFFFFFFFFFFFFFFFFFFFFFFFFFFFC0
:10005000FFFFFFFFFFFFFFFFFFFFFFFFFFFFFFFFB0
:10006000FFFFFFFFFFFFFFFFFFFFFFFFFFFFFFFFA0
:102000000000012021244000292A40002B2A400002
:102010002D2A40002F2A4000312A400000000000F5
:10202000000000000000000000000000332A400013
:10203000352A400000000000372A4000392A4000BD
:102040003B2A40003B2A40003B2A40003B2A4000FC
:102050003B2A40003B2A40003B2A40003B2A4000EC
:102060003B2A40003B2A40003B2A40003B2A4000DC
:102070003B2A40003B2A40003B2A40003B2A4000CC
:102400003B2A40003B2A400000BF00BF00BF00BF86
:10241000FFF7FABF0000000000000000000000000D
:1024200072B64FF000004FF000014FF000024FF085
:1024300000034FF000044FF000054FF000064FF08E
:1024400000074FF0640001380028FCDC5C4801689C
:102450004FF0807201EA0201002924D15948016835
:102460004FF0807241EA02010160574801684FF065
:10247000010241EA02010160544845F6F021016081
:102480004AF20F510160504801684FF0010201EA21
:1024900002010129F7D04A4801684FF0807201EA31
:1024A00002010029F7D04A484CF2205101604DF654
:1024B000281101604748484901604848484901607F
:1024C0004849086820F0040040F0010008604649CF
:1024D000086820F0040040F001000860434800282C
:1024E00014D0434801684FF0010201EA02010029BB
:1024F00002D0404A404B01E0404A3F4B9A4205DA45
:1025000000200021E2E802019A42FBDB3C4800285F
:1025100016D03C4A12684FF07F4302EA03024FEAAA
:102520001262092A02D1384A384B01E0364A384B48
:102530009A4205DA00200021E2E802019A42FBDB20
:102540003448002816D02F4A12684FF47F0302EA5D
:1025500003024FEA1242082A02D12F4A2F4B01E010
:102560002D4A2F4B9A4205DA00200021E2E80201B1
:102570009A42FBDB2B4800684FF05A318842F9D071
:10258000294880F3088800F085FC284801684FF04E
:102590000000814202D000F0C1FA01E000F078FAB8
:1025A0000E482349016000F0F1FA62B600F0E4FA47
:1025B00000F040F800BFFEE7AFF30080AFF300800B
:1025C00010C32D4030C32D4004C32D4000C02D400A
:1025D0001000274000002740400000FF08ED00E009
:1025E0000020400094EF00E090EF00E001000000C8
:1025F00000C0284000004020008041200000402012
:10260000010000001400264000000020000002200D
:102610000000012001000000000000000000010097
:1026200000800000900040200000012004002640AF
:102630000000002073B50025134E144C01201449EE
:1026400003F084FD00220A21304603F000FC0095CF
:10265000009BA3420FDD01220A21304603F0F7FB65
:102660000195019BA3420ADD0A4B1A68002AE9D0B2
:10267000186802B070BD009B01330093E8E7019B2E
:1026800001330193EDE700BF061729403F420F00D9
:10269000C065400080004020EFF310807047EFF3EA
:1026A00010807047EFF310807047EFF31080704791
:1026B00082B08DF807009DF807300BB900BEFDE72A
:1026C00002B0704782B08DF807009DF807300BB953
:1026D00000BEFDE702B0704753B94AB9002908BFF0
:1026E00000281CBF4FF0FF314FF0FF3000F078B9E9
:1026F000ADF1080C6DE904CE00F006F8DDF804E059
:10270000DDE9022304B070472DE9F047089D0E462D
:1027100004468E46002B4CD18A42944667D9B2FAC1
:1027200082F252B101FA02F3C2F1200120FA01F162
:102730000CFA02FC41EA030E94404FEA1C48210CBB
:10274000BEFBF8F61FFA8CF708FB16E341EA0343D9
:1027500006FB07F199420AD91CEB030306F1FF308F
:1027600080F01E81994240F21B81023E63445B1A55
:10277000A4B2B3FBF8F008FB103344EA034400FBB7
:1027800007F7A7420AD91CEB040400F1FF3380F0DD
:102790000981A74240F2068164440238E41B40EA02
:1027A000064000211DB1D4400023C5E90043BDE827
:1027B000F0878B4208D9002D00F0EF800021C5E999
:1027C00000060846BDE8F087B3FA83F1002949D135
:1027D000B34202D3824200F2FF80841A66EB030305
:1027E00001209E46002DE2D0C5E9004EDFE702B988
:1027F000FFDEB2FA82F2002A40F08E80A1EB0C06D6
:102800004FEA1C471FFA8CF30121B6FBF7FE07FBCA
:102810001E60260C46EA004603FB0EF0B04208D9C3
:102820001CEB06060EF1FF3802D2B04200F2D08057
:10283000C646361AA4B2B6FBF7F007FB106644EAA8
:10284000064400FB03F3A34208D91CEB040400F187
:10285000FF3602D2A34200F2B8803046E41A40EAC2
:102860000E409FE7C1F1200722FA07F48B40234373
:1028700006FA01FC26FA07F420FA07F646EA0C06E7
:102880004FEA134900FA01F8B4FBF9FE300C1FFAC5
:1028900083FC09FB1E4440EA04440EFB0CF0A042FA
:1028A00002FA01F20AD91C190EF1FF3A80F08B806E
:1028B000A04240F28880AEF1020E1C44241AB6B247
:1028C000B4FBF9F009FB104446EA044400FB0CFC9D
:1028D000A44507D91C1900F1FF3670D2A4456ED962
:1028E00002381C4440EA0E40A0FB02E6A4EB0C04B4
:1028F000B442F446B14659D356D0002D6ED0B8EB51
:102900000C0364EB0904CB4004FA07F71F43CC40E7
:10291000C5E9007400214AE7C2F1200024FA00F161
:102920000CFA02FC06FA02F326FA00F04FEA1C4702
:1029300041EA0306B0FBF7F11FFA8CF307FB110E17
:10294000300C40EA0E4001FB03FE864504FA02F417
:1029500008D91CEB000001F1FF3832D2864530D98E
:1029600002396044A0EB0E00B6B2B0FBF7FE07FBE5
:102970001E0046EA00460EFB03F0B04209D91CEBEC
:1029800006060EF1FF3818D2B04216D9AEF1020E8B
:102990006644361A4EEA014137E72946284606E7DB
:1029A0000646E4E61846F9E6F045A6D2BEEB020C70
:1029B00066EB0303013899469FE7C646E9E73046D0
:1029C00090E74146CEE7D64678E76444023845E7CB
:1029D000AEF1020E66442CE7084603E72946E6E618
:1029E000704700BF884210B501EB020402D984424F
:1029F000234607D8431EA14208D011F8012B03F843
:102A0000012FF8E7024401468A4200D110BD13F8B5
:102A1000014D02F8014DF7E702440346934200D10D
:102A2000704703F8011BF9E7FEE7FEE7FEE7FEE764
:102A3000FEE7FEE7FEE7FEE7FEE7FEE74FF0E022F7
:102A4000D2F80C3D23F4E0631843C2F80C0D704734
:102A50004309012200F01F00403302FA00F04FF05A
:102A6000E02242F8230070474309012200F01F00D2
:102A7000603302FA00F04FF0E02242F82300704782
:102A8000090100F1E020C9B280F80014704700008D
:102A90002DE9F8431F4B00251E68B54207D11E4C97
:102AA00000262768B046BE4221D1BDE8F883D3E9AD
:102AB0000101DA680024521A02F0030C9208A242C3
:102AC00009D101EB820100EB82020020844508D885
:102AD00001350C33E1E751F8247040F824700134DB
:102AE000EDE711F8014B013002F8014BEEE7D4E9B4
:102AF000013500210136ED1A1846083425F003028D
:102B00004FEA9509FFF788FFAA0718BF40F8298008
:102B1000C9E700BF7C7A4000C87A4000144B0C2201
:102B2000F0B5144D1E6802FB0533B54200D3F0BD6D
:102B3000D3E90101DA680024521A02F0030C92086A
:102B4000A24209D101EB820100EB82020020844500
:102B500008D801350C33E8E751F8247040F82470A8
:102B60000134EDE711F8014B013002F8014BEEE7BB
:102B70007C7A4000030000007047FEE7024B586873
:102B800000F00300704700BF00002640A64B002164
:102B90005A68F0B512F0030F5C695869C4F3074432
:102BA00008BF01254FEA106018BF00254B00013116
:102BB00003F18043F02903F51813B3F8802892B28B
:102BC00042EA0502A3F88028F0D1984B0022082C95
:102BD00097491A60974A1A64974A5A600CBF974AF5
:102BE000974A09285A64974A9A60974A9A64974A7A
:102BF000DA60974ADA644FF0D8521A61954A1A653A
:102C0000954A5A610CBF954A8C4A5A65944A9A6112
:102C1000944A42EA410294499A65944ADA61944A94
:102C200042EA4101D96593491962934942EA410256
:102C30004FF0CE411A664FF080425A628F4A5A6670
:102C40008F4A9A6200229A66D9628E49D9664FF0FD
:102C5000D04119638C4919674FF0604159638B4922
:102C600059678B4999634FF088419A67D963DA674E
:102C7000BFF34F8FBFF36F8F4FF0E022D2F8141DD8
:102C80008F0303D4D2F8142DD6036AD54FF0E02178
:102C90000022C1F8842DBFF34F8FD1F8802D43F669
:102CA000E075C2F3C904C2F34E32520102EA0507CD
:102CB000204647EA8076C1F8746FBFF34F8F013822
:102CC000F7D2203A12F1200FF0D1D1F8842D42F042
:102CD0000102C1F8842D0022C1F8502FBFF34F8F9D
:102CE000BFF36F8FC1F8842DBFF34F8FD1F8802DC4
:102CF00043F6E0754FF0E021C2F3C904C2F34E324F
:102D0000520102EA0507204647EA8076C1F8746F4F
:102D1000BFF34F8F0138F7D2203A12F1200FF0D1D4
:102D2000D1F8842D42F00102C1F8842D0022C1F8AF
:102D3000502FBFF34F8FBFF36F8FD1F8142D22F4B4
:102D40000032C1F8142DBFF34F8FBFF36F8FD1F84E
:102D5000142D22F48032C1F8142DBFF34F8FBFF32E
:102D60006F8F00224FF0E020114603EB8204256CA8
:102D7000ED070AD5C0F8981D013153F82250C9B2A9
:102D8000C0F89C5D246CC0F8A04D0132102AECD133
:102D90004FF0E023D3F8942D42F00302C3F8942DB2
:102DA000BFF34F8FBFF36F8F0022C3F8842DBFF3A3
:102DB0004F8FD3F8802D43F6E074C2F3C900C2F3FD
:102DC0004E32520102EA0406014646EA8175C3F812
:102DD000605FBFF34F8F0139F7D2203A12F1200F15
:102DE000F0D1BFF34F8FD3F8142D42F48032C3F8E3
:102DF000142DBFF34F8FBFF36F8FBFF34F8FBFF310
:102E00006F8F0022C3F8502FBFF34F8FBFF36F8F28
:102E1000D3F8142D42F40032C3F8142DBFF34F8FB2
:102E2000BFF36F8FF0BD00BF0000264000004020C0
:102E30000E0000003F000410000000001F00080307
:102E40001D0008030000400029000B0700000010CF
:102E500023000B1619000B160000002021000803A8
:102E60000000402001000B030E0000000080402005
:102E700001000C13000041200E0000002DC00413BF
:102E8000000060401300041335000B0327000413F7
:102E9000000080004FF0E022D2F8883D43F4700338
:102EA000C2F8883DBFF34F8FBFF36F8F704700BFED
:102EB00070472DE9F047B54D01210446286001F027
:102EC0000FFD2B68002B40F03981E67BB04FDFF817
:102ED000F882DFF8F892002E40F03781A67CAD4FE3
:102EE000DFF8EC82DFF8E492002E40F03E81A67B12
:102EF000A94FDFF8E082DFF8D492002E40F07C8109
:102F0000667BA64FDFF8D082DFF8C092002E40F03B
:102F100084813746DFF89C82DFF8C092DFF8ACA2EC
:102F2000237BBB4200F2898128680025022101F041
:102F3000D7FCE27CEBB29A4200F29181984B1D786B
:102F4000002D38D10122974F294628461A707B68F8
:102F50009847BB6856208F4F9847934B28461B686D
:102F60009847924B28461B6898478C4B28461B680D
:102F700098477B6828469847BB688D4F28469847F6
:102F800028463B68984729467B6828469847894BDE
:102F9000814F28461B6898477B6828469847BB683E
:102FA000284698477A4B28465B689847824B2946C3
:102FB00028461B68984701238049E27D9A4200F227
:102FC00059810025754FDFF81082DFF80092637B8E
:102FD000AB4200F256810025774FDFF80482DFF81C
:102FE000EC91637DAB4200F25D8100256F4FDFF80D
:102FF000F481DFF8D891637CAB4200F26481002554
:10300000694FDFF8E481DFF8C491237CAB4200F222
:103010006A810025654FDFF8CC81DFF8B091637CD1
:10302000AB4200F2708100255B4FDFF8A881DFF82A
:103030009C91A37BAB4200F277810025594FDFF8CA
:103040008481DFF88891A37DAB4200F27F81002567
:10305000524FDFF88481DFF87491637BAB4200F25A
:10306000878100254C4FDFF86C81DFF86091A37BEE
:10307000AB4200F28E810025464FDFF85481DFF825
:103080004C91A37CAB4200F29681DFF86081012372
:103090004B4F002556210420BB70D8F800303D70FE
:1030A0007D70FD70984701F043FCD8F80030562140
:1030B00005209847D8F80030562106209847DFF8B9
:1030C000D09001F0D3FADFF800A1D8F800305621F3
:1030D000DFF81C8107209847E37BAB4200F27D813B
:1030E0003D78002D40F0B381314FDFF80881DFF8E3
:1030F000DC90237DAB4200F28A812A4D314FDFF80C
:10310000CC80A37DB34200F2928120460421BDE829
:10311000F04701F0E5BB1C22206C72430136835856
:10312000104403EBC3034B445B7818F803301B01D6
:10313000FB589847A37DB342EDD8C6E60026194F49
:10314000DFF88080DFF88490F4E7606A013E50F891
:10315000363000EBC60003EBC3034B445B7818F832
:10316000033057F833309847B5E6013E206B0C2208
:103170003301C35800EB061003EBC3034B445B78E9
:1031800018F803305343FB589847ADE6F000402051
:10319000547A4000B8794000247A40009879400081
:1031A000F4004020047A400074794000887940009F
:1031B000C4794000D47940004C7A40009800402007
:1031C0009400402010794000247940000A764000A5
:1031D000387940002E794000567940004C79400003
:1031E0001A794000607940006A794000B4014020BB
:1031F000C873400042794000013E2822206A142111
:1032000072438358104403EBC3034B445B7818F8B4
:1032100003304B43FB5898476FE6013E1422E069A8
:1032200072438358104403EBC3034B445B7818F894
:1032300003301B01FB58984768E60C21A06901FB8D
:1032400007F201378358104403EBC30353445B7800
:1032500019F803304B4358F80330984760E6616B28
:103260001801013501EB03130858D3E9022300F0DC
:1032700048FC5EE6626C52F833208B540133DBB2BB
:103280009BE61422E0696A4301358358104403EB3E
:10329000C3034B445B7818F8033007EB03135B68F8
:1032A000984794E61422E06B29466A430135835817
:1032B000104403EBC3034B445B7818F8033057F812
:1032C000233098478DE60C22E06A6A430135835823
:1032D000104403EBC3034B445B7818F8033057F8F2
:1032E0003330984787E60C22A06A6A430135835839
:1032F000104403EBC3034B445B7818F8033057F8D2
:103300002330984781E60C22E06A6A4301358358EE
:10331000104403EBC3034B445B7818F8033007EB0E
:10332000C3035B6898477AE62822206A14216A431F
:1033300001358358104403EBC3034B445B7818F802
:10334000033001FB03735B68984772E61C22206C14
:1033500029466A4301358358104403EBC3034B44A9
:103360005B7818F8033007EB03135B6898476AE64D
:103370001422E0696A4301358358104403EBC30308
:103380004B445B7818F8033007EB03139B689847AE
:1033900063E62822206A14216A43013583581044C9
:1033A00003EBC3034B445B7818F8033001FB037352
:1033B000DB6898475BE6206B2B010C22C35800EBBF
:1033C0000510013503EBC3034B445B7818F8033059
:1033D00002FB03735B68984753E6626A02EBC50021
:1033E000436858F82330032B0ED052F83530194A71
:1033F00003EBC30313445B781AF8033009EBC303F0
:103400005B689847013567E601233B70FAE7A06BDC
:1034100050F8353000EBC500013503EBC3034B44D6
:103420005B7818F8033057F83330984761E61C2270
:10343000206C724301368358104403EBC3034344AA
:103440005B78FB5C05EB0313DB68984759E6BDE846
:10345000F08700BF0A7640002DE9F0471F4F002596
:1034600002241F4EDFF88880B378AB421CD864BBBF
:103470001C4F2546DFF87C80DFF87C90DFF868A0E1
:10348000F3789D4221D257F8040B0C2200EBC003C5
:1034900053445B7819F8033002FB03839B68984719
:1034A000012811D00135EBE757F8040B0E4B00EB68
:1034B000C00213440D4A5B78D35C142202FB0383E1
:1034C0009B689847012803D101242046BDE8F08776
:1034D000022805F1010508BF0024C5E7C4734000B8
:1034E00094004020C07340000A7640002E794000CE
:1034F000247A4000B8794000387940002DE9F04145
:103500002F4D2B682BBBBDE8F0815B6A03EBC40039
:10351000426856F82220032A0CD153F83430294A45
:1035200003EBC30313445B7818F8033007EBC303C2
:103530005B68984701342B68DA7B9442E5D3224BD1
:103540001B78002BDFD00024204E214FDFF8748041
:1035500013E000241F4E204FDFF88880EBE7986BC4
:1035600050F8343000EBC400013403EBC303434490
:103570005B78FB5C56F8333098472B681A7D944291
:10358000EDD30024154E164FDFF838802868837D70
:103590009C4204D30421BDE8F04101F0A1B91C22F2
:1035A000006C624301348358104403EBC30343446B
:1035B0005B78FB5C06EB0313DB689847E6E700BF2C
:1035C000F00040200A76400094004020C47940007A
:1035D00042794000C8734000547A4000047A4000A9
:1035E000107940002479400010B5FFF762FC064BCB
:1035F0001C782CB1FFF730FF044618B9FFF77EFFA7
:10360000204610BD0124FBE794004020054A00EB52
:10361000C0031344044A5B78D25C044B03EB0213EF
:103620009B6818470A76400010794000047A4000F1
:10363000014B1860704700BFB4014020064A00EB00
:10364000C00301211344054A5B78D25C044B03EBB1
:10365000C2035B68184700BF0A7640004279400009
:10366000C4794000064A00EBC00300211344054A18
:103670005B78D25C044B03EBC2035B68184700BF66
:103680000A76400042794000C479400008B5044BF6
:103690000221186801F024F9BDE8084001F0F4B8EF
:1036A000F000402008B5044B0221186801F018F919
:1036B000BDE8084001F0F0B8F000402008B5044B28
:1036C0000221186801F00CF9BDE8084001F0F2B8D9
:1036D000F000402008B5044B0221186801F000F901
:1036E000BDE8084001F0EEB8F0004020014B1B6837
:1036F000184700BFB4014020F8B5074600200E4629
:1037000014461D4601F080FC0021386028463160D7
:1037100001F081FC2060F8BD38B50C46002115464B
:1037200001F074FC23681844A842206034BF0020D4
:10373000012038BD704710B5D0B14368C3B10268ED
:10374000013B0C4902EBC2021B04885C8C180A4A3C
:1037500003F47023617952F8302002EB8102D2F831
:10376000801021F470210B4343F00043C2F88030F5
:1037700010BD00BF0A7640000075400098B1036894
:10378000094A03EBC303D25C084B53F83210436879
:103790008A68012B22F0FC4238BF01235B0603F04C
:1037A000FC4313438B6070470A764000007540006D
:1037B0002DE9F043044685B0002858D002682D4D0D
:1037C00002EBC2022C49A818837801EB0311AB5C11
:1037D0001525027905FB0322284B457953F8226011
:1037E000636806EB8505D1E90271AA68002B35D024
:1037F000013B8B4053403B40534043F00047DFF8D0
:1038000080804CF2503303AA02A901A8FFF774FF8D
:10381000D8F8889102A9039A01A8FFF77DFFB9F1B2
:10382000000F1EDB0028F3D021680120FFF75EFFA8
:103830004CF2503303AA02A901A8FFF75DFFF56B14
:1038400002A9039A01A8FFF767FFEB070DD500282F
:10385000F5D021680120FFF749FF08E022F000477A
:10386000CDE70028E0D1AF60E2E70028F1D105B054
:10387000BDE8F0830A764000707140001C7540007E
:1038800000C02D40F0B5044685B000283BD002684A
:103890001E4D02EBC2021E49A818837801EB0311EA
:1038A000AB5C0279D1E90267152101FB0322194BB8
:1038B000417953F82250636805EB81018A68EBB1C6
:1038C000013BBB40534033405A4042F000428A60C3
:1038D0004CF2503303AA02A901A8FFF70DFFEE6BCB
:1038E00002A9039A01A8FFF717FFF30709D50028DB
:1038F000F5D021680120FFF7F9FE04E022F0004234
:10390000E5E70028F5D105B0F0BD00BF0A7640001C
:10391000707140001C754000704780B103680A4A0E
:1039200003EBC303D118D25C0B79152101FB0233E1
:10393000064A52F82330426812B101225A63704796
:103940005A6B22F00102F9E70A7640001C7540002C
:103950007FB5044640B3436833B3036801A8134AF4
:1039600003EBC303D118D25C0B79152101FB0233A1
:103970000F4A02A952F82350012303AAAB634CF269
:103980005033FFF7B9FEEE6B02A9039A01A8FFF7C7
:10399000C3FEF30706D50028F5D021680120FFF704
:1039A000A5FE01E00028F8D104B070BD0A76400001
:1039B0001C754000704708B30389FBB10368104AC7
:1039C00003EBC303D25C0F4B53F822104389427CB4
:1039D0001B04920003F47F0302F004021343027BF2
:1039E00043EAC273827B1201D2B21343427B1206B6
:1039F00002F08072134343F001030B60704700BF75
:103A00000A7640001075400070B10389012B0BD17C
:103A10000368064A03EBC303D25C054B53F822202C
:103A2000136843F001031360704700BF0A7640003B
:103A3000107540007FB5044628B303891BB3437B50
:103A40000BB3037B016803BB01EBC101124B03AA5B
:103A500001A85D5C4CF2503302A9FFF74DFE0F4BFD
:103A600053F825506E6802A9039A01A8FFF754FE87
:103A7000002E06DB0028F5D021680120FFF736FE76
:103A800001E00028F8D104B070BD022004B0BDE808
:103A90007040FFF72BBE00BF0A7640001075400053
:103AA0007FB5044618B3036802A9124A01A803EBC4
:103AB000C303D25C104B53F8225003AA2B6823F0A7
:103AC00001032B604CF25033FFF716FE6E6802A91B
:103AD000039A01A8FFF720FE002E06DA0028F5D091
:103AE00021680120FFF702FE01E00028F8D104B0B0
:103AF00070BD00BF0A76400010754000704700207E
:103B000070477047704770472DE9FF41002800F06B
:103B100088800668444B06EBC60281881344434AFA
:103B20009B7912F8338002EBC302414B57785468FB
:103B300053F82830002939D053F827100C4270D19F
:103B400053F82710214343F827103A4B53F82850D5
:103B50002B6843F001032B606B6843F001036B603B
:103B600000F086FD6A68344BD10753F8288058F876
:103B7000273001D41C4254D14CF2503303AA02A97D
:103B800001A8FFF7B9FD039A02A901A8FFF7C4FD38
:103B90006A6858F82730D20701D41C423FD1002868
:103BA000F1D031460120FFF7A1FD3AE053F827108C
:103BB0000C4236D053F8271021EA040143F82710AD
:103BC0001C4B53F828502B6843F001032B606B68A3
:103BD00043F001036B6000F04BFD174B6A6853F82C
:103BE000288002F0010258F827302340134318D0F0
:103BF0004CF2503303AA02A901A8FFF77DFD039AF6
:103C000002A901A8FFF788FD6A6858F8273002F07A
:103C100001022340134302D00028F0D0C1E700285E
:103C2000BFD104B0BDE8F0810A764000886A400048
:103C30002C7440000C7440001C74400007B581F0E7
:103C4000010100906846ADF80410FFF75DFF03B076
:103C50005DF804FB70477047024A936843F0010324
:103C60009360704700002D40024A936823F00103DF
:103C70009360704700002D40024AD36843F480737C
:103C8000D360704700802C40024AD36823F48073CD
:103C9000D360704700802C40F0B5044685B0002802
:103CA0002BD0C379013BDBB2022B26D8174A526EC8
:103CB000520F052A23D1164A02A9164E01A8D55C37
:103CC0004CF2503303AAFFF717FDD6F8887102A90A
:103CD000039A01A8FFF720FD002F06DB0028F4D08F
:103CE00021680120FFF702FD07E00028F8D1074A0C
:103CF000536E23F003031D43556605B0F0BD016804
:103D00000A2005B0BDE8F040FFF7F0BC00C0394024
:103D1000B865400000C02D4030B18288054B22B10B
:103D20009A6842F001029A6070479A6822F0010294
:103D3000F9E700BF00002D4030B18288054B22B169
:103D4000DA6842F48072DA607047DA6822F48072CE
:103D5000F9E700BF00802C4000F01EB970477047A3
:103D6000704780B103681421094A03EBC30313446D
:103D70001A7A084B01FB023301791A69136819B1E9
:103D800043F001031360704723F00103FAE700BF1B
:103D90000A7640003C7440007FB500EBC0021B4B2C
:103DA0001421054613441A7A194B01FB02331C698E
:103DB00001F056FA2368DA0714D54CF2503303AAFF
:103DC00002A901A8FFF798FC266902A9039A01A895
:103DD000FFF7A2FCF30609D40028F5D029460120FC
:103DE000FFF784FC01F056FA04B070BD0028F5D14D
:103DF000236823F001032360636923F00F036361E9
:103E0000236943F003032361ECE700BF0A76400017
:103E10003C74400008B10068BEE770472DE9F74FD9
:103E20000646002800F0A4800379002B00F0A08053
:103E30000368524A03EBC300776902447B4092F85F
:103E400008A04F4A52F82100984200F0898042F8B9
:103E5000213014214B4A4C4B01FB0A214B4C1B686F
:103E600048685B6C205C03EBC0004568002D77D090
:103E7000C968615C03EBC1035B68002B70D0002F45
:103E80006ED005EB45043169013CB4FBF3F405EB5E
:103E900085030134013BB3FBF7F309339C4238BF80
:103EA0001C46642904D066D8012901D00A2907D10B
:103EB000374BB3FBF1F1B5FBF1F18C4238BF0C4647
:103EC000F36842F210784FF000090093142303FBCB
:103ED0000A229368D2F810B00193009BCBF80440FB
:103EE00013EB080049EB0903A0FB070107FB0313D1
:103EF000A0FB0401013804FB0311019B41F1FF31D8
:103F0000B8EB03026CEB0C0CA2FB052305FB0C3396
:103F1000FEF7E2FB1F4B0430984294BFCBF8080039
:103F2000CBF80830009BB8EB030063EB0303A0FB66
:103F3000070107FB0317019BA0FB040113EB080219
:103F400004FB071149EB0909A2FB052305FB093313
:103F5000FEF7C2FB0338032838BF0320CBF80C0060
:103F6000084B142202FB0A3AB268DAF810305A61A0
:103F700003B0BDE8F08FB1F57A7F98E70A7640008C
:103F8000F80040203C744000F000402098004020A1
:103F900040420F00FCFFFF00F8B50D4D00240D4E10
:103FA0000D4F55F8042B6AB11369316803F0030310
:103FB00061B151690B4005D057F8241000201361FE
:103FC000FFF794FB0134072CEBD1F8BD1361F9E73F
:103FD000E4744000F0004020C874400070470220A4
:103FE0007047704710B590B103680E4A03EBC303E6
:103FF000D25C0D4B03EBC20153F8322000230C7945
:10400000D9B28C4204D8136843F00043136010BD4A
:1040100002EB83000133D0F8801021F00041C0F89A
:104020008010EDE70A7640000075400010B50028CA
:1040300049D08388002B46D00368234A03EBC3038F
:10404000047DD25C214B53F83220437B91681B03E3
:1040500021F4E14103F4E04321F07F012343448A4A
:104060000B431B49C4F30E04936013691940037F8B
:104070009B0703F0804323430B431361447D837DFF
:10408000A107002C4FEA437301F0804103F0005375
:1040900043EA0103418B008BC1F30A0143EA0103A8
:1040A0000C4901EA004143EA0103D36008BF8023C1
:1040B000916918BF002321F4C0710B439361136809
:1040C00023F00043136010BD0A76400000754000E5
:1040D0000080FFBF0000FF0370B18388012B0BD16C
:1040E0000368064A03EBC303D25C054B53F8322046
:1040F000136823F000431360704700BF0A76400046
:10410000007540007FB500EBC003134A0446D25C43
:10411000124B53F832502B68002B1BDB4CF2503300
:1041200003AA02A901A8FFF7E7FA6E6802A9039A99
:1041300001A8FFF7F1FA730708D40028F5D0012091
:104140002146FFF7D3FA012004B070BD0028F6D154
:104150000220F9E70020F7E70A76400000754000EA
:104160007047F0B5002873D0C6680468036986EA12
:104170000405DFF814E1D0E901275D405EF8210075
:1041800055407D40A84263D0DFF800C106EBC6066B
:104190004EF8215004EBC4041CF806603648644411
:1041A000364D50F826002D68354E6D6C76783549C1
:1041B00005EBC605E4794A436E68B3FBF1F3B6FB41
:1041C000F1F640F638115943B2FBF1F2052A42D913
:1041D000C72A3ED80A2A3ED9972A34BF30257025EF
:1041E0004FF4FA1206FB05FC02FB03F1B2FBF5F2F9
:1041F000B1FBFCF1891A4FF0804C01F580718C45C0
:104200002BD80022BCF1000F2AD192007743BF3295
:10421000BFB2D109076004EB440701FB05F200EBD4
:10422000870745EA024501FB02227D604FF47A755B
:1042300052086B4302F2E732B3FBF6F3013BC2F3E1
:104240001302C3F31303BB600C2303FB0400C2601F
:10425000F0BDB825C4E70C25C2E74FEA9C0CCEE7B9
:104260000CEB020E8E459CBF02EB4C02A1EB0E0143
:104270004FEA9C0C5208C5E718754000F00040203A
:104280009800402040420F00040140200A76400080
:10429000704710B5C0B103680C4803EBC3030C4C66
:1042A000C1188A781201A458C25C0B79152101FB50
:1042B0000233084A52F82330196841F008011960A6
:1042C0001A6822EA04021A6010BD00BF0A76400094
:1042D000707140001C754000DBE72DE9FF4104468A
:1042E00000286ED0384A394ED0E90031384803EB07
:1042F000C30332F81150C1188A78170106EB021275
:10430000F759D2F80480C25C0B79152101FB023306
:10431000304A52F8236073683B4023FA08F3AB42FB
:104320004FD04CF2503303AA02A901A8FFF7E4F9D9
:1043300002A9039A01A8FFF7EFF97368D90304D51E
:104340000028F5D02168012039E00028FAD133682F
:1043500005FA08F503AA02A95D4001A83D405D40A9
:104360004CF2503345F007053560FFF7C5F9039A65
:1043700002A901A8FFF7D0F973685A0702D40028F0
:10438000F5D0DFE70028DDD14CF2503303AA02A9B3
:1043900001A8FFF7B1F9039A02A901A8FFF7BCF938
:1043A0007368DB0302D50028F5D0CBE70028C9D11C
:1043B0007368C3F34243012B03D021680320FFF746
:1043C00095F904B0BDE8F08192754000707140002D
:1043D0000A7640001C7540002DE9FF410446002884
:1043E0006ED0394A394ED0E90031394803EBC30366
:1043F00032F81150C1188A78170106EB0212F759EA
:10440000D2F80480C25C0B79152101FB0233314ADA
:1044100052F8236073683B4023FA08F3AB424FD055
:104420004CF2503303AA02A901A8FFF765F902A9CB
:10443000039A01A8FFF770F97368D90304D500281F
:10444000F5D02168012039E00028FAD1336805FA57
:1044500008F503AA02A95D4001A83D405D404CF269
:10446000503345F004053560FFF746F9039A02A979
:1044700001A8FFF751F973685A0702D40028F5D054
:10448000DFE70028DDD14CF2503303AA02A901A8CE
:10449000FFF732F9039A02A901A8FFF73DF9736803
:1044A000DB0302D50028F5D0CBE70028C9D173681B
:1044B000C3F34243012B03D021680320FFF716F911
:1044C00004B0BDE8F08100BF9275400070714000FB
:1044D0000A7640001C7540002DE9FF410546002882
:1044E00055D02C4A2C4CD0E900312C4803EBC303A7
:1044F00032F81160C1188A78170104EB0212E759EB
:10450000D2F80480C25C01A80B79152101FB0233AB
:10451000234A02A952F8234003AA236843F0040364
:1045200023604CF25033FFF7E7F8039A02A901A881
:10453000FFF7F2F863689A0304D50028F5D02968DC
:1045400001201FE00028FAD1236806FA08F603AA22
:1045500002A95E4001A83E405E402660236823F029
:104560000C0323604CF25033FFF7C6F8039A02A9FC
:1045700001A8FFF7D1F863689B0306D40028F5D0A3
:1045800029680320FFF7B2F801E00028F8D104B051
:10459000BDE8F08192754000707140000A764000DD
:1045A0001C7540002DE9FF41064600283DD00368F8
:1045B0001F4A2048D55C03EBC3031F4CC1188A78FF
:1045C000170104EB0212E759D2F80480C25C01A87B
:1045D0000B79152101FB0233184A02A952F8234036
:1045E00003AA236843F00C0323604CF25033FFF717
:1045F00083F8039A02A901A8FFF78EF863689B036A
:1046000006D50028F5D031680120FFF76FF80CE0DF
:104610000028F8D1236805FA08F55D403D405D406B
:104620002560236823F00C03236004B0BDE8F0810B
:10463000B47540000A764000707140001C7540005F
:104640004068064B064933F810304A681B0322F4D1
:10465000405203F4405313434B6070477075400061
:104660000080284008B1FFF7EBBF704701F0A0BF02
:10467000034B45F6F0221A604AF20F521A60704757
:1046800000C02D401FB57F49D1F81433DC0139D467
:10469000D1F8343343F08073C1F83433D1F80033A8
:1046A00043F00103C1F80033D1F8043343F00103B0
:1046B000C1F80433FFF7DCFFD1F80433D80703D483
:1046C000D1F81433D9011DD46E4C4CF2503303AAE7
:1046D00002A901A8FFF710F8039A02A901A8FFF7A1
:1046E0001BF8D4F80433DA0703D4D4F81433DB010D
:1046F00006D40028F0D006210120FEF7F7FF01E0E4
:104700000028F8D15F49D1F814339C0239D4D1F88C
:10471000343343F40013C1F83433D1F8003343F099
:104720000103C1F80033D1F8043343F00103C1F8A9
:104730000433FFF79DFFD1F80433D80703D4D1F831
:10474000143399021DD44F4C4CF2503303AA02A9E2
:1047500001A8FEF7D1FF039A02A901A8FEF7DCFF2A
:10476000D4F80433DA0703D4D4F814339B0206D404
:104770000028F0D005210120FEF7B8FF01E0002855
:10478000F8D14049D1F814331C0439D4D1F834336A
:1047900043F40043C1F83433D1F8003343F001034C
:1047A000C1F80033D1F8043343F00103C1F80433F6
:1047B000FFF75EFFD1F80433D80703D4D1F81433E0
:1047C00019041DD42F4C4CF2503303AA02A901A89E
:1047D000FEF792FF039A02A901A8FEF79DFFD4F805
:1047E0000433DA0703D4D4F814331B0406D40028A6
:1047F000F0D056210120FEF779FF01E00028F8D122
:104800002049D1F81033DC0139D4D1F8303343F0EA
:104810008073C1F83033D1F8003343F00103C1F89D
:104820000033D1F8043343F00103C1F80433FFF738
:104830001FFFD1F80433D80703D4D1F81033D901BE
:104840001DD4104C4CF2503303AA02A901A8FEF764
:1048500053FF039A02A901A8FEF75EFFD4F80433C0
:10486000DA0703D4D4F81033DB0106D40028F0D0E3
:1048700056210120FEF73AFF01E00028F8D104B0EC
:1048800010BD00BF00C02D40024B01201B689B687B
:10489000184700BF0C0140201FB5012301A8ADF847
:1048A0000830034B1B685B68984705B05DF804FB54
:1048B0000C014020024B03201B689B68184700BF77
:1048C000100140201FB5012301A8ADF80830034BAB
:1048D0001B685B68984705B05DF804FB1001402039
:1048E000012917D0022917D10C4B1A78A2B901223D
:1048F0000B490C481A70CB780B4A03EB430302EBCD
:10490000830303608B7803EB430302EB8302074BC3
:104910001A607047FFF7B6BE704700BF080140201D
:104920004C79400010014020D47940000C01402017
:1049300001F01EBE70472DE9F74FCDE900010C993B
:1049400008690068092835D8CF684FF6FF7E0C68E3
:10495000D1E901560021A44688B20234BCF8008097
:10496000F04521D115F8018005EB010AB8F1FF0FE0
:104970001AD116F8018006EB0109B8F1FF0F13D127
:1049800017F801B007EB0108BBF1FF0F0CD100993C
:10499000ACF8001001998AF8001089F8002088F816
:1049A000003003B0BDE8F08F01310A29D3D14FF6B2
:1049B000FF70F6E70B6A01221A70F8E730B54C6910
:1049C0004FF6FF7334F810209A420DD10A69D1E9ED
:1049D0000635198824F810101880136803B9288048
:1049E00001330020136030BD0120FCE72DE9F04FBA
:1049F0008DB0CDE90A23169B1A69CDE9080110682C
:104A0000002870D01A684FF0000C4FF6FF714FF07D
:104A1000FF0900925A6801929A680292DA6803923A
:104A20009A6914886700009A08982546D25BA246C6
:104A30005E69824236F8144046D1019A0998525D67
:104A4000824241D1029A0A98525D82423CD1039A35
:104A50000B98525D824237D11A68D3F810E0049265
:104A60005A6805929A68D3E906C00692DA680792F6
:104A7000BCF80020954203D1ACF80040F1530EE0A1
:104A8000B0F80080454525D106EB420B924636F83A
:104A900012209045F8D1ABF80010A0F800A0DEF885
:104AA0000020013ACEF8002012B9ACF800100180C5
:104AB000049A4FF0010CD153059A5155069A02F809
:104AC0000590079A02F805908C42ABD160460DB074
:104AD000BDE8F08F06EB420836F812209245F9D176
:104AE000A8F80040CAE78446F0E7F0B5C1690023A2
:104AF0004FF6FF72D0E900C7D0E90265D0E905E4BE
:104B00002EF813202CF81320FA54F254EA540133EF
:104B10000A2BF5D12280036A0A8000221A70F0BDA8
:104B20002DE9F84FFEF72AF8DFF8A4A10546DFF8D3
:104B3000A491FEF723F85C4F02B20023DFF898E15E
:104B40002424DFF89881594E44434EF82030DFF892
:104B500090C14AF820300AEB820A49F820300CEB69
:104B600004013B54074408F8003009EB8209335430
:104B700002EB8203DFF86CB18044C1F810A0064458
:104B80000BEB830BDFF860A10F624CF804B00AEB6B
:104B9000830ADFF858B1C1F814A00BEB430BDFF820
:104BA00050A1434FC1F804B00AEB420ADFF844B108
:104BB000C1F818A00BEB430BDFF83CA1C1F808B01B
:104BC0000AEB420ADFF834B1C1F81CA00BEB430B2F
:104BD000DFF82CA1C1F80CB039190AEB830AC1F82F
:104BE0001090DFF8209147F804A009EB8309DFF863
:104BF00018A1C1F82080C1F814900AEB430ADFF82D
:104C00000C91C1F804A009EB4209DFF804A1DFF818
:104C10000481C1F818900AEB430ADFF8FC90C1F850
:104C200008A009EB4209DFF8F4A0C1F81C900AEBD8
:104C3000430ADFF8EC90C1F80CA008EB040109EB83
:104C4000830948F804901B4C04EB43044C601A4C55
:104C500004EB43048C60194C04EB4304CC600EEB72
:104C600082040C61164C04EB83034B61154B03EB80
:104C700042038B61144B03EB4202144BCA610122C5
:104C80000E6243F8202028B200EBC00084000CEB39
:104C90008000FFF72AFF3819FFF727FF08EB040011
:104CA000BDE8F84FFFF721BFF8824020688340201D
:104CB0006881402058824020D4834020D082402008
:104CC00024844020FC824020048540202C83402006
:104CD00074834020BC834020488240203C83402095
:104CE00088804020F881402010804020948340201C
:104CF0006C834020FC8340208C8340200C85402026
:104D000080824020188140200483402084834020FA
:104D10004083402074844020CC8340206080402029
:104D2000348540202DE9F34105460E461746984646
:104D3000FDF724FF044672B60F4B53F820300BB931
:104D4000FFF7EEFE24B20D4B3A46314604EBC404A5
:104D5000284603EB840443460094FFF7ECFD4FF62E
:104D6000FF73984206D02146FFF728FE62B602B0D4
:104D7000BDE8F0810120F9E72C83402088804020A5
:104D80002DE9F34105460E4617469846FDF7F6FE17
:104D9000044672B60F4B53F820300BB9FFF7C0FE34
:104DA00024B20D4B3A46314604EBC404284603EBCB
:104DB000840443460094FFF7BEFD4FF6FF7398420C
:104DC00006D02146FFF7FAFD62B602B0BDE8F081D9
:104DD0000120F9E72C834020688140202DE9F34130
:104DE00005460E4617469846FDF7C8FE044672B6BD
:104DF0000F4B53F820300BB9FFF792FE24B20D4B46
:104E00003A46314604EBC404284603EB8404434687
:104E10000094FFF790FD4FF6FF73984206D02146AD
:104E2000FFF7CCFD62B602B0BDE8F0810120F9E7E2
:104E30002C8340207484402070B586B00646CDE9AE
:104E400004210393FDF79AFE044672B60B480599B8
:104E500050F82450DDE903322DB9FFF761FE2846F2
:104E600062B606B070BD24B2054804EBC40400EB82
:104E7000840430460094FFF7B9FDF1E72C8340200D
:104E80008880402070B586B00646CDE904210393A2
:104E9000FDF774FE044672B60B48059950F824508D
:104EA000DDE903322DB9FFF73BFE284662B606B0B6
:104EB00070BD24B2054804EBC40400EB8404304602
:104EC0000094FFF793FDF1E72C8340206881402098
:104ED00070B586B00646CDE904210393FDF74EFE7A
:104EE000044672B60B48059950F82450DDE90332A8
:104EF0002DB9FFF715FE284662B606B070BD24B284
:104F0000054804EBC40400EB840430460094FFF72A
:104F10006DFDF1E72C8340207484402010B5FDF72F
:104F20002DFE72B60D4B53F820302BB90124FFF73C
:104F3000F7FD62B6204610BD094B002253F8204011
:104F400043F8202000B2074BB4FA84F400EBC00011
:104F5000640903EB8000FFF7C8FDEAE72C834020DB
:104F6000748340208880402010B5FDF707FE72B69C
:104F70000D4B53F820302BB90124FFF7D1FD62B659
:104F8000204610BD094B002253F8204043F8202052
:104F900000B2074BB4FA84F400EBC000640903EBE1
:104FA0008000FFF7A2FDEAE72C834020BC8340206D
:104FB0006881402010B5FDF7E1FD72B60D4B53F846
:104FC00020302BB90124FFF7ABFD62B6204610BD9F
:104FD000094B002253F8204043F8202000B2074B31
:104FE000B4FA84F400EBC000640903EB8000FFF71F
:104FF0007CFDEAE72C8340204882402074844020D6
:1050000008B100BEFDE7704700207047B1FA81F09B
:10501000400970477047002918BF002070474FF0C3
:10502000E02300226FF07F411A6159619A610522E5
:105030001A6170474FF0E023986920F07F40704775
:1050400001464FF0E0208269436922F07F4293429B
:1050500009D30B68934204D24069801A18440A604D
:105060007047981AFBE70020F9E7000008B5FDF744
:1050700085FD094B53F820203AB9EFF31082D10790
:1050800000D472B6054941F8202053F8202001329F
:1050900043F8202008BD00BFA4854020B4854020EF
:1050A00008B5FDF76BFD084B53F82020013A43F893
:1050B0002020064A52F82020D20703D453F820308B
:1050C00003B962B608BD00BFA4854020B485402066
:1050D00008B5FDF753FD094B53F820203AB9EFF31B
:1050E0001082D10700D472B6054941F8202053F848
:1050F0002020013243F8202008BD00BF84854020D5
:105100009485402008B5FDF739FD084B53F8202061
:10511000013A43F82020064A52F82020D20703D44F
:1051200053F8203003B962B608BD00BF8485402023
:105130009485402008B5FDF721FD094B53F8202048
:105140003AB9EFF31082D10700D472B6054941F89D
:10515000202053F82020013243F8202008BD00BF52
:10516000E4854020F485402008B5FDF707FD084B95
:1051700053F82020013A43F82020064A52F8202014
:10518000D20703D453F8203003B962B608BD00BF7C
:10519000E4854020F485402008B5FDF7EFFC094B7D
:1051A00053F820203AB9EFF31082D10700D472B639
:1051B000054941F8202053F82020013243F82020EF
:1051C00008BD00BFC4854020D485402008B5FDF748
:1051D000D5FC084B53F82020013A43F82020064A1A
:1051E00052F82020D20703D453F8203003B962B616
:1051F00008BD00BFC4854020D485402008B5FDF718
:10520000BDFC094B53F820203AB9EFF31082D107C7
:1052100000D472B6054941F8202053F8202001320D
:1052200043F8202008BD00BF44864020548640201B
:1052300008B5FDF7A3FC084B53F82020013A43F8CA
:105240002020064A52F82020D20703D453F82030F9
:1052500003B962B608BD00BF448640205486402092
:1052600008B5FDF78BFC094B53F820203AB9EFF352
:105270001082D10700D472B6054941F8202053F8B6
:105280002020013243F8202008BD00BF04864020C2
:105290001486402008B5FDF771FC084B53F8202018
:1052A000013A43F82020064A52F82020D20703D4BE
:1052B00053F8203003B962B608BD00BF0486402011
:1052C0001486402008B5FDF759FC094B53F82020FF
:1052D0003AB9EFF31082D10700D472B6054941F80C
:1052E000202053F82020013243F8202008BD00BFC1
:1052F000248640203486402008B5FDF73FFC084B4B
:1053000053F82020013A43F82020064A52F8202082
:10531000D20703D453F8203003B962B608BD00BFEA
:10532000248640203486402008B5FDF727FC094B31
:1053300053F820203AB9EFF31082D10700D472B6A7
:10534000054941F8202053F82020013243F820205D
:1053500008BD00BF348940207488402008B5FDF79F
:105360000DFC084B53F82020013A43F82020064A50
:1053700052F82020D20703D453F8203003B962B684
:1053800008BD00BF348940207488402008B5FDF76F
:10539000F5FB094B53F820203AB9EFF31082D107FF
:1053A00000D472B6054941F8202053F8202001327C
:1053B00043F8202008BD00BFA48640203487402049
:1053C00008B5FDF7DBFB084B53F82020013A43F802
:1053D0002020064A52F82020D20703D453F8203068
:1053E00003B962B608BD00BFA486402034874020C0
:1053F00008B5FDF7C3FB094B53F820203AB9EFF38A
:105400001082D10700D472B6054941F8202053F824
:105410002020013243F8202008BD00BF048940202D
:105420005487402008B5FDF7A9FB084B53F820200E
:10543000013A43F82020064A52F82020D20703D42C
:1054400053F8203003B962B608BD00BF048940207C
:105450005487402008B5FDF791FB094B53F82020F5
:105460003AB9EFF31082D10700D472B6054941F87A
:10547000202053F82020013243F8202008BD00BF2F
:10548000C48840204489402008B5FDF777FB084BCD
:1054900053F82020013A43F82020064A52F82020F1
:1054A000D20703D453F8203003B962B608BD00BF59
:1054B000C48840204489402008B5FDF75FFB094BB4
:1054C00053F820203AB9EFF31082D10700D472B616
:1054D000054941F8202053F82020013243F82020CC
:1054E00008BD00BFB4894020B486402008B5FDF750
:1054F00045FB084B53F82020013A43F82020064A88
:1055000052F82020D20703D453F8203003B962B6F2
:1055100008BD00BFB4894020B486402008B5FDF71F
:105520002DFB094B53F820203AB9EFF31082D10735
:1055300000D472B6054941F8202053F820200132EA
:1055400043F8202008BD00BF94884020E486402016
:1055500008B5FDF713FB084B53F82020013A43F838
:105560002020064A52F82020D20703D453F82030D6
:1055700003B962B608BD00BF94884020E48640208D
:1055800008B5FDF7FBFA094B53F820203AB9EFF3C1
:105590001082D10700D472B6054941F8202053F893
:1055A0002020013243F8202008BD00BF448840205D
:1055B000D488402008B5FDF7E1FA084B53F82020C5
:1055C000013A43F82020064A52F82020D20703D49B
:1055D00053F8203003B962B608BD00BF44884020AC
:1055E000D488402008B5FDF7C9FA094B53F82020AC
:1055F0003AB9EFF31082D10700D472B6054941F8E9
:10560000202053F82020013243F8202008BD00BF9D
:1056100014874020C489402008B5FDF7AFFA084B35
:1056200053F82020013A43F82020064A52F820205F
:10563000D20703D453F8203003B962B608BD00BFC7
:1056400014874020C489402008B5FDF797FA094B1C
:1056500053F820203AB9EFF31082D10700D472B684
:10566000054941F8202053F82020013243F820203A
:1056700008BD00BF148840206486402008B5FDF7AF
:105680007DFA084B53F82020013A43F82020064ABF
:1056900052F82020D20703D453F8203003B962B661
:1056A00008BD00BF148840206486402008B5FDF77F
:1056B00065FA094B53F820203AB9EFF31082D1076D
:1056C00000D472B6054941F8202053F82020013259
:1056D00043F8202008BD00BFD4874020A489402083
:1056E00008B5FDF74BFA084B53F82020013A43F870
:1056F0002020064A52F82020D20703D453F8203045
:1057000003B962B608BD00BFD4874020A4894020F9
:1057100008B5FDF733FA094B53F820203AB9EFF3F7
:105720001082D10700D472B6054941F8202053F801
:105730002020013243F8202008BD00BF948640207D
:105740005489402008B5FDF719FA084B53F820207A
:10575000013A43F82020064A52F82020D20703D409
:1057600053F8203003B962B608BD00BF94864020CC
:105770005489402008B5FDF701FA094B53F8202061
:105780003AB9EFF31082D10700D472B6054941F857
:10579000202053F82020013243F8202008BD00BF0C
:1057A000A48740207489402008B5FDF7E7F9084B2D
:1057B00053F82020013A43F82020064A52F82020CE
:1057C000D20703D453F8203003B962B608BD00BF36
:1057D000A48740207489402008B5FDF7CFF9094B14
:1057E00053F820203AB9EFF31082D10700D472B6F3
:1057F000054941F8202053F82020013243F82020A9
:1058000008BD00BFE48840200488402008B5FDF7AB
:10581000B5F9084B53F82020013A43F82020064AF6
:1058200052F82020D20703D453F8203003B962B6CF
:1058300008BD00BFE48840200488402008B5FDF77B
:105840009DF9094B53F820203AB9EFF31082D107A4
:1058500000D472B6054941F8202053F820200132C7
:1058600043F8202008BD00BF84884020F4884020F1
:1058700008B5FDF783F9084B53F82020013A43F8A7
:105880002020064A52F82020D20703D453F82030B3
:1058900003B962B608BD00BF84884020F488402068
:1058A00008B5FDF76BF9094B53F820203AB9EFF32F
:1058B0001082D10700D472B6054941F8202053F870
:1058C0002020013243F8202008BD00BF6489402019
:1058D000D489402008B5FDF751F9084B53F8202032
:1058E000013A43F82020064A52F82020D20703D478
:1058F00053F8203003B962B608BD00BF6489402068
:10590000D489402008B5FDF739F9094B53F8202018
:105910003AB9EFF31082D10700D472B6054941F8C5
:10592000202053F82020013243F8202008BD00BF7A
:10593000C48640204487402008B5FDF71FF9084B76
:1059400053F82020013A43F82020064A52F820203C
:10595000D20703D453F8203003B962B608BD00BFA4
:10596000C48640204487402008B5FDF707F9094B5D
:1059700053F820203AB9EFF31082D10700D472B661
:10598000054941F8202053F82020013243F8202017
:1059900008BD00BFB48740203488402008B5FDF71B
:1059A000EDF8084B53F82020013A43F82020064A2E
:1059B00052F82020D20703D453F8203003B962B63E
:1059C00008BD00BFB48740203488402008B5FDF7EB
:1059D000D5F8094B53F820203AB9EFF31082D107DC
:1059E00000D472B6054941F8202053F82020013236
:1059F00043F8202008BD00BFA4884020248940200F
:105A000008B5FDF7BBF8084B53F82020013A43F8DE
:105A10002020064A52F82020D20703D453F8203021
:105A200003B962B608BD00BFA48840202489402085
:105A300008B5FDF7A3F8094B53F820203AB9EFF366
:105A40001082D10700D472B6054941F8202053F8DE
:105A50002020013243F8202008BD00BF8489402067
:105A60008486402008B5FDF789F8084B53F82020BC
:105A7000013A43F82020064A52F82020D20703D4E6
:105A800053F8203003B962B608BD00BF84894020B6
:105A90008486402008B5FDF771F8094B53F82020A3
:105AA0003AB9EFF31082D10700D472B6054941F834
:105AB000202053F82020013243F8202008BD00BFE9
:105AC000F48640207487402008B5FDF757F8084B4E
:105AD00053F82020013A43F82020064A52F82020AB
:105AE000D20703D453F8203003B962B608BD00BF13
:105AF000F48640207487402008B5FDF73FF8094B35
:105B000053F820203AB9EFF31082D10700D472B6CF
:105B1000054941F8202053F82020013243F8202085
:105B200008BD00BFE48740206488402008B5FDF729
:105B300025F8084B53F82020013A43F82020064A64
:105B400052F82020D20703D453F8203003B962B6AC
:105B500008BD00BFE48740206488402008B5FDF7F9
:105B60000DF8094B53F820203AB9EFF31082D10712
:105B700000D472B6054941F8202053F820200132A4
:105B800043F8202008BD00BF84874020F4874020D0
:105B900008B5FCF7F3FF084B53F82020013A43F80F
:105BA0002020064A52F82020D20703D453F8203090
:105BB00003B962B608BD00BF84874020F487402047
:105BC00008B5FCF7DBFF094B53F820203AB9EFF397
:105BD0001082D10700D472B6054941F8202053F84D
:105BE0002020013243F8202008BD00BF2487402038
:105BF0009487402008B5FCF7C1FF084B53F82020DC
:105C0000013A43F82020064A52F82020D20703D454
:105C100053F8203003B962B608BD00BF2487402086
:105C20009487402008B5FCF7A9FF094B53F82020C2
:105C30003AB9EFF31082D10700D472B6054941F8A2
:105C4000202053F82020013243F8202008BD00BF57
:105C500024884020D486402008B5FCF78FFF084BED
:105C600053F82020013A43F82020064A52F8202019
:105C7000D20703D453F8203003B962B608BD00BF81
:105C800024884020D486402008B5FCF777FF094BD4
:105C900053F820203AB9EFF31082D10700D472B63E
:105CA000054941F8202053F82020013243F82020F4
:105CB00008BD00BF14894020C487402008B5FCF708
:105CC0005DFF084B53F82020013A43F82020064A94
:105CD00052F82020D20703D453F8203003B962B61B
:105CE00008BD00BF14894020C487402008B5FCF7D8
:105CF00045FF094B53F820203AB9EFF31082D10742
:105D000000D472B6054941F8202053F82020013212
:105D100043F8202008BD00BF74864020B48840208E
:105D200008B5FCF72BFF084B53F82020013A43F845
:105D30002020064A52F82020D20703D453F82030FE
:105D400003B962B608BD00BF74864020B488402005
:105D500008B5FCF713FF094B53F820203AB9EFF3CD
:105D60001082D10700D472B6054941F8202053F8BB
:105D70002020013243F8202008BD00BF6487402066
:105D80009489402008B5FCF7F9FE084B53F8202011
:105D9000013A43F82020064A52F82020D20703D4C3
:105DA00053F8203003B962B608BD00BF64874020B5
:105DB0009489402008B5FCF7E1FE094B53F82020F8
:105DC0003AB9EFF31082D10700D472B6054941F811
:105DD000202053F82020013243F8202008BD00BFC6
:105DE000548840200487402008B5FCF7C7FE084BC4
:105DF00053F82020013A43F82020064A52F8202088
:105E0000D20703D453F8203003B962B608BD00BFEF
:105E10005488402004874020002330B504461846AB
:105E200044FA03F204FA03F1C3F10F05013302F05F
:105E3000010201F40041082B02FA05F221FA05F1F2
:105E400042EA010242EA000290B2E9D130BDF8B55F
:105E5000071E06460D46144618BF0127C5F10F055B
:105E600004F001043846FCF723FC0F2904FA05F47A
:105E70008CBF002101210846FCF71AFC012A8CBFC7
:105E8000002201221046FCF713FC3846FCF710FCF8
:105E90000846FCF70DFC1046FCF70AFCFFF77CF9FE
:105EA000338801229BB2AA4023EA020323439BB218
:105EB0003380BDE8F840FFF789B9054B81F0030155
:105EC00053F820301944012301F598510B707047A5
:105ED000B8014020054B81F0030153F820301944EC
:105EE000002301F598510B70704700BFB8014020A6
:105EF00010B50446003818BF0120FCF7D9FB08464E
:105F0000FFF78AFF208010BD0246003808B518BF91
:105F10000120FCF7CDFB1088BDE8084080B27BE78C
:105F200010B50446003818BF0120FCF7C1FB084635
:105F3000FFF772FF2388184380B2208010BD10B590
:105F40000446003818BF0120FCF7B2FB0846FFF7F3
:105F500063FF23889BB223EA0000208010BD10B5A8
:105F60000446003818BF0120FCF7A2FB0846FFF7E3
:105F700053FF2388584080B2208010BD024600386D
:105F800008B518BF0120FCF793FBB2F84000BDE84C
:105F9000084080B240E70246003810B518BF012023
:105FA0000C46FCF785FB0F298CBF00200120FCF775
:105FB0007FFBB2F8400080B2FFF72EFF0123A34021
:105FC00018402041C0B210BDF8B517460646184625
:105FD0000D46FFF721FF04463846FFF71DFF054B2E
:105FE00040EA044053F8261001EB850101F5BC514D
:105FF0000860F8BDB80140200246003870B518BFEF
:106000000120FCF75FFB50689A288CBF002001201C
:10601000FCF758FB9368D06A022B17BFDB02002302
:1060200003F4006343F4005302281EBF410501F44A
:1060300000110B43916A02291EBF490401F400318B
:106040000B43516A02291EBF090401F480310B433E
:10605000916902291EBF090201F480710B43D169C5
:1060600002291EBF890101F040010B43116B022977
:106070001EBFC90401F400210B43516902291EBF50
:10608000890301F480410B43116902291EBF4901B4
:1060900001F020010B43D16801F00F04234351B9F3
:1060A000012808D192F8BC00022804D09188244C21
:1060B00081F003010855116B01291CD0D2E90001C0
:1060C000903140F821301F4B516BD3F80C3641BB57
:1060D000926B62B1110449BF42F07F42134342F414
:1060E0007F0242F4794244BF42F081021340154AD4
:1060F000C2F80C3670BD02F13C0102F17C05124E73
:1061000051F8044B102C09D0C86BB0F5CC7F05D8E2
:1061100004F00F0400F5247046F820408D42EFD1C2
:10612000CCE7080449BF41F07F410B4341F47F01B4
:1061300041F4794144BF41F081010B40C8E700BF01
:106140000013294000C02A4000002940F8B5094B3F
:1061500004460E4600251960C027074B1860A5426B
:1061600001D10020F8BD07FB05600135FFF744FFB2
:10617000F5E700BF140140201801402070B5044627
:10618000003816460D4618BF0120FCF79BFA0F2970
:106190008CBF00200120FCF795FAFFF7F7F8012EDD
:1061A00013D0022E07D0AEB954F8253023F4006383
:1061B00043F4005303E054F8253023F4005344F82B
:1061C0002530BDE87040FFF7FBB854F8253043F4A4
:1061D0002053F4E700BEFDE7F8B5044600381E463C
:1061E0000D4618BF01201746FCF76CFA0F2906F080
:1061F0000F068CBF00200120FCF764FAFFF7F8F8C7
:1062000054F82530002F23F4001314BF4FF400126C
:10621000002244F8253054F82530134344F8253043
:1062200054F8253023F00F0344F8253054F8253076
:106230001E4344F82560BDE8F840FFF7F3B80F2986
:106240002DE9F04105468CBF002001200E46904606
:106250001C46069FFCF736FAFFF7FCF885B155F8A7
:106260002630B8F1000F23F4002314BF4FF40022AE
:10627000002245F8263055F82630134345F82630DD
:10628000102F10D0B4F5CC7F0DD8A30007F00F0766
:1062900003F1804303F52413D3F8402A22F00F02C0
:1062A0001743C3F8407ABDE8F041FFF7EDB870B589
:1062B0000446003816460D4618BF0120FCF702FAC6
:1062C0000F298CBF00200120FCF7FCF9FFF7F4F840
:1062D000032E0FD8DFE806F002121D2254F82530F5
:1062E00023F4001344F8253054F8253043F40023F8
:1062F00044F82530BDE87040FFF7F8B854F8253071
:1063000023F4002344F8253054F8253043F40013D7
:10631000EEE754F8253043F42013E9E754F825302C
:1063200023F42013E4E7F8B5144B044600380D4677
:106330001A68134B18BF01201E68FCF7C3F90F2918
:106340008CBF00200120FCF7BDF90E4B23449B09B4
:1063500001EB03130021B14202D14FF0FF3009E0FD
:106360001046C03252F8BC7C9F4204D1FFF744FE75
:1063700054F82500F8BD0131EDE700BF14014020BD
:1063800018014020C0FDD6BFF8B52E4B0546003899
:1063900016460C4619682C4B18BF01201A68FCF7EA
:1063A00091F90F2E8CBF00200120FCF78BF9274BB1
:1063B0004FF0000C2B449B0906EB031394453DD092
:1063C0000F46C03151F8BC0C984238D13A6807F1F9
:1063D0007C0104F17C00C4E9002397F8BC30402222
:1063E00084F8BC30FCF7FEFA402207F13C0104F1CE
:1063F0003C00FCF7F7FA55F8263003F00F02E26094
:10640000C3F3401222619A044CBFC3F3C02202229C
:10641000A260C3F380326261C3F30022A261C3F3BE
:106420008012E261C3F34042A262C3F3004262629F
:10643000C3F3C042C3F340532263E362F8BD0CF1DF
:10644000010CBBE71401402018014020C0FDD6BF5D
:10645000431E012B10B5044601D900BEFDE7FFF72E
:1064600025F9064B012C1A680CBF42F0010242F0DC
:106470000202BDE810401A60FFF732B900402C401C
:10648000431E012B10B5044601D900BEFDE7FFF7FE
:106490000DF9064B012C1A680CBF22F0010222F004
:1064A0000202BDE810401A60FFF71AB900402C4004
:1064B000411E012901D900BEFDE700EB800001016A
:1064C00001F1402101F530110A604B607047F8B5C9
:1064D00006460D4609BB00BEFDE715F83320022A2B
:1064E00001D900BEFDE714430133B342F5D1FFF7F4
:1064F0000FF91E4A00212F1D13684FF6FF7C012063
:1065000023EA04031360B1420AD1184B1A681443FA
:106510001C60BDE8F840FFF715B900242346E4E706
:1065200015F83130BBB157F83120624513D0013B2B
:106530001F2ADBB203EB83034FEA031303F140236B
:1065400003F5301309D9203AD3F854E000FA02F2E7
:1065500042EA0E025A650131D5E7D3F850E000FA5D
:1065600002F242EA0E021A65F5E700BF00402C4035
:106570000C4A0D4812680368526C10B50B4CE17A56
:10658000247B02EBC10102EBC402496852689142CC
:106590008ABF23F0400323F0010343F001030360AB
:1065A00010BD00BFF0004020004026409800402071
:1065B0005FF800F01D0140200301020000002940A7
:1065C000000029402A000000020000000000000036
:1065D00000000000020000000200000002000000B5
:1065E00000000000000000000000000001000000AA
:1065F000000000000000000000000000000000009B
:10660000000000000000000000000000000000008A
:10661000000000000000000000000000000000007A
:10662000000000000000000000000000000000006A
:10663000000000000000000000000000000000005A
:10664000000000000000000000000000000000004A
:10665000000000000000000000000000000000003A
:10666000000000000000000000000000000000002A
:10667000000000000000000000000000000000001A
:1066800000000000000000000000000003010108FD
:106690000E0100003D000306646A4000506A40009D
:1066A000286A4000E86940004069400034694000C1
:1066B00000000000000000004C67400000000000E7
:1066C000F8664000C86640000000000000000000BE
:1066D00001000000006CDC02050000000024F40052
:1066E0000B000000000E27070C000000008793033A
:1066F0000D00000080C3C90105000000000000007B
:1067000000000000F4010000010000000024F4007B
:10671000000000000B00000000000000000000006E
:10672000F401000001000000000E27070000000037
:106730000C0000000000000000000000F401000058
:106740000100000000879303000000001200000019
:106750000100000013000000010000001400000010
:1067600001000000160000000100000017000000FA
:106770000100000018000000010000001A000000E5
:10678000010000001B000000010000001C000000D0
:10679000010000001D000000010000001E000000BC
:1067A000010000001F0000000100000020000000A8
:1067B0000100000021000000010000002200000094
:1067C0000100000023000000010000002400000080
:1067D000010000002500000001000000260000006C
:1067E0000100000027000000010000002800000058
:1067F0000100000029000000010000002A00000044
:10680000010000002B000000010000002C0000002F
:10681000010000002E000000010000002F00000019
:106820000100000030000000010000003200000004
:1068300001000000330000000100000034000000EF
:1068400001000000350000000100000036000000DB
:1068500001000000370000000100000038000000C7
:106860000100000039000000010000003A000000B3
:10687000010000003B000000010000003C0000009F
:10688000010000003D000000010000003E0000008B
:10689000010000003F000000010000004000000077
:1068A0000100000041000000010000004200000063
:1068B000010000004300000001000000440000004F
:1068C000010000004500000001000000460000003B
:1068D0000100000047000000010000004800000027
:1068E0000100000049000000010000004B00000012
:1068F000010000004C000000010000004D000000FD
:10690000010000004F0000000100000050000000E6
:1069100001000000510000000100000053000000D1
:1069200001000000540000000100000055000000BC
:10693000010000000B000000010000000B0000003F
:106940000700000004000000000000000800000034
:106950000200000000000000090000000500000027
:10696000000000000B00000001000000000000001B
:106970000C00000002000000000000000D000000FC
:1069800004000000000000000E00000002000000F3
:10699000000000000F0000000400000000000000E4
:1069A00010000000020000000000000015000000C0
:1069B00002000000000000002D00000002000000A6
:1069C0000000000031000000020000000000000094
:1069D0004E00000001000000000000005200000016
:1069E00001000000000000000A0000000800000094
:1069F000100000000500000015000000010000006C
:106A00002D00000001000000310000000100000026
:106A10004A000000010000004E00000001000000DC
:106A2000520000000100000006000000010000000C
:106A300005000000000200000000000078010100D5
:106A40000000000000000000000000000000000046
:106A5000050000000024F4000100310000010C00DA
:106A60000000000001000000010000010000000023
:106A70000200000000000000000000000400000010
:106A800000000000000000000001080000010000FC
:106A900000010900000200000000000000000000EA
:106AA00000000000000000000000000000000000E6
:106AB00000000000000000000000000000000000D6
:106AC00000000000000000000000000000000000C6
:106AD00000000000000000000001010002000000B2
:106AE00001021C000000001001021D000000002037
:106AF0000000000000000000010300000100000091
:106B0000010100000100000001010100020000007D
:106B10000100030008000000010004001000000054
:106B200001000500200000000100060040000000F8
:106B300001000700800000000100080000010000C3
:106B4000010009000002000001000A00000400002A
:106B500001000B000008000001000C000010000004
:106B600001000D000020000001000E0000400000A8
:106B700001000F0000800000000000000000000085
:106B80000000000000000000000000000000000005
:106B900000000000000000000000000000000000F5
:106BA00000000000000000000000000000000000E5
:106BB00000000000000000000000000000000000D5
:106BC00000000000000000000000000000000000C5
:106BD00000000000000000000000000000000000B5
:106BE00000000000000000000000000000000000A5
:106BF0000000000000000000000000000000000095
:106C00000000000000000000000000000000000084
:106C1000000000000000000001001600000040001D
:106C20000000000000000000000000000000000064
:106C30000000000000000000000000000000000054
:106C40000001020004000000000103000800000031
:106C5000000000000000000001001700000080009C
:106C60000000000000000000000000000000000024
:106C70000000000000000000000000000000000014
:106C80000000000000000000000000000000000004
:106C900001020100020000000102020004000000E5
:106CA00001020300080000000102040010000000BF
:106CB0000102050020000000010206004000000063
:106CC00001020900000200000000000000000000B6
:106CD00000000000000000000000000000000000B4
:106CE00001001F00000000800001060040000000BD
:106CF00000010700800000000102140000001000E5
:106D000001021500000020000102160000004000F2
:106D100001021700000080000102180000000001BD
:106D20000102190000000002000000000000000045
:106D3000000000000000000001020A000004000042
:106D400001020B000008000001020C00001000000E
:106D500001020D000020000001020E0000400000B2
:106D600001020F000080000001021000000001007D
:106D700001021100000002000000000000000000FD
:106D80000000000000000000000000000000000003
:106D900000000000000000000000000000000000F3
:106DA00000000000000000000000000000000000E3
:106DB00000000000000000000100180000000001B9
:106DC00000000000000000000000000000000000C3
:106DD00000010C000010000000010D000020000068
:106DE00000000000000000000000000000000000A3
:106DF0000000000000000000000000000000000093
:106E0000010102000400000000000000000000007A
:106E10000000000000000000000000000000000072
:106E200001010A0000040000000000000000000052
:106E30000000000000000000000000000000000052
:106E40000000000000000000000000000000000042
:106E50000000000000000000010308000001000025
:106E600001001D00000000200000000000000000E4
:106E70000000000000000000000000000000000012
:106E8000000000000000000001001C0000000010D5
:106E9000000000000000000001021F000000008050
:106EA00000010000010000000101110000000200CB
:106EB00001010D00002000000000000000000000A3
:106EC00000000000000000000000000000000000C2
:106ED00000000000000000000000000000000000B2
:106EE00000000000000000000000000000000000A2
:106EF0000000000000000000000000000000000092
:107170000000000F180000000000000000000000E8
:107180000000003F1800000000003F001000000059
:107190000000003F18000000000007001000000081
:1071A00000000000000000000000000000000000DF
:1071B00000000000000000000000000000000000CF
:1071C00000000000000000000000000000000000BF
:1071D00000000000000000000000000000000000AF
:1071E0000000001F18000000000003001000000055
:1071F0000000001F18000000000003001000000045
:10720000000000000000000000000000000000007E
:10721000000000000000000000000000000000006E
:107220000000001F18000000000001001000000016
:10723000000000000000000000000000000000004E
:10724000000000000000000000000000000000003E
:10725000000000000000000000000000000000002E
:107260000000000F1800000000000F0010000000D8
:107270000000000F180000000000070010000000D0
:107280000000000F1800000000000F0010000000B8
:107290000000000F180000000000070010000000B0
:1072A0000000000F180000000000070010000000A0
:1072B00000000000000000000000000000000000CE
:1072C00000000000000000000000000000000000BE
:1072D0000000000F18000000000007001000000070
:1072E000000000000000000000000000000000009E
:1072F000000000000000000000000000000000008E
:10730000000000000000000000000000000000007D
:10731000000000000000000000000000000000006D
:10732000000000000000000000000000000000005D
:10733000000000000000000000000000000000004D
:10734000000000000000000000000000000000003D
:10735000000000000000000000000000000000002D
:10736000000000000000000000000000000000001D
:10737000000000000000000000000000000000000D
:1073800000000000000000000000000000000000FD
:1073900000000000000000000000000000000000ED
:1073A00000000000000000000000000000000000DD
:1073B00000000000000000000000000000000000CD
:1073C0005600000006000000000000000100000060
:1073D00001000000010000000100000002000000A8
:1073E0000300000003000000030000000300000091
:1073F000000000000000000000000000000000008D
:1074000000000000000000000000000000C12D404E
:1074100000C32D40000000000000000010C12D40FE
:1074200010C32D40000000000000000030C12D40BE
:1074300030C32D40000000000000000005000000E7
:1074400001000000F40100000D00000000C02B400E
:107450005600000056000000F40100005600000035
:10746000000000005600000056000000F40100007B
:1074700056000000000000000B00000005000000A6
:10748000010000000D00000060C02B400C00000057
:1074900001000000F40100000D00000080C02B403E
:1074A0000E00000001000000F40100000D000000CB
:1074B000A0C02B405600000056000000F401000060
:1074C000560000000000000005000000560000000B
:1074D000560000000B0000000C0000000E00000031
:1074E0005600000000C02B4000000000000000001B
:1074F00060C02B4080C02B40A0C02B40000000008B
:1075000000002E400200000000000000000000000B
:1075100000402D4000C02C4000802D4000832D40B5
:1075200040832D4000000000C0832D4000842D408A
:1075300040842D4080842D400000000000000000A9
:107540000000000000000000C0852D400000000089
:10755000000000000000000000000000000000002B
:10756000000000000000000000000000000000001B
:107570000000020000000100000003000000000005
:1075800000000000000000000000000000000000FB
:1075900000000000000000000100000002000000E8
:1075A000000008000900000010001600170013007A
:1075B0000000320000000000000000000000000099
:1075C00000000000000000000000000000000000BB
:1075D00000000000000000000000000000000000AB
:1075E000000000000000000000000000000000009B
:1075F000000000000000000000000000000000008B
:10760000000000000000000000000000000000007A
:107610000000000001000000000000000002000067
:107620000000000000000000000000000000000357
:107630000000000000000000010000000000000049
:107640000001000000000000000003000000000036
:10765000000000040000000000070000050000001A
:1076600001000000000300000000000000000616FA
:1076700000000000000300061000000100000400EC
:1076800007110000020000000009120000030000C2
:1076900005000713000004000000000101000600BF
:1076A00000000000000000000000000000010000D9
:1076B00000000000000001000000000100000001C7
:1076C000000000000A0000000102000500000000A8
:1076D0000001000000000B00000001000000000C91
:1076E00000000001000000000E000000000000008B
:1076F000000000000001000000000F000000010079
:107700000000001000000001000000001100000057
:107710000100000000120000000100000000130042
:107720000000010000000014000000010000000043
:10773000150000000100000000160000000100001C
:107740000000170000000100000000180000000108
:10775000000000001900000001000000001A0000F5
:107760000001000000001B00000001000000001CE0
:1077700000000001000000001D00000001000000EA
:10778000003200000001000000003700000001008E
:107790000000003800000001000000003A00000076
:1077A000020700030000000000010000000041008B
:1077B0000000010000000042000000010000000085
:1077C0004300000002080004000000000001000067
:1077D000000044000000010000000045000000011E
:1077E000000000004600000001000000004700000B
:1077F0000001000000004B00000001000000004CF0
:1078000000000001000000004D0000000100000029
:10781000004E00000001000000004F0000000100C9
:1078200000000050000000010000000051000000B6
:1078300001000000005200000001000000005300A1
:1078400000000100000000560000000100000000E0
:107850005700000001000000005800000001000077
:1078600000005900000001000000005A0000000163
:10787000000000005B00000001000000005C000050
:107880000001000000005D00000001000000006633
:10789000000000010000000069000000010000007D
:1078A000006A000000040000000000000000010069
:1078B0000000006F000000010000000073000000E5
:1078C00001000000007A000000020B00010000002F
:1078D000000001000000007B00000001000000002B
:1078E00080000000010000000082000000010F0085
:1078F0000B000000000001000000008300000001F8
:10790000000000008400000001000000008500006D
:107910000001000000000100000100000000010063
:10792000000000000003010204000000010000014B
:107930000000000000000000000000000000000047
:10794000000000010000000000000100000301022F
:107950000000000000000001000000000000000026
:107960000000000000000101000100010104030308
:10797000010101023537400085384000B137400031
:10798000373740007D374000193940001939400031
:107990001B39400051394000B5394000B53940002D
:1079A000B5394000B5394000A13A4000B739400030
:1079B000353A4000093A4000FD3A4000FD3A4000A7
:1079C000FF3A4000053B4000073B4000093B4000B8
:1079D0003D3C4000553C4000553C4000573C400079
:1079E000193D4000593C4000693C4000393D400091
:1079F000793C4000893C4000993C4000553C4000A7
:107A0000573C40005D3D40005F3D4000613D40000F
:107A10005D3D4000153E40001D3E4000993D400048
:107A2000633D4000DD3F4000DD3F4000DF3F400060
:107A3000DD3F4000E33F4000E53F40002D40400077
:107A400005414000D9404000E33F40006141400013
:107A50006341400091424000914240009342400007
:107A6000D9434000D9424000DB424000A5454000D8
:107A7000D9444000914240006546400006000000A5
:107A80001C014020EC7A40008C7B400000804020AC
:107A90008C7B4000907B400000004120907B4000A8
:107AA000907B40000000002000204000082440009F
:107AB00000000000907B4000907B40000804002004
:107AC000907B4000907B40000300000000004120BC
:107AD0000000412010804020E48940200000402028
:047AE0001C01402025
:087AE40024ACFF7F010000004B
:107AEC001C4B1D4A1B68D27A5B6C03EBC2031B4A0E
:107AFC005B6893421ED81A4A934224D9194A93427E
:107B0C0023D9194A934294BF032304231749CA6803
:107B1C0022F4F85242EA0323BFF34F8FBFF36F8F67
:107B2C00CA6822F40042CA60CB60BFF34F8FBFF328
:107B3C006F8F70470E4A934209D90E4A934294BFF5
:107B4C0006230723E2E70123E0E70223DEE7052310
:107B5C00DCE700BFF000402098004020C037F4095B
:107B6C008014EF0300E1F505406BED0700C02E40DB
:107B7C0000C2EB0B404CE30DB12E4000000029403D
:047B8C0000000000F5
:040000050040242073
:00000001FF
