:020000040040BA
:10000000A55AA55A01000000FFFFFFFF0020400095
:10001000FFFFFFFF00204000FFFFFFFF0020400028
:10002000FFFFFFFF0000000000204000FFFFFFFF78
:10003000FFFFFFFFFFFFFFFFFFFFFFFFFFFFFFFFD0
:10004000FFFFFFFFFFFFFFFFFFFFFFFFFFFFFFFFC0
:10005000FFFFFFFFFFFFFFFFFFFFFFFFFFFFFFFFB0
:10006000FFFFFFFFFFFFFFFFFFFFFFFFFFFFFFFFA0
:1020000000000120212440006D2E40006F2E400072
:10201000712E4000732E4000752E4000000000001D
:10202000000000000000000000000000772E4000CB
:10203000792E4000000000007B2E40007D2E4000E5
:102040007F2E40007F2E40007F2E40007F2E4000DC
:102050007F2E40007F2E40007F2E40007F2E4000CC
:102060007F2E40007F2E40007F2E40007F2E4000BC
:102070007F2E40007F2E40007F2E40007F2E4000AC
:102400007F2E40007F2E400000BF00BF00BF00BFF6
:10241000FFF7FABF0000000000000000000000000D
:1024200072B64FF000004FF000014FF000024FF085
:1024300000034FF000044FF000054FF000064FF08E
:1024400000074FF0640001380028FCDC5C4801689C
:102450004FF0807201EA0201002924D15948016835
:102460004FF0807241EA02010160574801684FF065
:10247000010241EA02010160544845F6F021016081
:102480004AF20F510160504801684FF0010201EA21
:1024900002010129F7D04A4801684FF0807201EA31
:1024A00002010029F7D04A484CF2205101604DF654
:1024B000281101604748484901604848484901607F
:1024C0004849086820F0040040F0010008604649CF
:1024D000086820F0040040F001000860434800282C
:1024E00014D0434801684FF0010201EA02010029BB
:1024F00002D0404A404B01E0404A3F4B9A4205DA45
:1025000000200021E2E802019A42FBDB3C4800285F
:1025100016D03C4A12684FF07F4302EA03024FEAAA
:102520001262092A02D1384A384B01E0364A384B48
:102530009A4205DA00200021E2E802019A42FBDB20
:102540003448002816D02F4A12684FF47F0302EA5D
:1025500003024FEA1242082A02D12F4A2F4B01E010
:102560002D4A2F4B9A4205DA00200021E2E80201B1
:102570009A42FBDB2B4800684FF05A318842F9D071
:10258000294880F3088800F0A7FE284801684FF02A
:102590000000814202D000F0E3FC01E000F09AFC70
:1025A0000E482349016000F013FD62B600F006FDFD
:1025B00000F040F800BFFEE7AFF30080AFF300800B
:1025C00010C32D4030C32D4004C32D4000C02D400A
:1025D0001000274000002740400000FF08ED00E009
:1025E0000020400094EF00E090EF00E001000000C8
:1025F00000C0284000004020008041200000402012
:10260000010000001400264000000020000002200D
:102610000000012001000000000000000000010097
:1026200000800000301340200000012004002640FC
:1026300000000020F0B56648A5B001F0F7F9654943
:102640000220002507F00EFC634805F0B8FF634A3E
:102650006349002003F066FA09220121002004F0FA
:102660009FFC012100202E4604F0AEFA0022114604
:10267000104604F0C9F800235A4A1946184603F0D8
:102680007BFB00220121104604F0BEF80023564ACD
:102690000121184603F070FB002004F063FA0023C8
:1026A000524A1946184603F0B1FB0023504A012153
:1026B000184603F0ABFB05F223132A46A52102A816
:1026C00000938DF804508DF8056000F0C7FB694653
:1026D000002000F0BAF904460028F8D10135092D90
:1026E000E9D1444E0746A31922465A2102A8009375
:1026F0008DF804408DF8057000F0B0FB69460020AD
:1027000000F0A3F905460028F8D10134092CEAD1DC
:10271000052605F221332A46112102A800938DF8DF
:1027200004508DF8056000F099FB6946002000F028
:102730008CF904460028F8D10135412DE9D12E4D00
:10274000052663192246222102A800938DF8044031
:102750008DF8056000F082FB6946002000F075F9F5
:102760000028F9D10134412CEBD1204C94F8A02958
:1027700094F8A1399A420DD1002384F8A239F5E7E3
:10278000012000F0B5F912A9002000F05EF9002840
:10279000ECD0F5E794F8A119482201EBC1010DEB4B
:1027A000020004EBC101A03100F030FB94F8A13924
:1027B000013303F01F0384F8A13994F8A12994F898
:1027C000A0399A42DFD1002384F8A239DBE700BFA9
:1027D000B8A4400038A3400024A94000C0A840008D
:1027E00004174020D01B4020E01B402080004020E8
:1027F000D000402078563492DFCEAB9282B08DF874
:1028000007009DF807300BB900BEFDE702B0704726
:1028100082B08DF807009DF807300BB900BEFDE7C8
:1028200002B0704782B08DF807009DF807300BB9F1
:1028300000BEFDE702B07047EFF310807047EFF382
:1028400010807047EFF310807047EFF310807047EF
:1028500082B08DF807009DF807300BB900BEFDE788
:1028600002B0704710B590F80039044690F801297D
:10287000013303F01F03934214D090F8000948225B
:1028800000EBC00004EBC00000F0C0FA94F800397F
:102890000020013303F01F0384F80039012384F87A
:1028A000023910BD4FF0FF30FBE7F0B40546184683
:1028B0002C68E30FC4F380760B602B79CE72002670
:1028C0004B600E736E7906F001078F728FB9C6F3F5
:1028D00080060E720026B4424E7205F10801B4BFA4
:1028E00024F06044C4F30A0414601A46F0BC00F0FB
:1028F0008DBA0126EDE72DE9F04F0646ADB014463E
:10290000002955D1012A50D850234B4F0DF1280AE8
:102910005343FD5807EB0308C5F3807205F4001E0E
:1029200005F4801C0292C5F303420392434A02F16C
:10293000100B1068083252F8041CD1465A45A9E819
:102940000300CA46F5D15022BEF1000F2CA902980F
:1029500002FB047218BF4FF0004EBCF1000F52682A
:1029600018BF4FF0804C002D42EA0E0E4EEA0C02CA
:102970001A92039A0A44B4BF0421002112F8882C49
:1029800001431CA88DF86C208DF86D1003F108012F
:10299000394400F03BFA1AA92948FFF763FF0023E6
:1029A0004246E1B2304603F031FA2DB0BDE8F08F77
:1029B0000429FAD1204901F5805494F8A42294F80E
:1029C000A5329A4206D100231E4A84F8A63282F824
:1029D000B031EAE794F8A53248221AA803EBC30302
:1029E00001EBC30101F6A41100F010FA94F8A5322E
:1029F000013303F01F0384F8A53294F8A52294F85C
:102A0000A4329A4202D1002384F8A6320AAC05AA65
:102A100006A91AA82346FFF748FF059B06AA02212C
:102A20003046009403F06CF90028BED1054B01221A
:102A300083F8B021B9E700BF8000402020A3400008
:102A400020014020781140207047F0B5C5B2264FD4
:102A500099B00E46284604F08BFB97F8B031002B56
:102A600038D108AC03AA04A930462346FFF71DFF5E
:102A70000094039B04AA0221284603F041F904466E
:102A800030B90123284687F8B03104F047FB06E04F
:102A9000042807D14FF0FF34284604F03FFB2046BE
:102AA00019B0F0BD02280FD131461048FFF7DAFE09
:102AB00028B128466FF0030404F030FBEFE7284606
:102AC000012404F02BFBEAE728466FF0020404F02F
:102AD00025FBE4E731460548FFF7C4FE04462846D7
:102AE000002CD2D0E6E700BF78114020240A402015
:102AF0004FF49663584300B9704700BF0138FAE7B6
:102B000053B94AB9002908BF00281CBF4FF0FF3154
:102B10004FF0FF3000F078B9ADF1080C6DE904CE4C
:102B200000F006F8DDF804E0DDE9022304B07047A8
:102B30002DE9F047089D0E4604468E46002B4CD1E9
:102B40008A42944667D9B2FA82F252B101FA02F38C
:102B5000C2F1200120FA01F10CFA02FC41EA030E55
:102B600094404FEA1C48210CBEFBF8F61FFA8CF784
:102B700008FB16E341EA034306FB07F199420AD931
:102B80001CEB030306F1FF3080F01E81994240F2F6
:102B90001B81023E63445B1AA4B2B3FBF8F008FB4E
:102BA000103344EA034400FB07F7A7420AD91CEBA1
:102BB000040400F1FF3380F00981A74240F206814E
:102BC00064440238E41B40EA064000211DB1D440B1
:102BD0000023C5E90043BDE8F0878B4208D9002DEA
:102BE00000F0EF800021C5E900060846BDE8F08747
:102BF000B3FA83F1002949D1B34202D3824200F2F1
:102C0000FF80841A66EB030301209E46002DE2D06C
:102C1000C5E9004EDFE702B9FFDEB2FA82F2002A10
:102C200040F08E80A1EB0C064FEA1C471FFA8CF394
:102C30000121B6FBF7FE07FB1E60260C46EA0046A4
:102C400003FB0EF0B04208D91CEB06060EF1FF386C
:102C500002D2B04200F2D080C646361AA4B2B6FB09
:102C6000F7F007FB106644EA064400FB03F3A342B7
:102C700008D91CEB040400F1FF3602D2A34200F293
:102C8000B8803046E41A40EA0E409FE7C1F12007C1
:102C900022FA07F48B40234306FA01FC26FA07F4D4
:102CA00020FA07F646EA0C064FEA134900FA01F843
:102CB000B4FBF9FE300C1FFA83FC09FB1E4440EA0A
:102CC00004440EFB0CF0A04202FA01F20AD91C19CE
:102CD0000EF1FF3A80F08B80A04240F28880AEF186
:102CE000020E1C44241AB6B2B4FBF9F009FB1044DE
:102CF00046EA044400FB0CFCA44507D91C1900F16A
:102D0000FF3670D2A4456ED902381C4440EA0E400A
:102D1000A0FB02E6A4EB0C04B442F446B14659D33E
:102D200056D0002D6ED0B8EB0C0364EB0904CB40F9
:102D300004FA07F71F43CC40C5E9007400214AE7B5
:102D4000C2F1200024FA00F10CFA02FC06FA02F3A8
:102D500026FA00F04FEA1C4741EA0306B0FBF7F100
:102D60001FFA8CF307FB110E300C40EA0E4001FBFA
:102D700003FE864504FA02F408D91CEB000001F1B9
:102D8000FF3832D2864530D902396044A0EB0E00BC
:102D9000B6B2B0FBF7FE07FB1E0046EA00460EFB8C
:102DA00003F0B04209D91CEB06060EF1FF3818D229
:102DB000B04216D9AEF1020E6644361A4EEA01410F
:102DC00037E72946284606E70646E4E61846F9E6C8
:102DD000F045A6D2BEEB020C66EB03030138994620
:102DE0009FE7C646E9E7304690E74146CEE7D6463C
:102DF00078E76444023845E7AEF1020E66442CE7FA
:102E0000084603E72946E6E6704700BF0A449142B8
:102E100000F1FF3300D1704710B511F8014B03F8F2
:102E2000014F9142F9D110BD884210B501EB020467
:102E300002D98442234607D8431EA14208D011F884
:102E4000012B03F8012FF8E7024401468A4200D122
:102E500010BD13F8014D02F8014DF7E70244034697
:102E6000934200D1704703F8011BF9E7FEE7FEE744
:102E7000FEE7FEE7FEE7FEE7FEE7FEE7FEE7FEE72A
:102E80004FF0E022D2F80C3D23F4E0631843C2F87F
:102E90000C0D70474309012200F01F00403302FA75
:102EA00000F04FF0E02242F823007047430901226E
:102EB00000F01F00603302FA00F04FF0E02242F809
:102EC00023007047090100F1E020C9B280F8001426
:102ED000704700002DE9F8431F4B00251E68B542DE
:102EE00007D11E4C00262768B046BE4221D1BDE85E
:102EF000F883D3E90101DA680024521A02F0030CC6
:102F00009208A24209D101EB820100EB820200206B
:102F1000844508D801350C33E1E751F8247040F8B6
:102F200024700134EDE711F8014B013002F8014B38
:102F3000EEE7D4E9013500210136ED1A18460834D0
:102F400025F003024FEA9509FFF788FFAA0718BF8B
:102F500040F82980C9E700BF50B940009CB9400043
:102F6000144B0C22F0B5144D1E6802FB0533B5421C
:102F700000D3F0BDD3E90101DA680024521A02F04F
:102F8000030C9208A24209D101EB820100EB8202FC
:102F90000020844508D801350C33E8E751F8247047
:102FA00040F824700134EDE711F8014B013002F8CC
:102FB000014BEEE750B94000030000007047FEE708
:102FC000024B586800F00300704700BF0000264025
:102FD000A64B00215A68F0B512F0030F5C695869DE
:102FE000C4F3074408BF01254FEA106018BF00254D
:102FF0004B00013103F18043F02903F51813B3F8B6
:10300000802892B242EA0502A3F88028F0D1984BBA
:103010000022082C97491A60974A1A64974A5A6006
:103020000CBF974A974A09285A64974A9A60974A68
:103030009A64974ADA60974ADA644FF0D8521A6174
:10304000954A1A65954A5A610CBF954A8C4A5A6549
:10305000944A9A61944A42EA410294499A65944A90
:10306000DA61944A42EA4101D96593491962934968
:1030700042EA41024FF0CE411A664FF080425A6256
:103080008F4A5A668F4A9A6200229A66D9628E499E
:10309000D9664FF0D04119638C4919674FF06041F0
:1030A00059638B4959678B4999634FF088419A67F7
:1030B000D963DA67BFF34F8FBFF36F8F4FF0E02212
:1030C000D2F8141D8F0303D4D2F8142DD6036AD579
:1030D0004FF0E0210022C1F8842DBFF34F8FD1F8CB
:1030E000802D43F6E075C2F3C904C2F34E3252019B
:1030F00002EA0507204647EA8076C1F8746FBFF3FD
:103100004F8F0138F7D2203A12F1200FF0D1D1F8C9
:10311000842D42F00102C1F8842D0022C1F8502F05
:10312000BFF34F8FBFF36F8FC1F8842DBFF34F8F65
:10313000D1F8802D43F6E0754FF0E021C2F3C904C9
:10314000C2F34E32520102EA0507204647EA807672
:10315000C1F8746FBFF34F8F0138F7D2203A12F1E4
:10316000200FF0D1D1F8842D42F00102C1F8842D56
:103170000022C1F8502FBFF34F8FBFF36F8FD1F8EC
:10318000142D22F40032C1F8142DBFF34F8FBFF37A
:103190006F8FD1F8142D22F48032C1F8142DBFF3B3
:1031A0004F8FBFF36F8F00224FF0E020114603EBEB
:1031B0008204256CED070AD5C0F8981D013153F83B
:1031C0002250C9B2C0F89C5D246CC0F8A04D0132F9
:1031D000102AECD14FF0E023D3F8942D42F00302F3
:1031E000C3F8942DBFF34F8FBFF36F8F0022C3F846
:1031F000842DBFF34F8FD3F8802D43F6E074C2F3D4
:10320000C900C2F34E32520102EA0406014646EA00
:103210008175C3F8605FBFF34F8F0139F7D2203A51
:1032200012F1200FF0D1BFF34F8FD3F8142D42F4D9
:103230008032C3F8142DBFF34F8FBFF36F8FBFF3EE
:103240004F8FBFF36F8F0022C3F8502FBFF34F8F04
:10325000BFF36F8FD3F8142D42F40032C3F8142D4E
:10326000BFF34F8FBFF36F8FF0BD00BF000026404C
:10327000000040200E0000003F000410000000008D
:103280001F0008031D0008030000400029000B0771
:103290000000001023000B1619000B160000002080
:1032A000210008030000402001000B030E00000075
:1032B0000080402001000C13000041200E0000009F
:1032C0002DC00413000060401300041335000B03ED
:1032D00027000413000080004FF0E022D2F8883D60
:1032E00043F47003C2F8883DBFF34F8FBFF36F8F75
:1032F000704700BF70472DE9F047B54D01210446E6
:10330000286001F00FFD2B68002B40F03981E67B2F
:10331000B04FDFF8F882DFF8F892002E40F03781E6
:10332000A67CAD4FDFF8EC82DFF8E492002E40F08F
:103330003E81A67BA94FDFF8E082DFF8D492002E11
:1033400040F07C81667BA64FDFF8D082DFF8C09228
:10335000002E40F084813746DFF89C82DFF8C0926F
:10336000DFF8ACA2237BBB4200F2898128680025EC
:10337000022101F0D7FCE27CEBB29A4200F291818B
:10338000984B1D78002D38D10122974F29462846A9
:103390001A707B689847BB6856208F4F9847934BAD
:1033A00028461B689847924B28461B6898478C4BC9
:1033B00028461B6898477B6828469847BB688D4F0E
:1033C0002846984728463B68984729467B68284600
:1033D0009847894B814F28461B6898477B68284649
:1033E0009847BB68284698477A4B28465B689847B9
:1033F000824B294628461B68984701238049E27D75
:103400009A4200F259810025754FDFF81082DFF8EB
:103410000092637BAB4200F256810025774FDFF8C4
:103420000482DFF8EC91637DAB4200F25D81002500
:103430006F4FDFF8F481DFF8D891637CAB4200F284
:1034400064810025694FDFF8E481DFF8C491237CB3
:10345000AB4200F26A810025654FDFF8CC81DFF8CE
:10346000B091637CAB4200F2708100255B4FDFF8C6
:10347000A881DFF89C91A37BAB4200F27781002505
:10348000594FDFF88481DFF88891A37DAB4200F2C9
:103490007F810025524FDFF88481DFF87491637BD0
:1034A000AB4200F2878100254C4FDFF86C81DFF8DA
:1034B0006091A37BAB4200F28E810025464FDFF87E
:1034C0005481DFF84C91A37CAB4200F29681DFF887
:1034D000608101234B4F002556210420BB70D8F892
:1034E00000303D707D70FD70984701F043FCD8F8C6
:1034F0000030562105209847D8F800305621062084
:103500009847DFF8D09001F0D3FADFF800A1D8F89F
:1035100000305621DFF81C8107209847E37BAB423F
:1035200000F27D813D78002D40F0B381314FDFF80E
:103530000881DFF8DC90237DAB4200F28A812A4DBE
:10354000314FDFF8CC80A37DB34200F29281204658
:103550000421BDE8F04701F0E5BB1C22206C72435A
:1035600001368358104403EBC3034B445B7818F8CF
:1035700003301B01FB589847A37DB342EDD8C6E644
:103580000026194FDFF88080DFF88490F4E7606A46
:10359000013E50F8363000EBC60003EBC3034B444A
:1035A0005B7818F8033057F833309847B5E6013E9A
:1035B000206B0C223301C35800EB061003EBC3034E
:1035C0004B445B7818F803305343FB589847ADE6FB
:1035D0009013402010B9400074B84000E0B840009B
:1035E00054B8400094134020C0B8400030B84000A8
:1035F00044B8400080B8400090B8400008B940008E
:103600003813402034134020CCB74000E0B74000CE
:10361000C6B44000F4B74000EAB7400012B840001A
:1036200008B84000D6B740001CB8400026B840009B
:10363000CC1B402084B24000FEB74000013E28224F
:10364000206A142172438358104403EBC3034B4494
:103650005B7818F803304B43FB5898476FE6013E00
:103660001422E06972438358104403EBC3034B44B4
:103670005B7818F803301B01FB58984768E60C216B
:10368000A06901FB07F201378358104403EBC30321
:1036900053445B7819F803304B4358F8033098478C
:1036A00060E6616B1801013501EB03130858D3E99B
:1036B000022300F048FC5EE6626C52F833208B5423
:1036C0000133DBB29BE61422E0696A43013583587B
:1036D000104403EBC3034B445B7818F8033007EB4B
:1036E00003135B68984794E61422E06B29466A430B
:1036F00001358358104403EBC3034B445B7818F83F
:10370000033057F8233098478DE60C22E06A6A436D
:1037100001358358104403EBC3034B445B7818F81E
:10372000033057F83330984787E60C22A06A6A4383
:1037300001358358104403EBC3034B445B7818F8FE
:10374000033057F82330984781E60C22E06A6A4339
:1037500001358358104403EBC3034B445B7818F8DE
:10376000033007EBC3035B6898477AE62822206A98
:1037700014216A4301358358104403EBC3034B44BF
:103780005B7818F8033001FB03735B68984772E6B7
:103790001C22206C29466A4301358358104403EBF0
:1037A000C3034B445B7818F8033007EB03135B68E3
:1037B00098476AE61422E0696A4301358358104449
:1037C00003EBC3034B445B7818F8033007EB031398
:1037D0009B68984763E62822206A14216A430135D2
:1037E0008358104403EBC3034B445B7818F8033051
:1037F00001FB0373DB6898475BE6206B2B010C220F
:10380000C35800EB0510013503EBC3034B445B7851
:1038100018F8033002FB03735B68984753E6626A4B
:1038200002EBC500436858F82330032B0ED052F842
:103830003530194A03EBC30313445B781AF803309D
:1038400009EBC3035B689847013567E601233B70CA
:10385000FAE7A06B50F8353000EBC500013503EBFB
:10386000C3034B445B7818F8033057F8333098475C
:1038700061E61C22206C724301368358104403EB2E
:10388000C30343445B78FB5C05EB0313DB68984799
:1038900059E6BDE8F08700BFC6B440002DE9F04707
:1038A0001F4F002502241F4EDFF88880B378AB42FB
:1038B0001CD864BB1C4F2546DFF87C80DFF87C9069
:1038C000DFF868A0F3789D4221D257F8040B0C2250
:1038D00000EBC00353445B7819F8033002FB038309
:1038E0009B689847012811D00135EBE757F8040B86
:1038F0000E4B00EBC00213440D4A5B78D35C1422DC
:1039000002FB03839B689847012803D101242046CA
:10391000BDE8F087022805F1010508BF0024C5E7CE
:1039200080B24000341340207CB24000C6B4400056
:10393000EAB74000E0B8400074B84000F4B7400077
:103940002DE9F0412F4D2B682BBBBDE8F0815B6A60
:1039500003EBC400426856F82220032A0CD153F826
:103960003430294A03EBC30313445B7818F803305F
:1039700007EBC3035B68984701342B68DA7B9442FA
:10398000E5D3224B1B78002BDFD00024204E214FA3
:10399000DFF8748013E000241F4E204FDFF888808A
:1039A000EBE7986B50F8343000EBC400013403EBC4
:1039B000C30343445B78FB5C56F8333098472B686D
:1039C0001A7D9442EDD30024154E164FDFF838804F
:1039D0002868837D9C4204D30421BDE8F04101F0B6
:1039E000A1B91C22006C624301348358104403EBDC
:1039F000C30343445B78FB5C06EB0313DB68984727
:103A0000E6E700BF90134020C6B4400034134020C6
:103A100080B84000FEB7400084B2400010B94000BA
:103A2000C0B84000CCB74000E0B7400010B5FFF789
:103A300062FC064B1C782CB1FFF730FF044618B926
:103A4000FFF77EFF204610BD0124FBE73413402022
:103A5000054A00EBC0031344044A5B78D25C044B74
:103A600003EB02139B681847C6B44000CCB7400074
:103A7000C0B84000014B1860704700BFCC1B40200D
:103A8000064A00EBC00301211344054A5B78D25C6F
:103A9000044B03EBC2035B68184700BFC6B4400089
:103AA000FEB7400080B84000064A00EBC00300218A
:103AB0001344054A5B78D25C044B03EBC2035B689A
:103AC000184700BFC6B44000FEB7400080B84000B1
:103AD00008B5044B0221186801F024F9BDE808403C
:103AE00001F0F4B89013402008B5044B0221186887
:103AF00001F018F9BDE8084001F0F0B8901340203B
:103B000008B5044B0221186801F00CF9BDE8084023
:103B100001F0F2B89013402008B5044B0221186858
:103B200001F000F9BDE8084001F0EEB89013402024
:103B3000014B1B68184700BFCC1B4020F8B5074657
:103B400000200E4614461D4604F08FFD002138600B
:103B50002846316004F090FD2060F8BD38B50C4671
:103B60000021154604F083FD23681844A842206014
:103B700034BF0020012038BD704710B5D0B1436874
:103B8000C3B10268013B0C4902EBC2021B04885C12
:103B90008C180A4A03F47023617952F8302002EB42
:103BA0008102D2F8801021F470210B4343F00043CE
:103BB000C2F8803010BD00BFC6B44000BCB34000A6
:103BC00098B10368094A03EBC303D25C084B53F86E
:103BD000321043688A68012B22F0FC4238BF01236F
:103BE0005B0603F0FC4313438B607047C6B4400090
:103BF000BCB340002DE9F043044685B0002858D0FE
:103C000002682D4D02EBC2022C49A818837801EB03
:103C10000311AB5C1525027905FB0322284B45797E
:103C200053F82260636806EB8505D1E90271AA6842
:103C3000002B35D0013B8B4053403B40534043F079
:103C40000047DFF880804CF2503303AA02A901A894
:103C5000FFF774FFD8F8889102A9039A01A8FFF72B
:103C60007DFFB9F1000F1EDB0028F3D02168012091
:103C7000FFF75EFF4CF2503303AA02A901A8FFF739
:103C80005DFFF56B02A9039A01A8FFF767FFEB0739
:103C90000DD50028F5D021680120FFF749FF08E085
:103CA00022F00047CDE70028E0D1AF60E2E700282E
:103CB000F1D105B0BDE8F083C6B440002CB040009F
:103CC000D8B3400000C02D40F0B5044685B00028B0
:103CD0003BD002681E4D02EBC2021E49A818837831
:103CE00001EB0311AB5C0279D1E90267152101FBFD
:103CF0000322194B417953F82250636805EB810187
:103D00008A68EBB1013BBB40534033405A4042F01C
:103D100000428A604CF2503303AA02A901A8FFF7BF
:103D20000DFFEE6B02A9039A01A8FFF717FFF30737
:103D300009D50028F5D021680120FFF7F9FE04E03D
:103D400022F00042E5E70028F5D105B0F0BD00BF44
:103D5000C6B440002CB04000D8B34000704780B1DA
:103D600003680A4A03EBC303D118D25C0B7915210F
:103D700001FB0233064A52F82330426812B1012295
:103D80005A6370475A6B22F00102F9E7C6B440004B
:103D9000D8B340007FB5044640B3436833B30368EB
:103DA00001A8134A03EBC303D118D25C0B79152188
:103DB00001FB02330F4A02A952F82350012303AA40
:103DC000AB634CF25033FFF7B9FEEE6B02A9039AD6
:103DD00001A8FFF7C3FEF30706D50028F5D0216838
:103DE0000120FFF7A5FE01E00028F8D104B070BD66
:103DF000C6B44000D8B34000704708B30389FBB194
:103E00000368104A03EBC303D25C0F4B53F8221034
:103E10004389427C1B04920003F47F0302F00402F6
:103E20001343027B43EAC273827B1201D2B2134373
:103E3000427B120602F08072134343F001030B60D1
:103E4000704700BFC6B44000CCB3400070B10389D6
:103E5000012B0BD10368064A03EBC303D25C054B6D
:103E600053F82220136843F001031360704700BF2A
:103E7000C6B44000CCB340007FB5044628B30389E4
:103E80001BB3437B0BB3037B016803BB01EBC10195
:103E9000124B03AA01A85D5C4CF2503302A9FFF754
:103EA0004DFE0F4B53F825506E6802A9039A01A8E6
:103EB000FFF754FE002E06DB0028F5D02168012014
:103EC000FFF736FE01E00028F8D104B070BD0220F3
:103ED00004B0BDE87040FFF72BBE00BFC6B4400081
:103EE000CCB340007FB5044618B3036802A9124A58
:103EF00001A803EBC303D25C104B53F8225003AA72
:103F00002B6823F001032B604CF25033FFF716FEB1
:103F10006E6802A9039A01A8FFF720FE002E06DAB8
:103F20000028F5D021680120FFF702FE01E00028FB
:103F3000F8D104B070BD00BFC6B44000CCB340009F
:103F40007047002070477047704770472DE9FF4168
:103F5000002800F088800668444B06EBC602818882
:103F60001344434A9B7912F8338002EBC302414B5E
:103F70005778546853F82830002939D053F827105F
:103F80000C4270D153F82710214343F827103A4BC5
:103F900053F828502B6843F001032B606B6843F003
:103FA00001036B6000F086FD6A68344BD10753F85B
:103FB000288058F8273001D41C4254D14CF2503399
:103FC00003AA02A901A8FFF7B9FD039A02A901A853
:103FD000FFF7C4FD6A6858F82730D20701D41C42A5
:103FE0003FD10028F1D031460120FFF7A1FD3AE092
:103FF00053F827100C4236D053F8271021EA040159
:1040000043F827101C4B53F828502B6843F001034A
:104010002B606B6843F001036B6000F04BFD174BA6
:104020006A6853F8288002F0010258F827302340CC
:10403000134318D04CF2503303AA02A901A8FFF78A
:104040007DFD039A02A901A8FFF788FD6A6858F868
:10405000273002F001022340134302D00028F0D0A1
:10406000C1E70028BFD104B0BDE8F081C6B440006C
:1040700044A94000E8B24000C8B24000D8B24000B5
:1040800007B581F0010100906846ADF80410FFF714
:104090005DFF03B05DF804FB70477047024A936808
:1040A00043F001039360704700002D40024A93687B
:1040B00023F001039360704700002D40024AD3684B
:1040C00043F48073D360704700802C40024AD36869
:1040D00023F48073D360704700802C40F0B5044611
:1040E00085B000282BD0C379013BDBB2022B26D848
:1040F000174A526E520F052A23D1164A02A9164EAC
:1041000001A8D55C4CF2503303AAFFF717FDD6F88F
:10411000887102A9039A01A8FFF720FD002F06DB92
:104120000028F4D021680120FFF702FD07E00028F5
:10413000F8D1074A536E23F003031D43556605B0BB
:10414000F0BD01680A2005B0BDE8F040FFF7F0BC03
:1041500000C03940D0A2400000C02D4030B182885C
:10416000054B22B19A6842F001029A6070479A6842
:1041700022F00102F9E700BF00002D4030B1828833
:10418000054B22B1DA6842F48072DA607047DA686F
:1041900022F48072F9E700BF00802C4000F01EB9C5
:1041A00070477047704780B103681421094A03EBD8
:1041B000C30313441A7A084B01FB023301791A69CD
:1041C000136819B143F001031360704723F0010332
:1041D000FAE700BFC6B44000F8B240007FB500EB7C
:1041E000C0021B4B1421054613441A7A194B01FBDC
:1041F00002331C6904F0B0FF2368DA0714D54CF2CF
:10420000503303AA02A901A8FFF798FC266902A966
:10421000039A01A8FFF7A2FCF30609D40028F5D001
:1042200029460120FFF784FC04F0B0FF04B070BD04
:104230000028F5D1236823F001032360636923F08C
:104240000F036361236943F003032361ECE700BFBD
:10425000C6B44000F8B2400008B10068BEE770473D
:104260002DE9F74F0646002800F0A4800379002BC3
:1042700000F0A0800368524A03EBC3007769024450
:104280007B4092F808A04F4A52F82100984200F073
:10429000898042F8213014214B4A4C4B01FB0A2102
:1042A0004B4C1B6848685B6C205C03EBC0004568A6
:1042B000002D77D0C968615C03EBC1035B68002BFC
:1042C00070D0002F6ED005EB45043169013CB4FB82
:1042D000F3F405EB85030134013BB3FBF7F309333A
:1042E0009C4238BF1C46642904D066D8012901D0FD
:1042F0000A2907D1374BB3FBF1F1B5FBF1F18C4241
:1043000038BF0C46F36842F210784FF00009009372
:10431000142303FB0A229368D2F810B00193009B88
:10432000CBF8044013EB080049EB0903A0FB07019D
:1043300007FB0313A0FB0401013804FB0311019BDD
:1043400041F1FF31B8EB03026CEB0C0CA2FB05232F
:1043500005FB0C33FEF7D4FB1F4B0430984294BF8F
:10436000CBF80800CBF80830009BB8EB030063EBF8
:104370000303A0FB070107FB0317019BA0FB04013C
:1043800013EB080204FB071149EB0909A2FB052303
:1043900005FB0933FEF7B4FB0338032838BF0320BD
:1043A000CBF80C00084B142202FB0A3AB268DAF888
:1043B00010305A6103B0BDE8F08FB1F57A7F98E70D
:1043C000C6B4400098134020F8B24000901340203B
:1043D0003813402040420F00FCFFFF00F8B50D4DA0
:1043E00000240D4E0D4F55F8042B6AB11369316846
:1043F00003F0030361B151690B4005D057F8241055
:1044000000201361FFF794FB0134072CEBD1F8BDBA
:104410001361F9E7A0B340009013402084B340003B
:10442000704702207047704710B590B103680E4A7C
:1044300003EBC303D25C0D4B03EBC20153F83220F4
:1044400000230C79D9B28C4204D8136843F000439E
:10445000136010BD02EB83000133D0F8801021F00F
:104460000041C0F88010EDE7C6B44000BCB3400086
:1044700010B5002849D08388002B46D00368234A12
:1044800003EBC303047DD25C214B53F83220437B02
:1044900091681B0321F4E14103F4E04321F07F0123
:1044A0002343448A0B431B49C4F30E0493601369EE
:1044B0001940037F9B0703F0804323430B431361A1
:1044C000447D837DA107002C4FEA437301F08041B6
:1044D00003F0005343EA0103418B008BC1F30A014F
:1044E00043EA01030C4901EA004143EA0103D360B6
:1044F00008BF8023916918BF002321F4C0710B43CA
:104500009361136823F00043136010BDC6B44000EC
:10451000BCB340000080FFBF0000FF0370B1838880
:10452000012B0BD10368064A03EBC303D25C054B96
:1045300053F83220136823F000431360704700BF24
:10454000C6B44000BCB340007FB500EBC003134AC3
:104550000446D25C124B53F832502B68002B1BDB05
:104560004CF2503303AA02A901A8FFF7E7FA6E68DC
:1045700002A9039A01A8FFF7F1FA730708D40028EB
:10458000F5D001202146FFF7D3FA012004B070BD19
:104590000028F6D10220F9E70020F7E7C6B4400072
:1045A000BCB340007047F0B5002873D0C6680468FB
:1045B000036986EA0405DFF814E1D0E901275D40CC
:1045C0005EF8210055407D40A84263D0DFF800C16D
:1045D00006EBC6064EF8215004EBC4041CF8066036
:1045E00036486444364D50F826002D68354E6D6CC3
:1045F0007678354905EBC605E4794A436E68B3FB26
:10460000F1F3B6FBF1F640F638115943B2FBF1F283
:10461000052A42D9C72A3ED80A2A3ED9972A34BF4A
:10462000302570254FF4FA1206FB05FC02FB03F15E
:10463000B2FBF5F2B1FBFCF1891A4FF0804C01F5A9
:1046400080718C452BD80022BCF1000F2AD192003A
:104650007743BF32BFB2D109076004EB440701FBC7
:1046600005F200EB870745EA024501FB02227D6067
:104670004FF47A7552086B4302F2E732B3FBF6F35C
:10468000013BC2F31302C3F31303BB600C2303FB10
:104690000400C260F0BDB825C4E70C25C2E74FEAAC
:1046A0009C0CCEE70CEB020E8E459CBF02EB4C023D
:1046B000A1EB0E014FEA9C0C5208C5E7D4B34000B1
:1046C000901340203813402040420F00A413402094
:1046D000C6B44000704710B5C0B103680C4803EB86
:1046E000C3030C4CC1188A781201A458C25C0B7920
:1046F000152101FB0233084A52F82330196841F0B2
:10470000080119601A6822EA04021A6010BD00BF8D
:10471000C6B440002CB04000D8B34000DBE72DE920
:10472000FF41044600286ED0384A394ED0E90031A6
:10473000384803EBC30332F81150C1188A781701C7
:1047400006EB0212F759D2F80480C25C0B791521EE
:1047500001FB0233304A52F8236073683B4023FA6E
:1047600008F3AB424FD04CF2503303AA02A901A880
:10477000FFF7E4F902A9039A01A8FFF7EFF97368BC
:10478000D90304D50028F5D02168012039E000289C
:10479000FAD1336805FA08F503AA02A95D4001A819
:1047A0003D405D404CF2503345F007053560FFF762
:1047B000C5F9039A02A901A8FFF7D0F973685A074F
:1047C00002D40028F5D0DFE70028DDD14CF25033C9
:1047D00003AA02A901A8FFF7B1F9039A02A901A847
:1047E000FFF7BCF97368DB0302D50028F5D0CBE7EF
:1047F0000028C9D17368C3F34243012B03D0216859
:104800000320FFF795F904B0BDE8F0814EB44000F5
:104810002CB04000C6B44000D8B340002DE9FF41A1
:10482000044600286ED0394A394ED0E90031394863
:1048300003EBC30332F81150C1188A78170106EB55
:104840000212F759D2F80480C25C0B79152101FBE2
:104850000233314A52F8236073683B4023FA08F36D
:10486000AB424FD04CF2503303AA02A901A8FFF784
:1048700065F902A9039A01A8FFF770F97368D903D3
:1048800004D50028F5D02168012039E00028FAD1AC
:10489000336805FA08F503AA02A95D4001A83D4066
:1048A0005D404CF2503345F004053560FFF746F9A2
:1048B000039A02A901A8FFF751F973685A0702D4B5
:1048C0000028F5D0DFE70028DDD14CF2503303AAF1
:1048D00002A901A8FFF732F9039A02A901A8FFF77C
:1048E0003DF97368DB0302D50028F5D0CBE700283B
:1048F000C9D17368C3F34243012B03D0216803205D
:10490000FFF716F904B0BDE8F08100BF4EB44000D7
:104910002CB04000C6B44000D8B340002DE9FF41A0
:104920000546002855D02C4A2C4CD0E900312C48A3
:1049300003EBC30332F81160C1188A78170104EB46
:104940000212E759D2F80480C25C01A80B79152144
:1049500001FB0233234A02A952F8234003AA236829
:1049600043F0040323604CF25033FFF7E7F8039A57
:1049700002A901A8FFF7F2F863689A0304D500289A
:10498000F5D0296801201FE00028FAD1236806FA33
:1049900008F603AA02A95E4001A83E405E402660D8
:1049A000236823F00C0323604CF25033FFF7C6F862
:1049B000039A02A901A8FFF7D1F863689B0306D404
:1049C0000028F5D029680320FFF7B2F801E000289D
:1049D000F8D104B0BDE8F0814EB440002CB04000E6
:1049E000C6B44000D8B340002DE9FF410646002878
:1049F0003DD003681F4A2048D55C03EBC3031F4C1E
:104A0000C1188A78170104EB0212E759D2F8048022
:104A1000C25C01A80B79152101FB0233184A02A9D7
:104A200052F8234003AA236843F00C0323604CF29E
:104A30005033FFF783F8039A02A901A8FFF78EF815
:104A400063689B0306D50028F5D031680120FFF785
:104A50006FF80CE00028F8D1236805FA08F55D40EE
:104A60003D405D402560236823F00C03236004B0C3
:104A7000BDE8F08170B44000C6B440002CB04000E6
:104A8000D8B340004068064B064933F810304A68F6
:104A90001B0322F4405203F4405313434B6070470E
:104AA0002CB440000080284008B1FFF7EBBF7047EE
:104AB00005F00ABC034B45F6F0221A604AF20F5289
:104AC0001A60704700C02D401FB57F49D1F81433DC
:104AD000DC0139D4D1F8343343F08073C1F8343376
:104AE000D1F8003343F00103C1F80033D1F80433A7
:104AF00043F00103C1F80433FFF7DCFFD1F80433BE
:104B0000D80703D4D1F81433D9011DD46E4C4CF21C
:104B1000503303AA02A901A8FFF710F8039A02A9CB
:104B200001A8FFF71BF8D4F80433DA0703D4D4F84C
:104B30001433DB0106D40028F0D006210120FEF753
:104B4000F7FF01E00028F8D15F49D1F814339C0247
:104B500039D4D1F8343343F40013C1F83433D1F8E5
:104B6000003343F00103C1F80033D1F8043343F0BC
:104B70000103C1F80433FFF79DFFD1F80433D807D0
:104B800003D4D1F8143399021DD44F4C4CF2503356
:104B900003AA02A901A8FEF7D1FF039A02A901A85E
:104BA000FEF7DCFFD4F80433DA0703D4D4F8143367
:104BB0009B0206D40028F0D005210120FEF7B8FFA3
:104BC00001E00028F8D14049D1F814331C0439D44D
:104BD000D1F8343343F40043C1F83433D1F800330F
:104BE00043F00103C1F80033D1F8043343F001036B
:104BF000C1F80433FFF75EFFD1F80433D80703D4BC
:104C0000D1F8143319041DD42F4C4CF2503303AA9D
:104C100002A901A8FEF792FF039A02A901A8FEF7D4
:104C20009DFFD4F80433DA0703D4D4F814331B04FB
:104C300006D40028F0D056210120FEF779FF01E0CC
:104C40000028F8D12049D1F81033DC0139D4D1F84B
:104C5000303343F08073C1F83033D1F8003343F080
:104C60000103C1F80033D1F8043343F00103C1F864
:104C70000433FFF71FFFD1F80433D80703D4D1F86A
:104C80001033D9011DD4104C4CF2503303AA02A9A1
:104C900001A8FEF753FF039A02A901A8FEF75EFFE1
:104CA000D4F80433DA0703D4D4F81033DB0106D484
:104CB0000028F0D056210120FEF73AFF01E000283D
:104CC000F8D104B010BD00BF00C02D40024B012040
:104CD0001B689B68184700BFAC1340201FB5012319
:104CE00001A8ADF80830034B1B685B68984705B016
:104CF0005DF804FBAC134020024B03201B689B684B
:104D0000184700BFB01340201FB5012301A8ADF81C
:104D10000830034B1B685B68984705B05DF804FBDF
:104D2000B0134020012917D0022917D10C4B1A7853
:104D3000A2B901220B490C481A70CB780B4A03EB3D
:104D4000430302EB830303608B7803EB430302EB23
:104D50008302074B1A607047FFF7B6BE704700BF6B
:104D6000A813402008B84000B013402090B840007D
:104D7000AC13402005F088BA70472DE9F74FCDE914
:104D800000010C9908690068092835D8CF684FF6EA
:104D9000FF7E0C68D1E901560021A44688B2023496
:104DA000BCF80080F04521D115F8018005EB010A1F
:104DB000B8F1FF0F1AD116F8018006EB0109B8F11E
:104DC000FF0F13D117F801B007EB0108BBF1FF0F7C
:104DD0000CD10099ACF8001001998AF8001089F8FC
:104DE000002088F8003003B0BDE8F08F01310A29B7
:104DF000D3D14FF6FF70F6E70B6A01221A70F8E77D
:104E000030B54C694FF6FF7334F810209A420DD13B
:104E10000A69D1E90635198824F81010188013683A
:104E200003B9288001330020136030BD0120FCE766
:104E30002DE9F04F8DB0CDE90A23169B1A69CDE913
:104E400008011068002870D01A684FF0000C4FF667
:104E5000FF714FF0FF0900925A6801929A6802921E
:104E6000DA6803929A6914886700009A08982546C0
:104E7000D25BA2465E69824236F8144046D1019A5E
:104E80000998525D824241D1029A0A98525D82424B
:104E90003CD1039A0B98525D824237D11A68D3F8FD
:104EA00010E004925A6805929A68D3E906C0069207
:104EB000DA680792BCF80020954203D1ACF80040B4
:104EC000F1530EE0B0F80080454525D106EB420BCA
:104ED000924636F812209045F8D1ABF80010A0F8B1
:104EE00000A0DEF80020013ACEF8002012B9ACF89C
:104EF00000100180049A4FF0010CD153059A5155CE
:104F0000069A02F80590079A02F805908C42ABD1F8
:104F100060460DB0BDE8F08F06EB420836F812206F
:104F20009245F9D1A8F80040CAE78446F0E7F0B509
:104F3000C16900234FF6FF72D0E900C7D0E90265CE
:104F4000D0E905E42EF813202CF81320FA54F2547B
:104F5000EA5401330A2BF5D12280036A0A80002229
:104F60001A70F0BD2DE9F84FFEF72AF8DFF8A4A17A
:104F70000546DFF8A491FEF723F85C4F02B2002348
:104F8000DFF898E12424DFF89881594E44434EF825
:104F90002030DFF890C14AF820300AEB820A49F845
:104FA00020300CEB04013B54074408F8003009EBB7
:104FB0008209335402EB8203DFF86CB18044C1F8FC
:104FC00010A006440BEB830BDFF860A10F624CF8D6
:104FD00004B00AEB830ADFF858B1C1F814A00BEB58
:104FE000430BDFF850A1434FC1F804B00AEB420A6B
:104FF000DFF844B1C1F818A00BEB430BDFF83CA17C
:10500000C1F808B00AEB420ADFF834B1C1F81CA0BD
:105010000BEB430BDFF82CA1C1F80CB039190AEBEC
:10502000830AC1F81090DFF8209147F804A009EB3B
:105030008309DFF818A1C1F82080C1F814900AEBA9
:10504000430ADFF80C91C1F804A009EB4209DFF82C
:1050500004A1DFF80481C1F818900AEB430ADFF8D5
:10506000FC90C1F808A009EB4209DFF8F4A0C1F8F0
:105070001C900AEB430ADFF8EC90C1F80CA008EB97
:10508000040109EB830948F804901B4C04EB43042A
:105090004C601A4C04EB43048C60194C04EB430441
:1050A000CC600EEB82040C61164C04EB83034B6165
:1050B000154B03EB42038B61144B03EB4202144B81
:1050C000CA6101220E6243F8202028B200EBC00022
:1050D00084000CEB8000FFF72AFF3819FFF727FF49
:1050E00008EB0400BDE8F84FFFF721BFF88240202D
:1050F000688340206881402058824020D48340202B
:10510000D082402024844020FC824020048540201E
:105110002C83402074834020BC8340204882402060
:105120003C83402088804020F8814020108040202F
:10513000948340206C834020FC8340208C8340205B
:105140000C8540208082402018814020048340202C
:10515000848340204083402074844020CC834020BE
:1051600060804020348540202DE9F34105460E46FD
:1051700017469846FDF724FF044672B60F4B53F8C6
:1051800020300BB9FFF7EEFE24B20D4B3A46314604
:1051900004EBC404284603EB840443460094FFF761
:1051A000ECFD4FF6FF73984206D02146FFF728FE2C
:1051B00062B602B0BDE8F0810120F9E72C834020FF
:1051C000888040202DE9F34105460E461746984653
:1051D000FDF7F6FE044672B60F4B53F820300BB9BC
:1051E000FFF7C0FE24B20D4B3A46314604EBC4042F
:1051F000284603EB840443460094FFF7BEFD4FF6B8
:10520000FF73984206D02146FFF7FAFD62B602B05E
:10521000BDE8F0810120F9E72C834020688140201F
:105220002DE9F34105460E4617469846FDF7C8FEA0
:10523000044672B60F4B53F820300BB9FFF792FEBD
:1052400024B20D4B3A46314604EBC404284603EB26
:10525000840443460094FFF790FD4FF6FF73984295
:1052600006D02146FFF7CCFD62B602B0BDE8F08162
:105270000120F9E72C8340207484402070B586B06B
:105280000646CDE904210393FDF79AFE044672B663
:105290000B48059950F82450DDE903322DB9FFF78A
:1052A00061FE284662B606B070BD24B2054804EB24
:1052B000C40400EB840430460094FFF7B9FDF1E725
:1052C0002C8340208880402070B586B00646CDE90A
:1052D00004210393FDF774FE044672B60B4805994A
:1052E00050F82450DDE903322DB9FFF73BFE284684
:1052F00062B606B070BD24B2054804EBC40400EBEE
:10530000840430460094FFF793FDF1E72C8340209E
:105310006881402070B586B00646CDE9042103932C
:10532000FDF74EFE044672B60B48059950F824501E
:10533000DDE903322DB9FFF715FE284662B606B047
:1053400070BD24B2054804EBC40400EB840430466D
:105350000094FFF76DFDF1E72C834020748440201A
:1053600010B5FDF72DFE72B60D4B53F820302BB95A
:105370000124FFF7F7FD62B6204610BD094B00225D
:1053800053F8204043F8202000B2074BB4FA84F4CD
:1053900000EBC000640903EB8000FFF7C8FDEAE7FB
:1053A0002C834020748340208880402010B5FDF776
:1053B00007FE72B60D4B53F820302BB90124FFF7CE
:1053C000D1FD62B6204610BD094B002253F82040A3
:1053D00043F8202000B2074BB4FA84F400EBC0007D
:1053E000640903EB8000FFF7A2FDEAE72C8340206D
:1053F000BC8340206881402010B5FDF7E1FD72B606
:105400000D4B53F820302BB90124FFF7ABFD62B6EA
:10541000204610BD094B002253F8204043F82020BD
:1054200000B2074BB4FA84F400EBC000640903EB4C
:105430008000FFF77CFDEAE72C8340204882402073
:105440007484402001F01F0201231F2903FA02F394
:1054500001D8036370473F2900D8C36270471F29F2
:1054600007D80123006B8B40034023FA01F0C0B240
:1054700070473F2907D8C36A01F01F010120884007
:105480001840C840F3E70020F1E70246081E10B5B7
:1054900018BF0120FDF7B2F9D2F8040C0F4B0340FE
:1054A0008868C2F8043C00F007000B68D2F8044C8E
:1054B0009B022043CC6803F4F8430343486809691E
:1054C00040010904C0B201F4E0210343044800EAAA
:1054D000045003430B43C2F8043C10BD188308C0BA
:1054E0000000F03F0246081E10B518BF0120FDF76E
:1054F00085F95368CC6823F007031B041B0C536029
:105500000B68506803F0070343EA046303438868A9
:10551000000400F4E020034348680969C0048905D9
:1055200000F4601001F4400103430B43536010BDCD
:105530000246081E10B518BF0120FDF75FF9136D74
:10554000886803F0004300F01F0013650B68146DBA
:105550009B022043CC689BB2034348680969400121
:10556000090400F4787001F4F8110343034800EAD9
:10557000445003430B43136510BD00BF0000E07FA0
:105580000246081E10B518BF0120FDF737F9D2F802
:10559000F40B144B03400869C2F8F43B80058B6898
:1055A00000F0FE50D2F8F44B1B0303F4FE23034338
:1055B0002343D1E9004020440130C0B20343C2F884
:1055C000F43BD2F8F03B23F47F7323F00303C2F8DB
:1055D000F03BCB68D2F8F00BC3F309030343C2F8E6
:1055E000F03B10BD000F38E00246081E10B518BF92
:1055F0000120FDF703F9D2F8F80B144B0340C2F871
:10560000F83BD2F8F84BD1E9000303448868000363
:1056100003F01F0380B203430869C9688005234370
:1056200000F070700343C2F8F83BD2F8F03B23F06F
:105630007F7323F44033C2F8F03B054BD2F8F00BF4
:1056400003EA01430343C2F8F03B10BDE00F3FFC07
:105650000000FF03154B052810B553F82040144BEC
:1056600053F820208CBF00200120FDF7C7F8D2F8A6
:105670000434012B18D00123D2F82004C2F80014FE
:10568000C2F8043458B992F82C3482F808040BB9E3
:10569000002003E04FF07043C4F8103C10BD012817
:1056A00008BF82F80804F3E70220F7E738B94000A2
:1056B000B413402070B5D3F818442CB1034E56F8FB
:1056C0002050A047286A70BD2046FCE738B940004A
:1056D0000528F7B506468CBF00200120FDF78EF89F
:1056E0001C4B53F8264094F824346BB36368012BA9
:1056F0002CD0194BD4F8205453F826700123216084
:105700009D42636008BF257215BB94F82C340622B5
:105710003146257238460093012302F035F994F89A
:105720002C340722314600933846012302F02CF92D
:1057300094F82C340522314600933846012302F0B8
:1057400023F9284603B0F0BD0125FAE70225F8E762
:105750000025F6E7B413402038B940002DE9F041A8
:105760001E46124B0528174653F820800D46104B55
:1057700053F820408CBF00200120FDF73FF8D4F8FB
:10578000283494F82424404602F050FC50B904EB2D
:1057900005132A01586838B901215960A7501E72B3
:1057A000BDE8F0810420FBE70220F9E738B94000AA
:1057B000B41340202DE9F04798462D4B052886B0BC
:1057C00053F820500F462B4B144653F820908CBFB3
:1057D00000200120FDF712F8101E18BF0120FDF770
:1057E0000DF81679484602F0B4F8864239468CBF67
:1057F00000200120FDF702F8D5F8283495F824247C
:10580000484602F013FC064678BB05EB071ADAF8A7
:105810000400022826D039464846FFF713FE02232B
:105820006268CAF80430237B25688AF80830E37A76
:10583000CAF80C60002B8AF80930A77A14BF1C2321
:105840000C238DF816700293CDE903522289ADF82E
:10585000142001F093FE0E9B424602A9009602F02E
:10586000BEF9304606B0BDE8F0870420FAE700BF75
:10587000B413402038B94000294B2DE9F04F53F8BC
:1058800020800D01274B97B007460E4653F8204065
:10589000635904EB011A0BB902AB63513146404620
:1058A00002F06DF862593146404602F04DF931463A
:1058B0004046FFF7C7FD0021D8F808306319CAF841
:1058C0000410D4F810B493F80890BBF1000F03D083
:1058D000234632463846D847DAF804307BB92544A7
:1058E0002B7AC3B901222A7294F82C2400923246F2
:1058F0003946404602F048F817B0BDE8F08FB9F1DC
:10590000000FF9D125442B7A002BF5D094F82C34D4
:1059100000930023EBE7B9F1000FEDD1F6E700BFEC
:1059200038B94000B4134020F0B53E4B1C393E4E10
:1059300097B053F8205056F82040032947D8DFE8A5
:1059400001F002485864D4F80434012B3FD1D4F854
:10595000003413B902ABC4F80034D4F80014019039
:1059600002F014FB4FF08053D4F810740198C5F87E
:10597000143C4FF00053C5F8143C4FF08043C5F879
:10598000143C0023C4F8043427B12346FF22052128
:10599000B8470198D4F80434CBB9052856F820400C
:1059A0008CBF00200120FCF729FF284602F04FFBA6
:1059B000FCF724FF94F8083423B9012284F8082462
:1059C000C5F8103C0023C4F80034C4F8043417B000
:1059D000F0BD4FF00053C5F8143CD4F81054002D1E
:1059E000F5D02346FF220621AC4617B0BDE8F040B3
:1059F00060474FF08043C5F8143CD4F81054002D94
:105A0000E5D02346FF220721EEE74FF00043C5F81B
:105A1000143CD4F81054002DD9D02346FF2208217D
:105A2000E2E700BF38B94000B41340202DE9F0434D
:105A3000DFF8EC8099B0394B054658F820400E4607
:105A400053F8207023680BB904AB2360062E4AD0AC
:105A5000072E56D0052E43D1D4F80490B9F1010F8A
:105A60003ED12168384602F05DFA31463846FFF7EC
:105A7000E9FC0022D4F8106462601EB12346494656
:105A80002846B04763685BBB0123052D237288BF9E
:105A9000002058F8254098BF0120FCF7AFFED4F84D
:105AA0002034D3B994F82C24294638460393009225
:105AB000052201F069FF94F82C24039B29460092EB
:105AC0003846062201F060FF94F82C24039B2946F7
:105AD00000923846072201F057FF002323606360DD
:105AE00019B0BDE8F08331463846FFF7ABFCD4F877
:105AF0001064002EF4D02346002202212846B0472D
:105B0000EEE731463846FFF79DFCD4F81064002ECE
:105B1000E6D0234600220321F0E700BF38B9400059
:105B2000B4134020744B05282DE9F04153F8204070
:105B300080468CBF00200120FCF760FE101E0F463F
:105B4000154618BF0120FCF759FE2368002B49DADF
:105B50002368204623F00043236001F03BFE064605
:105B6000002838D1204602F0D1FB95F82C1023688C
:105B7000002995F82E2023F4006314BF4FF4006130
:105B80000021002A43EA0103296A18BF4FF00046AA
:105B90002360D4F8000C20F000403043C4F8000C1F
:105BA0002046D4F8003C23F41F43C4F8003C02F024
:105BB0005DFB404602F0A0FBEB69022B03D023689B
:105BC00043F4003323602B7AD3B16968204601F097
:105BD00071FE0646E8B1204601F022FD204601F0A4
:105BE0009DFD0AE0204601F01BFD064628B920462F
:105BF00001F094FD06460028AAD03046BDE8F081A9
:105C00002B7E33B1E9682046D5E9042302F02FFA50
:105C1000DFE705F12401204601F073FE29682046E4
:105C200002F064F806460028D5D195F82C20236DA3
:105C3000002A23F0004314BF4FF0004100210B4322
:105C400005F13001236595F82D30002B42D0636BB0
:105C5000204643F400536363FFF792FC95F82C3021
:105C600023B105F144012046FFF7BEFCE969204657
:105C700002F087F8002239460120134607EB021490
:105C8000013208721031402A41F8103C636041F83B
:105C9000043CF3D1AA6DC7F80434C7F82024EA6D98
:105CA000C7F81434C7F810242A6EC7F81C342B7AAE
:105CB00087F8080487F824342B7EC7F8182487F85F
:105CC00025342B6887F82C04C7F828340B4B43F88D
:105CD000287092E7636B204623F4005363633AB164
:105CE000FFF726FC05F144012046FFF7CEFBBDE798
:105CF000FFF7F8FBBAE700BF38B94000B413402003
:105D00002DE9F04304461A4885B00E46052C50F89C
:105D1000247018481546039350F824808CBF002047
:105D20000120DDF83090FCF769FD101E18BF01203E
:105D3000FCF764FD7868039B10F0080F13D1204630
:105D4000CDF80090FFF736FD70B92B7B63B998F85A
:105D50002C343246214638460C93012305B0BDE869
:105D6000F04301F011BE012005B0BDE8F08300BF93
:105D700038B94000B41340202DE9FF411F46214BA4
:105D80000528154653F820800E461F4B53F8202057
:105D90008CBF00200120FCF731FD281E18BF012018
:105DA000FCF72CFDD2F82834404692F8242402F067
:105DB0003DF9044618BB31464046FFF743FB6B688C
:105DC0006A4602932B6801932B7A8DF80C300F23CF
:105DD00000933B4601F06CFE3B466A463146404626
:105DE000009401F065FE042340466A460093314664
:105DF0003B4601F05DFE204604B0BDE8F081042082
:105E0000FAE700BF38B94000B41340202DE9F34150
:105E10001D46104B0528044653F820700E460E4BC5
:105E200053F820808CBF00200120FCF7E7FC2B46B4
:105E30002046FFF793FC48B945B998F82C34324610
:105E4000214638460093012301F09EFD02B0BDE8D3
:105E5000F08100BF38B94000B41340202DE9F04F65
:105E600087B0064698464FF47A70109B0D46002185
:105E700003925843059102F0FFFB052E8246294606
:105E80008CBF00200120FCF7B9FC2D4B039A304653
:105E900053F826702B4B53F826904346FFF75EFCD1
:105EA0000446F0B9B8F1000F09D197F82C342A460E
:105EB000314648460093012301F066FDA0BB07EB85
:105EC000051B002002F0D1FB0590DBF80430012B0C
:105ED00016D007EB05156C686CB3002303246B60C8
:105EE00029E0032823D1B8F1000FF2D197F82C3420
:105EF0002A46314648460093002301F045FDE8E775
:105F0000B8F1000F08D029464846FFF7A8FA18B1A3
:105F100029463046FFF7B0FC002105A802F0A7FB98
:105F20000444A245D1D8DEE70328DFD00446042C80
:105F300001D0022CCDD1204607B0BDE8F08F00BFC4
:105F4000B413402038B94000052813B504468CBF6F
:105F5000002001200191FCF751FC094B53F824006B
:105F600002F07CF8019928B1204602B0BDE810404B
:105F7000FFF770BB204602B0BDE81040FFF7A8BB9A
:105F800038B9400005282DE9F04786B005468CBF9A
:105F9000002001200391FCF731FC5D4B914653F842
:105FA0002570384602F05AF8039900284CD028464C
:105FB000FFF750FB0446002842D1014605904FF4FC
:105FC0007A70544B4FF0010A00FB09F053F825801A
:105FD00002F052FB8146204602F047FB0590D8F8BC
:105FE0000434012B01D0002321E0D8F82034012B08
:105FF0000ED11F26D7F8142C0AFA06F31340F340EB
:1060000003D031462846FFF78FFC013E1B2EF1D10D
:10601000002105A802F02BFB0444A145DFD8D8F8E5
:106020002034012B02D00023C7F8103C0323D8F8FA
:1060300004442CB1012C68D10022C8F804241C4669
:10604000204606B0BDE8F0872846FFF741FB04462E
:106050000028F5D1014605904FF47A702D4BA246E9
:1060600000FB09F053F8256002F006FB814620464C
:1060700002F0FBFA05907368012B08D07368002BBF
:10608000DDD0012B3FD1002373602346D7E7D6F83C
:106090002034012B0FD14FF0070841463846FFF757
:1060A000DEF918B141462846FFF7C0FC08F1FF3879
:1060B000B8F1040FF1D1002105A802F0D8FA82440A
:1060C000D145D8D8D6F82034012B1AD096F82C34E4
:1060D0000522294638460093002301F055FC96F826
:1060E0002C340622294600933846002301F04CFC4C
:1060F00096F82C340722294600933846002301F0F5
:1061000043FC0324BAE7012399E7012498E700BF81
:1061100038B94000B413402005282DE9F041044669
:106120008CBF002001200E461746FCF767FB12BB10
:10613000CA1E50425041FCF761FB154B53F82450E6
:10614000D5F80080B8F1000F17DA284601F098FA68
:1061500004462B68DB0112D4012C38BF0124B8F1AE
:10616000000F05DA284601F0D9FA002818BF0446C6
:106170002046BDE8F0810120DDE70024E9E7002C9E
:10618000EDD13A463146284601F016FEE7E700BF5A
:1061900038B940001D4B05282DE9F04153F8205037
:1061A00006468CBF002001200F46D5F80080FCF782
:1061B00025FB284601F04BFFFCF720FB381E18BFDB
:1061C0000120FCF71BFBB8F1000F15DA284601F09F
:1061D00057FA04462B68DB0110D4012C38BF012488
:1061E000B8F1000F05DA284601F098FA002818BF28
:1061F00004462046BDE8F0810024EBE7002CEFD1F7
:106200003946304601F078FFEAE700BF38B9400070
:106210002DE9F0479A462C4B052886B053F820709C
:1062200006462A4B8846154653F820908CBF00201E
:106230000120FCF7E3FA101E18BF0120FCF7DEFA7C
:10624000786B80F40030C0F34040FCF7D7FA147943
:10625000384601F07EFB844241468CBF002001207D
:10626000FCF7CCFAD9F8283499F82424384601F000
:10627000DDFE044620BB6B684146ADF81400049374
:106280002B688DF81600384603930A230293FFF714
:10629000D9F801F073F9EB7A524602A900930E9BEC
:1062A00001F09DFC2B7B6BB999F82C3442463146AA
:1062B00038460093012301F067FB06B0BDE8F08784
:1062C0000420FAE72046F8E738B94000B41340202C
:1062D000052808B5104B53F820208CBF0020012062
:1062E000FCF78CFAA1F14000C0B2BE2894BF002098
:1062F0000120FCF783FA3F2906D802EB0111486818
:10630000002818BF022008BDFF2902D1D2F80404DA
:10631000F6E70120F7E700BFB41340202DE9F04F66
:1063200087B00528844E054605939346834B56F85F
:10633000208053F820408CBF00200120FCF75EFA3B
:106340003F2A8CBF00200120FCF758FAB8F1000F5B
:106350005CD18B4580F0DB80059B002B3DD04FF05E
:106360008053C4F8143C4FF00053C4F8143C4FF071
:106370008043C4F8143C4FF00043C4F8143C2CE0B4
:10638000BBF11F0F2CD8A06A236B184000238B424F
:1063900038BF0B46A8B35B452AD99942F0D3059B79
:1063A000DBB1204601F05AFEB8B1D8F82034A3B9C9
:1063B0001F260127D4F8142C07FA06F31A40F240DE
:1063C00008D0D4F8102C1340F34003D031462846AF
:1063D000FFF7AAFA013E1B2EECD107B0BDE8F08F03
:1063E000BBF13F0FD3D8606AE36A18402023CEE7A1
:1063F0000BF01F0930FA09F240F08E800BF1FF3BE1
:10640000C9E7002BCBD003F1FF3BC6E740230020B8
:10641000C3E7BBF1070F00F28480002759462846E6
:10642000FFF704FB08EB071304935B68022B40D1D2
:1064300056F825705946204601F0A0F85946D0F884
:1064400000A0204601F07AFBA1684FEA0B1307EB8E
:106450000B1103934B7AC86023B1CAF3036ABAF1F4
:10646000040F03D159462046FEF7ECFF039B0021A1
:1064700007EB030ACAF80410D7F810341E4623B1FC
:106480003B465A4604212846B047039BDAF80410DD
:106490003B4459B90120187297F82C345A462946C2
:1064A00020460093002301F06FFA02E0197A0029D8
:1064B000F2D159462046FEF7D2FF00283FF46FAFD5
:1064C000BBF11F0F17D84FF00109A36A09FA0BF9A6
:1064D00009EA030929FA0BF95FFA89F3002B3FF463
:1064E0005EAF049B5B68002B7FF459AF5946204692
:1064F000FEF7A8FF53E7BBF13F0F3FF650AF012374
:10650000616A03FA09F30B4023FA09F9E4E720462C
:10651000FEF798FF01311CE798F82434002B7FF434
:1065200078AF08EB0B135B68012B03D15946284663
:10653000FFF7A2F95F4675E7B413402038B9400071
:1065400008B5054B052853F820208CBF00200120FA
:10655000FCF754F9116208BD38B9400008B5054B85
:10656000052853F820208CBF00200120FCF746F9B5
:10657000106A08BD38B9400008B5064B052853F825
:1065800020208CBF00200120FCF738F9D069C0B270
:1065900008BD00BF38B9400008B5064B052853F8C0
:1065A00020208CBF00200120FCF728F9D069C0F31F
:1065B000072008BD38B940002C4B052870B553F8AA
:1065C000204005462A4B53F820608CBF0020012054
:1065D000FCF714F9002E45D0226A90070AD56368AB
:1065E000590407D502230921284623623346FFF7C1
:1065F00061F80246D3020BD5636B002B08DA4FF427
:1066000080130A21284623623346FFF753F80246D7
:1066100090030BD56368190508D54FF400330D219D
:10662000284623623346FFF745F80246D3030BD5CD
:106630006368580508D54FF480330C21284623623F
:106640003346FFF737F8024651070DD561680B0452
:106650000AD504213346284621620B21BDE870404B
:10666000FFF728B8034B236270BD00BF38B9400064
:10667000B413402006003B002DE9F0479246424A01
:1066800086B0044652F820600D46404A002103932C
:1066900052F820804FF47A700F9A0591504301F020
:1066A000EBFF29468146304600F068FF052C07467F
:1066B00029468CBF00200120FCF7A0F8BAF10000A9
:1066C00018BF0120FCF79AF80E9A2046039B00920F
:1066D0005246FFF76FF8044600BB01F0C6FF059075
:1066E00029463046FEF7BBFE01281BD100243B683B
:1066F000B268C3F30363082B43D0092B08BF0324FC
:1067000008EB05122F01527A0AB1042B03D1294656
:106710003046FEF797FE474400237B60204606B0D4
:10672000BDE8F087002105A801F0A1FF0444A145C0
:10673000D6D808EB05135B68022B20D129463046DA
:10674000FEF780FE3B68002142F2107023F0706378
:10675000002443F010633B6001F08EFF814600206F
:1067600001F083FF059029463046FEF778FE01468A
:1067700028B905A801F07BFF0444A145F3D8032400
:10678000B5E70024BCE700BF38B94000B41340208F
:1067900005280246F8B58CBF00200120FCF72EF832
:1067A000104B0E4653F822502F68002F13DA28465C
:1067B00000F066FF04462B68DB010ED4012C38BFC5
:1067C0000124002F05DA284600F0A8FF002818BF92
:1067D00004462046F8BD0024EDE7002CF1D12E61DF
:1067E000EFE700BF38B94000024B53F8200000F03B
:1067F00017BF00BF38B94000024B53F8200000F02B
:1068000064BF00BF38B940001C4B05282DE9F0419A
:1068100053F820608CBF002001200D46FBF7EEFFEF
:106820003368174603F07F03994225D83F2923D8C0
:10683000D6F80080B8F1000F15DA304600F020FFDE
:1068400004463368DB0110D4012C38BF0124B8F1B1
:10685000000F05DA304600F061FF002818BF04463B
:106860002046BDE8F0810024EBE7002CEFD105F5D0
:10687000087546F82570EAE70424F1E738B94000C6
:1068800005280246F8B58CBF00200120FBF7B6FFB3
:10689000104B0E4653F822502F68002F13DA28466B
:1068A00000F0EEFE04462B68DB010ED4012C38BF4D
:1068B0000124002F05DA284600F030FF002818BF19
:1068C00004462046F8BD0024EDE7002CF1D1AE646B
:1068D000EFE700BF38B94000F8B5354B052807464B
:1068E00053F820408CBF00200120FBF787FF204693
:1068F00000F096FE0646002857D1204601F0A7FB7F
:1069000038B14FF07843C4F8143CC4F8106CC4F8A4
:106910000C6C0025274B2046C4F8045CC4F8003CEE
:106920004FF00D13C4F8FC3AC4F8EC5AC4F8E85A16
:10693000C4F8E45A636B43F000536363D4F8E03A5D
:1069400023F00043C4F8E03A1B4BC4F8E03AD4F813
:10695000E03A43F00043C4F8E03A636B23F000539D
:10696000636300F039FE20284FF0FF3301D9E36262
:106970006562236300254FF480132046A5622565D8
:1069800063630E4B23620E4BE561A5606560C4F83E
:10699000F05BC4F8F45BC4F8F85BC4F8FC5B2360FC
:1069A00000F0BCFE074B43F827503046F8BD00BF4F
:1069B00038B940000041008080000C0006B00300A0
:1069C0000F0090D8B4134020234B05280A4670B519
:1069D00053F820600446214B53F820508CBF002010
:1069E0000120FBF70BFFA1F14000C0B2BE2894BF0D
:1069F00000200120FBF702FFFF290DD1304601F0F6
:106A00002DFB40B3D6F8143CDA0024D520461C21D7
:106A1000BDE87040FEF788BF95F824345BB10729C4
:106A200009D8C1B9336B9B0615D520460521BDE8B1
:106A30007040FEF7FBBF11463046FEF710FD50B127
:106A400005EB02156B68012B05D120461146BDE808
:106A50007040FEF711BF70BD38B94000B41340203C
:106A60000F4B052837B553F8205004460D4B53F80B
:106A700020308CBF002001200193FBF7BFFE2A6A63
:106A8000019B12F0040F08D00B212046FEF712FEE6
:106A9000042300202B6203B030BD0120FBE700BFC0
:106AA00038B94000B4134020214B2DE9F04753F88A
:106AB000206005461F4B0C4653F82070304600F00E
:106AC0005DFD052D024621468CBF00200120FBF70D
:106AD00095FE3046FEF7C3FC40B307EB0418D8F828
:106AE0000430022B22D121463046D2F8009001F02A
:106AF00025F898F80920B368C8F80C0022B1C9F34A
:106B00000369B9F1040F03D121463046FEF79AFC20
:106B10000023C8F80430D7F810643EB13B46224643
:106B20002846B4460421BDE8F0476047BDE8F08739
:106B300038B94000B4134020034B53F82030186894
:106B4000C0F30050704700BF38B94000044B53F801
:106B500020301B6813F0887F0CBF01200020704795
:106B600038B940000528024610B58CBF002001202E
:106B7000FBF744FE074B53F8224001F069FF2368FE
:106B800023F00043236001F07DFF2046BDE8104064
:106B900000F09BBD38B940000528024610B58CBFF7
:106BA00000200120FBF72AFE064B53F82240204626
:106BB00000F036FD20B92046BDE8104000F0AEBD23
:106BC00010BD00BF38B9400005280246F8B58CBF9B
:106BD00000200120FBF712FE154B0F4653F8225000
:106BE0002E68002E13DA284600F04AFD04462B6872
:106BF000DB010ED4012C38BF0124002E05DA284613
:106C000000F08CFD002818BF04462046F8BD002483
:106C1000EDE7002CF1D101F04DFF2B682FB923F4E3
:106C200080332B6001F060FFE7E743F48033F8E73F
:106C300038B940000528F7B504468CBF0020012074
:106C40001646FBF7DBFD081E18BF0120FBF7D6FD3B
:106C5000204B53F824402768002F16DA2046019174
:106C600000F00EFD019905462368DB010FD4012DCC
:106C700038BF0125002F05DA204600F04FFD00281F
:106C800018BF0546284603B0F0BD0025ECE701918A
:106C9000002DEFD102F03AF8636B002E019923F436
:106CA000005314BF4FF40052002243EA020363630F
:106CB00005D02046FEF764FC02F042F8DAE7236DC7
:106CC0002046002B02DAFEF733FCF5E7FEF70AFC5C
:106CD000F2E700BF38B940000528024608B58CBF6E
:106CE00000200120FBF78AFD081E18BF0120FBF7DA
:106CF00085FD254B53F822305A6B02F40052002ACE
:106D000014BF0120002015D000220A60D3F8F02B18
:106D1000C2F30902CA60D3F8F42BD2B24A60D3F8A6
:106D2000F42BD3F8F43BC2F30632C3F386538A60E4
:106D30000B6108BD1A6D002A13DA1A6DC2F34952AD
:106D4000CA601A6DC2F385220A601A6DC2F344123A
:106D50004A601A6D1B6D02F01F02C3F304438A6080
:106D6000E6E75A68120ECA605A6802F007020A6023
:106D70005A68C2F3C2424A605A685B68C2F3024270
:106D8000C3F381538A60D3E738B94000052802462F
:106D900010B58CBF00200120FBF730FD0C4B53F8E1
:106DA000224001F0B9FE636B9B0409D5D4F8FC3B8B
:106DB00043F40043C4F8FC3BBDE8104001F0C6BEFC
:106DC000D4F8003C43F48043C4F8003CF4E700BF2F
:106DD00038B940000528024608B58CBF00200120C4
:106DE000FBF70CFD074B53F822305A6B920404D585
:106DF000D3F8FC0BC0F3C03008BDD3F8000CC0F3CF
:106E00008030F9E738B940000528024608B58CBF44
:106E100000200120FBF7F2FC074B53F822305A6B9D
:106E2000920403D5D3F8FC0BC0B208BDD3F8000C14
:106E300000F03F00F9E700BF38B9400005282DE910
:106E4000F84304468CBF002001200E46FBF7D6FC19
:106E5000081E174618BF0120FBF7D0FC284B53F83B
:106E600024402368D4F8008003F40069B8F1000FCF
:106E700018DA204600F004FC05462368B9F1000F3B
:106E80003CD0DB0110D4012D38BF0125B8F1000F33
:106E900005DA204600F042FC002818BF05462846C7
:106EA000BDE8F8830025E8E7002DEFD1636B03F41C
:106EB000005901F05DFF2368002F3146204643F45E
:106EC000006314BF4FF0004200222360D4F8003C5E
:106ED00023F000431343C4F8003CD4F8003C23F4EF
:106EE0001F43C4F8003CB9F1000F04D0FEF77CFB4F
:106EF00001F058FFCAE7FEF7C8FAF9E70125C5E730
:106F000038B940000528024610B58CBF002001208A
:106F1000FBF774FC081E18BF0120FBF76FFC1F4B2A
:106F200053F82220536B03F40053002B14BF0124A9
:106F3000002419D0FBF762FC00230B60D2F8F83B69
:106F400003F01F034B60D2F8F83BC3F303338B60AD
:106F5000D2F8F83BC3F383530B61D2F8F03BC3F391
:106F60000943CB60204610BDD2F8043CC3F309535B
:106F7000CB60D2F8043CC3F384230B60D2F8043C0A
:106F8000C3F342134B60D2F8043C03F007038B6059
:106F9000D2F8043CC3F302430B61E3E738B9400085
:106FA00005282DE9F04105468CBF002001208846C8
:106FB000FBF724FC244B144653F825603768002F58
:106FC00014DA304600F05CFB05463368DA010FD472
:106FD000012D38BF0125002F05DA304600F09EFB59
:106FE000002818BF05462846BDE8F0810025ECE7DB
:106FF000002DF0D101F0EEFE736B9B0413D5D6F893
:10700000FC3B23F0004323F4FE03B8F1000F05D04E
:10701000240404F4FE04234343F00043C6F8FC3B7D
:1070200001F0F2FED7E7D6F8003C23F41F43B8F195
:10703000000F05D0240204F4F854234343F4004322
:10704000C6F8003CECE700BF38B94000052802460E
:10705000F8B58CBF00200120FBF7D0FB154B0D4687
:1070600053F822603768002F13DA304600F008FB2F
:1070700004463368DB010ED4012C38BF0124002FF5
:1070800005DA304600F04AFB002818BF04462046C7
:10709000F8BD0024EDE7002CF1D101F0CDFE736BBB
:1070A000ED0423F4780305F478051D43756301F0BE
:1070B000DDFEE4E738B940000528024610B58CBF74
:1070C00000200120FBF79AFB074BFF2953F8220011
:1070D00004D1D0F8140CC0F3807010BDFEF7BFF9D6
:1070E000431E58425841F8E738B940000528024687
:1070F00010B58CBF00200120FBF780FB064BFF2959
:1071000053F8220004D14FF08043C0F8143C10BD66
:10711000BDE81040FEF796B938B9400038B5124BBB
:107120000528014653F82040104B53F820508CBFDF
:1071300000200120FBF762FB2368002B12DB2046B6
:1071400000F0A4FC95F808343BB9204600F086FF17
:1071500018B14FF07043C4F8103C0123002085F8AB
:107160002C3438BD0120FCE738B94000B41340206E
:1071700038B50F4B052853F820400E4B53F82050DC
:107180008CBF00200120FBF739FB2368002B0DDBAF
:10719000204600F071FC204600F060FF002308B19B
:1071A000C4F8103C002085F82C3438BD0120FCE7E1
:1071B00038B94000B4134020052873B505468CBF8C
:1071C000002001200C46FBF719FB204B53F82550FB
:1071D0002E68002E06DB042C33D8DFE804F0232CC5
:1071E0001D2012002846019200F04AFA019A002858
:1071F000F1D00446284600F091FA002818BF044652
:1072000007E04FF400410024284600F0AFFA002EBA
:10721000F0DB204602B070BD4FF48041F3E744F24A
:107220000101F0E72B68D9010DD54FF480612846A4
:1072300000F09CFAEBE72B68DB01E8D54FF4006126
:10724000E1E700BEFDE70124E1E700BF38B94000F7
:1072500005282DE9F74304468CBF002001200D4688
:10726000FBF7CCFAA1F14000C0B2BE2894BF0020C9
:107270000120FBF7C3FA3F297BD8DFF8048158F8D7
:10728000243003EB01177A68002A74D03B4A93F844
:107290002C3452F824600A462146304600F0BCFBEC
:1072A0007B68012B1FD158F8248098F82434002BD8
:1072B00042D0736BC3F303635B0007339D420AD96B
:1072C0002946304600F05AF9036823F070630360E2
:1072D00043F08063036035B998F82C3405222146C9
:1072E000304600F099FB7B680024022B3BD12946F5
:1072F0003046019400F042F903682146804623F0AD
:10730000706343F01063036042F2107001F0B4F94F
:107310008146204601F0A9F9019029463046FEF742
:107320009EF80146A0B1D8F80030C3F30363082BE0
:107330000CBF0524002412E02946304600F01EF957
:10734000036823F07063036043F080630360CAE75F
:1073500001A801F08CF90444A145DED80324294694
:107360003046FEF76FF800237B60204603B0BDE88F
:10737000F0830024F9E70524F7E700BF38B940009F
:10738000B413402005280246F8B58CBF0020012028
:10739000FBF734FA104B0E4653F822502F68002F9B
:1073A00013DA284600F06CF904462B68DB010ED492
:1073B000012C38BF0124002F05DA284600F0AEF971
:1073C000002818BF04462046F8BD0024EDE7002C35
:1073D000F1D16E61EFE700BF38B9400005280246E1
:1073E000F8B58CBF00200120FBF708FA104B0E46C1
:1073F00053F822502F68002F13DA284600F040F986
:1074000004462B68DB010ED4012C38BF0124002F69
:1074100005DA284600F082F9002818BF0446204605
:10742000F8BD0024EDE7002CF1D1AE61EFE700BF1D
:1074300038B9400005280246F8B58CBF002001206D
:10744000FBF7DCF9164B0E4653F822502F68002F3D
:1074500013DA284600F014F904462B68DB010ED439
:10746000012C38BF0124002F05DA284600F056F918
:10747000002818BF04462046F8BD0024EDE7002C84
:10748000F1D101F07BFB6B68002E23F0080314BFE1
:107490000822002213436B6001F08AFBE3E700BF80
:1074A00038B94000034B53F820305868C0F3C0008F
:1074B000704700BF38B94000F7B51C4B00240646A2
:1074C00053F82050214642F21070019401F0D4F894
:1074D000052E07468CBF00200120FBF78FF96B6853
:1074E000590621D52B6A9A0602D4002003B0F0BDBC
:1074F00001F038FD6B6823F040036B606B6843F06C
:1075000040036B6001F048FD204601F0AEF80190A9
:107510002B6A9B06E9D5002101A801F0A8F80444D4
:10752000A742F5D80320E1E70120DFE738B94000A2
:1075300041B101294FF008030CD0D0F8000CC0F382
:1075400001400BE0D0F8003C0820C3F30143984011
:10755000C0B27047D0F8000CC0F3C14003FA00F08D
:10756000F6E7082807D90938C0B2062802D8024B26
:10757000185C704708207047D3A24000F8B5CAB223
:107580000021074600F18005FFF7D2FF08304FF4D5
:107590000076C3B2B6FBF3F4E4B2A24211D30121E8
:1075A0003846FFF7C5FF0830121BC3B2D2B2B6FB94
:1075B000F3F4E4B2A24225BF121B4FF48071802184
:1075C000D2B2B2FBF4F004FB10229808D2B200FB56
:1075D000021005EB8000F8BD0F4A0346904215D01B
:1075E00002F58042904211D002F5804290420FD0C5
:1075F00002F5804290420DD002F58042904209D0BF
:107600000020064A934208BF202070474020F8E738
:1076100040207047202070470040304000803140BB
:1076200073B50446002142F21070019101F024F874
:10763000064601F013F9236843F080432360236872
:1076400043F0805323602368002B03DA236823F080
:1076500000432360002501F01BF9002001F005F82C
:107660000190216811F0807102D0002002B070BD3D
:1076700001A800F0FCFF0544AE42F2D80320F5E774
:1076800073B50024054642F210702146019400F0C3
:10769000F3FF064601F014F92B6823F000432B603A
:1076A00001F028F9204600F0E0FF0190296811F070
:1076B000807102D0002002B070BD01A800F0D7FF99
:1076C0000444A642F2D80320F5E773B5002405462A
:1076D00042F210702146019400F0CEFF064601F000
:1076E00021F92B6823F080532B602B6823F0804313
:1076F0002B6001F031F9204600F0B7FF01902868B7
:1077000010F0807001D102B070BD002101A800F01E
:10771000AEFF0444A642F2D80320F4E773B5002478
:10772000054642F210702146019400F0A5FF2B6837
:107730000646A34202DA002002B070BD01F024F92F
:107740002B6843F000432B6001F038F9204600F02D
:107750008CFF0190296811F48011ECD101A800F090
:1077600086FF0444A642F5D80320E5E770B5164627
:1077700004460D4601F03AF944F20103BEB19D42C0
:1077800004D1636B43F0004363630CE0B5F5806F95
:1077900002D0B5F5006F03D1236843F400132360D2
:1077A00061680D436560BDE8704001F039B99D42E4
:1077B00003D1636B23F00043E6E7616821EA050526
:1077C0006560636813F4406FEDD1236823F4001300
:1077D0002360E8E773B50025044642F2107029469D
:1077E000019500F049FF23680646284643F00073E0
:1077F000236000F03AFF0190216811F000710DD173
:107800002368204643F480532360FFF7E5FE04F12C
:1078100080030A461E4603EB00150AE0002101A87A
:1078200000F025FF0544AE42E6D8032137E043F8D7
:10783000042BAB42FBD104F50862002302EB800568
:1078400095422FD1626B202842F0805262632361FF
:10785000A3646361A3613360626B22F08052626350
:107860004FF0FF3222616261A261A362226301D9FB
:107870006362E2620D4B4FF4801223620023636067
:1078800062632365C4F8F03BC4F8F43BC4F8F83BEA
:10789000C4F8FC3BC4F8043C054BC4F8003C084663
:1078A00002B070BD42F8043BCAE700BF06003B00CF
:1078B0000041008038B50568044615F400651ED106
:1078C000FFF78AFE236809066FF0604243F0005319
:1078D00080B201F070612360636B23F07063194321
:1078E0004FF0FF336163A3642B46834201D32846E4
:1078F00038BD03F50871013344F82120F5E701256F
:10790000F5E708B5036802461B0557BF0868012064
:10791000B0FA80F04009FAF77BFF1368180557BFEB
:1079200048680120B0FA80F04009FAF771FF136847
:107930001B050DD5D2F8003C086823F44033496894
:1079400043EA004323F4C01343EAC143C2F8003CB6
:1079500008BD38B50D4600210446FFF7E9FD00F1EA
:107960000803DAB24FF40073B3FBF2F3DBB2AB42BD
:1079700004D820460121BDE83840D9E538BD08B516
:10798000FFF7FCFD036808BD2DE9F0411F2A0C46F6
:107990004FF0010702F01F0106469DF8188007FA14
:1079A00001F71CD81B4D8BB101F078FA55F8343033
:1079B0001F4345F83470B8F1000F02D055F8343049
:1079C000B36201F085FA0020BDE8F08101F066FAAB
:1079D00055F8343023EA070745F83470EEE7203ACB
:1079E0001F2AF0D80B4DE4005BB12C4401F056FA8D
:1079F00063681F436760B8F1000FE2D06368736289
:107A0000DFE72C4401F04AFA636823EA070767605E
:107A1000F4E700BFCC134020F8B51F2A1E464FF0F4
:107A2000010702F01F0304460D4607FA03F70FD8BB
:107A300001F0D6F8A36A23EA07070E4B43F8357026
:107A400016B153F83530A362BDE8F84001F0E2B852
:107A5000203A1F2A0DD801F0C3F8636A054923EACA
:107A6000070701EBC5056F60002EEDD06B68636200
:107A7000EAE7F8BDCC13402008B50146FFF7ACFD9E
:107A8000002320288B6200D94B6208BD10B5044644
:107A9000FFF7A2FD054B202853F83120A26203D93D
:107AA00003EBC1035B68636210BD00BFCC134020D1
:107AB00038B515461C46FFF761FD0146281E18BF64
:107AC0000120FAF7A5FE00230B604B606B68012BC9
:107AD0001FD10B6824F0604443F400130B600B6863
:107AE00023F480030B604B6803F060434B604B68EA
:107AF0001C434C602B680F2B0AD00B6823F070637B
:107B00000B602B680A681B0603F0706313430B605D
:107B100038BD002BEED10B6823F4C0030B604B681B
:107B200023F0FF5323F4E0134B60034B4A6803EA4E
:107B300084441443DDE700BF0000FC1F08B5FFF7D5
:107B40001DFD006880B208BD2DE9F843144680464B
:107B50008946FFF713FD06460068494604F1080709
:107B6000C0F30340FFF7FDFC0546201E18BF0120AF
:107B7000FAF74EFE4046FFF7ECFEA84204D2494613
:107B80004046FFF7E6FE054684F848503368990200
:107B900023609BB2726825F0030158BF920CE36426
:107BA000002362608B4206D303F108021444AB4207
:107BB0000CD3BDE8F88303F0FC02980804330832C4
:107BC000DBB2B25812BA47F82020EBE783F0030289
:107BD00001330832DBB2B25C04F8012BE7E72DE990
:107BE000F8430446081E98469DF8206018BF0120FF
:107BF000FAF70EFE4FF00063236000236360087AFB
:107C0000402897BF374BFF251B18DD79B8F1000FCF
:107C10003AD14868012841D1636822F060424FF4AC
:107C2000C00003F06043636063681A4362600A68DF
:107C30000F2A54D02B041C2A03F4702340EA0300BB
:107C40003CD140F480103BE0870820F0030304306F
:107C500058F8277008333FBAE7508B6823F00303C6
:107C60008342F1D804F108098F6887420ED828466C
:107C7000FFF777FCB842CCD987F0030391F80DC029
:107C8000013709F803C0F5E70020E6E780F00303B9
:107C900018F80070013009F80370E5E760B963680F
:107CA00023F0FF5323F4E01363600F4B676803EA8C
:107CB00082423A436260BAE70020B8E7002EC0D1A2
:107CC00013060A7B03F0706303431AB123F4801395
:107CD00043F000438A7B0AB143F080432360BDE850
:107CE000F88300BFD3A240000000FC1F2DE9F04143
:107CF0004E1E0F4605463146FFF72BFE8046381EC6
:107D0000314618BF0120FAF783FD2846FFF736FCFD
:107D100004462846FFF760FC444405F1800308341C
:107D200003EB00139C422AD8B84228D32B6806F0F4
:107D30007F0623F07F0333432B602C6814F000543C
:107D40001BD00020BDE8F08121462846FFF716FC35
:107D50000646C0F800802146C0F804802846FFF798
:107D6000F8FD08360023984203D80134BC42EBD119
:107D7000E7E706F803800133F5E7A046F6E70420BD
:107D8000E0E701290BD002290DD0A1B9436823F007
:107D900008034360436823F480534360704743689B
:107DA00043F00803F9E7436843F4805343600368F2
:107DB00023F4003303607047F8B506460C461546B9
:107DC00000F072FF3268230222F4407203F4407321
:107DD0001343336000F082FF012C25D0022C61D0C8
:107DE000F4B9716B2A4606F1E000C1F30361013179
