:020000041000EA
:10000000000001081B0100100D0000007D01001020
:1000100000000000000000000000000000000000E0
:100020000000000000000000000000007901001046
:1000300000000000000000007901001079010010AC
:10004000B5010010F10100102D020010690200102E
:10005000A5020010E10200101D030010590300105A
:100060007901001079010010790100107901001068
:100070007901001079010010790100107901001058
:100080000448054B10B5834203D0044B002B00D02D
:10009000984710BD88080008880800080000000084
:1000A00006480749091A8B10C90FC91810B549101D
:1000B00003D0044B002B00D0984710BD88080008DF
:1000C000880800080000000010B5074C2378002BBA
:1000D00009D1FFF7D5FF054B002B02D0044800E003
:1000E00000BF0123237010BDC00E000800000000F7
:1000F000CC0E0010054B10B5002B03D00449054869
:1001000000E000BFFFF7CCFF10BDC04600000000BC
:10011000C40E0008CC0E00107047FFF7FDFF72B64A
:100120000F4C104DAC4209DA21686268A368043BA9
:1001300002DBC858D050FAE70C34F3E70A490B4AFF
:100140000020521A02DD043A8850FCDC08480949B4
:100150000860BFF34F8F00F047F900F01DF8FEE78D
:10016000D80E0010F00E0010C00E0008140F00088A
:100170000008000808ED00E0FEE7FEE700B50420F7
:100180007146084202D0EFF3098002E0EFF30880E5
:10019000043000F08FFBFEE710B562B6034800F0B4
:1001A0008FF9002000F0FCFBFBE7C04600000410C4
:1001B000FEE700000B4B10B51B681A6888235B0133
:1001C000D158002907DAD358074A9B051B0D9B58C5
:1001D000002B00D09847C0230121044A5B00D15076
:1001E00010BDC046DC0E0008A408000800E100E0D5
:1001F0000A4B10B51B681A68094BD158002907DA59
:10020000D358084A9B051B0D9B58002B00D09847DC
:10021000C0230221044A5B00D15010BDDC0E00084F
:1002200004110000A408000800E100E00A4B10B52A
:100230001B681A68094BD158002907DAD358084AB5
:100240009B051B0D9B58002B00D09847C023042111
:10025000044A5B00D15010BDDC0E000808110000FC
:10026000A408000800E100E00A4B10B51B681A68FA
:10027000094BD158002907DAD358084A9B051B0DB2
:100280009B58002B00D09847C0230821044A5B00EC
:10029000D15010BDDC0E00080C110000A4080008AD
:1002A00000E100E00A4B10B51B681A68094BD158F1
:1002B000002907DAD358084A9B051B0D9B58002BD1
:1002C00000D09847C0231021044A5B00D15010BDD4
:1002D000DC0E000810110000A408000800E100E096
:1002E0000A4B10B51B681A68094BD158002907DA68
:1002F000D358084A9B051B0D9B58002B00D09847EC
:10030000C0232021044A5B00D15010BDDC0E000840
:1003100014110000A408000800E100E00A4B10B529
:100320001B681A68094BD158002907DAD358084AC4
:100330009B051B0D9B58002B00D09847C0234021E4
:10034000044A5B00D15010BDDC0E000818110000FB
:10035000A408000800E100E00A4B10B51B681A6809
:10036000094BD158002907DAD358084A9B051B0DC1
:100370009B58002B00D09847C0238021044A5B0083
:10038000D15010BDDC0E00081C110000A4080008AC
:1003900000E100E07047000070B5002000F058FA5E
:1003A0000D4C206000F079FA6060002000F050FAF7
:1003B00065680A4BA0600A49E81800F043FBFA217F
:1003C000084B20738900E81800F03CFB20610020F6
:1003D00000F03EFA606170BD880800083F420F00DF
:1003E00040420F00E703000098211E4B49015A5874
:1003F0001D4810B502405A5080315A58FF2402401F
:100400005A504021194B0A681A64442212685A64EF
:10041000C022174B92009858A04301439950995815
:1004200014480140995001221A6092181A6012482B
:1004300000F07EF800F0F8FA104A13685B005B08E1
:100440001360FFF7A7FFFFF7A7FF802100230C4AE7
:100450000C4CFF319800013314508B42FAD10A4BF7
:100460009A6110BD00002040FFFFF7FF0008000860
:1004700000E100E0FF00FFFF0C0E001000C026406E
:10048000A4080008B10100108808000810B59024E5
:1004900000F047F8074B64011959074A1140074A11
:1004A0000A431A51102259681142FCD000F03DF85D
:1004B00010BDC04600002040FCFF00000100FA050E
:1004C000F8B590260E4C7601070000F02AF8A359E3
:1004D0000500DB439B0701D1FFF7D8FF80239B007A
:1004E000E750A259074B1A40074B1343A35110235F
:1004F00062681A42FCD0280000F017F8F8BDC04628
:1005000000002040FCFF00000300FA05000000008E
:100510000230800803D001300238FCD1C046C0460A
:100520007047EFF3108072B6704780F31088704701
:10053000014B18607047C046DC0E0008054B1B6875
:100540001A0088321B6812689B181868000AC0B22B
:100550007047C046DC0E0008044B1B681A00883246
:100560001B6812689B181868000E7047DC0E0008A4
:100570009223DB00C018034B8000C0588006800F18
:100580007047C04600002640024B18694007C00F64
:100590007047C04600002740044B054AD05803234B
:1005A0001840984200D102207047C0462415000030
:1005B0000000264010B5FFF7EFFF0023022801D10D
:1005C000014B1B68180010BDE40E0008084A8300A8
:1005D000991890225201885807221040042806D109
:1005E000044AFC309B181F225B6813401843704775
:1005F00000002640FC00264010B5FFF7E7FF8823E7
:100600005B0098421FD00BD8012812D0022813D0CB
:10061000431E98410E4B404218400E4BC01810BD6F
:100620001223FF3398420AD0033398420BD00020A4
:10063000F5E7094B1868F2E7FFF7BCFFEFE7FFF7B4
:10064000A3FFC003EBE7054A054BD058C00FF8E7FE
:1006500000EE85FF00127A00E00E00080000264040
:1006600008150000144A154B10B5D3580F249903F0
:10067000DB01DB0F890BC371114B0160D358D90427
:100680001B0CDBB203810F4BC90CD35881801900BE
:100690002140817219092140C172D9029B009B0F30
:1006A0008373094BC90CD35881815A05DB01520F62
:1006B000DB0D8271038210BD000026403015000062
:1006C00034150000381500003C150000F0B5002678
:1006D00089B003AD14220021280000F083FB28001C
:1006E000FFF7C0FF164A174BD358B34224DAAB7B4F
:1006F000022B21D0AC88B4421ED03000ED79039F8C
:10070000FFF77AFF2200330031000190681C00F0EF
:1007100045FA0C00050033003A003100019800F062
:100720003DFAE6076A0832436308801859412A00F7
:10073000230000F013FA0600300009B0F0BDC046F7
:10074000000026403015000070B50C00050018228E
:100750000021200000F046FBB0237F221F21DB0098
:10076000ED18094BAD00EB5800201A4022701A0A10
:100770000A4062701A0C0A40A2701A01CA409B001B
:100780009B0FE270237170BD00002640F0B504009D
:1007900089B01822002102A800F024FB200002A941
:1007A000FFF7D2FFB0230026DB00194AE3189B00B5
:1007B0009B58B34229DA02AB1B79022B25D002AB3E
:1007C0005D78B54221D09F78B7421ED01B78601C5F
:1007D0000093FFF711FF33003A0031000190280029
:1007E00000F0DCF90C00050033003100009A01989C
:1007F00000F0D4F9E6076A083243630880185941CB
:100800002A00230000F0AAF90600300009B0F0BD6C
:100810000000264010B50400FFF7EEFE002C07D1C3
:10082000094A0A4BD358002B01DAFFF74FFF10BDDE
:10083000012CFCD1B023044A5B01D358002BF6DA1B
:100840000020FFF7A3FFF2E700002640301500006C
:1008500070B50500FFF78CFE9223DB00ED18074B07
:10086000AD000400E8580F231840FFF7D3FF012321
:10087000A3405B081818E04070BDC0460000264049
:1008800010B50020FFF7E4FF0400FFF765FE411CF0
:100890004808001900F0D6F810BD10B5FFF7F0FFBA
:1008A0000400FFF74BFE411C4808001900F0CAF88D
:1008B00010BDFEE702680A4B10B51A6042685A6024
:1008C00082689A60C268DA6002691A6142695A6194
:1008D00082699A61C269DA61FFF7EBFF10BDC04619
:1008E000A00E0008254B73B586000D00F4580429AE
:1008F00001D0012925D100200EE0A3682B420AD1A6
:10090000E36829001A685B686846019300922368CF
:1009100098471B4B1C606469002C0AD0194B984205
:10092000EBD1012DE9D1164A174B126815489A519F
:1009300076BD012DFCD1134B9842F4D0124B9C5143
:10094000F6E7022914D026006469002CFBD10020B0
:10095000002EEDD0B3682B4208D1F36829001A6845
:100960005B68684601930092336898473669EFE701
:10097000034B1B68181EDBD01E69E8E7000F000858
:10098000FC0E0008FF004200E80E00088023034A26
:100990005B01D0588006C00F7047C046000026405B
:1009A00070B50600FFF7F2FF002834D01B4D6B68CE
:1009B000002B15D1FFF7B5FD6B680400002B1DD18E
:1009C0000423174A11690B431361012E1BD030BF5A
:1009D0002000FFF7AAFD6C68002C16D1200070BD26
:1009E00001210800FFF77EFF041EE3D06B68002B97
:1009F000F4D002210120FFF775FFEFE70421012069
:100A0000FFF770FFDCE720BFE2E708210120FFF7D6
:100A100069FF0024E2E7034CE0E7C046000F00084E
:100A200000ED00E0FF0042000322054B196C9143EA
:100A3000023A0A431A640222196C0A431A64704784
:100A400000C02640002243088B4274D303098B4226
:100A50005FD3030A8B4244D3030B8B4228D3030C8E
:100A60008B420DD3FF22090212BA030C8B4202D330
:100A70001212090265D0030B8B4219D300E0090A58
:100A8000C30B8B4201D3CB03C01A5241830B8B4261
:100A900001D38B03C01A5241430B8B4201D34B034A
:100AA000C01A5241030B8B4201D30B03C01A5241AF
:100AB000C30A8B4201D3CB02C01A5241830A8B4234
:100AC00001D38B02C01A5241430A8B4201D34B021D
:100AD000C01A5241030A8B4201D30B02C01A524181
:100AE000CDD2C3098B4201D3CB01C01A5241830935
:100AF0008B4201D38B01C01A524143098B4201D36F
:100B00004B01C01A524103098B4201D30B01C01A99
:100B10005241C3088B4201D3CB00C01A5241830813
:100B20008B4201D38B00C01A524143088B4201D340
:100B30004B00C01A5241411A00D2014652411046A0
:100B40007047FFE701B5002000F006F802BDC0467F
:100B50000029F7D076E770477047C046002B11D1C7
:100B6000002A0FD1002900D1002802D00021C9435A
:100B7000080007B4024802A14018029003BDC04615
:100B8000D9FFFFFF03B4684601B5029800F034F8BE
:100B9000019B9E4602B00CBC7047C046F0B5CE46E5
:100BA0009946030C9C46130447461B0C1D000E007F
:100BB00061460404240C80B50700100C4B436543C8
:100BC000414360432C0CC01820188C46834203D943
:100BD00080235B029846C444494679435643030C3C
:100BE0002D042D0C8919634400044019C918C0BC98
:100BF000B946B046F0BDC046F0B557464E464546EC
:100C0000DE46E0B504000D009246994683B08B4263
:100C100030D82DD04946504600F0D8F829000600BB
:100C2000200000F0D3F8331A9846203B34D49B467A
:100C300053465A46934042461F00534693401E0077
:100C4000AF423BD8AF4200D179E05B46A41BBD4127
:100C5000002B00DA76E000220023009201930123AA
:100C60005A4693400193012342469340009329E062
:100C70008242CFD900220023009201930C9B002BCB
:100C800001D01C605D600098019903B0F0BCBB46C8
:100C9000B246A946A046F0BD42469B4620239B1A79
:100CA0005246DA40414613004A468A4017004246FF
:100CB0001F43534693401E00AF42C3D90022002376
:100CC000009201934346002BD8D0FB0772081A43C9
:100CD00046467B080EE0AB4201D1A2420CD8A41AD2
:100CE0009D41012024196D410021013E24184D41F0
:100CF000002E06D0AB42EED9013E24196D41002EE4
:100D0000F8D1009801995B4600196941002B24DB5A
:100D10002B005A464446D3402A00E2401C005B4662
:100D20001500002B2ADB26009E4033002600474694
:100D3000BE403200801A9941009001919EE7A34283
:100D4000BCD882E74246202300219B1A0022009152
:100D500001920122DA40019285E7424620239B1A44
:100D60002A0046469A402300F340444613432A0093
:100D7000E2401C005B461500002BD4DA42462F00EF
:100D80002023260097409B1ADE403B003343CDE7EB
:100D90001C2101231B04984201D3000C10391B0AAB
:100DA000984201D3000A08391B09984201D300096F
:100DB000043902A2105C40187047C04604030202C6
:100DC00001010101000000000000000010B5002931
:100DD00003D1FFF7DDFF203002E00800FFF7D8FF66
:100DE00010BDC04603008218934200D170471970AD
:100DF0000133F9E7F8B5C046F8BC08BC9E46704719
:100E0000F8B5C046F8BC08BC9E46704700002040BC
:100E100000002440000000400000000000002340CB
:100E200000003040000031400000904000002240AF
:100E300000001040000090402020202020202008AA
:100E4000085C2C8000002E00FF03040103007C00DE
:100E5000400000007FFE00000004000000000000D1
:100E60000019324B647D0702020000804000080B2D
:100E7000100000000000FF012002001F008000049D
:100E8000FF081018001000140018001C4044484CC3
:100E900050000000081000000800000004000000DE
:100EA00004100000001200000421000000210000D6
:100EB0000016000040114002C41300138013A01359
:100EC00040138813A81320001C000000000000003D
:100ED00028FDFF7F0100000000000010000800084E
:100EE00080000000F80E00108008000808000000D4
:100EF000C00E000854000000F5000010C9000010EA
:020000041004E6
:1000000000F80308D30104100D0000001F020410C3
:100010002102041023020410250204100000000035
:100020000000000000000000000000002702041093
:1000300029020410000000002B0204102D020410FD
:10004000BF2B0410FB2B0410372C0410732C04104E
:10005000AF2C0410EB2C0410272D0410632D04107A
:100060002F0204102F0204102F0204102F0204107C
:100070002F0204102F0204102F0204102F0204106C
:1000800000F002F800F094F80AA090E8000C824416
:100090008344AAF10107DA4501D100F089F8AFF2F3
:1000A000090EBAE80F0013F0010F18BFFB1A43F056
:1000B00001031847303D0000503D0000103A24BFB6
:1000C00078C878C1FAD8520724BF30C830C144BFBD
:1000D00004680C60704700000023002400250026FF
:1000E000103A28BF78C1FBD8520728BF30C148BF9B
:1000F0000B6070476E2900F01582702900F057835D
:10010000662903F0B684652903F0B384672903F0F8
:10011000B084612903F0AF8403681B0A28BF41F053
:100120008001692900F0C281642900F0BF8175292E
:1001300000F0BC816F2900F0E582782900F023836C
:10014000E92900F07F82E42900F07C82F52900F0A3
:100150007982EF2900F0E282F82900F02283036817
:10016000DB0928BF41F08001632901F02380732956
:1001700001F02880E32901F03380F32901F0388071
:10018000002070471FB503F067FC01F061F8040020
:100190000020002103F04AFC401C60600020002188
:1001A00003F02EFCE06000F00BF91FBD10B510BD90
:1001B000DFF80CD0FFF7E6FF02F09AFF01F0FEF83F
:1001C00000F8030803B4FFF7F1FF03BC02F04CFE94
:1001D0007047FFF7FDFF72B6154916484FF08002D1
:1001E0000B680360001D091D121F002AF8D1114879
:1001F00011490860BFF34F8F10488047104880476F
:10020000FEE7FEE7FEE704207146084203D0EFF365
:10021000098000F002F8EFF3088002F0BDFBF2E77E
:10022000F1E7F0E7EFE7FEE7FEE7FEE7FEE7FEE7D0
:10023000000004100000010808ED00E09B2B0410F2
:100240008100041000000000801C800803D0401CC6
:10025000801EFCD100BF7047EFF3108072B670476C
:1002600080F310887047704753EA020C00F06980F1
:100270002DE9F04B4FF00006002B1FBFB3FA83F5BA
:1002800003FA05F424FA05F65E4012BF1643B2FAEB
:1002900082F502FA05F4C5F120051EBF22FA05FC1D
:1002A00044EA0C04203556EA044C4FEA144418BFC3
:1002B000641C4FF000084FF00009904271EB030CF2
:1002C00039D3002919BFB1FA81F701FA07F6B0FA5C
:1002D00080F700FA07F6C7F120071EBF20FA07FCD7
:1002E00046EA0C062037B6FBF4FCA7EB0507103FE7
:1002F00007F01F0BCBF120062CFA06F60CFA0BFBCD
:1003000044BFB3460026202FA4BF5E464FF0000B2B
:100310005BEA060C08BF4FF0010B19EB0B0948EB29
:100320000608ABFB027C06FB02CC0BFB03CCC01B1C
:1003300071EB0C01C1E70B46024641464846BDE859
:10034000F08B13B5084318BF4FF0FF300146AFF3F1
:100350000080BDE81C4070471CB50C46064B7B4432
:1003600069460090204600F0F6F8044600206946F1
:1003700000F004F920461CBD1B02000010B5431C10
:1003800002E010F8011B71B18107FAD14FF0013280
:1003900002C88C1A8C4314EAC211F9D0C01A0A069A
:1003A00003D0C01E10BDC01A10BD0A0401D0801EAB
:1003B00010BD0902FCD0401E10BD70477047704749
:1003C00070B5064C7C44064D7D4404E0204601682F
:1003D00008448047241DAC42F8D170BD683B000042
:1003E000683B0000704770B5044685690068C10627
:1003F00001D5302600E02026C00707D070BDD4E923
:10040000012130469047206A401C20626D1EF6D5BF
:1004100070BD70B5044685690078C00707D170BD0E
:10042000D4E9012120209047206A401C20626D1EE3
:10043000F6D570BD09684A0501D540B27047C905B7
:10044000FCD500B2704709684A0501D5C0B27047B3
:10045000C905FCD580B2704770B50C460546012A27
:1004600005D02878800600D5EA69002302E0012340
:1004700005E05B1C934202D2E05C0028F9D1A86938
:10048000E618C01AA861286A184428622846FFF7AF
:10049000AAFF04E0D5E9012114F8010B9047B4420A
:1004A000F8D32846FFF7B5FF70BD00002DE9F041F5
:1004B0000646002410687529314616A510D0FFF7AE
:1004C000B9FF002802DA404213A507E031688A0725
:1004D00001D512A502E0490704D511A5012401E0C8
:1004E000FFF7B1FF00210A2206F1240709E0B0FB63
:1004F000F2FCB0FBF2F302FB1C00303078541846DB
:10050000491C0028F3D123462A463046BDE8F04175
:1005100000F061BA000000002D0000002B00000078
:100520002000000011680268006A530501D50870B8
:100530000AE0D30501D5088006E0130603D5C217EB
:10054000C1E9000200E008600120704701694A1C0F
:1005500002610878704700B58FB0CDE90131002104
:10056000059105497944CDE903101146684600F02C
:1005700029F90FB000BD0000E5FFFFFF0A6802F88F
:10058000010B0A60704700002DE9FF5F15468A469F
:100590000446DFF8AC80F8440027D8E900103E4656
:1005A000CDE9001010E03AF816106A4602A800F0F3
:1005B00023FE411C07D02178890603D5E26939184A
:1005C00091420DD80744761C2078800602D5E06958
:1005D000B84205DDAE42E6DB3AF816000028E2D16B
:1005E000A069C01BA0612046FFF7FDFED8E90010FE
:1005F000CDE90010002017E03AF818106A4602A86A
:1006000000F0FAFDB0F1FF3F81460BD000250DF15F
:10061000080B05E0D4E901211BF8050090476D1C8B
:100620004D45F7D308F10100B0428046E4DB206A73
:10063000384420622046FFF7ECFEBDE8FF9F000033
:10064000E23400002DE9F0418046D21D22F007027D
:100650000025D2E90002F52915A614D0011E72F179
:10066000000106DA0023D0EB030063EB020211A6BF
:1006700008E0D8F800108B0701D50FA602E0490763
:1006800001D50EA601251146002408F1240704E037
:1006900000F05CF930323A55641C50EA0102F7D19F
:1006A0002B46324621464046BDE8F04100F093B962
:1006B000000000002D0000002B00000020000000C2
:1006C00030B4002100F1240408E002F00705D2084C
:1006D000303542EA4372DB086554491C52EA03058F
:1006E000F3D10468002310A2250708D504F02004E4
:1006F0000C4304D0C46901230CA2641EC46130BC45
:1007000000F069B910B5044621461068FFF79BFE5A
:1007100002462046BDE810400023D1E7D21D22F05A
:100720000701D1E90023CBE7000000003000000002
:10073000F0B40D460188090502D5214C7C4402E045
:100740001F4C7C440E34002100F1240608E002F026
:100750000F071209E75D42EA03721B097754491C2F
:1007600052EA0307F3D102780023120704D5702D53
:1007700006D009B1022311342246F0BC00F02BB997
:1007800001231034F8E770B504460D462146106881
:10079000FFF759FE024629462046BDE87040002377
:1007A000C6E7D21D22F00703D3E90023C0E70368A0
:1007B000126843F0200303600823C3610023B7E7F6
:1007C000443300002DE9F05F894604464FF0000AEB
:1007D000DFF874B1FB44C0F820A02046E1688847E8
:1007E000002874D0252806D0D4E901219047206A3A
:1007F000401C2062F1E700265F462046E1688847FA
:100800002028054607DB312D05D2781910F8200C79
:1008100008B10643F1E7B00701D526F00406C4F895
:100820001CA00027C4F818A02A2D09D0284603F0E0
:10083000DFF838B304EB8708303DC8F8185019E0EA
:1008400059F8041B204604EB87029161E168884750
:10085000012F054618D1E069002820DA26F020068D
:100860001DE0D8F8180000EB800005EB40003038A0
:10087000C8F818002046E1688847054603F0B8F834
:100880000028EED1012F0AD02E2D08D12046E16894
:1008900088477F1C0546022F46F02006C4DBA0696E
:1008A000002803DA404246F00106A061F00701D0BB
:1008B00026F010066C2D0BD0682D09D04C2D39D0A8
:1008C0006A2D35D0742D35D07A2D33D016E038E02E
:1008D000E1682F4620468847B842054609D16C2F6B
:1008E00026D04FF48060E1680643204688470546DD
:1008F00004E06C2F1AD04FF4807006430DB3A5F1BD
:100900004100192802D8203546F400664A46294697
:10091000204626604E46FFF7EDFB80B101280BD044
:10092000F61D26F0070000F1080956E74020E4E72D
:100930008020D8E70020D6E706F104094DE72846D5
:1009400052E7206ABDE8F09FD432000030B5B0F124
:100950000A0271F100034FEA900E4EEA817EB0EB7D
:100960000E0061EB91014FEA101E4EEA017E10EB82
:100970000E0041EB11114FEA102E4EEA016E10EB02
:100980000E0041EB11214FEA104E4EEA014E10EBE2
:100990000E0041EB1141401841F100014FEAD00037
:1009A00040EA41704FEAD1014FEA810444EA907471
:1009B00010EB800544EB01046D1944EB0404521B59
:1009C000A3414FF0000348BF0A3200D530BD401CA0
:1009D00041F1000130BD2DE9F0470D4699469246A0
:1009E000044600F124080168880604D5E06921F076
:1009F0001001216000E00120A84201DD471B00E05A
:100A00000027A1697A1902EB0900081AA061207871
:100A1000C00602D42046FFF7E6FC002608E0D4E931
:100A200001211AF806009047206A401C761C2062BB
:100A30004E45F4DB2078C0060AD52046FFF7D3FCEC
:100A400006E0D4E9012130209047206A401C206252
:100A5000381EA7F10107F4DC07E0D4E9012118F8FA
:100A600005009047206A401C2062281EA5F1010560
:100A7000F3DC2046FFF7CDFC2078000602D50220EB
:100A8000BDE8F0870120FBE72DE9FF4F0C461E462D
:100A90004FF0FF378BB0D2E90001DDF860800A909B
:100AA0008A46C1F30A5505B93D46002108464FF074
:100AB0000000BAF1000F00F4400005DA00EB8000FE
:100AC0004FF4400101EA50004FEA9059B9F1010F8B
:100AD00000DDB9460A9850EA4A000ED044F610509C
:100AE000A5F2FF3545432F14B8F1000F1ED0754213
:100AF000291E1EDDC9F100021CE0B8F1010F4FF004
:100B0000000001D0302103E0F24305E02154401CF5
:100B1000B042FBDB30460022002121540B99C1F882
:100B20000880C1E900200FB0BDE8F08FBD1B6D1C2F
:100B3000DEE74A4600DA694206A800F0CDFB06ABC4
:100B400093E8070003AB83E8070050460A9902F0D8
:100B50006EFB8DE80700A0F500501F380090039849
:100B6000002D0ADD42F21F014A460844002303A972
:100B70000390684602F0D8FD09E0A0F500504A460F
:100B80001F38002303A90390684602F0E2FD8DE8B8
:100B900007000004000C03D04FF0FF30410800E0D4
:100BA0001046B8F1000F03D00022009215461EE057
:100BB000751E05D4FFF7CAFE303262556D1EF9D599
:100BC000B3460122084302D000227F1C04E02078B3
:100BD000302801D100227F1E002A099784D01DE011
:100BE000112D07DAFFF7B2FE303262556D1C50EA64
:100BF0000102F5D1084302D00098C8B10EE00021EF
:100C0000681E05E0235C625C63542254401E491C4C
:100C10008142F7DBAB46A81B401E0990002004F878
:100C20000B000B98099AC0F80880C0E9002B7AE7FE
:100C300011264FF0000857E72DE9F04F884604468B
:100C4000D21D22F0070191B0D1E90001CDE90A01DE
:100C500002F0B6FE02460B98C00F01D02D2007E02F
:100C60002068810701D52B2002E0202101EAC00085
:100C7000032A099001D0072A05DB03464146204696
:100C800000F0EAFA0BE12078800601D5E06900E087
:100C90000620B8F1650F814606D0B8F1660F18D06E
:100CA000B8F1670F70D131E00020B9F1110F009059
:100CB00001DB112301E009F101030AAA01A90CA833
:100CC000FFF7E2FEDDE90C70002609F1010583461D
:100CD00047E001204B4600904FF000470AAA01A9C7
:100CE0000CA8FFF7D1FEDDE90DB00C995D4600269A
:100CF00010B909F101000D18B9EB050003D4C0F1DA
:100D0000FF3609F10105A5EB09002BE0B9F1010F50
:100D100001DA4FF001090020B9F1110F00904846A7
:100D200001DD112300E003460AAA01A90CA8FFF780
:100D3000ABFEDDE90C704D460026834620780007A7
:100D40000AD4AB4500DA5D4601A8012D04DD411946
:100D500011F8011C302907D04F4502DA17F1040FB2
:100D600004DA012082460FE06D1EEEE7002F02DC60
:100D7000ED1B3E4403E0781CA84200DD7D1CB81B3F
:100D800000F1010A4FF000472078000703D4AA457C
:100D900001DB4FF0FF3A0021B7F1004F0DF143089E
:100DA0008DF8431024D002202B23002F01DA7F423C
:100DB0002D230A21021EA0F1010000DC5FB197FB88
:100DC000F1FC97FBF1F201FB1C7C17460CF1300C97
:100DD00008F801CDEEE7A8F10100037021880905AC
:100DE00001D5452100E06521A0F1010800F8011CB2
:100DF00009980FA9A1EB0807FF1D00B101204119B7
:100E000001EBEA70A1693844081A401EA0612078FD
:100E1000C00602D42046FFF7E6FA099828B1D4E9C3
:100E200001219047206A401C20622078C00622D50C
:100E30002046FFF7D8FA1EE0002E04DBB34502DDA2
:100E400001A8805D00E03020D4E901219047206AAC
:100E5000401C2062761CAAF101005FEA000A0AD158
:100E600000F0F6F9C0680168405CD4E901219047C0
:100E7000206A401C2062281EA5F10105DCDC07E089
:100E8000D4E9012118F8010B9047206A401C206228
:100E9000381EA7F10107F3DC2046FFF7BAFA03205A
:100EA00011B041E62DE9F04F04460D46D21D22F067
:100EB000070089B0D0E900974846394602F080FD26
:100EC0000246F80F01D02D2307E02068810701D5E5
:100ED0002B2302E0202101EAC0038DF820300BB162
:100EE000012000E00020032A824601D0072A04DB0B
:100EF0002946204600F0B0F93FE12078800601D471
:100F00000D2500E0E569C7F30A560D2D49DA0021E9
:100F10004FEA175B08464FF00000002F00F4400036
:100F200007DA00EB80004FF4400100EBD07001EADB
:100F300060008115012901DD4FF0FF3100224FEAE9
:100F4000850CBCF1180F06D31346ACF118004FF016
:100F50008052C24003E04FF4801323FA0CF30CF1EB
:100F60000C0CBCF1200F04D3ACF1200C09FA0CF0EE
:100F700001E007FA0CF000294FF0004801DD18B934
:100F80000FE00ED140450CD319EB02095F4121B9A6
:100F9000404502D19F4329EA0209BBEB175F00D00D
:100FA000761C2088000502D57B48784402E07A4808
:100FB0007844193808AA302302F80A30037C0AF171
:100FC0000101002E0AF1020A53546A4602DC4FF076
:100FD000300101E04FF031014FF001088DF80010B1
:100FE00002D0A6F2FF3603E059EA470100D06B4E6B
:100FF000002D02DC2178090704D54FF002082E21CC
:101000008DF80110C44600210BE0C7F303433F01F4
:10101000C35C491C6D1E02F80830052908F101085F
:1010200001DA002DF1DC00210CE000EB1973491C02
:101030001B786D1E082902F808304FEA091908F1DB
:10104000010801DA002DF0DC21688B0602D516E0DC
:10105000A8F10108E04505DD02EB080313F8013CA7
:10106000302BF5D0B8F1000F09DD02EB080313F8BF
:10107000013C2E2B03D1090701D4A8F10108002D52
:1010800005DD3E2102F808106D1E08F10108407CC4
:10109000002E02F8080008F1010804DA2D2076423B
:1010A00002F8080002E02B2002F808000A214FF4A1
:1010B0007A70864208F101080BDB96FBF0F33033BF
:1010C00002F8083096FBF0F308F1010800FB136604
:1010D00001E0642E0CDB642096FBF0F3303302F861
:1010E000083096FBF0F308F1010800FB136601E0FD
:1010F0000A2E06DB96FBF1F0303002F8080008F10A
:10110000010896FBF1F001FB1060303002F8080096
:10111000A16908F1010808EB050202EB0A00081AB0
:10112000A0612078C00602D42046FFF75CF9216A4E
:1011300008AE01EB0A00206204E0D4E9012116F8B0
:10114000010B9047BAF1010AF7D22078C00602D508
:101150002046FFF748F96E4609E016F8010B3E28D5
:101160000FD0D4E901219047206A401C2062B8F1D9
:101170000108F2D22046FFF74CF909B00320BDE880
:10118000F08F206A2844206203E0D4E90121302056
:1011900090476D1EEBD3F8E7222B000002FCFFFF07
:1011A00010B5436913B1AFF3008001E0FFF754F9C4
:1011B000012010BD127800F124010A7000224A704B
:1011C0000122EDE711684FF0FF32E9E710B54369FE
:1011D00013B1AFF3008001E0FFF7D6F9012010BD95
:1011E000128800F1240182840022C2840122EDE7EA
:1011F00011684FF0FF32E9E72DE9F04116460C4641
:10120000054600F01DF8036893F80101012807D096
:10121000FF2C12D8185D80B101202C70BDE8F08140
:10122000D3F807013246214603F20713C7182846B0
:10123000BC46BDE8F041002360474FF0FF30EDE7CA
:1012400010B500F005F8001D10BD00BFE12700003B
:1012500000487047C00001082DE9F0411F460446D0
:1012600003260168072A01F4006004DB08B116A513
:1012700005E016A503E008B115A500E015A521F0CD
:1012800010002060A069C01EA0610FB1401EA061C7
:101290002046FFF7A8F84FB1D4E90121384690471E
:1012A000206A401C2062C01C206206E0206AFAE727
:1012B000D4E9012115F8010B9047761EF8D220469B
:1012C000FFF7A7F8BDE8F0814E414E006E616E0059
:1012D000494E4600696E66002DE9F0478146164684
:1012E0008AB0354878440DC88DE80D0032487844FE
:1012F000801C03AC0DC884E80D0041F69B30084407
:10130000372190FBF1F290FBF1F5A5F1800501FB8F
:1013100012041B3C02D56442012000E00020DFF8EB
:1013200098A080460027FA44AAF1BE0A0EE0E00722
:101330000AD03246684607EB470101230AEB8101D8
:1013400002F007FA8DE8070064107F1C002CEED134
:10135000194F7F44AE3F19E0E80715D007EB0410A2
:101360000DF1180A90E80E008AE80E00C068F042FD
:1013700001D1981908903246012306A903A802F06A
:10138000E8F903AB83E807006D10641C002DE3D17E
:101390004FF0010332466946B8F1000F03A802D0AE
:1013A00002F0C2F901E002F0D4F9C9E90001C9F87C
:1013B00008200AB0BDE8F0877828000010B5044680
:1013C000AFF300802046BDE81040FEF7FBBE0000F2
:1013D00030B44FF0013C50F8042B51F8043BCCFAE8
:1013E00052F4D51A20D1FCB950F8042B51F8043B23
:1013F000CCFA52F4D51A17D1B4B950F8042B51F8DD
:10140000043BCCFA52F4D51A0ED16CB950F8042B27
:1014100051F8043BCCFA52F4D51A05D1002CDAD09D
:1014200030BC4FF00000704729BAB1FA81F111F0D9
:101430001801D1F120008440F2D1CA40CB4012F013
:10144000FF0213F0FF0330BCD01A7047FEE70829F3
:1014500000D301BE0F2A04D822F0080CBCF1010F02
:1014600000D101BEF0B5DDF814C0022B00D301BEDF
:10147000BCF1200F00D301BE082900D301BEBCF18E
:10148000200F00D301BE40F2081EC0F6010EDEF8A8
:1014900000E06FF00F06DEE905540429A0EB040418
:1014A00006EAD4042C446FF01F0505EBC10534BFD8
:1014B000CD00043426681F27AF40BE430CF01F0741
:1014C000AF4037432760076801268E4003F00103D1
:1014D000B7438B403B4303609EF8853089001F581B
:1014E0000F268E4002F00F02B74302FA01F1394392
:1014F0001950F0BD01230028C0F25A0300F01081FA
:10150000002A00F00D81082900D301BE2DE9F04327
:101510001368022B00D301BE53680F2B03D843F08E
:101520000803092B00D101BE137A202B00D301BE82
:10153000D368042B00D301BE1369022B00D301BE74
:101540005369022B00D301BE136A022B00D301BEE4
:10155000536A022B00D301BE936A022B00D301BE53
:10156000D36A042B00D301BE136B082B00D301BE3A
:10157000D369042B00D301BE9369022B01D301BEB2
:101580009369012540F2081C05FA01FE1025C0F6FA
:10159000010C05EB4104DCF80050032695F8875058
:1015A000A6402F5846EA0E0627EA060603F0010376
:1015B000D7698B40334307F0030606FA04F423434C
:1015C0002B50137A082900D301BE202B00D301BE73
:1015D000DCF800406FF00F06D4E905450429A0EBC4
:1015E000050506EAD5052C446FF01F0505EBC1057E
:1015F00034BFCD00043426681F27AF4003F01F031B
:10160000BE43AB40334323605468082900D301BE76
:101610000F2C03D824F00803012B00D101BEDCF805
:1016200000304FEA810893F885500F272E5807FAAB
:1016300008F704F00F04BE4304FA08F434432C50B6
:10164000D468092900D301BE042C4FEA410500D318
:1016500001BEDCF80060032396F88460AB40375885
:1016600004F0030427EA0303AC4023433350146916
:10167000092900D301BE022C00D301BE836904F006
:10168000010423EA0E038C40234383615469082933
:1016900000D301BE022C6FEA0E0500D301BEDCF8B8
:1016A0000030082993F8867093F888903E5806EA2F
:1016B000050604F0010505FA01F546EA05063E5067
:1016C00059F80070D2E9086527F0FF0CD2E90A4703
:1016D000136B06F0010665F3410604F0010446EAC7
:1016E000840407F003054FEA431344EAC504DBB260
:1016F000234408F47E7403FA04F343EA0C0349F824
:101700000030126800D301BE022A02D212B904309E
:1017100001E001BE08300023C0F800E0BDE8F0435E
:101720001846704740F20811C0F601010860704782
:101730000F21C0F2003101604FF0407101640021BF
:1017400040F207128164C0F80023C0F80413C0F807
:1017500010134164C0F80022C0F804120165C0F8FB
:10176000C81EC0F8881EC0F8C81FC0F8881FC0F87F
:10177000081FC0F8481F7047B0B546F201030028A3
:10178000C0F2AA0300F05C81002900F059810B78B7
:10179000032B00D301BE4B7B023B072B00D301BEC2
:1017A0008B7B032B01D8012B00D101BE91F8213096
:1017B000022B00D301BE91F82830022B00D301BECA
:1017C0000B78012B04D84B68083B092B07D207E0A4
:1017D0008B7F2BB14B68083B13F1080F00D801BE7B
:1017E0008B68053B052B00D301BE4B69B3F5807FA9
:1017F00000D301BE8B69B3F5807F00D301BE8B7C23
:101800003BB10B7823B98B68092B01D18B7B03B1DA
:1018100001BED1F838C04FF29243CFF6FF731CEAF5
:10182000030F00D001BED1F840C04FF68C03CFF6B5
:10183000FF731CEA030F00D001BE0B78022B03D10B
:101840008B7F002B00F0FE804B68A3F1010C4FF45E
:10185000001363F31F1C0B7FD1F808E0002B18BFA7
:101860004CF4803CBEF1080F88BF4CF4804CC0F8AB
:1018700000C0D1F834E003684FF0800CC3F381332B
:101880002CFA03F39E4500D301BED1F83CE0036877
:10189000C3F381332CFA03F39E4500D301BED1F884
:1018A00024C00368C3F3813E802323FA0EF39C45D2
:1018B00000D301BE91F800E04FF48064AEF1020362
:1018C000B3FA83F34FEA531C4FF0407303EA0E63FD
:1018D00003644B7F91F812E044EA8314BEF1000FD9
:1018E00091F810E008BF9C014B7CBEF1000F18BFBF
:1018F00044F48074002B18BF44F40074D1F82CE039
:101900004FF4702303EB0E434D7B03F4702323430A
:101910006C1E8D7B04F00704234305F0030443EAA7
:101920000413836491F83030846C002B18BF44F0AA
:1019300080748464CC7B0B7B4FF40075002C08BF53
:101940004FEA4C25002B8B6818BF05F58075013BCD
:1019500003F01F032B44C0F800330B7D8D69BEF1EB
:10196000100F65F31743C0F81033D0F8003304D8D4
:1019700003F01F0303339E4500D201BECB7F33B17A
:101980000B78013BB3FA83F35B091B0200E00023F1
:101990004D7B8C7B013D05F007052B4304F00305CF
:1019A00043EA051343648B680D7B013B03F01F037F
:1019B000002D0D7818BF03F58073012D08BF03F5C6
:1019C0008033C0F8003291F83430C0F8043391F815
:1019D000215091F82030012D91F828504FEA4363AF
:1019E00008BF03F18073012D91F8245008BF03F55F
:1019F00080332B44036591F83C3040F66D35C0F8D8
:101A000004328B6B03EA0503C0F8C83F0B6C40F24D
:101A1000737503EA0503C0F8883F4FF000037AB1FD
:101A200053601360C2E902331362D361D362887FCB
:101A3000536382F830004CF6EF50C0F2AB00906375
:101A40001846B0BD4FF0007C05E70268D0F80832B8
:101A5000C2F381324FF0800C2CFA02F26FF35F2355
:101A600093420EBF0020C0F840120120704710B50D
:101A70000368D0F80842C3F381334FF0800C2CFA8E
:101A800003F36FF35F241C1B944228BF14462246C5
:101A900000F002F8204610BDD0F8003203F01F031A
:101AA000072B08D8C2B100BF11F8013B013AC0F8BA
:101AB0004032F9D110E0102B07D26AB131F8023B65
:101AC000013AC0F84032F9D106E02AB151F8043B9E
:101AD000013AC0F84032F9D17047042800D301BE62
:101AE0000021C4F227010A6860F309220A607047E6
:101AF00070B541F24020C4F2260001680068C1F3CD
:101B00000114012500F00F0005FA04F600F095F825
:101B100040F20811C0F60101096800EB56000A689E
:101B2000D1F89010E040895855FA91F100EB51003E
:101B3000B0FBF1F070BD40F20811C0F60101096878
:101B40000A68D1F890108B5823F47F4343EA0020B1
:101B500088507047B0B501240546C0F24A0400F031
:101B600017F8022D12D846F60001C0F689118842F6
:101B70000BD841F24020C4F2260050F82510002472
:101B800041F0004140F8251000E002342046B0BD8D
:101B9000B0B541F240230228C4F2260304D853F81A
:101BA000202003EB800105E001BE53F8202003EB69
:101BB000800101BE0968C2F30114012000FA04F596
:101BC00001F00F0000F039F800EB5500E040B0BD27
:101BD00001220228C0F24A0298BF03290AD841F222
:101BE0004022C4F2260252F8203061F3051342F875
:101BF000203000221046704701220228C0F24A021B
:101C000098BF0F290BD841F24022C4F2260252F8A5
:101C1000203023F00F03194342F820100022104611
:101C20007047082800D301BE41F20051C4F22601DA
:101C30000A6860F302020A60704710B5044604287F
:101C400000D301BE204600F01EF8012C0CD0A4B930
:101C500041F23051C4F226010968B1F1FF3F0CDCBA
:101C6000BDE8104000F0BCBB41F23051C4F2260187
:101C7000D1F8D010B1F1FF3F00DD10BD0020BDE86C
:101C8000104000F0EEBD042801D301BE01BE40F2B9
:101C90000012C4F2260202EB80014FF48853C958A7
:101CA00001F00701042904D152F82010082060F344
:101CB0005F11B1F5887F4FF0000012DA21B30129DE
:101CC00027D0022933D141F20850C4F2260040F255
:101CD0001411C069C0F601010968800701EAE070CB
:101CE000704707D040F21112914218D0B1F58A7FA7
:101CF00018BF704741F20850C4F2260000684FF444
:101D0000004101EA1040704741F20020C0F27A0021
:101D1000704740F20410C0F60100006870471020C0
:101D2000C4F2270000684FF4004101EA40307047D8
:101D300003290AD3A1F58872042A05D8012303FADE
:101D400002F212F0130F00D101BE032882BF01205E
:101D5000C0F24A00704740F20012C4F22602B1F508
:101D6000807F31BF01F0070101F01F0142F8201010
:101D7000042102EB80004FF488528150002070470C
:101D800040F20811C0F6010109680A68D1F88C1008
:101D90008B5823F07F4343EA00608850704700006F
:101DA0000139FF200729C0F2420022D8DFE801F004
:101DB000041421122121211B40F20011C0F601015F
:101DC0000978002918BF704740F22C20C0F60100A6
:101DD000012101700020704740F22C21C0F6010162
:101DE00000200870704740F22C21C0F6010100224B
:101DF0000A7070472DE9F04141F21C5EC4F2260ED4
:101E0000DEF8006040F2010C002EC0F24A0C4ED405
:101E100048F28044C0F21E04634303EB520300EE19
:101E2000100AB3FBF2F8B8EE400A00234FF4004565
:101E3000102600BF43EA050707FB07F4444598BF97
:101E40003B46013E4FEA5505F4D144F6D35500F523
:101E5000FA74C1F26205A4FB054546F6B354C0F21C
:101E600002046343AC094C4303EB5403B3FBF4F3A8
:101E70009FEDCB2A01EE103AB8EE411A81EE021A1C
:101E8000B6EE002AB4EE421AF1EE10FAC0F28381E7
:101E9000B4EE421AF1EE10FA0CDB9FEDC43AB4EE48
:101EA000431AF1EE10FA05DA4FF4507378E00CF1B2
:101EB000020C70E19FEDBE3AB4EE431AF1EE10FA57
:101EC00002DA4FF454736BE09FEDBA3AB4EE431A62
:101ED000F1EE10FA02DA4FF4587361E09FEDB63A72
:101EE000B4EE431AF1EE10FA02DA4FF45C7357E0E5
:101EF000B6EE083AB4EE431AF1EE10FA02DA4FF4F5
:101F000060734DE09FEDAD3AB4EE431AF1EE10FA76
:101F100002DA4FF4647343E09FEDA93AB4EE431A3A
:101F2000F1EE10FA02DA4FF4687339E09FEDA53A4A
:101F3000B4EE431AF1EE10FA02DA4FF46C732FE0AC
:101F40009FEDA13AB4EE431AF1EE10FA02DA4FF423
:101F5000707325E0B7EE003AB4EE431AF1EE10FAD2
:101F600002DA4FF474731BE09FED983AB4EE431A13
:101F7000F1EE10FA02DA4FF4787311E09FED943A23
:101F8000B4EE431AF1EE10FA02DA4FF47C7307E074
:101F9000B4EE431AF1EE10FAC0F2FD804FF4407334
:101FA0009FED8B3AB4EE421A0025F1EE10FAA8BF6D
:101FB0000125B4EE431A00260024F1EE10FAB8BF52
:101FC000012605EA0605B8BF4FF0FF34012D05D004
:101FD000B4EE431AF1EE10FAC0F2DD80B4EE421A0C
:101FE000F1EE10FA08DB9FED722AB4EE421AF1EE20
:101FF00010FA01DA022619E09FED6F2AB4EE421AB8
:10200000F1EE10FA01DA032610E09FED6C2AB4EE2F
:10201000421AF1EE10FA01DA042607E09FED692A70
:10202000B4EE421AF1EE10FA4BDA05269FED5B1A78
:1020300002EB820280EE010A01EE102A9FED592A7E
:10204000B8EE411A21EE021A02EE101AB8EE422A38
:102050009FED553A20EE011A20EE011A21EE021AE8
:1020600021EE021A81EE031AB5EE401AF1EE10FAD3
:1020700009DB9FED582AB4EE421AF1EE10FA02DAAB
:102080004FF480514FE09FED542AB4EE421AF1EE26
:1020900010FA02DA4FF4005145E09FED502AB4EEF9
:1020A000421AF1EE10FA02DA4FF440513BE09FED94
:1020B0004C2AB4EE421AF1EE10FA17DA4FF48041CE
:1020C00031E0B7EE002AB4EE421A0726F1EE10FA1C
:1020D000B8BF0626AADBB4EE431AF1EE10FAA5DB70
:1020E000B4EE431AF1EE10FA55DB9FE7B2EE062A82
:1020F000B4EE421AF1EE10FA02DA4FF4A04112E007
:102100009FED382AB4EE421AF1EE10FA02DA4FF4DB
:10211000C04108E09FED342AB4EE421AF1EE10FA05
:1021200039DA4FF4E0419FED311AB4EE410AF1EE95
:1021300010FA01DD00221AE09FED2D1AB4EE410ADB
:10214000F1EE10FA02DD4FF4806210E09FED291AE3
:10215000B4EE410AF1EE10FA02DD4FF4006206E03F
:10216000B5EE400AF1EE10FA15DD4FF4406233434C
:1021700019431143CEF82810022101EA4401002D31
:1021800018BF0221CEF8001040F21411C0F6010170
:102190004FF0000C08606046BDE8F08100247449EF
:1021A00000007A44E6E91D43286B6E4ECDCC0C3F0F
:1021B0009A99193F6666263F3333333FCDCC4C3F67
:1021C0009A99593F6666663F3333733F6666863F2A
:1021D000CDCC8C3FCDCC0C40CDCC8C403333D340D8
:1021E000CDCC0C413333534166667641CDCCE441CE
:1021F000D7A3BA41000084412DE9F04141F21C55BA
:10220000C4F22605296840F202080029C0F24A08F3
:102210002BD404462868002C40F000402860A868B1
:10222000214660F0030018BF012110F1030F11D8FF
:1022300084B1671E002600BF012000F0A5FBA8683E
:10224000013F60F0030046F1000110F1030F01D8D7
:102250000029F1D14FF000002CB121B9286820F0FD
:10226000004028604046BDE8F08108F10100BDE86B
:10227000F0810000B0B541F23054C4F22604A068E9
:10228000022161F31D70A060A06800F04050B0F121
:10229000005F10D06FF062000546012000F074FB73
:1022A000A06800F04050B0F1005F03D0002D05F1B0
:1022B0000100F1D165B1012000F066FB206820F03B
:1022C00000402060E06820F00040E0600020B0BDE9
:1022D0000220C0F24A00B0BD10B582B00190019852
:1022E000B0FA80F040098DF8030041F23C50C4F28E
:1022F0002600016841F000410160FFE741F24050D3
:10230000C4F22600016800204907002905D4FFE730
:102310000198002818BF0120FFE7C00740B1FFE780
:10232000012000F031FBFFE7019801380190E5E75B
:1023300041F23850C4F226000168022262F31D7196
:1023400001609DF80300C00718B9FFE7019848B184
:10235000FFE741F23050C4F22600016841F000412D
:102360000160FFE7FFE7002400F068F828B9FFE705
:10237000019C002C18BF0124FFE7E00740B1FFE7F4
:10238000012000F001FBFFE7019801380190EAE726
:102390009DF80300C00718B9FFE7019848B1FFE7AF
:1023A00041F23850C4F22600016841F0405101600A
:1023B00002E0FFF75FFFFFE79DF803100120C90768
:1023C00029B9FFE70198002818BF0120FFE7C107DE
:1023D0000220C0F24A00002918BF002002B010BD40
:1023E00070B541F23050C4F2260005684468816837
:1023F000C2680068B0F1FF3F4FF000001DDC01F043
:102400004051B1F1005F18D06FF35F34ACB12E468C
:1024100000206FF39F46FFF736FCE9014FF0020101
:1024200058BF0121A1FB04235FEA53014FEA320C9C
:10243000E0FB06C16046FDF717FF70BD41F240505A
:10244000C4F22600006800F00100704700B901BE28
:1024500010B541F2305CC4F2260CDCF80020002AF2
:102460005DD40268B2F5802F01D301BE0268C37942
:102470006FF39F42002B18BF02F18072CCF800204E
:102480008288B2F5005F00D301BE0289B2F5807F79
:1024900001D301BE028983886FF35F3362F3174370
:1024A000CCF80430827A102A00D301BEC27A102AF6
:1024B00000D301BE8289B2F5005F01D301BE8289DB
:1024C000817AC37A01F00F0163F307114FF60073AD
:1024D000847BC0F21F0390F806E003EA0222114455
:1024E00004F0030241EA0271BEF1050FCCF80810B6
:1024F00000D301BE018AB1F5007F00D301BEDCF834
:102500000C10827962F30A21CCF80C10DCF80C1064
:10251000008A60F318410020CCF80C1010BD032095
:10252000C0F24A0010BD41F208510228C4F226014F
:1025300005D228B9086840F000400860704701BE25
:10254000486840F000404860704700B1704741F271
:102550000850C4F22600026822F001021144016012
:10256000704780B5844601200329C0F24A0025D86F
:1025700009B9202A07D3012901D1102A03D303293D
:102580001CD1072A1AD840F20813C0F60103D3F869
:1025900000E09EF84630634598BF80BD9EF8790004
:1025A0009EF8783001FA00F003EA0201DEF8082014
:1025B000084302EB8C01C1F8000C002080BD012013
:1025C0000329C0F24A001ED809B9202A08D30129DC
:1025D00001D1102A04D3032915D1072A88BF7047D7
:1025E00040F20810C0F60100006890F879C090F839
:1025F000783001FA0CF11A401143806841F08041B3
:10260000C0F800140020704701200329C0F24A00DE
:102610002FD809B9202A08D3012901D1102A04D3BF
:10262000032926D1072A88BF704710B540F2081049
:10263000C0F601000068032390F87BC090F87AE0B0
:1026400003FA0CFC90F8783090F879401A4003FABD
:102650000EFE42EA0C02A14042EA0E0211438068DB
:1026600041F00041C0F80014D0F800040020BDE89B
:102670001040704710B501200129C0F24A0005D072
:1026800019B91F2A98BFFF2B16D910BD0F2AFCD8E5
:102690000021B1EB134F18BF10BD40F20810C0F677
:1026A000010001684FF6007CFF2401F17E0EC0F2AC
:1026B000FF0CCFF600740AE040F20810C0F60100EB
:1026C00001684FF47F4C01F17C0E6FF47F44896800
:1026D000BEF800000CEA0323084450F82210214001
:1026E000194340F82210002010BDB0B50120032985
:1026F000C0F24A0026D1072A24D80021B1EB136F7B
:1027000020D1DDF810C0BCF11F0F88BFB0BD40F272
:102710000810C0F601000068D0F808E0B0F8825058
:102720000EEB050151F82240E4B244EA032341F8DC
:1027300022308068284450F822106CF3C70140F81A
:1027400022100020B0BDFFF70CBF0A460146002052
:10275000FFF735BF0A4601460020FFF755BF134675
:102760000A4601460020FFF785BF80B582B09C462F
:1027700013460A4601460020CDF800C0FFF7B5FF1A
:1027800002B080BDB0B5044600B101BE41F20065A3
:10279000C4F2260555F82400022161F31D7045F8A6
:1027A0002400012000F0F0F855F8240020F000414A
:1027B000002045F82410B0BD2DE9F04381B0044657
:1027C000894600B101BE41F20068C4F2260858F8FB
:1027D000240008F1400740F0004048F8240057F872
:1027E0002410B9F1000F484618BF0120C90711D1C4
:1027F000B9F1000F0ED0A9F101060025012000F06B
:10280000C3F857F82410013E45F10000C90701D173
:102810000028F3D158F82410B9F1000F10D078B97E
:10282000022060F31D71012048F8241000F0ACF87C
:1028300058F8240020F000410220C0F24A0009E0CC
:1028400001F04050B0F1005F07D158F8240040F08B
:102850004051002048F8241000E0002001B0BDE8FD
:10286000F08370B541F20062C4F2260238B101BEB5
:1028700001BE52F8204002EB800101BE03E052F895
:10288000204002EB80010968B1F1FF3F4FF00001E9
:102890001BDC04F04052B2F1005F16D0C4F30425F3
:1028A0009DB1C4F3044686B10130FFF7ECF9A5FBF6
:1028B00006235FEA530104F07F064FEA320CE0FB87
:1028C00006C16046FDF7D0FC0146084670BD08B160
:1028D00001BE01BEF0B541F2006CC4F2260C5CF8FA
:1028E0002020002A40F20102C0F24A0233D48B7841
:1028F000A3F1110616F10F0F2ED391F801E0AEF1FE
:10290000130414F1120F27D3CC780D781327002C61
:102910004FF0380608BF162708BF7026AF421BD8F5
:10292000AE4219D3097902290DD04FEA0E2242EAAC
:10293000034241F67F732A44C0F21F031A4042EA61
:10294000C4624CF820205CF8202061F31D724CF822
:102950002020002200E002321046F0BD013800D0F5
:1029600001BE80B5FFF70EFF002080BD013808BF13
:10297000FFF722BF01BEFFF71FBF013808BFFFF7F7
:10298000A6BF01BEFFF7A3BF40F67801C0F6010164
:1029900009784843FDF758BC80B540F6A40190E89B
:1029A0000C50C0F6010181E80C50D0E90423C1E9C4
:1029B0000423D0E90623C1E906234EF62452CEF2C1
:1029C000000253680B6293684B6213688B62136951
:1029D000CB6252690A63F1EE102A12F0900F21D0F7
:1029E000026A4A63426A8A63826ACA63C26A0A6482
:1029F000026B4A64426B8A64826BCA64C26B0A656A
:102A0000026C4A65426C8A65826CCA65C26C0A6651
:102A1000026D4A66426D8A66826DCA66C26D0A6739
:102A2000006E4867BDE88040AFF30080FEE7704766
:102A3000B0B540F208124FF0640CC0F60102002855
:102A400018BF4FF0190C15688C45D5F800E0B5F8A3
:102A5000B0404FF000035EF804C038BF01232CF0F3
:102A600003021A444EF80420D5F800C05CF8042094
:102A700022F440724CF80420D5F800C0B5F8B240FA
:102A80005CF8042022F003021A444CF804202A685F
:102A9000135923F44073135138B10220222938BF4F
:102AA0000120112938BF00201DE095F85900884207
:102AB00012D295F85A00884210D295F85B008842ED
:102AC0000ED295F85C0088420CD295F85D20042067
:102AD0008A4238BF052006E0002004E0012002E021
:102AE000022000E003200021C4F224010A6822F041
:102AF0000F0210440860B0BDB0B578B3C16869B3C7
:102B0000016859B390F804E040F2182CC0F6010CAB
:102B10005CF82E1021B34A690B1A18BF01237AB151
:102B200081420DD0047E00BF137EA34298BF1146A0
:102B30005569131A18BF012315B182422A46F3D1F1
:102B400063B10A6992B9027E0B7E9A420ED20022CC
:102B5000C0E9042108614CF82E000DE00020B0BD52
:102B600000214CF82E00C0E9041105E04A6901611A
:102B7000426102B1106148610120B0BD80B541F2EF
:102B80000400C4F22600016821F080510160062093
:102B9000FFF7FAFE002080BD70474EF68851EFF334
:102BA000108072B6CEF200010A6842F470020A6028
:102BB000BFF34F8FBFF36F8F80F31088704780B5DE
:102BC00040F20810C0F6010000680068D0F800115B
:102BD000B1F1FF3F0ADCD0F8000140F26C216FF345
:102BE0009F20C0F6010151F8200080474EF280205E
:102BF000CEF200000121016080BD80B540F20810D6
:102C0000C0F6010000680068D0F80411B1F1FF3F80
:102C10000ADCD0F8040140F26C216FF39F20C0F66B
:102C2000010151F8200080474EF28020CEF20000D2
:102C30000221016080BD80B540F20810C0F601009D
:102C400000680068D0F80811B1F1FF3F0ADCD0F845
:102C5000080140F26C216FF39F20C0F6010151F88A
:102C6000200080474EF28020CEF200000421016057
:102C700080BD80B540F20810C0F601000068006811
:102C8000D0F80C11B1F1FF3F0ADCD0F80C0140F292
:102C90006C216FF39F20C0F6010151F8200080479E
:102CA0004EF28020CEF200000821016080BD80B588
:102CB00040F20810C0F6010000680068D0F810115A
:102CC000B1F1FF3F0ADCD0F8100140F26C216FF344
:102CD0009F20C0F6010151F8200080474EF280206D
:102CE000CEF200001021016080BD80B540F20810D6
:102CF000C0F6010000680068D0F81411B1F1FF3F80
:102D00000ADCD0F8140140F26C216FF39F20C0F66A
:102D1000010151F8200080474EF28020CEF20000E1
:102D20002021016080BD80B540F20810C0F601008E
:102D300000680068D0F81811B1F1FF3F0ADCD0F844
:102D4000180140F26C216FF39F20C0F6010151F889
:102D5000200080474EF28020CEF20000402101602A
:102D600080BD80B540F20810C0F601000068006820
:102D7000D0F81C11B1F1FF3F0ADCD0F81C0140F281
:102D80006C216FF39F20C0F6010151F820008047AD
:102D90004EF28020CEF200008021016080BD10B58F
:102DA0000020FEF7F5FE40F66C01C0F60101086058
:102DB000FEF79EFE40F67004C0F60104206000207D
:102DC000FEF7E6FE216844F23F22C0F20F024DF604
:102DD00083630A44C4F21B33A2FB032344F6D35299
:102DE00001F2E731C1F26202A1FB021240F6740166
:102DF000C0F60101086040F67801980CC0F60101A8
:102E0000087040F67C019009C0F6010108600020BE
:102E1000FEF7BEFE40F68001C0F60101086010BD5D
:102E200080B543F67830C1F20400FEF77BFCFFF773
:102E3000B3FEFFF7B4FF4FF6042140F26C2041F2DD
:102E40004D42CFF6FF71C0F60100C1F2040200BF8F
:102E500043180431C3F8FC25FAD140F66801C0F6E6
:102E60000101086080BD0000FEE780B500F011F8A8
:102E700000F01AF840F28400C0F60100FFF73CFEB3
:102E80000021C0F20261002818BF0021084680BD61
:102E9000FEE780B500F06DF800F00FF800F02BF8B9
:102EA000BDE8804000F02CB880B500F0BDF900F01E
:102EB000BCF9BDE8804000F0B9B980B5032000211D
:102EC000FFF743FC0320002155221A23FFF74DFC96
:102ED00003200021FFF73EFC00200321FFF735FC13
:102EE000002003210022FFF73AFC00200321BDE867
:102EF0008040FFF72FBC1E2003210022FFF731BBCB
:102F000010B5002443F63C42C4F23104C1F204027D
:102F100020460021FEF7EEFA43F67042C1F20402A9
:102F200020460121FEF7E6FA43F6A44204F51060BC
:102F3000C1F204020521FEF7DDFA04F5386443F618
:102F4000D842C1F2040220460421FEF7D3FA43F628
:102F50000C52C1F2040220460521FEF7CBFA43F6DB
:102F60004052C1F2040220460621BDE81040FEF79F
:102F7000C1BA70B582B00125002000210322C0F241
:102F80004A050026FFF7DFFB0020B421FFF750FDC4
:102F9000FFF7F4FDFFF76EF90020FEF7CCFD0020EF
:102FA000FFF7C1FA00200121FFF7CFFA0120FFF758
:102FB000BAFA01200121FFF7C8FA40F68024C4F2D2
:102FC000310420460221002200230096FEF73FFA3A
:102FD00020460321002200230096FEF738FA42F231
:102FE0000040C0F2F400122132226423FEF702FFF7
:102FF000A84202D10120FFF74BFF40F6B830FFF79F
:10300000FBF8691C884202D10120FFF741FF002034
:10301000FEF707FE0020FEF78EFD0120FEF7B0FE52
:1030200001200021FEF784FE02200021FEF780FE31
:1030300003200021FEF77CFE0120FFF78FFC43F602
:10304000CC51C1F204010120FFF797FC10B103201D
:10305000FFF71EFF012042F21071FFF787FC10B14D
:103060000320FFF715FF01200021FEF7C5FD012019
:103070000021FEF7ADFD0120FEF76CFD02200021CE
:10308000FEF7BAFD02200021FEF7A2FD0220FEF7A6
:1030900061FD0120FEF721FD00206421FFF7C8FC3F
:1030A00000200021FEF744FE43F6B850C1F20400B0
:1030B000FFF7CCF910B10420FFF7EAFE40F64050CC
:1030C000C0F20300FFF708F910B10420FFF7E0FE9B
:1030D00000200121FEF790FD00200021FEF778FD81
:1030E00002B0BDE87040FFF75ABE000000000000CB
:1030F00082B0FFF7BAFE00B101BE40F20835C4F25B
:103100006005A5F542742046FEF712FB43F67451A4
:1031100040F23022C1F20401C0F601022046FEF75F
:103120002BFB4FF6F840CFF6FF70295841F00041D5
:10313000295062B612A000F045F842F6F2709FEDF9
:103140000E0BC7F2CE304CF6C77140F63A3C0090F9
:1031500053EC102B11A0CFF6FF71CDF804C000F096
:1031600031F800BF2868C005FCD0A86BC1B220466A
:10317000FEF76BFCF6E700BF6E861BF0F9210940F5
:1031800043595432423935205541525420456368E1
:103190006F204578616D706C650D0A00696E743A38
:1031A0002025642C20666C6F61743A20252E3266CF
:1031B0002C2075696E7436345F743A20256C6C75FA
:1031C0000D0A000083B010B581B0844603A80EC07C
:1031D00040F2181040F2082403AAC0F6010061462C
:1031E000C4F260040092FDF7B7F800BF20682168C0
:1031F0006FF35F200904B0EBE17FF7D140F21810C4
:10320000C0F60100FDF7BAF8024600B901BE40F26F
:103210001811A4F50270C0F60101FEF728FC01B0F8
:10322000BDE8104003B070477047704770475FEAD1
:10323000400C08BF91F0000F4FEA8C234FEAC122E7
:1032400043EA51514FEA1C5018BF00F5F0404FEAD5
:10325000300018BF41F000415FEA6C5C00F029804B
:10326000BCF1FF3F08BF40F080407047130C06BF21
:1032700012044FF0100C4FF0000C130E04BF12029A
:103280000CF1080C130F04BF12010CF1040C930F86
:1032900004BF92000CF1020CD30F04BF52000CF1DA
:1032A000010C11464FF00002A0F11F00A0EB0C0032
:1032B000704711F0004F08BF704731F000413FF4F4
:1032C000D5AF0B0C06BF09044FF0100C4FF0000CEB
:1032D0000B0E04BF09020CF1080C0B0F04BF09010F
:1032E0000CF1040C8B0F04BF89000CF1020CCB0F06
:1032F00004BF49000CF1010CCCF1200322FA03F3C6
:1033000041EA030102FA0CF2A0EB0C0000F101000B
:103310007047000023F07F4720F07F4C80EA0300D5
:1033200000F00040ACEB070303F57C5303F1FF030F
:103330002DE9804909B44FEA144324EA03484FEACF
:10334000154B25EA0B4E0FF2042606EB13273E78A9
:1033500003FB0667C7F5000707FB06F64FEAD646EC
:1033600006F102064FEA543707FB066CCCF1005C0D
:103370004FEA1C472CEA074C0CFB06F507FB06F44A
:1033800004EB15464FEA961649085FEA320234BF4D
:1033900000204FF000404FEAD13706FB07FC4FEA10
:1033A0001C4C0CFB0BF7D21B03FB0CF761EB07016A
:1033B0000CFB0EF7B0EB074072EB17420CFB08F763
:1033C00034BFA2EB0742B2EB074261EB17414FEA71
:1033D0000C444FEA910706FB07FC4FEA1C4C0CFB20
:1033E0000BF7B0EBC74072EB573203FB0CF734BF5F
:1033F000A2EBC742B2EBC74261EB57310CFB0EF7B1
:10340000B0EBC70072EB57720CFB08F734BFA2EBAE
:10341000C702B2EBC70261EB57714FEA816141EA23
:1034200092114FEA826242EA90124FEA806004EB06
:10343000CC04039F4FEAD13706FB07FC4FEA1C4C34
:103440000CFB0BF7D21B03FB0CF761EB07010CFB2A
:103450000EF7B0EB074072EB17420CFB08F734BFD6
:10346000A2EB0742B2EB074261EB17414FEA8C55E2
:1034700004EB9C244FEA910706FB07FC4FEA1C4C27
:103480000CFB0BF7B0EBC74072EB573203FB0CF7AA
:1034900034BFA2EBC742B2EBC74261EB57310CFB22
:1034A0000EF7B0EBC70072EB57720CFB08F734BF96
:1034B000A2EBC702B2EBC70261EB57714FEA816121
:1034C00041EA92114FEA826242EA90124FEA80602A
:1034D00015EB4C2544F100044FEAD13706FB07FCFD
:1034E0004FEA1C4C0CFB0BF7D21B03FB0CF761EBF8
:1034F00007010CFB0EF7B0EB074072EB17420CFB19
:1035000008F734BFA2EB0742B2EB074261EB174169
:103510004FEA813141EA92414FEA823242EA9042D7
:103520004FEA80304FEA0C7615EB1C1544F100048D
:1035300048EA03434EEA0B484FF0000EB2EB080C8A
:1035400071EB030724BF624639464EEB0E0E4FF077
:10355000000B0018524149414BEB0B0BB2EB080C2E
:1035600071EB03077BF1000B24BF624639464EEB3B
:103570000E0E4FF0000B0018524149414BEB0B0B64
:10358000B2EB080C71EB03077BF1000B24BF624622
:1035900039464EEB0E0E51EA020718BF46F00106FF
:1035A00016EB0E7655F1000254F1000103D5BDE88B
:1035B0008901BDE80088BDE88901BDE80048B61969
:1035C000524141EB0101A3F10103704780807F7EEE
:1035D0007D7C7B7A79787776767574737271717089
:1035E0006F6E6E6D6C6C6B6A6A696868676666653B
:1035F0006464636362616160605F5F5E5E5D5D5CC9
:103600005C5B5B5A5A595958585757565655555539
:103610005454535352525251515050504F4F4F4E99
:103620004E4D4D4D4C4C4C4B4B4B4A4A4A494949E7
:103630004848484747474746464645454544444429
:103640004443434343424242424141419C46002B52
:1036500030D477002BD04FEA37071CB503B44FF0B6
:1036600010004FF01001BAF1000F06D0BCF1000FAE
:10367000DCBF40F0080040F008014FF000000FBC34
:10368000BDE810400BF1010BBBF1010F08BF5FEA71
:10369000170722BF12F1010211F101014FF00041A1
:1036A00043F1000300F0004043EA00007047F9D303
:1036B0005708D0E746EA06464FEA164613F1400F90
:1036C0001FDD13F1200FDFBF16430A460021203310
:1036D0005B42BED0C3F1200746EA06464FEA1646D3
:1036E00002FA07F746EA070622FA03F2C3F12007B7
:1036F00001FA07F742EA070221FA03F14FF000034B
:10370000A7E746EA020646EA06464FEA164646EAB2
:103710000106BCBF46EA0646360C4FF000034FF0E8
:1037200000024FF0000194E72DE9804C70B49A46F6
:10373000934691E8380007C831EA400C48BF34EAA4
:10374000430C03D5FFF7E6FDFFF780FFF0BCBDE8B3
:10375000008C2DE9804C70B49A46934691E838006D
:1037600007C810F0804F08BF13F0804F03D100F05E
:1037700005F8FFF76BFFF0BCBDE8008C20F07F4739
:1037800023F07F4C80EA030000F0004007EB0C03BD
:10379000A3F57C53A3F1FE0392F0000F00F0B38079
:1037A00095F0000F00F077802DE901494FEA1140B4
:1037B00021EA00484FEA144624EA064700FB06FCCB
:1037C00008FB06F607FB08F818EB06484CEB164C0E
:1037D00000FB07F718EB07484CEB17404FEA124B7A
:1037E00022EA0B4E4FEA154625EA06470BFB06FC7C
:1037F0000EFB06F607FB0EFE1EEB064E4CEB164CC0
:103800000BFB07F71EEB074E4CEB174B18EB0B08A7
:1038100040F1000018EB0E0B58EB000840F10000DF
:103820008F1A4FF000014FF000063CBFC943661BE2
:1038300014BFB5EB040C00213CBFC943F61B4FEA93
:10384000174427EA04454FEA1C472CEA074C04FBBF
:10385000076205FB07F70CFB05F616EB074642EB84
:10386000174204FB0CFC16EB0C4642EB1C421BEB14
:10387000060658EB020241414EEA8E0E46EA9E06CB
:1038800001D5BDE80189B619524141EB0101A3F10F
:103890000103BDE801894FEA144524EA05464FEAD1
:1038A000114721EA074C05FB07F406FB07F70CFB61
:1038B00006F111EB074144EB174405FB0CFC11EB3F
:1038C0000C4144EB1C444FEA124722EA074C05FB2B
:1038D00007F206FB07F70CFB06F616EB074642EB72
:1038E000174205FB0CFC16EB0C4642EB1C456A1814
:1038F00054F1000148BF7047B619524141EB010134
:10390000A3F10103704795F0000F37D04FEA114241
:1039100021EA02464FEA144724EA074C02FB07F16A
:1039200006FB07F70CFB06F414EB074441EB1741C9
:1039300002FB0CFC14EB0C4441EB1C414FEA154715
:1039400025EA074C02FB07F506FB07F70CFB06F61A
:1039500016EB074645EB174502FB0CFC16EB0C4635
:1039600045EB1C42121951F1000148BF7047B619CE
:10397000524141EB0101A3F1010370474FEA1445A5
:1039800024EA05464FEA114721EA074C05FB07F1F7
:1039900006FB07F70CFB06F212EB074241EB17415F
:1039A00005FB0CFC12EB0C4251EB1C414FF00006E6
:1039B00048BF7047921841EB0101A3F10103704722
:1039C00003B401984100009850EAC12018BF0420B8
:1039D0004A0D18BF40F0010040F2FF72B2EB515F98
:1039E00008BF40F00200012808BF052002B0704760
:1039F00030380A2801D201207047002070470000AB
:103A000010B500290AD00878002807D00548784466
:103A1000FDF7DEFC002801D0002010BD02487844EC
:103A200010BD0000F6030000EE03000010B50029F1
:103A30000AD00878002807D005487844FDF7C8FC6C
:103A4000002801D0002010BD0248784410BD0000BD
:103A5000E6030000DE030000F1EE100A4FF6FF71EE
:103A6000C0F2C03120EA010040F04070E1EE100ADF
:103A70007047FDF7E1B8FDF715BA0000000000003F
:103A800000000000303132333435363738394142A6
:103A900043444546403058003031323334353637B0
:103AA000383961626364656640307800040000085C
:103AB0000000000000000002000100001030313260
:103AC000333435363738396162636465667870003F
:103AD0003031323334353637383941424344454644
:103AE0005850000002400000000000A0000000004C
:103AF00005400000000000C8000000000C4000006D
:103B00000000409C00000000194000000020BCBEE6
:103B10000000000034400000BFC91B8E00000004FC
:103B2000B5400000504BCFD06607E2CF0100000047
:103B30006C4100003E8251AADFEEA7340100000074
:103B4000D9420000DCB5A0E23A301F97FFFFFFFF2B
:103B5000B4450000FD25A0C8E9A3C14FFFFFFFFF4A
:103B6000FF3F00000000008000000000FF3F000059
:103B70000000008000000000000020400000244001
:103B80000000004000000000000023400000304022
:103B90000000314000009040000022400000104032
:103BA00000009040202020202020202020202008DD
:103BB000085C2C8000002E00FF03040103007C0041
:103BC000400000007FFE0000000400000000000034
:103BD0000019324B647D0702020000804000080B90
:103BE000100000000000FF012002001F0080000400
:103BF000FF081018001000140018001C4044484C26
:103C00005000000008100000080000000400000040
:103C10000410000000120000042100000021000038
:103C20000016000040114002C41300138013A013BB
:103C300040138813A81320001C000000010000009E
:103C4000080000001100000000000000000000005B
:103C50000000000000000000010000000000000063
:103C60000000000000000000000000000000000054
:103C7000010000000600000011000000000000002C
:103C80000000000000000000000000000100000033
:103C90000000000000000000000000000000000024
:103CA000000000000100000006000000000000000D
:103CB0000000000000000000000000000100000003
:103CC00001000000000000000000000000000000F3
:103CD00000000000000000000100000006000000DD
:103CE0001D000000000000000000000000000000B7
:103CF00000000000010000000000000000000000C3
:103D000000000000000000000000000001000000B2
:103D10000B0000001D00000000000000000000007B
:103D20000000000000000000010000000000000092
:103D30000000000000000000000000000000000083
:103D4000010000000A0000001D000000000000004B
:103D50000000000000000000000000000100000062
:103D60000000000000000000000000000000000053
:103D70000000000000000000080000000800000033
:103D80000002000000000000000000000000000031
:103D90000000000000000000000000000000000023
:103DA0000B00000000000000000000000000000008
:103DB0000000000000000000F401000014000401F5
:103DC0000A00090508000300630100002801020041
:103DD00000000000000000000000000000000000E3
:103DE00000000000343F04108000010820000000A3
:103DF000BC000410543F0410A0000108CC010000D6
:103E0000D80004101C00000043000000F8FFFFFF72
:103E10000C0000000E0000000F0000002E0000004B
:103E20001001000043000000F8FFFFFF0040404089
:103E3000404040404040414141414140404040407D
:103E40004040404040404040404040404005020229
:103E500002020202020202020202020202202020E8
:103E60002020202020202002020202020202909044
:103E70009090909010101010101010101010101042
:103E80001010101010101010020202020202888896
:103E900088888888080808080808080808080808A2
:103EA000080808080808080802020202400000008A
:103EB0000000000000000000000000000000000002
:103EC00000000000000000000000000000000000F2
:103ED00000000000000000000000000000000000E2
:103EE00000000000000000000000000000000000D2
:103EF00000000000000000000000000000000000C2
:103F000000000000000000000000000000000000B1
:103F100000000000000000000000000000000000A1
:103F20000000000000000000000000000000000091
:103F3000F1EEFFFF01000000A11D041001000000D0
:103F4000000000000C01010800000000000000005B
:043F5000FF0000006E
:040000051004008162
:00000001FF
