:020000041000EA
:10000000000001081B0100100D0000007D01001020
:1000100000000000000000000000000000000000E0
:100020000000000000000000000000007901001046
:1000300000000000000000007901001079010010AC
:10004000B5010010F10100102D020010690200102E
:10005000A5020010E10200101D030010590300105A
:100060007901001079010010790100107901001068
:100070007901001079010010790100107901001058
:100080000448054B10B5834203D0044B002B00D02D
:10009000984710BD88080008880800080000000084
:1000A00006480749091A8B10C90FC91810B549101D
:1000B00003D0044B002B00D0984710BD88080008DF
:1000C000880800080000000010B5074C2378002BBA
:1000D00009D1FFF7D5FF054B002B02D0044800E003
:1000E00000BF0123237010BDC00E000800000000F7
:1000F000CC0E0010054B10B5002B03D00449054869
:1001000000E000BFFFF7CCFF10BDC04600000000BC
:10011000C40E0008CC0E00107047FFF7FDFF72B64A
:100120000F4C104DAC4209DA21686268A368043BA9
:1001300002DBC858D050FAE70C34F3E70A490B4AFF
:100140000020521A02DD043A8850FCDC08480949B4
:100150000860BFF34F8F00F047F900F01DF8FEE78D
:10016000D80E0010F00E0010C00E0008140F00088A
:100170000008000808ED00E0FEE7FEE700B50420F7
:100180007146084202D0EFF3098002E0EFF30880E5
:10019000043000F08FFBFEE710B562B6034800F0B4
:1001A0008FF9002000F0FCFBFBE7C04600000410C4
:1001B000FEE700000B4B10B51B681A6888235B0133
:1001C000D158002907DAD358074A9B051B0D9B58C5
:1001D000002B00D09847C0230121044A5B00D15076
:1001E00010BDC046DC0E0008A408000800E100E0D5
:1001F0000A4B10B51B681A68094BD158002907DA59
:10020000D358084A9B051B0D9B58002B00D09847DC
:10021000C0230221044A5B00D15010BDDC0E00084F
:1002200004110000A408000800E100E00A4B10B52A
:100230001B681A68094BD158002907DAD358084AB5
:100240009B051B0D9B58002B00D09847C023042111
:10025000044A5B00D15010BDDC0E000808110000FC
:10026000A408000800E100E00A4B10B51B681A68FA
:10027000094BD158002907DAD358084A9B051B0DB2
:100280009B58002B00D09847C0230821044A5B00EC
:10029000D15010BDDC0E00080C110000A4080008AD
:1002A00000E100E00A4B10B51B681A68094BD158F1
:1002B000002907DAD358084A9B051B0D9B58002BD1
:1002C00000D09847C0231021044A5B00D15010BDD4
:1002D000DC0E000810110000A408000800E100E096
:1002E0000A4B10B51B681A68094BD158002907DA68
:1002F000D358084A9B051B0D9B58002B00D09847EC
:10030000C0232021044A5B00D15010BDDC0E000840
:1003100014110000A408000800E100E00A4B10B529
:100320001B681A68094BD158002907DAD358084AC4
:100330009B051B0D9B58002B00D09847C0234021E4
:10034000044A5B00D15010BDDC0E000818110000FB
:10035000A408000800E100E00A4B10B51B681A6809
:10036000094BD158002907DAD358084A9B051B0DC1
:100370009B58002B00D09847C0238021044A5B0083
:10038000D15010BDDC0E00081C110000A4080008AC
:1003900000E100E07047000070B5002000F058FA5E
:1003A0000D4C206000F079FA6060002000F050FAF7
:1003B00065680A4BA0600A49E81800F043FBFA217F
:1003C000084B20738900E81800F03CFB20610020F6
:1003D00000F03EFA606170BD880800083F420F00DF
:1003E00040420F00E703000098211E4B49015A5874
:1003F0001D4810B502405A5080315A58FF2402401F
:100400005A504021194B0A681A64442212685A64EF
:10041000C022174B92009858A04301439950995815
:1004200014480140995001221A6092181A6012482B
:1004300000F07EF800F0F8FA104A13685B005B08E1
:100440001360FFF7A7FFFFF7A7FF802100230C4AE7
:100450000C4CFF319800013314508B42FAD10A4BF7
:100460009A6110BD00002040FFFFF7FF0008000860
:1004700000E100E0FF00FFFF0C0E001000C026406E
:10048000A4080008B10100108808000810B59024E5
:1004900000F047F8074B64011959074A1140074A11
:1004A0000A431A51102259681142FCD000F03DF85D
:1004B00010BDC04600002040FCFF00000100FA050E
:1004C000F8B590260E4C7601070000F02AF8A359E3
:1004D0000500DB439B0701D1FFF7D8FF80239B007A
:1004E000E750A259074B1A40074B1343A35110235F
:1004F00062681A42FCD0280000F017F8F8BDC04628
:1005000000002040FCFF00000300FA05000000008E
:100510000230800803D001300238FCD1C046C0460A
:100520007047EFF3108072B6704780F31088704701
:10053000014B18607047C046DC0E0008054B1B6875
:100540001A0088321B6812689B181868000AC0B22B
:100550007047C046DC0E0008044B1B681A00883246
:100560001B6812689B181868000E7047DC0E0008A4
:100570009223DB00C018034B8000C0588006800F18
:100580007047C04600002640024B18694007C00F64
:100590007047C04600002740044B054AD05803234B
:1005A0001840984200D102207047C0462415000030
:1005B0000000264010B5FFF7EFFF0023022801D10D
:1005C000014B1B68180010BDE40E0008084A8300A8
:1005D000991890225201885807221040042806D109
:1005E000044AFC309B181F225B6813401843704775
:1005F00000002640FC00264010B5FFF7E7FF8823E7
:100600005B0098421FD00BD8012812D0022813D0CB
:10061000431E98410E4B404218400E4BC01810BD6F
:100620001223FF3398420AD0033398420BD00020A4
:10063000F5E7094B1868F2E7FFF7BCFFEFE7FFF7B4
:10064000A3FFC003EBE7054A054BD058C00FF8E7FE
:1006500000EE85FF00127A00E00E00080000264040
:1006600008150000144A154B10B5D3580F249903F0
:10067000DB01DB0F890BC371114B0160D358D90427
:100680001B0CDBB203810F4BC90CD35881801900BE
:100690002140817219092140C172D9029B009B0F30
:1006A0008373094BC90CD35881815A05DB01520F62
:1006B000DB0D8271038210BD000026403015000062
:1006C00034150000381500003C150000F0B5002678
:1006D00089B003AD14220021280000F083FB28001C
:1006E000FFF7C0FF164A174BD358B34224DAAB7B4F
:1006F000022B21D0AC88B4421ED03000ED79039F8C
:10070000FFF77AFF2200330031000190681C00F0EF
:1007100045FA0C00050033003A003100019800F062
:100720003DFAE6076A0832436308801859412A00F7
:10073000230000F013FA0600300009B0F0BDC046F7
:10074000000026403015000070B50C00050018228E
:100750000021200000F046FBB0237F221F21DB0098
:10076000ED18094BAD00EB5800201A4022701A0A10
:100770000A4062701A0C0A40A2701A01CA409B001B
:100780009B0FE270237170BD00002640F0B504009D
:1007900089B01822002102A800F024FB200002A941
:1007A000FFF7D2FFB0230026DB00194AE3189B00B5
:1007B0009B58B34229DA02AB1B79022B25D002AB3E
:1007C0005D78B54221D09F78B7421ED01B78601C5F
:1007D0000093FFF711FF33003A0031000190280029
:1007E00000F0DCF90C00050033003100009A01989C
:1007F00000F0D4F9E6076A083243630880185941CB
:100800002A00230000F0AAF90600300009B0F0BD6C
:100810000000264010B50400FFF7EEFE002C07D1C3
:10082000094A0A4BD358002B01DAFFF74FFF10BDDE
:10083000012CFCD1B023044A5B01D358002BF6DA1B
:100840000020FFF7A3FFF2E700002640301500006C
:1008500070B50500FFF78CFE9223DB00ED18074B07
:10086000AD000400E8580F231840FFF7D3FF012321
:10087000A3405B081818E04070BDC0460000264049
:1008800010B50020FFF7E4FF0400FFF765FE411CF0
:100890004808001900F0D6F810BD10B5FFF7F0FFBA
:1008A0000400FFF74BFE411C4808001900F0CAF88D
:1008B00010BDFEE702680A4B10B51A6042685A6024
:1008C00082689A60C268DA6002691A6142695A6194
:1008D00082699A61C269DA61FFF7EBFF10BDC04619
:1008E000A00E0008254B73B586000D00F4580429AE
:1008F00001D0012925D100200EE0A3682B420AD1A6
:10090000E36829001A685B686846019300922368CF
:1009100098471B4B1C606469002C0AD0194B984205
:10092000EBD1012DE9D1164A174B126815489A519F
:1009300076BD012DFCD1134B9842F4D0124B9C5143
:10094000F6E7022914D026006469002CFBD10020B0
:10095000002EEDD0B3682B4208D1F36829001A6845
:100960005B68684601930092336898473669EFE701
:10097000034B1B68181EDBD01E69E8E7000F000858
:10098000FC0E0008FF004200E80E00088023034A26
:100990005B01D0588006C00F7047C046000026405B
:1009A00070B50600FFF7F2FF002834D01B4D6B68CE
:1009B000002B15D1FFF7B5FD6B680400002B1DD18E
:1009C0000423174A11690B431361012E1BD030BF5A
:1009D0002000FFF7AAFD6C68002C16D1200070BD26
:1009E00001210800FFF77EFF041EE3D06B68002B97
:1009F000F4D002210120FFF775FFEFE70421012069
:100A0000FFF770FFDCE720BFE2E708210120FFF7D6
:100A100069FF0024E2E7034CE0E7C046000F00084E
:100A200000ED00E0FF0042000322054B196C9143EA
:100A3000023A0A431A640222196C0A431A64704784
:100A400000C02640002243088B4274D303098B4226
:100A50005FD3030A8B4244D3030B8B4228D3030C8E
:100A60008B420DD3FF22090212BA030C8B4202D330
:100A70001212090265D0030B8B4219D300E0090A58
:100A8000C30B8B4201D3CB03C01A5241830B8B4261
:100A900001D38B03C01A5241430B8B4201D34B034A
:100AA000C01A5241030B8B4201D30B03C01A5241AF
:100AB000C30A8B4201D3CB02C01A5241830A8B4234
:100AC00001D38B02C01A5241430A8B4201D34B021D
:100AD000C01A5241030A8B4201D30B02C01A524181
:100AE000CDD2C3098B4201D3CB01C01A5241830935
:100AF0008B4201D38B01C01A524143098B4201D36F
:100B00004B01C01A524103098B4201D30B01C01A99
:100B10005241C3088B4201D3CB00C01A5241830813
:100B20008B4201D38B00C01A524143088B4201D340
:100B30004B00C01A5241411A00D2014652411046A0
:100B40007047FFE701B5002000F006F802BDC0467F
:100B50000029F7D076E770477047C046002B11D1C7
:100B6000002A0FD1002900D1002802D00021C9435A
:100B7000080007B4024802A14018029003BDC04615
:100B8000D9FFFFFF03B4684601B5029800F034F8BE
:100B9000019B9E4602B00CBC7047C046F0B5CE46E5
:100BA0009946030C9C46130447461B0C1D000E007F
:100BB00061460404240C80B50700100C4B436543C8
:100BC000414360432C0CC01820188C46834203D943
:100BD00080235B029846C444494679435643030C3C
:100BE0002D042D0C8919634400044019C918C0BC98
:100BF000B946B046F0BDC046F0B557464E464546EC
:100C0000DE46E0B504000D009246994683B08B4263
:100C100030D82DD04946504600F0D8F829000600BB
:100C2000200000F0D3F8331A9846203B34D49B467A
:100C300053465A46934042461F00534693401E0077
:100C4000AF423BD8AF4200D179E05B46A41BBD4127
:100C5000002B00DA76E000220023009201930123AA
:100C60005A4693400193012342469340009329E062
:100C70008242CFD900220023009201930C9B002BCB
:100C800001D01C605D600098019903B0F0BCBB46C8
:100C9000B246A946A046F0BD42469B4620239B1A79
:100CA0005246DA40414613004A468A4017004246FF
:100CB0001F43534693401E00AF42C3D90022002376
:100CC000009201934346002BD8D0FB0772081A43C9
:100CD00046467B080EE0AB4201D1A2420CD8A41AD2
:100CE0009D41012024196D410021013E24184D41F0
:100CF000002E06D0AB42EED9013E24196D41002EE4
:100D0000F8D1009801995B4600196941002B24DB5A
:100D10002B005A464446D3402A00E2401C005B4662
:100D20001500002B2ADB26009E4033002600474694
:100D3000BE403200801A9941009001919EE7A34283
:100D4000BCD882E74246202300219B1A0022009152
:100D500001920122DA40019285E7424620239B1A44
:100D60002A0046469A402300F340444613432A0093
:100D7000E2401C005B461500002BD4DA42462F00EF
:100D80002023260097409B1ADE403B003343CDE7EB
:100D90001C2101231B04984201D3000C10391B0AAB
:100DA000984201D3000A08391B09984201D300096F
:100DB000043902A2105C40187047C04604030202C6
:100DC00001010101000000000000000010B5002931
:100DD00003D1FFF7DDFF203002E00800FFF7D8FF66
:100DE00010BDC04603008218934200D170471970AD
:100DF0000133F9E7F8B5C046F8BC08BC9E46704719
:100E0000F8B5C046F8BC08BC9E46704700002040BC
:100E100000002440000000400000000000002340CB
:100E200000003040000031400000904000002240AF
:100E300000001040000090402020202020202008AA
:100E4000085C2C8000002E00FF03040103007C00DE
:100E5000400000007FFE00000004000000000000D1
:100E60000019324B647D0702020000804000080B2D
:100E7000100000000000FF012002001F008000049D
:100E8000FF081018001000140018001C4044484CC3
:100E900050000000081000000800000004000000DE
:100EA00004100000001200000421000000210000D6
:100EB0000016000040114002C41300138013A01359
:100EC00040138813A81320001C000000000000003D
:100ED00028FDFF7F0100000000000010000800084E
:100EE00080000000F80E00108008000808000000D4
:100EF000C00E000854000000F5000010C9000010EA
:020000041004E6
:1000000000F80308D30104100D0000001F020410C3
:100010002102041023020410250204100000000035
:100020000000000000000000000000002702041093
:1000300029020410000000002B0204102D020410FD
:10004000A7380410E33804101F3904105B3904107A
:1000500097390410D33904100F3A04104B3A0410A6
:100060002F0204102F0204102F0204102F0204107C
:100070002F0204102F0204102F0204102F0204106C
:1000800000F002F800F094F80AA090E8000C824416
:100090008344AAF10107DA4501D100F089F8AFF2F3
:1000A000090EBAE80F0013F0010F18BFFB1A43F056
:1000B000010318471C4F00003C4F0000103A24BFBA
:1000C00078C878C1FAD8520724BF30C830C144BFBD
:1000D00004680C60704700000023002400250026FF
:1000E000103A28BF78C1FBD8520728BF30C148BF9B
:1000F0000B6070476E2900F06D82702900F0AF83AD
:10010000662904F08C84652904F08984672904F049
:100110008684612904F0858403681B0A28BF41F0A6
:100120008001692900F01A82642900F0178275297C
:1001300000F014826F2900F03D83782900F07B8362
:10014000E92900F0D782E42900F0D482F52900F0F3
:10015000D182EF2900F03A83F82900F07A8303680E
:10016000DB0928BF41F08001632901F07B807329FE
:1001700001F08080E32901F08B80F32901F0908069
:10018000002070471FB504F03DFC01F0B9F80400F1
:100190000020002104F020FC401C606000200021B1
:1001A00004F004FCE06000F065F91FBD10B510BD5F
:1001B000DFF80CD0FFF7E6FF03F0A4FE01F056F9DC
:1001C00000F8030803B4FFF7F1FF03BC01F096F950
:1001D0007047FFF7FDFF72B6154916484FF08002D1
:1001E0000B680360001D091D121F002AF8D1114879
:1001F00011490860BFF34F8F10488047104880476F
:10020000FEE7FEE7FEE704207146084203D0EFF365
:10021000098000F002F8EFF3088003F031FAF2E70A
:10022000F1E7F0E7EFE7FEE7FEE7FEE7FEE7FEE7D0
:10023000000004100000010808ED00E083380410FD
:100240008100041000000000801C800803D0401CC6
:10025000801EFCD100BF7047EFF3108072B670476C
:1002600080F31088704753EA020C00F069802DE992
:10027000F04B4FF00006002B1FBFB3FA83F503FAD3
:1002800005F424FA05F65E4012BF1643B2FA82F571
:1002900002FA05F4C5F120051EBF22FA05FC44EA66
:1002A0000C04203556EA044C4FEA144418BF641C71
:1002B0004FF000084FF00009904271EB030C39D366
:1002C000002919BFB1FA81F701FA07F6B0FA80F7F1
:1002D00000FA07F6C7F120071EBF20FA07FC46EA1E
:1002E0000C062037B6FBF4FCA7EB0507103F07F020
:1002F0001F0BCBF120062CFA06F60CFA0BFB44BFC1
:10030000B3460026202FA4BF5E464FF0000B5BEAE9
:10031000060C08BF4FF0010B19EB0B0948EB060860
:10032000ABFB027C06FB02CC0BFB03CCC01B71EBCE
:100330000C01C1E70B46024641464846BDE8F08B3A
:1003400013B5084318BF4FF0FF300146AFF30080EC
:10035000BDE81C40704700001CB50C46064B7B44B2
:1003600069460090204600F04EF904460020694698
:1003700000F05CF920461CBDCB02000010B5431C08
:1003800002E010F8011B71B18107FAD14FF0013280
:1003900002C88C1A8C4314EAC211F9D0C01A0A069A
:1003A00003D0C01E10BDC01A10BD0A0401D0801EAB
:1003B00010BD0902FCD0401E10BD10B5203AC0F09F
:1003C0000B80B1E81850A0E81850B1E81850A0E828
:1003D0001850203ABFF4F5AF5FEA027C24BFB1E8C1
:1003E0001850A0E8185044BF18C918C0BDE8104004
:1003F0005FEA827C24BF51F8043B40F8043B08BF0D
:100400007047D20728BF31F8023B48BF11F8012BD3
:1004100028BF20F8023B48BF00F8012B70474FF07F
:10042000000200B5134694469646203922BFA0E844
:100430000C50A0E80C50B1F12001BFF4F7AF090750
:1004400028BFA0E80C5048BF0CC05DF804EB890041
:1004500028BF40F8042B08BF704748BF20F8022B84
:1004600011F0804F18BF00F8012B7047704770479C
:100470007047000070B5064C7C44064D7D4404E096
:100480002046016808448047241DAC42F8D170BD65
:10049000A04C0000A04C000070B5044685690068BF
:1004A000C10601D5302600E02026C00707D070BD68
:1004B000D4E9012130469047206A401C20626D1E1D
:1004C000F6D570BD70B5044685690078C00707D1C0
:1004D00070BDD4E9012120209047206A401C206291
:1004E0006D1EF6D570BD09684A0501D540B270474A
:1004F000C905FCD500B2704709684A0501D5C0B2EC
:100500007047C905FCD580B2704770B50C460546EA
:10051000012A05D02878800600D5EA69002302E088
:10052000012305E05B1C934202D2E05C0028F9D174
:10053000A869E618C01AA861286A184428622846E3
:10054000FFF7AAFF04E0D5E9012114F8010B904759
:10055000B442F8D32846FFF7B5FF70BD2DE9F0414E
:100560000646002410687529314616A510D0FFF7FD
:10057000BAFF002802DA404213A507E031688A0773
:1005800001D512A502E0490704D511A5012401E017
:10059000FFF7B2FF00210A2206F1240709E0B0FBB1
:1005A000F2FCB0FBF2F302FB1C003030785418462A
:1005B000491C0028F3D123462A463046BDE8F041C5
:1005C00000F061BA000000002D0000002B000000C8
:1005D0002000000011680268006A530501D5087008
:1005E0000AE0D30501D5088006E0130603D5C2173B
:1005F000C1E9000200E008600120704701694A1C5F
:1006000002610878704700B58FB0CDE90131002153
:10061000059105497944CDE903101146684600F07B
:1006200029F90FB000BD0000E5FFFFFF0A6802F8DE
:10063000010B0A60704700002DE9FF5F15468A46EE
:100640000446DFF8AC80F8440027D8E900103E46A5
:10065000CDE9001010E03AF816106A4602A800F042
:1006600023FE411C07D02178890603D5E269391899
:1006700091420DD80744761C2078800602D5E069A7
:10068000B84205DDAE42E6DB3AF816000028E2D1BA
:10069000A069C01BA0612046FFF7FEFED8E900104C
:1006A000CDE90010002017E03AF818106A4602A8B9
:1006B00000F0FAFDB0F1FF3F81460BD000250DF1AF
:1006C000080B05E0D4E901211BF8050090476D1CDB
:1006D0004D45F7D308F10100B0428046E4DB206AC3
:1006E000384420622046FFF7EDFEBDE8FF9F000082
:1006F000DE4300002DE9F0418046D21D22F00702C2
:100700000025D2E90002F52915A614D0011E72F1C8
:10071000000106DA0023D0EB030063EB020211A60E
:1007200008E0D8F800108B0701D50FA602E04907B2
:1007300001D50EA601251146002408F1240704E086
:1007400000F05CF930323A55641C50EA0102F7D1EE
:100750002B46324621464046BDE8F04100F093B9B1
:10076000000000002D0000002B0000002000000011
:1007700030B4002100F1240408E002F00705D2089B
:10078000303542EA4372DB086554491C52EA0305DE
:10079000F3D10468002310A2250708D504F0200433
:1007A0000C4304D0C46901230CA2641EC46130BC94
:1007B00000F069B910B5044621461068FFF79CFEA9
:1007C00002462046BDE810400023D1E7D21D22F0AA
:1007D0000701D1E90023CBE7000000003000000052
:1007E000F0B40D460188090502D5214C7C4402E095
:1007F0001F4C7C440E34002100F1240608E002F076
:100800000F071209E75D42EA03721B097754491C7E
:1008100052EA0307F3D102780023120704D5702DA2
:1008200006D009B1022311342246F0BC00F02BB9E6
:1008300001231034F8E770B504460D4621461068D0
:10084000FFF75AFE024629462046BDE870400023C5
:10085000C6E7D21D22F00703D3E90023C0E70368EF
:10086000126843F0200303600823C3610023B7E745
:10087000404200002DE9F05F894604464FF0000A2F
:10088000DFF874B1FB44C0F820A02046E168884737
:10089000002874D0252806D0D4E901219047206A89
:1008A000401C2062F1E700265F462046E168884749
:1008B0002028054607DB312D05D2781910F8200CC9
:1008C00008B10643F1E7B00701D526F00406C4F8E5
:1008D0001CA00027C4F818A02A2D09D0284604F02F
:1008E0005DF838B304EB8708303DC8F8185019E0BC
:1008F00059F8041B204604EB87029161E1688847A0
:10090000012F054618D1E069002820DA26F02006DC
:100910001DE0D8F8180000EB800005EB40003038EF
:10092000C8F818002046E1688847054604F036F804
:100930000028EED1012F0AD02E2D08D12046E168E3
:1009400088477F1C0546022F46F02006C4DBA069BD
:10095000002803DA404246F00106A061F00701D00A
:1009600026F010066C2D0BD0682D09D04C2D39D0F7
:100970006A2D35D0742D35D07A2D33D016E038E07D
:10098000E1682F4620468847B842054609D16C2FBA
:1009900026D04FF48060E16806432046884705462C
:1009A00004E06C2F1AD04FF4807006430DB3A5F10C
:1009B0004100192802D8203546F400664A462946E7
:1009C000204626604E46FFF795FB80B101280BD0EC
:1009D000F61D26F0070000F1080956E74020E4E77D
:1009E0008020D8E70020D6E706F104094DE7284625
:1009F00052E7206ABDE8F09FD041000030B5B0F169
:100A00000A0271F100034FEA900E4EEA817EB0EBCC
:100A10000E0061EB91014FEA101E4EEA017E10EBD1
:100A20000E0041EB11114FEA102E4EEA016E10EB51
:100A30000E0041EB11214FEA104E4EEA014E10EB31
:100A40000E0041EB1141401841F100014FEAD00086
:100A500040EA41704FEAD1014FEA810444EA9074C0
:100A600010EB800544EB01046D1944EB0404521BA8
:100A7000A3414FF0000348BF0A3200D530BD401CEF
:100A800041F1000130BD2DE9F0470D4699469246EF
:100A9000044600F124080168880604D5E06921F0C5
:100AA0001001216000E00120A84201DD471B00E0A9
:100AB0000027A1697A1902EB0900081AA0612078C1
:100AC000C00602D42046FFF7E7FC002608E0D4E980
:100AD00001211AF806009047206A401C761C20620B
:100AE0004E45F4DB2078C0060AD52046FFF7D4FC3B
:100AF00006E0D4E9012130209047206A401C2062A2
:100B0000381EA7F10107F4DC07E0D4E9012118F849
:100B100005009047206A401C2062281EA5F10105AF
:100B2000F3DC2046FFF7CEFC2078000602D5022039
:100B3000BDE8F0870120FBE72DE9FF4F0C461E467C
:100B40004FF0FF378BB0D2E90001DDF860800A90EA
:100B50008A46C1F30A5505B93D46002108464FF0C3
:100B60000000BAF1000F00F4400005DA00EB80004D
:100B70004FF4400101EA50004FEA9059B9F1010FDA
:100B800000DDB9460A9850EA4A000ED044F61050EB
:100B9000A5F2FF3545432F14B8F1000F1ED0754262
:100BA000291E1EDDC9F100021CE0B8F1010F4FF053
:100BB000000001D0302103E0F24305E02154401C45
:100BC000B042FBDB30460022002121540B99C1F8D2
:100BD0000880C1E900200FB0BDE8F08FBD1B6D1C7F
:100BE000DEE74A4600DA694206A800F0CDFB06AB14
:100BF00093E8070003AB83E8070050460A9903F027
:100C0000EDFA8DE80700A0F500501F38009003981A
:100C1000002D0ADD42F21F014A460844002303A9C1
:100C20000390684603F056FD09E0A0F500504A46DF
:100C30001F38002303A90390684603F060FD8DE888
:100C400007000004000C03D04FF0FF30410800E023
:100C50001046B8F1000F03D00022009215461EE0A6
:100C6000751E05D4FFF7CAFE303262556D1EF9D5E8
:100C7000B3460122084302D000227F1C04E0207802
:100C8000302801D100227F1E002A099784D01DE060
:100C9000112D07DAFFF7B2FE303262556D1C50EAB3
:100CA0000102F5D1084302D00098C8B10EE000213E
:100CB000681E05E0235C625C63542254401E491C9C
:100CC0008142F7DBAB46A81B401E0990002004F8C8
:100CD0000B000B98099AC0F80880C0E9002B7AE74E
:100CE00011264FF0000857E72DE9F04F88460446DB
:100CF000D21D22F0070191B0D1E90001CDE90A012E
:100D000003F034FE02460B98C00F01D02D2007E0FF
:100D10002068810701D52B2002E0202101EAC000D4
:100D2000032A099001D0072A05DB034641462046E5
:100D300000F0EAFA0BE12078800601D5E06900E0D6
:100D40000620B8F1650F814606D0B8F1660F18D0BD
:100D5000B8F1670F70D131E00020B9F1110F0090A8
:100D600001DB112301E009F101030AAA01A90CA882
:100D7000FFF7E2FEDDE90C70002609F1010583466C
:100D800047E001204B4600904FF000470AAA01A916
:100D90000CA8FFF7D1FEDDE90DB00C995D460026E9
:100DA00010B909F101000D18B9EB050003D4C0F129
:100DB000FF3609F10105A5EB09002BE0B9F1010FA0
:100DC00001DA4FF001090020B9F1110F00904846F7
:100DD00001DD112300E003460AAA01A90CA8FFF7D0
:100DE000ABFEDDE90C704D460026834620780007F7
:100DF0000AD4AB4500DA5D4601A8012D04DD411996
:100E000011F8011C302907D04F4502DA17F1040F01
:100E100004DA012082460FE06D1EEEE7002F02DCAF
:100E2000ED1B3E4403E0781CA84200DD7D1CB81B8E
:100E300000F1010A4FF000472078000703D4AA45CB
:100E400001DB4FF0FF3A0021B7F1004F0DF14308ED
:100E50008DF8431024D002202B23002F01DA7F428B
:100E60002D230A21021EA0F1010000DC5FB197FBD7
:100E7000F1FC97FBF1F201FB1C7C17460CF1300CE6
:100E800008F801CDEEE7A8F10100037021880905FB
:100E900001D5452100E06521A0F1010800F8011C01
:100EA00009980FA9A1EB0807FF1D00B10120411906
:100EB00001EBEA70A1693844081A401EA06120784D
:100EC000C00602D42046FFF7E7FA099828B1D4E912
:100ED00001219047206A401C20622078C00622D55C
:100EE0002046FFF7D9FA1EE0002E04DBB34502DDF1
:100EF00001A8805D00E03020D4E901219047206AFC
:100F0000401C2062761CAAF101005FEA000A0AD1A7
:100F100000F0F6F9C0680168405CD4E9012190470F
:100F2000206A401C2062281EA5F10105DCDC07E0D8
:100F3000D4E9012118F8010B9047206A401C206277
:100F4000381EA7F10107F3DC2046FFF7BBFA0320A8
:100F500011B041E62DE9F04F04460D46D21D22F0B6
:100F6000070089B0D0E900974846394603F0FEFCF7
:100F70000246F80F01D02D2307E02068810701D534
:100F80002B2302E0202101EAC0038DF820300BB1B1
:100F9000012000E00020032A824601D0072A04DB5A
:100FA0002946204600F0B0F93FE12078800601D4C0
:100FB0000D2500E0E569C7F30A560D2D49DA002139
:100FC0004FEA175B08464FF00000002F00F4400086
:100FD00007DA00EB80004FF4400100EBD07001EA2B
:100FE00060008115012901DD4FF0FF3100224FEA39
:100FF000850CBCF1180F06D31346ACF118004FF066
:101000008052C24003E04FF4801323FA0CF30CF13A
:101010000C0CBCF1200F04D3ACF1200C09FA0CF03D
:1010200001E007FA0CF000294FF0004801DD18B983
:101030000FE00ED140450CD319EB02095F4121B9F5
:10104000404502D19F4329EA0209BBEB175F00D05C
:10105000761C2088000502D57B48784402E07A4857
:101060007844193808AA302302F80A30037C0AF1C0
:101070000101002E0AF1020A53546A4602DC4FF0C5
:10108000300101E04FF031014FF001088DF8001000
:1010900002D0A6F2FF3603E059EA470100D06B4EBA
:1010A000002D02DC2178090704D54FF002082E211B
:1010B0008DF80110C44600210BE0C7F303433F0144
:1010C000C35C491C6D1E02F80830052908F10108AF
:1010D00001DA002DF1DC00210CE000EB1973491C52
:1010E0001B786D1E082902F808304FEA091908F12B
:1010F000010801DA002DF0DC21688B0602D516E02C
:10110000A8F10108E04505DD02EB080313F8013CF6
:10111000302BF5D0B8F1000F09DD02EB080313F80E
:10112000013C2E2B03D1090701D4A8F10108002DA1
:1011300005DD3E2102F808106D1E08F10108407C13
:10114000002E02F8080008F1010804DA2D2076428A
:1011500002F8080002E02B2002F808000A214FF4F0
:101160007A70864208F101080BDB96FBF0F330330E
:1011700002F8083096FBF0F308F1010800FB136653
:1011800001E0642E0CDB642096FBF0F3303302F8B0
:10119000083096FBF0F308F1010800FB136601E04C
:1011A0000A2E06DB96FBF1F0303002F8080008F159
:1011B000010896FBF1F001FB1060303002F80800E6
:1011C000A16908F1010808EB050202EB0A00081A00
:1011D000A0612078C00602D42046FFF75DF9216A9D
:1011E00008AE01EB0A00206204E0D4E9012116F800
:1011F000010B9047BAF1010AF7D22078C00602D558
:101200002046FFF749F96E4609E016F8010B3E2823
:101210000FD0D4E901219047206A401C2062B8F128
:101220000108F2D22046FFF74DF909B00320BDE8CE
:10123000F08F206A2844206203E0D4E901213020A5
:1012400090476D1EEBD3F8E71E3A000002FCFFFF4B
:1012500010B5436913B1AFF3008001E0FFF755F912
:10126000012010BD127800F124010A7000224A709A
:101270000122EDE711684FF0FF32E9E710B543694D
:1012800013B1AFF3008001E0FFF7D6F9012010BDE4
:10129000128800F1240182840022C2840122EDE739
:1012A00011684FF0FF32E9E72DE9F04116460C4690
:1012B000054600F01DF8036893F80101012807D0E6
:1012C000FF2C12D8185D80B101202C70BDE8F08190
:1012D000D3F807013246214603F20713C718284600
:1012E000BC46BDE8F041002360474FF0FF30EDE71A
:1012F00010B500F005F8001D10BD00BFDD36000080
:1013000000487047BC0001082DE9F0411F46044623
:1013100003260168072A01F4006004DB08B116A562
:1013200005E016A503E008B115A500E015A521F01C
:1013300010002060A069C01EA0610FB1401EA06116
:101340002046FFF7A9F84FB1D4E90121384690476C
:10135000206A401C2062C01C206206E0206AFAE776
:10136000D4E9012115F8010B9047761EF8D22046EA
:10137000FFF7A8F8BDE8F0814E414E006E616E00A7
:10138000494E4600696E66002DE9F04781461646D3
:101390008AB0354878440DC88DE80D00324878444D
:1013A000801C03AC0DC884E80D0041F69B30084456
:1013B000372190FBF1F290FBF1F5A5F1800501FBDF
:1013C00012041B3C02D56442012000E00020DFF83B
:1013D00098A080460027FA44AAF1BE0A0EE0E00772
:1013E0000AD03246684607EB470101230AEB810128
:1013F00003F085F98DE8070064107F1C002CEED106
:10140000194F7F44AE3F19E0E80715D007EB0410F1
:101410000DF1180A90E80E008AE80E00C068F0424C
:1014200001D1981908903246012306A903A803F0B8
:1014300066F903AB83E807006D10641C002DE3D14F
:101440004FF0010332466946B8F1000F03A802D0FD
:1014500003F040F901E003F052F9C9E90001C9F8CD
:1014600008200AB0BDE8F0877437000010B50446C4
:10147000AFF300802046BDE81040FEF7A3BE000099
:1014800030B44FF0013C50F8042B51F8043BCCFA37
:1014900052F4D51A20D1FCB950F8042B51F8043B72
:1014A000CCFA52F4D51A17D1B4B950F8042B51F82C
:1014B000043BCCFA52F4D51A0ED16CB950F8042B77
:1014C00051F8043BCCFA52F4D51A05D1002CDAD0ED
:1014D00030BC4FF00000704729BAB1FA81F111F029
:1014E0001801D1F120008440F2D1CA40CB4012F063
:1014F000FF0213F0FF0330BCD01A704701491820D7
:10150000ABBEFEE7260002007047704770B500EBE7
:10151000412555F8180F4FF61846012420F0010018
:10152000CFF6FF76C0F21614286000BF2868C00707
:1015300005D0012002F09CF80136F7D300E000242A
:10154000204670BD70B51C46049B7AB300EB412564
:10155000D5F88021002C52D092077AD4D5F8B4E087
:10156000D5F8B020D5F8BC4044F623514FF6FC7CAA
:10157000C4F30214C1F2040102EA0C02095D104432
:10158000FC22023102EA9E1211FB020010F58032A9
:1015900066D000F0CFF8D5F8B810D5F8B420890996
:1015A000120A61F39F12C5F8B82070BD40F2010C19
:1015B0003F2CC0F2161C5FD800EB4126D6F8AC10C9
:1015C000D6F8BC2044F62355C2F30222C1F204052A
:1015D0004FF6FC7EAA5C01EA0E010844911C6143AF
:1015E00000EB810010F5803246D000F0A3F81F2CEC
:1015F00084463AD80120A040C6F898003CE0D207C3
:1016000029D1D5F8A4E0D5F8A020D5F8BC4044F6FF
:1016100023514FF6FC7C04F00704C1F2040102EAF6
:101620000C02095D1044FC22023102EA9E1211FBF9
:10163000020010F5803213D000F07CF8D5F8A81025
:10164000D5F8A4208909120A61F39F12C5F8A820D1
:1016500070BD012200E00022BDE8704000F00EB82D
:1016600040F2010CC0F2161C06E0A4F1200001219A
:1016700001FA00F0C6F89C00604670BD10B58446C3
:101680000120002BC0F2161052D0D3F800E0BEF1BA
:10169000000F4DD05C68002C4AD09B68002B47D0CF
:1016A0000CEB412101F5DC70D1F8BCC0002A08BF69
:1016B00001F5D470016818BF4FEA1C1C21F060428C
:1016C000CEF80020C1F340728EF80420C1F380727E
:1016D000C90F8EF805208EF8061001680CF0070C73
:1016E0008AB22260C1F303426260C1F300522272E7
:1016F000C1F340526272C1F30662C90FE26044F660
:1017000023522174C1F204029EF8054012F80C1015
:1017100024B9DEF80020920CCEF80020012998BFF1
:10172000012100BF0268013943F8042BFAD10020DF
:1017300010BD000080B50120002BC0F216105CD057
:10174000D3F800E0BEF1000F57D0D3F804C0BCF1CD
:10175000000F52D0996800294FD0106820F06040E7
:10176000CEF800001068C0F340708EF804001068D6
:10177000C0F380708EF805001068C00F8EF8060068
:10178000506880B2CCF800005068C0F30340CCF839
:1017900004005068C0F300508CF808005068C0F393
:1017A00040508CF809005068C0F30660CCF80C007B
:1017B0005068C00F8CF810009EF8050020B9DEF8C4
:1017C0000000800CCEF80000DCF8040044F623533F
:1017D000092826BFDCF8040008380020C1F2040301
:1017E000185C0832012898BF012000BF52F8043B62
:1017F000013841F8043BF9D1002080BD2DE9F04FBC
:1018000085B040F20109002AC0F2161900F0B48038
:101810008346002800F0B0809A46002B00F0AC8090
:1018200010691646002800F0A7800C46716A00294E
:1018300000F0A280F16A002900F09E80316B00293F
:1018400000F09A80082C01D301BE30690188B1F5FF
:10185000007F01D301BE3069817809B901BE3069CA
:1018600090F90310002901DC01BE306990F90400F1
:10187000B0F1FF3F00DC01BEF0690078812800D3A1
:1018800001BE306A0078412800D301BE706A017839
:10189000032901D301BE706A4078032800D301BE3A
:1018A000317B96F8280011B1082801D203E038B145
:1018B00001BE307B20B196F82900082803D205E04C
:1018C00096F8290038B101BE307B20B196F82A0085
:1018D000082804D207E096F82A00002867D001BE45
:1018E000307B002863D096F82B00082800D301BE77
:1018F000F06A0078022800D301BE306B007802281D
:1019000000D301BEF06A8078412800D301BE306B5D
:101910008178412901D301BE306B90F90100B0F10B
:10192000FF3F07DC01BE306B90F90100B0F1FF3FD3
:1019300000DC01BE96F83400412800D301BE96F8C1
:101940003500212800D301BE96E807000BEB4428A0
:101950008AE80700012045464FF6184745F8180F5A
:10196000CFF6FF772868C0070AD1012001F080FE7A
:101970000137F7D309F10109484605B0BDE8F08FFA
:10198000286840F002002860F269D6E90E07117855
:10199000CAF80C003B460397CAF8107069B1526848
:1019A0005AB14FF6FC72024042EA014208E096F852
:1019B0002B0000287FF49BAF9AE74FF6FC720240A1
:1019C000C8F88420326A049492F800E0BEF1000F57
:1019D00012D0576887B1D8F884700EF07F0507EBF6
:1019E00081014FF6FC77394041EA0541C8F888107B
:1019F000916821F0604109E0D8F8842002EB810170
:101A00004FF6FC721140C8F888100021C8F89010F9
:101A100096F8281096F8293096F82A204FF4E065B9
:101A200005EA012563F3061502F007073D4402911C
:101A30000193C8F8BC50F56A4FF6FC74EB782F7828
:101A4000009395F801C0A978D8F88830FF076CF3A7
:101A50001E6701F07F0C03EBCE0347EA0C472340DF
:101A60003B44C8F8A030336B1F7893F801E0FF07C0
:101A70006EF31E6744F6235E93F802C0C1F2040EB3
:101A80001EF802200CF07F05DB7847EA0547D8F8FE
:101A9000A0500232514305EB810121403944C8F87E
:101AA000B010009A03F07F0142EA4101C8F88011AA
:101AB0000199D8F8B0201EF80110474602310CFBFE
:101AC00001F102EB81012140C8F8AC1096F82B100F
:101AD00001F00701C8F8C810D8F8AC10029A96F8BF
:101AE00034301EF8022002325A4301EB82012140B9
:101AF000C8F8F01096F83510D8F8F020503222408F
:101B000061F315420399C8F8C020890804D0002267
:101B1000013940F8042BFBD1317B080240EA412017
:101B20000330B8613069DDF8108000B30188B1F589
:101B3000007F00D301BE817801B901BE90F9031086
:101B4000002900DC01BE90F90410B1F1FF3F01DC77
:101B500001BE0179C278837802F07F02008842EAF0
:101B6000032260F3184242EA4160F861317B89B395
:101B70007269002A3FF400AF1088202801D301BE0B
:101B800072699078202801D301BE7269D07810283C
:101B900001D301BE72691079102801D301BE7269A8
:101BA0005846414600F04FF8B269002A3FF4E4AECF
:101BB00092F90100B0F1FF3F01DC01BEB26992F978
:101BC0000200B0F1FF3F01DC01BEB2695846414658
:101BD00000F06CF8706A302501784378847805EA63
:101BE0000111C07863F3830104F07F0341EA4301EC
:101BF000F2690843C7F88000107820B15846414682
:101C0000534600F0E7F8326A107820B15846414652
:101C1000534600F07DFA1120C0F20800786596F86E
:101C200035004FF0FF3101FA00F0C043C7F8E00083
:101C300000200122B86558464146FA6505B0BDE866
:101C4000F04FFFF763BC82B380B51388202B00D31D
:101C500001BE9378202B00D301BED378102B00D384
:101C600001BE1379102B01D301BE137900EB412083
:101C7000D0F80CC04EF20001CFF6E07101EA0C0181
:101C800092F802C092F803E012880CF01F0C6EF379
:101C9000071102F01F0241EA0C2103F00F0341EA91
:101CA00002411944C160BDE880407047E2B192F939
:101CB0000130B3F1FF3F00DC01BE92F90230B3F115
:101CC000FF3F00DC01BE00EB4120C168137821F426
:101CD000000192F801C0927841EAC351C16002F05C
:101CE0007F016CF30E2181647047002A71D0DDF80A
:101CF00000C0BCF1000F6CD0D2F800C0BCF5006F82
:101D000000D301BED2F804C0BCF5006F00D301BE01
:101D100092F808C0BCF1000F23D092F808C0BCF1C3
:101D2000010F1ED092F808C0BCF1020F19D092F832
:101D300008C0BCF1030F14D092F808C0BCF1040F26
:101D40000FD092F808C0BCF1050F0AD092F808C075
:101D5000BCF1060F05D092F808C0BCF1070F00D007
:101D600001BE92F809C0BCF1000F0FD092F809C073
:101D7000BCF1010F0AD092F809C0BCF1020F05D0E6
:101D800092F809C0BCF1030F00D001BE03F1010CB1
:101D9000BCF1810F00D301BE00EB4121D1F884C01A
:101DA0004FF6FC7101EA0C010844116800EB830C4A
:101DB0005368107A6FF3DF2163F31A4100F00700D4
:101DC000527A41EAC06040EA82704FF480314CF8A8
:101DD000010070472DE9F04381B0DAB11C46CBB168
:101DE0008146107815468846812801D301BE28789F
:101DF00080B10027002600BF68684146C2194846E6
:101E000033460094FFF771FF28780136864207F1C8
:101E10000C07F1D301B0BDE8F083000070B5844633
:101E20000120002AC0F2161000F0CA80049C002C89
:101E300000F0C680D2F800E0BEF1000F00F0C080D4
:101E40005468002C00F0BC80DEF80040B4F1005F64
:101E500002D301BED2F800E09EF8044034B19EF8EF
:101E60000440012C02D001BED2F800E09EF80540EB
:101E700034B19EF80540012C02D001BED2F800E03A
:101E80009EF8064024B19EF80640012C00D001BE09
:101E9000D2F804E0DEF80040B4F5803F02D301BE82
:101EA000D2F804E09EF8054034B19EF80540012CBC
:101EB00002D001BED2F804E0DEF80840B4F5807F1D
:101EC00000D301BE402B19D20CEB412EDEF8C040EE
:101ED0001F2B18D84FF6FC76DEF8C850264044F683
:101EE000235405F00705C1F20404655D664402351C
:101EF0005D4306EB850606F5803E06E00CEB4124CB
:101F000001BED4F8C0404FF0000E0CEB41218E69A9
:101F1000F60755D1D1F8CC10D940C90718BF70BD0C
:101F2000BEF1000F4CD0D2E90001837946790579E2
:101F3000DB0766F39E7305F0010643EA46734679B4
:101F40000568002E08BFAD0425F060463344CEF886
:101F500000308B688D791E0606F50006002D08BF3F
:101F60001E064B790D7963F355560B68002D03F06F
:101F70000F0318BF06F5801646EA0343CEF8043077
:101F80000B68082B26BF0968A1F10803002300791C
:101F900008B1002070BD91680029FAD044F62350A2
:101FA000C1F20400C25C0EF10803012A98BF0122AD
:101FB00051F8040B013A43F8040B4FF00000F7D13D
:101FC00070BD70B582B0DDF818C01C460D460646DF
:101FD000CDF800C0FFF722FFA0B9402C00D301BE0E
:101FE00006EB45218869C00740F20100C0F21610D7
:101FF00008D1D1F8CC300122A240134204BFC1F86D
:10200000D020002002B070BD80B5002A00F07E8094
:10201000DDF808C0BCF1000F00F07880D2F804C0F1
:10202000DCF800C0BCF1005F00D301BED2F800C0F4
:10203000DCF800E0BEF1005F02D301BED2F800C0C0
:102040009CF804E0BEF1000F23D09CF804E0BEF140
:10205000010F1ED09CF804E0BEF1020F19D09CF8CD
:1020600004E0BEF1030F14D09CF804E0BEF1040FAD
:102070000FD09CF804E0BEF1050F0AD09CF804E0F4
:10208000BEF1060F05D09CF804C0BCF1070F00D0CC
:1020900001BED2F804C09CF804E0BEF1000F0FD0DE
:1020A0009CF804E0BEF1010F0AD09CF804E0BEF1F8
:1020B000020F05D09CF804C0BCF1030F00D001BE94
:1020C00003F1010CBCF1410F00D301BE00EB412133
:1020D000D1F888C04FF6FC7101EA0C01084400EB0E
:1020E000C300D2E9003200F5803C19681B7921F069
:1020F000604141EA43714FF48033C1501068117957
:1021000020F0604040EA8170CCF8040080BD0000FF
:102110002DE9F04381B0DAB11C46CBB1814610788D
:1021200015468846412801D301BE287880B1002792
:10213000002600BF68684146C219484633460094ED
:10214000FFF762FF28780136864207F10807F1D3CE
:1021500001B0BDE8F0830000FEE7082900D301BE0E
:102160000F2A04D822F0080CBCF1010F00D101BEE7
:10217000F0B5DDF814C0022B00D301BEBCF1200F76
:1021800000D301BE082900D301BEBCF1200F00D34B
:1021900001BE40F2181EC0F6010EDEF800E06FF03E
:1021A0000F06DEE905540429A0EB040406EAD40472
:1021B0002C446FF01F0505EBC10534BFCD0004347E
:1021C00026681F27AF40BE430CF01F07AF403743C0
:1021D0002760076801268E4003F00103B7438B4058
:1021E0003B4303609EF8853089001F580F268E40C0
:1021F00002F00F02B74302FA01F139431950F0BD62
:1022000001230028C0F25A0300F01081002A00F0D8
:102210000D81082900D301BE2DE9F0431368022B7C
:1022200000D301BE53680F2B03D843F00803092BDA
:1022300000D101BE137A202B00D301BED368042B3A
:1022400000D301BE1369022B00D301BE5369022BD8
:1022500000D301BE136A022B00D301BE536A022BC6
:1022600000D301BE936A022B00D301BED36A042BB4
:1022700000D301BE136B082B00D301BED369042B1E
:1022800000D301BE9369022B01D301BE93690125DE
:1022900040F2181C05FA01FE1025C0F6010C05EBF2
:1022A0004104DCF80050032695F88750A6402F58CB
:1022B00046EA0E0627EA060603F00103D7698B40BB
:1022C000334307F0030606FA04F423432B50137A32
:1022D000082900D301BE202B00D301BEDCF800404A
:1022E0006FF00F06D4E905450429A0EB050506EAC1
:1022F000D5052C446FF01F0505EBC10534BFCD009B
:10230000043426681F27AF4003F01F03BE43AB40D1
:10231000334323605468082900D301BE0F2C03D82F
:1023200024F00803012B00D101BEDCF800304FEA95
:10233000810893F885500F272E5807FA08F704F004
:102340000F04BE4304FA08F434432C50D46809291E
:1023500000D301BE042C4FEA410500D301BEDCF8D6
:102360000060032396F88460AB40375804F0030400
:1023700027EA0303AC40234333501469092900D3EF
:1023800001BE022C00D301BE836904F0010423EADC
:102390000E038C40234383615469082900D301BE96
:1023A000022C6FEA0E0500D301BEDCF800300829CC
:1023B00093F8867093F888903E5806EA050604F074
:1023C000010505FA01F546EA05063E5059F8007088
:1023D000D2E9086527F0FF0CD2E90A47136B06F033
:1023E000010665F3410604F0010446EA840407F09F
:1023F00003054FEA431344EAC504DBB2234408F45F
:102400007E7403FA04F343EA0C0349F800301268BF
:1024100000D301BE022A02D212B9043001E001BE8B
:1024200008300023C0F800E0BDE8F04318467047CC
:1024300040F21811C0F60101086070470F21C0F288
:10244000003101604FF040710164002140F2071239
:102450008164C0F80023C0F80413C0F8101341646D
:10246000C0F80022C0F804120165C0F8C81EC0F808
:10247000881EC0F8C81FC0F8881FC0F8081FC0F821
:10248000481F7047B0B546F201030028C0F2AA0306
:1024900000F05C81002900F059810B78032B00D3F8
:1024A00001BE4B7B023B072B00D301BE8B7B032B72
:1024B00001D8012B00D101BE91F82130022B00D3AD
:1024C00001BE91F82830022B00D301BE0B78012BFE
:1024D00004D84B68083B092B07D207E08B7F2BB150
:1024E0004B68083B13F1080F00D801BE8B68053B11
:1024F000052B00D301BE4B69B3F5807F00D301BE2D
:102500008B69B3F5807F00D301BE8B7C3BB10B7828
:1025100023B98B68092B01D18B7B03B101BED1F8A4
:1025200038C04FF29243CFF6FF731CEA030F00D07E
:1025300001BED1F840C04FF68C03CFF6FF731CEA02
:10254000030F00D001BE0B78022B03D18B7F002B31
:1025500000F0FE804B68A3F1010C4FF4001363F30D
:102560001F1C0B7FD1F808E0002B18BF4CF4803CF7
:10257000BEF1080F88BF4CF4804CC0F800C0D1F801
:1025800034E003684FF0800CC3F381332CFA03F37B
:102590009E4500D301BED1F83CE00368C3F381330C
:1025A0002CFA03F39E4500D301BED1F824C0036882
:1025B000C3F3813E802323FA0EF39C4500D301BE72
:1025C00091F800E04FF48064AEF10203B3FA83F3B4
:1025D0004FEA531C4FF0407303EA0E6303644B7FD2
:1025E00091F812E044EA8314BEF1000F91F810E074
:1025F00008BF9C014B7CBEF1000F18BF44F48074EF
:10260000002B18BF44F40074D1F82CE04FF4702371
:1026100003EB0E434D7B03F4702323436C1E8D7B31
:1026200004F00704234305F0030443EA041383641E
:1026300091F83030846C002B18BF44F080748464AF
:10264000CC7B0B7B4FF40075002C08BF4FEA4C2568
:10265000002B8B6818BF05F58075013B03F01F0345
:102660002B44C0F800330B7D8D69BEF1100F65F36C
:102670001743C0F81033D0F8003304D803F01F0319
:1026800003339E4500D201BECB7F33B10B78013BB3
:10269000B3FA83F35B091B0200E000234D7B8C7BC4
:1026A000013D05F007052B4304F0030543EA05133C
:1026B00043648B680D7B013B03F01F03002D0D78F5
:1026C00018BF03F58073012D08BF03F58033C0F8F0
:1026D000003291F83430C0F8043391F8215091F869
:1026E0002030012D91F828504FEA436308BF03F1D1
:1026F0008073012D91F8245008BF03F580332B44DB
:10270000036591F83C3040F66D35C0F804328B6BB0
:1027100003EA0503C0F8C83F0B6C40F2737503EA87
:102720000503C0F8883F4FF000037AB1536013608F
:10273000C2E902331362D361D362887F536382F8A4
:1027400030004CF6EF50C0F2AB0090631846B0BDBD
:102750004FF0007C05E710B50368D0F80842C3F3DA
:1027600081334FF0800C2CFA03F36FF35F241C1BB2
:10277000944228BF1446224600F002F8204610BDBD
:10278000D0F8003203F01F03072B08D8C2B100BFF6
:1027900011F8013B013AC0F84032F9D110E0102B9A
:1027A00007D26AB131F8023B013AC0F84032F9D1A0
:1027B00006E02AB151F8043B013AC0F84032F9D1A1
:1027C0007047042800D301BE0021C4F227010A6823
:1027D00060F309220A60704770B541F24020C4F2EC
:1027E000260001680068C1F30114012500F00F0004
:1027F00005FA04F600F095F840F21811C0F6010150
:10280000096800EB56000A68D1F89010E04089583A
:1028100055FA91F100EB5100B0FBF1F070BD40F2C0
:102820001811C0F6010109680A68D1F890108B5898
:1028300023F47F4343EA002088507047B0B5012459
:102840000546C0F24A0400F017F8022D12D846F6E9
:102850000001C0F6891188420BD841F24020C4F231
:10286000260050F82510002441F0004140F82510C2
:1028700000E002342046B0BDB0B541F2402302284A
:10288000C4F2260304D853F8202003EB800105E0AE
:1028900001BE53F8202003EB800101BE0968C2F39A
:1028A0000114012000FA04F501F00F0000F039F8DE
:1028B00000EB5500E040B0BD01220228C0F24A0200
:1028C00098BF03290AD841F24022C4F2260252F8E6
:1028D000203061F3051342F8203000221046704783
:1028E00001220228C0F24A0298BF0F290BD841F2F8
:1028F0004022C4F2260252F8203023F00F0319437D
:1029000042F82010002210467047082800D301BE6C
:1029100041F20051C4F226010A6860F302020A6023
:10292000704710B50446042800D301BE204600F0CD
:102930001EF8012C0CD0A4B941F23051C4F226018A
:102940000968B1F1FF3F0CDCBDE8104000F0BCBBF2
:1029500041F23051C4F22601D1F8D010B1F1FF3F5D
:1029600000DD10BD0020BDE8104000F0EEBD0428E1
:1029700001D301BE01BE40F20012C4F2260202EBF6
:1029800080014FF48853C95801F00701042904D18C
:1029900052F82010082060F35F11B1F5887F4FF0E6
:1029A000000012DA21B3012927D0022933D141F2E4
:1029B0000850C4F2260040F22411C069C0F601019B
:1029C0000968800701EAE070704707D040F21112F1
:1029D000914218D0B1F58A7F18BF704741F2085074
:1029E000C4F2260000684FF4004101EA104070472D
:1029F00041F20020C0F27A00704740F21410C0F695
:102A00000100006870471020C4F2270000684FF4EE
:102A1000004101EA4030704703290AD3A1F58872CA
:102A2000042A05D8012303FA02F212F0130F00D191
:102A300001BE032882BF0120C0F24A00704740F265
:102A40000012C4F22602B1F5807F31BF01F0070108
:102A500001F01F0142F82010042102EB80004FF426
:102A6000885281500020704740F21811C0F60101D1
:102A700009680A68D1F88C108B5823F07F4343EA29
:102A800000608850704700000139FF200729C0F21C
:102A9000420022D8DFE801F0041421122121211B79
:102AA00040F21111C0F601010978002918BF7047E2
:102AB00040F23C20C0F60100012101700020704767
:102AC00040F23C21C0F6010100200870704740F23E
:102AD0003C21C0F6010100220A7070472DE9F04147
:102AE00041F21C5EC4F2260EDEF8006040F2010CDA
:102AF000002EC0F24A0C4ED448F28044C0F21E04AC
:102B0000634303EB520300EE100AB3FBF2F8B8EE96
:102B1000400A00234FF40045102600BF43EA050792
:102B200007FB07F4444598BF3B46013E4FEA550575
:102B3000F4D144F6D35500F5FA74C1F26205A4FB52
:102B4000054546F6B354C0F202046343AC094C4356
:102B500003EB5403B3FBF4F39FEDCB2A01EE103AE1
:102B6000B8EE411A81EE021AB6EE002AB4EE421A0D
:102B7000F1EE10FAC0F28381B4EE421AF1EE10FACF
:102B80000CDB9FEDC43AB4EE431AF1EE10FA05DA0D
:102B90004FF4507378E00CF1020C70E19FEDBE3AF7
:102BA000B4EE431AF1EE10FA02DA4FF454736BE00C
:102BB0009FEDBA3AB4EE431AF1EE10FA02DA4FF48E
:102BC000587361E09FEDB63AB4EE431AF1EE10FA95
:102BD00002DA4FF45C7357E0B6EE083AB4EE431AEB
:102BE000F1EE10FA02DA4FF460734DE09FEDAD3A6A
:102BF000B4EE431AF1EE10FA02DA4FF4647343E0D4
:102C00009FEDA93AB4EE431AF1EE10FA02DA4FF44E
:102C1000687339E09FEDA53AB4EE431AF1EE10FA6D
:102C200002DA4FF46C732FE09FEDA13AB4EE431A31
:102C3000F1EE10FA02DA4FF4707325E0B7EE003AC5
:102C4000B4EE431AF1EE10FA02DA4FF474731BE09B
:102C50009FED983AB4EE431AF1EE10FA02DA4FF40F
:102C6000787311E09FED943AB4EE431AF1EE10FA46
:102C700002DA4FF47C7307E0B4EE431AF1EE10FA77
:102C8000C0F2FD804FF440739FED8B3AB4EE421AD0
:102C90000025F1EE10FAA8BF0125B4EE431A002674
:102CA0000024F1EE10FAB8BF012605EA0605B8BF08
:102CB0004FF0FF34012D05D0B4EE431AF1EE10FAB7
:102CC000C0F2DD80B4EE421AF1EE10FA08DB9FED9F
:102CD000722AB4EE421AF1EE10FA01DA022619E075
:102CE0009FED6F2AB4EE421AF1EE10FA01DA0326D4
:102CF00010E09FED6C2AB4EE421AF1EE10FA01DA00
:102D0000042607E09FED692AB4EE421AF1EE10FAAC
:102D10004BDA05269FED5B1A02EB820280EE010A78
:102D200001EE102A9FED592AB8EE411A21EE021A3F
:102D300002EE101AB8EE422A9FED553A20EE011A23
:102D400020EE011A21EE021A21EE021A81EE031A78
:102D5000B5EE401AF1EE10FA09DB9FED582AB4EEF9
:102D6000421AF1EE10FA02DA4FF480514FE09FED73
:102D7000542AB4EE421AF1EE10FA02DA4FF400517E
:102D800045E09FED502AB4EE421AF1EE10FA02DA55
:102D90004FF440513BE09FED4C2AB4EE421AF1EE65
:102DA00010FA17DA4FF4804131E0B7EE002AB4EEA2
:102DB000421A0726F1EE10FAB8BF0626AADBB4EED7
:102DC000431AF1EE10FAA5DBB4EE431AF1EE10FA55
:102DD00055DB9FE7B2EE062AB4EE421AF1EE10FA86
:102DE00002DA4FF4A04112E09FED382AB4EE421A05
:102DF000F1EE10FA02DA4FF4C04108E09FED342AF8
:102E0000B4EE421AF1EE10FA39DA4FF4E0419FEDD8
:102E1000311AB4EE410AF1EE10FA01DD00221AE097
:102E20009FED2D1AB4EE410AF1EE10FA02DD4FF4D7
:102E3000806210E09FED291AB4EE410AF1EE10FA1B
:102E400002DD4FF4006206E0B5EE400AF1EE10FA42
:102E500015DD4FF44062334319431143CEF8281077
:102E6000022101EA4401002D18BF0221CEF8001012
:102E700040F22411C0F601014FF0000C08606046DA
:102E8000BDE8F0810024744900007A44E6E91D435E
:102E9000286B6E4ECDCC0C3F9A99193F6666263F43
:102EA0003333333FCDCC4C3F9A99593F6666663FEA
:102EB0003333733F6666863FCDCC8C3FCDCC0C4020
:102EC000CDCC8C403333D340CDCC0C413333534144
:102ED00066667641CDCCE441D7A3BA410000844177
:102EE0002DE9F04141F21C55C4F22605296840F253
:102EF00002080029C0F24A082BD404462868002C96
:102F000040F000402860A868214660F0030018BF28
:102F1000012110F1030F11D884B1671E002600BFF4
:102F2000012000F0A5FBA868013F60F0030046F116
:102F3000000110F1030F01D80029F1D14FF000007A
:102F40002CB121B9286820F0004028604046BDE837
:102F5000F08108F10100BDE8F0810000B0B541F258
:102F60003054C4F22604A068022161F31D70A060F1
:102F7000A06800F04050B0F1005F10D06FF0620028
:102F80000546012000F074FBA06800F04050B0F14D
:102F9000005F03D0002D05F10100F1D165B10120E2
:102FA00000F066FB206820F000402060E06820F020
:102FB0000040E0600020B0BD0220C0F24A00B0BD79
:102FC00010B582B001900198B0FA80F040098DF8F8
:102FD000030041F23C50C4F22600016841F0004178
:102FE0000160FFE741F24050C4F226000168002072
:102FF0004907002905D4FFE70198002818BF0120E0
:10300000FFE7C00740B1FFE7012000F031FBFFE719
:10301000019801380190E5E741F23850C4F22600EA
:103020000168022262F31D7101609DF80300C00770
:1030300018B9FFE7019848B1FFE741F23050C4F2F8
:103040002600016841F000410160FFE7FFE700242E
:1030500000F068F828B9FFE7019C002C18BF012494
:10306000FFE7E00740B1FFE7012000F001FBFFE7C9
:10307000019801380190EAE79DF80300C00718B9EC
:10308000FFE7019848B1FFE741F23850C4F226004B
:10309000016841F04051016002E0FFF75FFFFFE788
:1030A0009DF803100120C90729B9FFE701980028FE
:1030B00018BF0120FFE7C1070220C0F24A00002923
:1030C00018BF002002B010BD70B541F23050C4F2FC
:1030D0002600056844688168C2680068B0F1FF3F57
:1030E0004FF000001DDC01F04051B1F1005F18D03D
:1030F0006FF35F34ACB12E4600206FF39F46FFF7AD
:1031000036FCE9014FF0020158BF0121A1FB042365
:103110005FEA53014FEA320CE0FB06C16046FDF75F
:10312000A2F870BD41F24050C4F22600006800F0E1
:103130000100704700B901BE10B541F2305CC4F225
:10314000260CDCF80020002A5DD40268B2F5802F3E
:1031500001D301BE0268C3796FF39F42002B18BFF1
:1031600002F18072CCF800208288B2F5005F00D3B3
:1031700001BE0289B2F5807F01D301BE0289838836
:103180006FF35F3362F31743CCF80430827A102A6E
:1031900000D301BEC27A102A00D301BE8289B2F5E3
:1031A000005F01D301BE8289817AC37A01F00F01E9
:1031B00063F307114FF60073847BC0F21F0390F88E
:1031C00006E003EA0222114404F0030241EA02711C
:1031D000BEF1050FCCF8081000D301BE018AB1F58D
:1031E000007F00D301BEDCF80C10827962F30A2163
:1031F000CCF80C10DCF80C10008A60F318410020A9
:10320000CCF80C1010BD0320C0F24A0010BD41F2F2
:1032100008510228C4F2260105D228B9086840F0F6
:1032200000400860704701BE486840F000404860B8
:10323000704700B1704741F20850C4F2260002689E
:1032400022F0010211440160704780B584460120DC
:103250000329C0F24A0025D809B9202A07D3012939
:1032600001D1102A03D303291CD1072A1AD840F20E
:103270001813C0F60103D3F800E09EF8463063450A
:1032800098BF80BD9EF879009EF8783001FA00F072
:1032900003EA0201DEF80820084302EB8C01C1F8C2
:1032A000000C002080BD01200329C0F24A001ED876
:1032B00009B9202A08D3012901D1102A04D30329EE
:1032C00015D1072A88BF704740F21810C0F60100D8
:1032D000006890F879C090F8783001FA0CF11A4043
:1032E0001143806841F08041C0F80014002070470D
:1032F00001200329C0F24A002FD809B9202A08D397
:10330000012901D1102A04D3032926D1072A88BF15
:10331000704710B540F21810C0F601000068032392
:1033200090F87BC090F87AE003FA0CFC90F87830C3
:1033300090F879401A4003FA0EFE42EA0C02A140CE
:1033400042EA0E021143806841F00041C0F80014C7
:10335000D0F800040020BDE81040704710B50120EF
:103360000129C0F24A0005D019B91F2A98BFFF2BC6
:1033700016D910BD0F2AFCD80021B1EB134F18BF8E
:1033800010BD40F21810C0F6010001684FF6007C35
:10339000FF2401F17E0EC0F2FF0CCFF600740AE0AC
:1033A00040F21810C0F6010001684FF47F4C01F1A3
:1033B0007C0E6FF47F448968BEF800000CEA03239A
:1033C000084450F822102140194340F822100020F0
:1033D00010BDB0B501200329C0F24A0026D1072A4A
:1033E00024D80021B1EB136F20D1DDF810C0BCF15F
:1033F0001F0F88BFB0BD40F21810C0F60100006872
:10340000D0F808E0B0F882500EEB050151F82240E8
:10341000E4B244EA032341F822308068284450F89B
:1034200022106CF3C70140F822100020B0BDFFF756
:103430000CBF0A4601460020FFF735BF0A46014689
:103440000020FFF755BF13460A4601460020FFF74C
:1034500085BF80B582B09C4613460A4601460020CF
:10346000CDF800C0FFF7B5FF02B080BDB0B504468F
:1034700000B101BE41F20065C4F2260555F82400F2
:10348000022161F31D7045F82400012000F0F0F8DE
:1034900055F8240020F00041002045F82410B0BD6C
:1034A0002DE9F04381B00446894600B101BE41F2E6
:1034B0000068C4F2260858F8240008F1400740F0DC
:1034C000004048F8240057F82410B9F1000F48468E
:1034D00018BF0120C90711D1B9F1000F0ED0A9F111
:1034E00001060025012000F0C3F857F82410013E22
:1034F00045F10000C90701D10028F3D158F8241084
:10350000B9F1000F10D078B9022060F31D710120CD
:1035100048F8241000F0ACF858F8240020F00041DE
:103520000220C0F24A0009E001F04050B0F1005F13
:1035300007D158F8240040F04051002048F82410EA
:1035400000E0002001B0BDE8F08370B541F20062F8
:10355000C4F2260238B101BE01BE52F8204002EB8F
:10356000800101BE03E052F8204002EB80010968AF
:10357000B1F1FF3F4FF000011BDC04F04052B2F10B
:10358000005F16D0C4F304259DB1C4F3044686B190
:103590000130FFF7ECF9A5FB06235FEA530104F0C5
:1035A0007F064FEA320CE0FB06C16046FCF75BFE8B
:1035B0000146084670BD08B101BE01BEF0B541F23A
:1035C000006CC4F2260C5CF82020002A40F20102B4
:1035D000C0F24A0233D48B78A3F1110616F10F0F13
:1035E0002ED391F801E0AEF1130414F1120F27D39A
:1035F000CC780D781327002C4FF0380608BF16271B
:1036000008BF7026AF421BD8AE4219D309790229F0
:103610000DD04FEA0E2242EA034241F67F732A445C
:10362000C0F21F031A4042EAC4624CF820205CF842
:10363000202061F31D724CF82020002200E00232AD
:103640001046F0BD013800D001BE80B5FFF70EFF77
:10365000002080BD013808BFFFF722BF01BEFFF781
:103660001FBF013808BFFFF7A6BF01BEFFF7A3BF0A
:1036700040F68801C0F6010109784843FCF7E4BD33
:1036800080B540F6B40190E80C50C0F6010181E825
:103690000C50D0E90423C1E90423D0E90623C1E991
:1036A00006234EF62452CEF2000253680B62936852
:1036B0004B6213688B621369CB6252690A63F1EE45
:1036C000102A12F0900F21D0026A4A63426A8A637C
:1036D000826ACA63C26A0A64026B4A64426B8A6481
:1036E000826BCA64C26B0A65026C4A65426C8A6569
:1036F000826CCA65C26C0A66026D4A66426D8A6651
:10370000826DCA66C26D0A67006E4867BDE8804078
:10371000AFF30080FEE77047B0B540F218124FF0EB
:10372000640CC0F60102002818BF4FF0190C156890
:103730008C45D5F800E0B5F8B0404FF000035EF8D6
:1037400004C038BF01232CF003021A444EF80420B1
:10375000D5F800C05CF8042022F440724CF8042034
:10376000D5F800C0B5F8B2405CF8042022F003029E
:103770001A444CF804202A68135923F44073135157
:1037800038B10220222938BF0120112938BF00207A
:103790001DE095F85900884212D295F85A008842E7
:1037A00010D295F85B0088420ED295F85C008842F2
:1037B0000CD295F85D2004208A4238BF052006E02F
:1037C000002004E0012002E0022000E003200021AC
:1037D000C4F224010A6822F00F0210440860B0BD50
:1037E000B0B578B3C16869B3016859B390F804E023
:1037F00040F2282CC0F6010C5CF82E1021B34A6967
:103800000B1A18BF01237AB181420DD0047E00BF8C
:10381000137EA34298BF11465569131A18BF01239E
:1038200015B182422A46F3D163B10A6992B9027E88
:103830000B7E9A420ED20022C0E9042108614CF8A6
:103840002E000DE00020B0BD00214CF82E00C0E994
:10385000041105E04A690161426102B110614861E9
:103860000120B0BD80B541F20400C4F22600016819
:1038700021F0805101600620FFF7FAFE002080BD94
:1038800070474EF68851EFF3108072B6CEF2000109
:103890000A6842F470020A60BFF34F8FBFF36F8F64
:1038A00080F31088704780B540F21810C0F6010010
:1038B00000680068D0F80011B1F1FF3F0ADCD0F8D1
:1038C000000140F27C216FF39F20C0F6010151F806
:1038D000200080474EF28020CEF2000001210160DE
:1038E00080BD80B540F21810C0F601000068006885
:1038F000D0F80411B1F1FF3F0ADCD0F8040140F226
:103900007C216FF39F20C0F6010151F82000804711
:103910004EF28020CEF200000221016080BD80B511
:1039200040F21810C0F6010000680068D0F80811D5
:10393000B1F1FF3F0ADCD0F8080140F27C216FF3BF
:103940009F20C0F6010151F8200080474EF28020F0
:10395000CEF200000421016080BD80B540F2181055
:10396000C0F6010000680068D0F80C11B1F1FF3F0B
:103970000ADCD0F80C0140F27C216FF39F20C0F6E6
:10398000010151F8200080474EF28020CEF2000065
:103990000821016080BD80B540F21810C0F601001A
:1039A00000680068D0F81011B1F1FF3F0ADCD0F8D0
:1039B000100140F27C216FF39F20C0F6010151F805
:1039C000200080474EF28020CEF2000010210160DE
:1039D00080BD80B540F21810C0F601000068006894
:1039E000D0F81411B1F1FF3F0ADCD0F8140140F215
:1039F0007C216FF39F20C0F6010151F82000804721
:103A00004EF28020CEF200002021016080BD80B502
:103A100040F21810C0F6010000680068D0F81811D4
:103A2000B1F1FF3F0ADCD0F8180140F27C216FF3BE
:103A30009F20C0F6010151F8200080474EF28020FF
:103A4000CEF200004021016080BD80B540F2181028
:103A5000C0F6010000680068D0F81C11B1F1FF3F0A
:103A60000ADCD0F81C0140F27C216FF39F20C0F6E5
:103A7000010151F8200080474EF28020CEF2000074
:103A80008021016080BD10B50020FEF7F5FE40F6F4
:103A90007C01C0F601010860FEF79EFE40F680043E
:103AA000C0F6010420600020FEF7E6FE216844F223
:103AB0003F22C0F20F024DF683630A44C4F21B3367
:103AC000A2FB032344F6D35201F2E731C1F26202B2
:103AD000A1FB021240F68401C0F60101086040F625
:103AE0008801980CC0F60101087040F68C0190091D
:103AF000C0F6010108600020FEF7BEFE40F690010E
:103B0000C0F60101086010BD80B544F62C50C1F22A
:103B10000400FEF78DFCFFF7B3FEFFF7B4FF4FF68E
:103B2000042140F27C2042F25912CFF6FF71C0F618
:103B30000100C1F2040200BF43180431C3F8FC25A0
:103B4000FAD140F67801C0F60101086080BD70B579
:103B50009AB005AC0546002620464021CDE91866FE
:103B60001696FCF75CFC286820F060411891C10FA4
:103B7000C0F380708DF865108DF8640028790928ED
:103B8000014617D30D2801D2092113E0112801D2D3
:103B90000A210FE0152801D20B210BE0192801D2D0
:103BA0000C2107E0212801D20D2103E00F2131284B
:103BB00038BF0E211591697911F0050218BF012255
:103BC00001F001018DF859208DF858108DF85A60D8
:103BD000179678B103304FF0FF3202EB90000F28B8
:103BE00028BF0F20042205F1080102EB800205A87E
:103BF000FCF7E3FB18A840F21015029015A8C0F6D8
:103C0000010503902B7840F2FC060020C0F6010667
:103C1000C4F2520002AA002104940096FEF7D1F9E2
:103C200044F68C422978C1F2040292F83520013121
:103C3000B1FBF2F3002803FB121118BF4FF0FF3065
:103C400029701AB070BD80B500F011F800F01AF8B4
:103C500040F28000C0F60100FFF7C2FD0021C0F273
:103C60000261002818BF0021084680BDFEE780B52C
:103C700000F08BF800F00FF800F038F8BDE8804055
:103C800000F041B880B500F061FA00F060FABDE8DC
:103C9000804000F05DBA80B503200021FFF7C9FB2A
:103CA0000320002155221A23FFF7D3FB0320002114
:103CB000FFF7C4FB00200021FFF7BBFB0020002121
:103CC0000022FFF7C0FB00200021FFF7B7FB002018
:103CD0000321FFF7AEFB002003210022FFF7B3FB17
:103CE00000200321BDE88040FFF7A8BB80B5062077
:103CF00000210022FFF7A9FA1E2003210022BDE8BF
:103D00008040FFF7A2BAB0B5002444F6F052C4F2E6
:103D10003104C1F2040220460021FEF771FA44F694
:103D20002462C1F2040220460121FEF769FA04F57B
:103D3000386544F65862C1F2040228460421FEF7B1
:103D40005FFA44F68C62C1F2040228460521FEF7B0
:103D500057FA44F6C062C1F2040228460621FEF773
:103D60004FFA04F5807444F6F462C1F2040220466E
:103D70000021FEF745FA44F62872C1F204022046FB
:103D80000121BDE8B040FEF73BBA70B582B0012515
:103D9000002000210322C0F24A050026FFF747FB5E
:103DA0000020B421FFF7B8FCFFF75CFDFFF7D6F861
:103DB0000020FEF734FD0020FFF729FA0020012142
:103DC000FFF737FA0120FFF722FA01200121FFF760
:103DD00030FA40F68024C4F2310420460221002249
:103DE00000230096FEF7B9F92046032100220023A4
:103DF0000096FEF7B2F942F20040C0F2F400122140
:103E000032226423FEF76AFEA84202D10120FFF7A6
:103E10002DFF40F6B830FFF763F8691C884202D1E5
:103E20000120FFF723FF0020FEF76FFD0020FEF7C3
:103E3000F6FC0120FEF718FE01200021FEF7ECFD44
:103E400002200021FEF7E8FD03200021FEF7E4FD3B
:103E50000120FFF7F7FB44F6B471C1F20401012021
:103E6000FFF7FFFB10B10320FFF700FF012042F234
:103E70001071FFF7EFFB10B10320FFF7F7FE0120F1
:103E80000021FEF72DFD01200021FEF715FD012088
:103E9000FEF7D4FC02200021FEF722FD02200021C3
:103EA000FEF70AFD0220FEF7C9FC0120FEF789FC9F
:103EB00000206421FFF730FC00200021FEF7ACFD5C
:103EC00044F6A070C1F20400FFF734F910B10420E9
:103ED000FFF7CCFE40F64050C0F20300FFF770F849
:103EE00010B10420FFF7C2FE00200121FEF7F8FC0C
:103EF00000200021FEF7E0FC02B0BDE87040FFF7B3
:103F0000C2BD0000B0B0FFF79EFE00B101BE0025AB
:103F1000C4F2600562B600242846C4F25204FEF7DB
:103F20008DFA44F65C7140F24022C1F20401C0F601
:103F300001022846FEF7A6FA286840F2FC0840F085
:103F4000004044F68C42C0F601082860C1F2040229
:103F5000204600214346FDF751FC10B13FA000F080
:103F6000C3F843A000F0C0F800F0F4F82EA81690B3
:103F700029A8179019A8189004A8083016AE58A7B9
:103F8000039000BFD4F8A4004006FBD020460021D7
:103F9000012200230096CDF80480FDF7D3FA002813
:103FA000F0D1DDE91601056842790079012A08BFE0
:103FB00045F00045D1F80490012832A008BF45F033
:103FC000804510F8096091F809B091F808A0B9F19E
:103FD000000F11D0F01C8208012A4FF0010218993D
:103FE00088BF8208501E0F2828BF0F20042202EB32
:103FF00080020398FCF7E1F944F6CD73C1F20403A3
:1040000024A0BBF1010F08BF034623A0BAF1000FA3
:1040100018BF034622A02946324600F065F8680022
:1040200029A016D42CA000F05FF8B9F1000F0CD035
:10403000012E4FF0010098BF0646039D15F8011BA5
:10404000384600F051F8013EF8D144F6CC70C1F288
:10405000040000F049F816AE94E700BF43414E4615
:104060004420496E6974204661696C65640D0A00DC
:10407000435954324239352043414E2078310D0A9C
:10408000000000000001020304050607080C1014DC
:10409000182030404644200046444252530000005D
:1040A00072782063616E5F69643A20307825582CFD
:1040B000206C656E3A2025642C20666C6167733A2B
:1040C000202573200000000072656D6F7465206606
:1040D00072616D650A000000646174613A2000003D
:1040E000253032582000000083B010B581B08446DE
:1040F00003A80EC040F2281040F2082403AAC0F61C
:1041000001006146C4F260040092FCF725F900BF8B
:10411000206821686FF35F200904B0EBE17FF7D1DD
:1041200040F22810C0F60100FCF728F9024600B959
:1041300001BE40F22811A4F50270C0F60101FEF79D
:104140000AFB01B0BDE8104003B0704770477047EC
:1041500070470000F0B5DBB044F6243101ACC1F289
:10416000040120464FF4B472FCF727F9002509A694
:1041700010A700BF6019FFF7EAFC61590028384614
:1041800008BF3046FFF7B0FF4835B5F5B47FF1D131
:104190005BB0F0BD53656E74206672616D6520770B
:1041A0006974682063616E5F69643A2030782558CD
:1041B0000A0000004661696C656420746F207365B5
:1041C0006E64206672616D65207769746820636132
:1041D0006E5F69643A20307825580A005FEA400C27
:1041E00008BF91F0000F4FEA8C234FEAC12243EA47
:1041F00051514FEA1C5018BF00F5F0404FEA300013
:1042000018BF41F000415FEA6C5C00F02980BCF10E
:10421000FF3F08BF40F080407047130C06BF1204F8
:104220004FF0100C4FF0000C130E04BF12020CF1F3
:10423000080C130F04BF12010CF1040C930F04BF00
:1042400092000CF1020CD30F04BF52000CF1010CD0
:1042500011464FF00002A0F11F00A0EB0C007047C8
:1042600011F0004F08BF704731F000413FF4D5AF67
:104270000B0C06BF09044FF0100C4FF0000C0B0E96
:1042800004BF09020CF1080C0B0F04BF09010CF16B
:10429000040C8B0F04BF89000CF1020CCB0F04BF80
:1042A00049000CF1010CCCF1200322FA03F341EA9E
:1042B000030102FA0CF2A0EB0C0000F101007047C0
:1042C00023F07F4720F07F4C80EA030000F000409D
:1042D000ACEB070303F57C5303F1FF032DE98049A1
:1042E00009B44FEA144324EA03484FEA154B25EA80
:1042F0000B4E0FF2042606EB13273E7803FB0667EE
:10430000C7F5000707FB06F64FEAD64606F1020698
:104310004FEA543707FB066CCCF1005C4FEA1C47B0
:104320002CEA074C0CFB06F507FB06F404EB1546DC
:104330004FEA961649085FEA320234BF00204FF078
:1043400000404FEAD13706FB07FC4FEA1C4C0CFB40
:104350000BF7D21B03FB0CF761EB07010CFB0EF70D
:10436000B0EB074072EB17420CFB08F734BFA2EB2F
:104370000742B2EB074261EB17414FEA0C444FEAA8
:10438000910706FB07FC4FEA1C4C0CFB0BF7B0EB4C
:10439000C74072EB573203FB0CF734BFA2EBC742A6
:1043A000B2EBC74261EB57310CFB0EF7B0EBC70025
:1043B00072EB57720CFB08F734BFA2EBC702B2EBEB
:1043C000C70261EB57714FEA816141EA92114FEAEE
:1043D000826242EA90124FEA806004EBCC04039FB1
:1043E0004FEAD13706FB07FC4FEA1C4C0CFB0BF7DE
:1043F000D21B03FB0CF761EB07010CFB0EF7B0EBD4
:10440000074072EB17420CFB08F734BFA2EB0742E0
:10441000B2EB074261EB17414FEA8C5504EB9C2449
:104420004FEA910706FB07FC4FEA1C4C0CFB0BF70D
:10443000B0EBC74072EB573203FB0CF734BFA2EB73
:10444000C742B2EBC74261EB57310CFB0EF7B0EB42
:10445000C70072EB57720CFB08F734BFA2EBC70220
:10446000B2EBC70261EB57714FEA816141EA9211E9
:104470004FEA826242EA90124FEA806015EB4C25C7
:1044800044F100044FEAD13706FB07FC4FEA1C4C0D
:104490000CFB0BF7D21B03FB0CF761EB07010CFBCA
:1044A0000EF7B0EB074072EB17420CFB08F734BF76
:1044B000A2EB0742B2EB074261EB17414FEA8131B1
:1044C00041EA92414FEA823242EA90424FEA80301A
:1044D0004FEA0C7615EB1C1544F1000448EA03433F
:1044E0004EEA0B484FF0000EB2EB080C71EB0307DD
:1044F00024BF624639464EEB0E0E4FF0000B0018FB
:10450000524149414BEB0B0BB2EB080C71EB03072B
:104510007BF1000B24BF624639464EEB0E0E4FF086
:10452000000B0018524149414BEB0B0BB2EB080C4E
:1045300071EB03077BF1000B24BF624639464EEB5B
:104540000E0E51EA020718BF46F0010616EB0E7672
:1045500055F1000254F1000103D5BDE88901BDE821
:104560000088BDE88901BDE80048B619524141EB19
:104570000101A3F10103704780807F7E7D7C7B7AFF
:104580007978777676757473727171706F6E6E6DFF
:104590006C6C6B6A6A6968686766666564646363A5
:1045A00062616160605F5F5E5E5D5D5C5C5B5B5A2B
:1045B0005A59595858575756565555555454535398
:1045C00052525251515050504F4F4F4E4E4D4D4DF3
:1045D0004C4C4C4B4B4B4A4A4A494949484848473E
:1045E000474747464646454545444444444343437C
:1045F00043424242424141419C46002B30D4770025
:104600002BD04FEA37071CB503B44FF010004FF022
:104610001001BAF1000F06D0BCF1000FDCBF40F072
:10462000080040F008014FF000000FBCBDE810404A
:104630000BF1010BBBF1010F08BF5FEA170722BFA7
:1046400012F1010211F101014FF0004143F10003A9
:1046500000F0004043EA00007047F9D35708D0E764
:1046600046EA06464FEA164613F1400F1FDD13F1E6
:10467000200FDFBF16430A46002120335B42BED025
:10468000C3F1200746EA06464FEA164602FA07F744
:1046900046EA070622FA03F2C3F1200701FA07F7F8
:1046A00042EA070221FA03F14FF00003A7E746EAC6
:1046B000020646EA06464FEA164646EA0106BCBF2F
:1046C00046EA0646360C4FF000034FF000024FF06A
:1046D000000194E72DE9804C70B49A46934691E826
:1046E000380007C831EA400C48BF34EA430C03D510
:1046F000FFF7E6FDFFF780FFF0BCBDE8008C2DE979
:10470000804C70B49A46934691E8380007C810F080
:10471000804F08BF13F0804F03D100F005F8FFF77A
:104720006BFFF0BCBDE8008C20F07F4723F07F4C8E
:1047300080EA030000F0004007EB0C03A3F57C5374
:10474000A3F1FE0392F0000F00F0B38095F0000F8C
:1047500000F077802DE901494FEA114021EA004835
:104760004FEA144624EA064700FB06FC08FB06F65F
:1047700007FB08F818EB06484CEB164C00FB07F754
:1047800018EB07484CEB17404FEA124B22EA0B4E4E
:104790004FEA154625EA06470BFB06FC0EFB06F61C
:1047A00007FB0EFE1EEB064E4CEB164C0BFB07F701
:1047B0001EEB074E4CEB174B18EB0B0840F10000BB
:1047C00018EB0E0B58EB000840F100008F1A4FF069
:1047D00000014FF000063CBFC943661B14BFB5EB98
:1047E000040C00213CBFC943F61B4FEA174427EADB
:1047F00004454FEA1C472CEA074C04FB076205FB03
:1048000007F70CFB05F616EB074642EB174204FBD5
:104810000CFC16EB0C4642EB1C421BEB060658EB5D
:10482000020241414EEA8E0E46EA9E0601D5BDE8DF
:104830000189B619524141EB0101A3F10103BDE821
:1048400001894FEA144524EA05464FEA114721EA57
:10485000074C05FB07F406FB07F70CFB06F111EB11
:10486000074144EB174405FB0CFC11EB0C4144EBF6
:104870001C444FEA124722EA074C05FB07F206FBED
:1048800007F70CFB06F616EB074642EB174205FB53
:104890000CFC16EB0C4642EB1C456A1854F1000167
:1048A00048BF7047B619524141EB0101A3F1010322
:1048B000704795F0000F37D04FEA114221EA0246C7
:1048C0004FEA144724EA074C02FB07F106FB07F7FF
:1048D0000CFB06F414EB074441EB174102FB0CFC04
:1048E00014EB0C4441EB1C414FEA154725EA074CF9
:1048F00002FB07F506FB07F70CFB06F616EB07466F
:1049000045EB174502FB0CFC16EB0C4645EB1C4235
:10491000121951F1000148BF7047B619524141EBDD
:104920000101A3F1010370474FEA144524EA05464B
:104930004FEA114721EA074C05FB07F106FB07F791
:104940000CFB06F212EB074241EB174105FB0CFC96
:1049500012EB0C4251EB1C414FF0000648BF704770
:10496000921841EB0101A3F10103704703B40198D0
:104970004100009850EAC12018BF04204A0D18BF1A
:1049800040F0010040F2FF72B2EB515F08BF40F00F
:104990000200012808BF052002B0704730380A28FD
:1049A00001D20120704700207047000010B5002997
:1049B0000AD00878002807D005487844FCF760FD45
:1049C000002801D0002010BD0248784410BD00002E
:1049D000360600002E06000010B500290AD008781F
:1049E000002807D005487844FCF74AFD002801D08C
:1049F000002010BD0248784410BD000026060000CB
:104A00001E060000F1EE100A4FF6FF71C0F2C03131
:104A100020EA010040F04070E1EE100A7047FCF718
:104A200063B9FCF797BA0000000000000000000026
:104A300030313233343536373839414243444546D4
:104A400040305800303132333435363738396162CE
:104A500063646566403078000400000800000000D0
:104A600000000002000100001030313233343536CE
:104A7000373839616263646566787000303132338B
:104A800034353637383941424344454658500000A2
:104A900002400000000000A00000000005400000EF
:104AA000000000C8000000000C4000000000409C16
:104AB00000000000194000000020BCBE0000000003
:104AC00034400000BFC91B8E00000004B540000048
:104AD000504BCFD06607E2CF010000006C410000D0
:104AE0003E8251AADFEEA73401000000D942000047
:104AF000DCB5A0E23A301F97FFFFFFFFB44500008E
:104B0000FD25A0C8E9A3C14FFFFFFFFFFF3F000045
:104B10000000008000000000FF3F00000000008057
:104B20000000000020010000080000000102030452
:104B3000050607080000000000000000000000005B
:104B40000000000000000000000000000000000065
:104B50000000000000000000000000000000000055
:104B6000000000000000000000000000F0FFFF9FB8
:104B70000800000001020304050607080000000009
:104B80000000000000000000000000000000000025
:104B90000000000000000000000000000000000015
:104BA0000000000000000000000000000000000005
:104BB000000000002101004008000000000000008B
:104BC00000000000000000000000000000000000E5
