:020000041000EA
:10000000000001081B0100100D0000007D01001020
:1000100000000000000000000000000000000000E0
:100020000000000000000000000000007901001046
:1000300000000000000000007901001079010010AC
:10004000B5010010F10100102D020010690200102E
:10005000A5020010E10200101D030010590300105A
:100060007901001079010010790100107901001068
:100070007901001079010010790100107901001058
:100080000448054B10B5834203D0044B002B00D02D
:10009000984710BD88080008880800080000000084
:1000A00006480749091A8B10C90FC91810B549101D
:1000B00003D0044B002B00D0984710BD88080008DF
:1000C000880800080000000010B5074C2378002BBA
:1000D00009D1FFF7D5FF054B002B02D0044800E003
:1000E00000BF0123237010BDC00E000800000000F7
:1000F000CC0E0010054B10B5002B03D00449054869
:1001000000E000BFFFF7CCFF10BDC04600000000BC
:10011000C40E0008CC0E00107047FFF7FDFF72B64A
:100120000F4C104DAC4209DA21686268A368043BA9
:1001300002DBC858D050FAE70C34F3E70A490B4AFF
:100140000020521A02DD043A8850FCDC08480949B4
:100150000860BFF34F8F00F047F900F01DF8FEE78D
:10016000D80E0010F00E0010C00E0008140F00088A
:100170000008000808ED00E0FEE7FEE700B50420F7
:100180007146084202D0EFF3098002E0EFF30880E5
:10019000043000F08FFBFEE710B562B6034800F0B4
:1001A0008FF9002000F0FCFBFBE7C04600000410C4
:1001B000FEE700000B4B10B51B681A6888235B0133
:1001C000D158002907DAD358074A9B051B0D9B58C5
:1001D000002B00D09847C0230121044A5B00D15076
:1001E00010BDC046DC0E0008A408000800E100E0D5
:1001F0000A4B10B51B681A68094BD158002907DA59
:10020000D358084A9B051B0D9B58002B00D09847DC
:10021000C0230221044A5B00D15010BDDC0E00084F
:1002200004110000A408000800E100E00A4B10B52A
:100230001B681A68094BD158002907DAD358084AB5
:100240009B051B0D9B58002B00D09847C023042111
:10025000044A5B00D15010BDDC0E000808110000FC
:10026000A408000800E100E00A4B10B51B681A68FA
:10027000094BD158002907DAD358084A9B051B0DB2
:100280009B58002B00D09847C0230821044A5B00EC
:10029000D15010BDDC0E00080C110000A4080008AD
:1002A00000E100E00A4B10B51B681A68094BD158F1
:1002B000002907DAD358084A9B051B0D9B58002BD1
:1002C00000D09847C0231021044A5B00D15010BDD4
:1002D000DC0E000810110000A408000800E100E096
:1002E0000A4B10B51B681A68094BD158002907DA68
:1002F000D358084A9B051B0D9B58002B00D09847EC
:10030000C0232021044A5B00D15010BDDC0E000840
:1003100014110000A408000800E100E00A4B10B529
:100320001B681A68094BD158002907DAD358084AC4
:100330009B051B0D9B58002B00D09847C0234021E4
:10034000044A5B00D15010BDDC0E000818110000FB
:10035000A408000800E100E00A4B10B51B681A6809
:10036000094BD158002907DAD358084A9B051B0DC1
:100370009B58002B00D09847C0238021044A5B0083
:10038000D15010BDDC0E00081C110000A4080008AC
:1003900000E100E07047000070B5002000F058FA5E
:1003A0000D4C206000F079FA6060002000F050FAF7
:1003B00065680A4BA0600A49E81800F043FBFA217F
:1003C000084B20738900E81800F03CFB20610020F6
:1003D00000F03EFA606170BD880800083F420F00DF
:1003E00040420F00E703000098211E4B49015A5874
:1003F0001D4810B502405A5080315A58FF2402401F
:100400005A504021194B0A681A64442212685A64EF
:10041000C022174B92009858A04301439950995815
:1004200014480140995001221A6092181A6012482B
:1004300000F07EF800F0F8FA104A13685B005B08E1
:100440001360FFF7A7FFFFF7A7FF802100230C4AE7
:100450000C4CFF319800013314508B42FAD10A4BF7
:100460009A6110BD00002040FFFFF7FF0008000860
:1004700000E100E0FF00FFFF0C0E001000C026406E
:10048000A4080008B10100108808000810B59024E5
:1004900000F047F8074B64011959074A1140074A11
:1004A0000A431A51102259681142FCD000F03DF85D
:1004B00010BDC04600002040FCFF00000100FA050E
:1004C000F8B590260E4C7601070000F02AF8A359E3
:1004D0000500DB439B0701D1FFF7D8FF80239B007A
:1004E000E750A259074B1A40074B1343A35110235F
:1004F00062681A42FCD0280000F017F8F8BDC04628
:1005000000002040FCFF00000300FA05000000008E
:100510000230800803D001300238FCD1C046C0460A
:100520007047EFF3108072B6704780F31088704701
:10053000014B18607047C046DC0E0008054B1B6875
:100540001A0088321B6812689B181868000AC0B22B
:100550007047C046DC0E0008044B1B681A00883246
:100560001B6812689B181868000E7047DC0E0008A4
:100570009223DB00C018034B8000C0588006800F18
:100580007047C04600002640024B18694007C00F64
:100590007047C04600002740044B054AD05803234B
:1005A0001840984200D102207047C0462415000030
:1005B0000000264010B5FFF7EFFF0023022801D10D
:1005C000014B1B68180010BDE40E0008084A8300A8
:1005D000991890225201885807221040042806D109
:1005E000044AFC309B181F225B6813401843704775
:1005F00000002640FC00264010B5FFF7E7FF8823E7
:100600005B0098421FD00BD8012812D0022813D0CB
:10061000431E98410E4B404218400E4BC01810BD6F
:100620001223FF3398420AD0033398420BD00020A4
:10063000F5E7094B1868F2E7FFF7BCFFEFE7FFF7B4
:10064000A3FFC003EBE7054A054BD058C00FF8E7FE
:1006500000EE85FF00127A00E00E00080000264040
:1006600008150000144A154B10B5D3580F249903F0
:10067000DB01DB0F890BC371114B0160D358D90427
:100680001B0CDBB203810F4BC90CD35881801900BE
:100690002140817219092140C172D9029B009B0F30
:1006A0008373094BC90CD35881815A05DB01520F62
:1006B000DB0D8271038210BD000026403015000062
:1006C00034150000381500003C150000F0B5002678
:1006D00089B003AD14220021280000F083FB28001C
:1006E000FFF7C0FF164A174BD358B34224DAAB7B4F
:1006F000022B21D0AC88B4421ED03000ED79039F8C
:10070000FFF77AFF2200330031000190681C00F0EF
:1007100045FA0C00050033003A003100019800F062
:100720003DFAE6076A0832436308801859412A00F7
:10073000230000F013FA0600300009B0F0BDC046F7
:10074000000026403015000070B50C00050018228E
:100750000021200000F046FBB0237F221F21DB0098
:10076000ED18094BAD00EB5800201A4022701A0A10
:100770000A4062701A0C0A40A2701A01CA409B001B
:100780009B0FE270237170BD00002640F0B504009D
:1007900089B01822002102A800F024FB200002A941
:1007A000FFF7D2FFB0230026DB00194AE3189B00B5
:1007B0009B58B34229DA02AB1B79022B25D002AB3E
:1007C0005D78B54221D09F78B7421ED01B78601C5F
:1007D0000093FFF711FF33003A0031000190280029
:1007E00000F0DCF90C00050033003100009A01989C
:1007F00000F0D4F9E6076A083243630880185941CB
:100800002A00230000F0AAF90600300009B0F0BD6C
:100810000000264010B50400FFF7EEFE002C07D1C3
:10082000094A0A4BD358002B01DAFFF74FFF10BDDE
:10083000012CFCD1B023044A5B01D358002BF6DA1B
:100840000020FFF7A3FFF2E700002640301500006C
:1008500070B50500FFF78CFE9223DB00ED18074B07
:10086000AD000400E8580F231840FFF7D3FF012321
:10087000A3405B081818E04070BDC0460000264049
:1008800010B50020FFF7E4FF0400FFF765FE411CF0
:100890004808001900F0D6F810BD10B5FFF7F0FFBA
:1008A0000400FFF74BFE411C4808001900F0CAF88D
:1008B00010BDFEE702680A4B10B51A6042685A6024
:1008C00082689A60C268DA6002691A6142695A6194
:1008D00082699A61C269DA61FFF7EBFF10BDC04619
:1008E000A00E0008254B73B586000D00F4580429AE
:1008F00001D0012925D100200EE0A3682B420AD1A6
:10090000E36829001A685B686846019300922368CF
:1009100098471B4B1C606469002C0AD0194B984205
:10092000EBD1012DE9D1164A174B126815489A519F
:1009300076BD012DFCD1134B9842F4D0124B9C5143
:10094000F6E7022914D026006469002CFBD10020B0
:10095000002EEDD0B3682B4208D1F36829001A6845
:100960005B68684601930092336898473669EFE701
:10097000034B1B68181EDBD01E69E8E7000F000858
:10098000FC0E0008FF004200E80E00088023034A26
:100990005B01D0588006C00F7047C046000026405B
:1009A00070B50600FFF7F2FF002834D01B4D6B68CE
:1009B000002B15D1FFF7B5FD6B680400002B1DD18E
:1009C0000423174A11690B431361012E1BD030BF5A
:1009D0002000FFF7AAFD6C68002C16D1200070BD26
:1009E00001210800FFF77EFF041EE3D06B68002B97
:1009F000F4D002210120FFF775FFEFE70421012069
:100A0000FFF770FFDCE720BFE2E708210120FFF7D6
:100A100069FF0024E2E7034CE0E7C046000F00084E
:100A200000ED00E0FF0042000322054B196C9143EA
:100A3000023A0A431A640222196C0A431A64704784
:100A400000C02640002243088B4274D303098B4226
:100A50005FD3030A8B4244D3030B8B4228D3030C8E
:100A60008B420DD3FF22090212BA030C8B4202D330
:100A70001212090265D0030B8B4219D300E0090A58
:100A8000C30B8B4201D3CB03C01A5241830B8B4261
:100A900001D38B03C01A5241430B8B4201D34B034A
:100AA000C01A5241030B8B4201D30B03C01A5241AF
:100AB000C30A8B4201D3CB02C01A5241830A8B4234
:100AC00001D38B02C01A5241430A8B4201D34B021D
:100AD000C01A5241030A8B4201D30B02C01A524181
:100AE000CDD2C3098B4201D3CB01C01A5241830935
:100AF0008B4201D38B01C01A524143098B4201D36F
:100B00004B01C01A524103098B4201D30B01C01A99
:100B10005241C3088B4201D3CB00C01A5241830813
:100B20008B4201D38B00C01A524143088B4201D340
:100B30004B00C01A5241411A00D2014652411046A0
:100B40007047FFE701B5002000F006F802BDC0467F
:100B50000029F7D076E770477047C046002B11D1C7
:100B6000002A0FD1002900D1002802D00021C9435A
:100B7000080007B4024802A14018029003BDC04615
:100B8000D9FFFFFF03B4684601B5029800F034F8BE
:100B9000019B9E4602B00CBC7047C046F0B5CE46E5
:100BA0009946030C9C46130447461B0C1D000E007F
:100BB00061460404240C80B50700100C4B436543C8
:100BC000414360432C0CC01820188C46834203D943
:100BD00080235B029846C444494679435643030C3C
:100BE0002D042D0C8919634400044019C918C0BC98
:100BF000B946B046F0BDC046F0B557464E464546EC
:100C0000DE46E0B504000D009246994683B08B4263
:100C100030D82DD04946504600F0D8F829000600BB
:100C2000200000F0D3F8331A9846203B34D49B467A
:100C300053465A46934042461F00534693401E0077
:100C4000AF423BD8AF4200D179E05B46A41BBD4127
:100C5000002B00DA76E000220023009201930123AA
:100C60005A4693400193012342469340009329E062
:100C70008242CFD900220023009201930C9B002BCB
:100C800001D01C605D600098019903B0F0BCBB46C8
:100C9000B246A946A046F0BD42469B4620239B1A79
:100CA0005246DA40414613004A468A4017004246FF
:100CB0001F43534693401E00AF42C3D90022002376
:100CC000009201934346002BD8D0FB0772081A43C9
:100CD00046467B080EE0AB4201D1A2420CD8A41AD2
:100CE0009D41012024196D410021013E24184D41F0
:100CF000002E06D0AB42EED9013E24196D41002EE4
:100D0000F8D1009801995B4600196941002B24DB5A
:100D10002B005A464446D3402A00E2401C005B4662
:100D20001500002B2ADB26009E4033002600474694
:100D3000BE403200801A9941009001919EE7A34283
:100D4000BCD882E74246202300219B1A0022009152
:100D500001920122DA40019285E7424620239B1A44
:100D60002A0046469A402300F340444613432A0093
:100D7000E2401C005B461500002BD4DA42462F00EF
:100D80002023260097409B1ADE403B003343CDE7EB
:100D90001C2101231B04984201D3000C10391B0AAB
:100DA000984201D3000A08391B09984201D300096F
:100DB000043902A2105C40187047C04604030202C6
:100DC00001010101000000000000000010B5002931
:100DD00003D1FFF7DDFF203002E00800FFF7D8FF66
:100DE00010BDC04603008218934200D170471970AD
:100DF0000133F9E7F8B5C046F8BC08BC9E46704719
:100E0000F8B5C046F8BC08BC9E46704700002040BC
:100E100000002440000000400000000000002340CB
:100E200000003040000031400000904000002240AF
:100E300000001040000090402020202020202008AA
:100E4000085C2C8000002E00FF03040103007C00DE
:100E5000400000007FFE00000004000000000000D1
:100E60000019324B647D0702020000804000080B2D
:100E7000100000000000FF012002001F008000049D
:100E8000FF081018001000140018001C4044484CC3
:100E900050000000081000000800000004000000DE
:100EA00004100000001200000421000000210000D6
:100EB0000016000040114002C41300138013A01359
:100EC00040138813A81320001C000000000000003D
:100ED00028FDFF7F0100000000000010000800084E
:100EE00080000000F80E00108008000808000000D4
:100EF000C00E000854000000F5000010C9000010EA
:020000041004E6
:1000000000F80308270104100D000000730104101C
:10001000750104107701041079010410000000003C
:100020000000000000000000000000007B01041040
:100030007D010410000000007F0104108101041004
:10004000E31704101F1804105B180410971804100D
:10005000D31804100F1904104B1904108719041039
:100060008301041083010410830104108301041030
:100070008301041083010410830104108301041020
:1000800000F002F800F03EF80AA090E8000C82446C
:100090008344AAF10107DA4501D100F033F8AFF249
:1000A000090EBAE80F0013F0010F18BFFB1A43F056
:1000B000010318472424000044240000103A24BF00
:1000C00078C878C1FAD8520724BF30C830C144BFBD
:1000D00004680C60704700000023002400250026FF
:1000E000103A28BF78C1FBD8520728BF30C148BF9B
:1000F0000B6070471FB502F082F800F0FFF81FBDDB
:1001000010B510BDDFF80CD0FFF7F4FF02F014F8C3
:1001100000F007F900F8030803B4FFF7F1FF03BC90
:1001200001F030FE7047FFF7FDFF72B61549164823
:100130004FF080020B680360001D091D121F002A8A
:10014000F8D1114811490860BFF34F8F104880471C
:1001500010488047FEE7FEE7FEE7042071460842AC
:1001600003D0EFF3098000F002F8EFF3088001F00C
:1001700091F9F2E7F1E7F0E7EFE7FEE7FEE7FEE7E8
:10018000FEE7FEE7000004100000010808ED00E0B3
:10019000BF17041081000410801C800803D0401C8D
:1001A000801EFCD100BF7047EFF3108072B670471D
:1001B00080F310887047704753EA020C00F06980A2
:1001C0002DE9F04B4FF00006002B1FBFB3FA83F56B
:1001D00003FA05F424FA05F65E4012BF1643B2FA9C
:1001E00082F502FA05F4C5F120051EBF22FA05FCCE
:1001F00044EA0C04203556EA044C4FEA144418BF74
:10020000641C4FF000084FF00009904271EB030CA2
:1002100039D3002919BFB1FA81F701FA07F6B0FA0C
:1002200080F700FA07F6C7F120071EBF20FA07FC87
:1002300046EA0C062037B6FBF4FCA7EB0507103F97
:1002400007F01F0BCBF120062CFA06F60CFA0BFB7D
:1002500044BFB3460026202FA4BF5E464FF0000BDC
:100260005BEA060C08BF4FF0010B19EB0B0948EBDA
:100270000608ABFB027C06FB02CC0BFB03CCC01BCD
:1002800071EB0C01C1E70B46024641464846BDE80A
:10029000F08B13B5084318BF4FF0FF300146AFF3A2
:1002A0000080BDE81C4070474FF0000200B51346C7
:1002B00094469646203922BFA0E80C50A0E80C5086
:1002C000B1F12001BFF4F7AF090728BFA0E80C5037
:1002D00048BF0CC05DF804EB890028BF40F8042B30
:1002E00008BF704748BF20F8022B11F0804F18BF9D
:1002F00000F8012B704770477047704770B5064C87
:100300007C44064D7D4404E0204601680844804753
:10031000241DAC42F8D170BDF4210000F42100008E
:10032000704710B50446AFF300802046BDE810408A
:10033000FFF7F2BEFEE7082900D301BE0F2A04D85A
:1003400022F0080CBCF1010F00D101BEF0B5DDF8C0
:1003500014C0022B00D301BEBCF1200F00D301BE9C
:10036000082900D301BEBCF1200F00D301BE40F22A
:100370002C1EC0F6010EDEF800E06FF00F06DEE97D
:1003800005540429A0EB040406EAD4042C446FF0BD
:100390001F0505EBC10534BFCD00043426681F27B7
:1003A000AF40BE430CF01F07AF40374327600768DC
:1003B00001268E4003F00103B7438B403B430360AB
:1003C0009EF8853089001F580F268E4002F00F02DC
:1003D000B74302FA01F139431950F0BD0123002857
:1003E000C0F25A0300F01081002A00F00D810829A4
:1003F00000D301BE2DE9F0431368022B00D301BEE8
:1004000053680F2B03D843F00803092B00D101BE1A
:10041000137A202B00D301BED368042B00D301BE76
:100420001369022B00D301BE5369022B00D301BE16
:10043000136A022B00D301BE536A022B00D301BE04
:10044000936A022B00D301BED36A042B00D301BEF2
:10045000136B082B00D301BED369042B00D301BE5C
:100460009369022B01D301BE9369012540F22C1C34
:1004700005FA01FE1025C0F6010C05EB4104DCF87D
:100480000050032695F88750A6402F5846EA0E06DE
:1004900027EA060603F00103D7698B40334307F0D0
:1004A000030606FA04F423432B50137A082900D3D9
:1004B00001BE202B00D301BEDCF800406FF00F0618
:1004C000D4E905450429A0EB050506EAD5052C4429
:1004D0006FF01F0505EBC10534BFCD00043426685D
:1004E0001F27AF4003F01F03BE43AB4033432360DD
:1004F0005468082900D301BE0F2C03D824F0080348
:10050000012B00D101BEDCF800304FEA810893F8DE
:1005100085500F272E5807FA08F704F00F04BE4342
:1005200004FA08F434432C50D468092900D301BEDE
:10053000042C4FEA410500D301BEDCF80060032320
:1005400096F88460AB40375804F0030427EA0303AD
:10055000AC40234333501469092900D301BE022C57
:1005600000D301BE836904F0010423EA0E038C402A
:10057000234383615469082900D301BE022C6FEA2A
:100580000E0500D301BEDCF80030082993F8867010
:1005900093F888903E5806EA050604F0010505FA2E
:1005A00001F546EA05063E5059F80070D2E90865A3
:1005B00027F0FF0CD2E90A47136B06F0010665F33A
:1005C000410604F0010446EA840407F003054FEAFB
:1005D000431344EAC504DBB2234408F47E7403FAEF
:1005E00004F343EA0C0349F80030126800D301BE5B
:1005F000022A02D212B9043001E001BE0830002301
:10060000C0F800E0BDE8F0431846704740F22C11F6
:10061000C0F6010108607047042800D301BE002124
:10062000C4F227010A6860F309220A60704770B5B6
:1006300041F24020C4F2260001680068C1F30114B1
:10064000012500F00F0005FA04F600F095F840F2DD
:100650002C11C0F60101096800EB56000A68D1F8B8
:100660009010E040895855FA91F100EB5100B0FB31
:10067000F1F070BD40F22C11C0F6010109680A6862
:10068000D1F890108B5823F47F4343EA0020885020
:100690007047B0B501240546C0F24A0400F017F8CF
:1006A000022D12D846F60001C0F6891188420BD8F7
:1006B00041F24020C4F2260050F82510002441F0F9
:1006C000004140F8251000E002342046B0BDB0B52E
:1006D00041F240230228C4F2260304D853F8202014
:1006E00003EB800105E001BE53F8202003EB8001FD
:1006F00001BE0968C2F30114012000FA04F501F0FB
:100700000F0000F039F800EB5500E040B0BD0122C9
:100710000228C0F24A0298BF03290AD841F24022B7
:10072000C4F2260252F8203061F3051342F820305B
:1007300000221046704701220228C0F24A0298BFE8
:100740000F290BD841F24022C4F2260252F8203081
:1007500023F00F03194342F820100022104670477F
:10076000082800D301BE41F20051C4F226010A68F4
:1007700060F302020A60704710B50446042800D3F3
:1007800001BE204600F01EF8012C0CD0A4B941F2A5
:100790003051C4F226010968B1F1FF3F0CDCBDE81D
:1007A000104000F0BBBB41F23051C4F22601D1F839
:1007B000D010B1F1FF3F00DD10BD0020BDE81040BA
:1007C00000F0B3BD042801D301BE01BE40F2001207
:1007D000C4F2260202EB80014FF48853C95801F09D
:1007E0000701042904D152F82010082060F35F119A
:1007F000B1F5887F4FF0000012DA21B3012927D02C
:10080000022933D141F20850C4F2260040F27C1193
:10081000C069C0F601010968800701EAE07070470D
:1008200007D040F21112914218D0B1F58A7F18BF5B
:10083000704741F20850C4F2260000684FF40041AE
:1008400001EA1040704741F20020C0F27A00704780
:1008500040F22810C0F60100006870471020C4F272
:10086000270000684FF4004101EA40307047032937
:100870000AD3A1F58872042A05D8012303FA02F2EB
:1008800012F0130F00D101BE032882BF0120C0F275
:100890004A00704740F20012C4F22602B1F5807F90
:1008A00031BF01F0070101F01F0142F820100421BF
:1008B00002EB80004FF4885281500020704740F2D4
:1008C0002C11C0F6010109680A68D1F88C108B5808
:1008D00023F07F4343EA0060885070470139FF20CE
:1008E0000729C0F2420022D8DFE801F004142112E7
:1008F0002121211B40F22111C0F6010109780029B4
:1009000018BF704740F29410C0F601000121017039
:100910000020704740F29411C0F6010100200870D9
:10092000704740F29411C0F6010100220A7070472E
:100930002DE9F04141F21C5EC4F2260EDEF80060A3
:1009400040F2010C002EC0F24A0C4ED448F2804412
:10095000C0F21E04634303EB520300EE100AB3FB24
:10096000F2F8B8EE400A00234FF40045102600BF0D
:1009700043EA050707FB07F4444598BF3B46013EA1
:100980004FEA5505F4D144F6D35500F5FA74C1F297
:100990006205A4FB054546F6B354C0F20204634366
:1009A000AC094C4303EB5403B3FBF4F39FEDCB2AA8
:1009B00001EE103AB8EE411A81EE021AB6EE002AA4
:1009C000B4EE421AF1EE10FAC0F28381B4EE421A8C
:1009D000F1EE10FA0CDB9FEDC43AB4EE431AF1EEDF
:1009E00010FA05DA4FF4507378E00CF1020C70E164
:1009F0009FEDBE3AB4EE431AF1EE10FA02DA4FF46C
:100A000054736BE09FEDBA3AB4EE431AF1EE10FA6C
:100A100002DA4FF4587361E09FEDB63AB4EE431A30
:100A2000F1EE10FA02DA4FF45C7357E0B6EE083AD2
:100A3000B4EE431AF1EE10FA02DA4FF460734DE0AF
:100A40009FEDAD3AB4EE431AF1EE10FA02DA4FF42C
:100A5000647343E09FEDA93AB4EE431AF1EE10FA45
:100A600002DA4FF4687339E09FEDA53AB4EE431A09
:100A7000F1EE10FA02DA4FF46C732FE09FEDA13A19
:100A8000B4EE431AF1EE10FA02DA4FF4707325E077
:100A9000B7EE003AB4EE431AF1EE10FA02DA4FF470
:100AA00074731BE09FED983AB4EE431AF1EE10FA1E
:100AB00002DA4FF4787311E09FED943AB4EE431AE2
:100AC000F1EE10FA02DA4FF47C7307E0B4EE431A49
:100AD000F1EE10FAC0F2FD804FF440739FED8B3AB7
:100AE000B4EE421A0025F1EE10FAA8BF0125B4EECB
:100AF000431A00260024F1EE10FAB8BF012605EAD9
:100B00000605B8BF4FF0FF34012D05D0B4EE431AEF
:100B1000F1EE10FAC0F2DD80B4EE421AF1EE10FAF6
:100B200008DB9FED722AB4EE421AF1EE10FA01DAF8
:100B3000022619E09FED6F2AB4EE421AF1EE10FA88
:100B400001DA032610E09FED6C2AB4EE421AF1EEB2
:100B500010FA01DA042607E09FED692AB4EE421A82
:100B6000F1EE10FA4BDA05269FED5B1A02EB8202DA
:100B700080EE010A01EE102A9FED592AB8EE411AC3
:100B800021EE021A02EE101AB8EE422A9FED553AF3
:100B900020EE011A20EE011A21EE021A21EE021AAD
:100BA00081EE031AB5EE401AF1EE10FA09DB9FED63
:100BB000582AB4EE421AF1EE10FA02DA4FF48051DC
:100BC0004FE09FED542AB4EE421AF1EE10FA02DA29
:100BD0004FF4005145E09FED502AB4EE421AF1EE79
:100BE00010FA02DA4FF440513BE09FED4C2AB4EE8C
:100BF000421AF1EE10FA17DA4FF4804131E0B7EE05
:100C0000002AB4EE421A0726F1EE10FAB8BF062603
:100C1000AADBB4EE431AF1EE10FAA5DBB4EE431AE8
:100C2000F1EE10FA55DB9FE7B2EE062AB4EE421A57
:100C3000F1EE10FA02DA4FF4A04112E09FED382AEB
:100C4000B4EE421AF1EE10FA02DA4FF4C04108E0B5
:100C50009FED342AB4EE421AF1EE10FA39DA4FF46D
:100C6000E0419FED311AB4EE410AF1EE10FA01DDD8
:100C700000221AE09FED2D1AB4EE410AF1EE10FAAF
:100C800002DD4FF4806210E09FED291AB4EE410AB4
:100C9000F1EE10FA02DD4FF4006206E0B5EE400A14
:100CA000F1EE10FA15DD4FF440623343194311435E
:100CB000CEF82810022101EA4401002D18BF0221BC
:100CC000CEF8001040F27C11C0F601014FF0000C8C
:100CD00008606046BDE8F0810024744900007A4451
:100CE000E6E91D43286B6E4ECDCC0C3F9A99193F17
:100CF0006666263F3333333FCDCC4C3F9A99593FFC
:100D00006666663F3333733F6666863FCDCC8C3F65
:100D1000CDCC0C40CDCC8C403333D340CDCC0C412A
:100D20003333534166667641CDCCE441D7A3BA4113
:100D3000000084412DE9F04141F21C55C4F2260522
:100D4000296840F202080029C0F24A082BD4044660
:100D50002868002C40F000402860A868214660F018
:100D6000030018BF012110F1030F11D884B1671ED1
:100D7000002600BF012000F085FBA868013F60F05D
:100D8000030046F1000110F1030F01D80029F1D151
:100D90004FF000002CB121B9286820F000402860F5
:100DA0004046BDE8F08108F10100BDE8F081000097
:100DB000B0B541F23054C4F22604A068022161F3B8
:100DC0001D70A060A06800F04050B0F1005F10D02E
:100DD0006FF062000546012000F054FBA06800F0AF
:100DE0004050B0F1005F03D0002D05F10100F1D1BA
:100DF00065B1012000F046FB206820F00040206033
:100E0000E06820F00040E0600020B0BD0220C0F2A9
:100E10004A00B0BD10B582B001900198B0FA80F0E0
:100E200040098DF8030041F23C50C4F226000168ED
:100E300041F000410160FFE741F24050C4F226005A
:100E4000016800204907002905D4FFE70198002820
:100E500018BF0120FFE7C00740B1FFE7012000F005
:100E600011FBFFE7019801380190E5E741F23850A6
:100E7000C4F226000168022262F31D7101609DF830
:100E80000300C00718B9FFE7019848B1FFE741F236
:100E90003050C4F22600016841F000410160FFE7D4
:100EA000FFE7002400F068F828B9FFE7019C002C58
:100EB00018BF0124FFE7E00740B1FFE7012000F081
:100EC000E1FAFFE7019801380190EAE79DF8030095
:100ED000C00718B9FFE7019848B1FFE741F2385061
:100EE000C4F22600016841F04051016002E0FFF7C2
:100EF0005FFFFFE79DF803100120C90729B9FFE74D
:100F00000198002818BF0120FFE7C1070220C0F2A6
:100F10004A00002918BF002002B010BD70B541F290
:100F20003050C4F22600056844688168C2680068D1
:100F3000B0F1FF3F4FF000001DDC01F04051B1F176
:100F4000005F18D06FF35F34ACB12E4600206FF312
:100F50009F46FFF737FCE9014FF0020158BF01211E
:100F6000A1FB04235FEA53014FEA320CE0FB06C108
:100F70006046FFF721F970BD41F24050C4F22600EF
:100F8000006800F00100704700B901BE10B541F2E1
:100F9000305CC4F2260CDCF80020002A5DD4026824
:100FA000B2F5802F01D301BE0268C3796FF39F426F
:100FB000002B18BF02F18072CCF800208288B2F5B5
:100FC000005F00D301BE0289B2F5807F01D301BE6C
:100FD000028983886FF35F3362F31743CCF80430E0
:100FE000827A102A00D301BEC27A102A00D301BE31
:100FF0008289B2F5005F01D301BE8289817AC37A0A
:1010000001F00F0163F307114FF60073847BC0F208
:101010001F0390F806E003EA0222114404F00302E1
:1010200041EA0271BEF1050FCCF8081000D301BEF1
:10103000018AB1F5007F00D301BEDCF80C10827983
:1010400062F30A21CCF80C10DCF80C10008A60F373
:1010500018410020CCF80C1010BD0320C0F24A004B
:1010600010BD41F208510228C4F2260105D228B968
:10107000086840F000400860704701BE486840F0D2
:1010800000404860704700B1704741F20850C4F218
:101090002600026822F0010211440160704780B509
:1010A000844601200329C0F24A0025D809B9202A24
:1010B00007D3012901D1102A03D303291CD1072A00
:1010C0001AD840F22C13C0F60103D3F800E09EF8C2
:1010D0004630634598BF80BD9EF879009EF8783011
:1010E00001FA00F003EA0201DEF80820084302EBEF
:1010F0008C01C1F8000C002080BD01200329C0F242
:101100004A001ED809B9202A08D3012901D1102A82
:1011100004D3032915D1072A88BF704740F22C1049
:10112000C0F60100006890F879C090F8783001FAB4
:101130000CF11A401143806841F08041C0F800145E
:101140000020704701200329C0F24A002FD809B9B6
:10115000202A08D3012901D1102A04D3032926D13A
:10116000072A88BF704710B540F22C10C0F6010066
:101170000068032390F87BC090F87AE003FA0CFC37
:1011800090F8783090F879401A4003FA0EFE42EA5F
:101190000C02A14042EA0E021143806841F0004176
:1011A000C0F80014D0F800040020BDE810407047DB
:1011B00010B501200129C0F24A0005D019B91F2A33
:1011C00098BFFF2B16D910BD0F2AFCD80021B1EB18
:1011D000134F18BF10BD40F22C10C0F6010001687B
:1011E0004FF6007CFF2401F17E0EC0F2FF0CCFF61B
:1011F00000740AE040F22C10C0F6010001684FF4C0
:101200007F4C01F17C0E6FF47F448968BEF80000CA
:101210000CEA0323084450F822102140194340F8F7
:101220002210002010BDFFF73ABF0A4601460020F9
:10123000FFF763BF0A4601460020FFF783BF13464E
:101240000A4601460020FFF7B3BFB0B5044600B11F
:1012500001BE41F20065C4F2260555F824000221C2
:1012600061F31D7045F82400012000F00BF955F8DA
:10127000240020F00041002045F82410B0BD0000FB
:101280002DE9F04381B00446894600B101BE41F228
:101290000068C4F2260858F8240008F1400740F01E
:1012A000004048F8240057F82410B9F1000F4846D0
:1012B00018BF0120C90711D1B9F1000F0ED0A9F153
:1012C00001060025012000F0DDF857F82410013E4A
:1012D00045F10000C90701D10028F3D158F82410C6
:1012E000B9F1000F10D078B9022060F31D71012010
:1012F00048F8241000F0C6F858F8240020F0004107
:101300000220C0F24A0009E001F04050B0F1005F55
:1013100007D158F8240040F04051002048F824102C
:1013200000E0002001B0BDE8F08370B541F200623A
:10133000C4F2260238B101BE01BE52F8204002EBD1
:10134000800101BE03E052F8204002EB80010968F1
:10135000B1F1FF3F4FF000011BDC04F04052B2F14D
:10136000005F16D0C4F304259DB1C4F3044686B1D2
:101370000130FFF727FAA5FB06235FEA530104F0CB
:101380007F064FEA320CE0FB06C16046FEF714FF11
:101390000146084670BD08B101BE01BEF0B541F27C
:1013A000006CC4F2260C5CF82020002A40F20102F6
:1013B000C0F24A0233D48B78A3F1110616F10F0F55
:1013C0002ED391F801E0AEF1130414F1120F27D3DC
:1013D000CC780D781327002C4FF0380608BF16275D
:1013E00008BF7026AF421BD8AE4219D30979022933
:1013F0000DD04FEA0E2242EA034241F67F732A449F
:10140000C0F21F031A4042EAC4624CF820205CF884
:10141000202061F31D724CF82020002200E00232EF
:101420001046F0BD013800D001BE80B5FFF70DFFBA
:10143000002080BD013808BFFFF722BF01BEFFF7C3
:101440001FBF013808BFFFF7A6BF01BEFFF7A3BF4C
:101450004EF60852CEF20002136840F20002C0F6C7
:101460000102934206D101B901BE02EB8002106C69
:101470001164704740F20001C1F2040101EB8000E9
:10148000006C704740F2A471C0F60101097848432E
:10149000FEF782BE80B540F2D07190E80C50C0F6E5
:1014A000010181E80C50D0E90423C1E90423D0E90B
:1014B0000623C1E906234EF62452CEF200025368F9
:1014C0000B6293684B6213688B621369CB6252693B
:1014D0000A63F1EE102A12F0900F21D0026A4A63DB
:1014E000426A8A63826ACA63C26A0A64026B4A6495
:1014F000426B8A64826BCA64C26B0A65026C4A657D
:10150000426C8A65826CCA65C26C0A66026D4A6664
:10151000426D8A66826DCA66C26D0A67006E486750
:10152000BDE88040AFF30080FEE77047B0B540F201
:101530002C124FF0640CC0F60102002818BF4FF0C7
:10154000190C15688C45D5F800E0B5F8B0404FF09F
:1015500000035EF804C038BF01232CF003021A44D4
:101560004EF80420D5F800C05CF8042022F4407244
:101570004CF80420D5F800C0B5F8B2405CF804205F
:1015800022F003021A444CF804202A68135923F469
:101590004073135138B10220222938BF012011298C
:1015A00038BF00201DE095F85900884212D295F806
:1015B0005A00884210D295F85B0088420ED295F806
:1015C0005C0088420CD295F85D2004208A4238BF26
:1015D000052006E0002004E0012002E0022000E0F7
:1015E00003200021C4F224010A6822F00F021044F3
:1015F0000860B0BD41F20800C4F226000068C0F3E4
:101600004040704780B5FEF7CFFD41F20801C4F2BB
:1016100026010A68FF23C0F6FC731A4002F56852DF
:101620000A600A681A400A600968BDE88040FEF74F
:10163000BFBD0000B0B578B3C16869B3016859B3E4
:1016400090F804E040F2801CC0F6010C5CF82E100B
:1016500021B34A690B1A18BF01237AB181420DD018
:10166000047E00BF137EA34298BF11465569131A2A
:1016700018BF012315B182422A46F3D163B10A692A
:1016800092B9027E0B7E9A420ED20022C0E904215A
:1016900008614CF82E000DE00020B0BD00214CF890
:1016A0002E00C0E9041105E04A690161426102B1FE
:1016B000106148610120B0BD80B541F20400C4F260
:1016C0002600016821F0805101600620FFF7DAFE54
:1016D000002080BD4EF21000CEF20000016841F003
:1016E00002010160016841F001010160704770B5BD
:1016F0000C46B1F1807F054600D301BE40F2A80040
:101700004EF21006C0F601001421CEF20006FEF7DC
:10171000CBFD41F27571C1F204014FF0FF30FFF7CC
:1017200097FE042D03D1306840F004000FE040F232
:101730002C10C0F6010000684FF040710268D0F82C
:10174000A80001EA05618150306820F00400B4F17E
:10175000807F306000D301BE24F07F4070600020A5
:10176000B060306840F002003060306840F0010046
:10177000306070BDB0B54EF21000CEF200000068CF
:10178000C00358BFB0BD40F2A8050024C0F6010553
:1017900055F8240000B180470134052CF8D1B0BDC4
:1017A000042884BF0020704740F2A803C0F601035C
:1017B000024653F8200043F82210704770474EF657
:1017C0008851EFF3108072B6CEF200010A6842F43D
:1017D00070020A60BFF34F8FBFF36F8F80F31088E2
:1017E000704780B540F22C10C0F601000068006818
:1017F000D0F80011B1F1FF3F0ADCD0F8000140F24F
:1018000098116FF39F20C0F6010151F82000804726
:101810004EF28020CEF200000121016080BD80B533
:1018200040F22C10C0F6010000680068D0F80411E6
:10183000B1F1FF3F0ADCD0F8040140F298116FF3D8
:101840009F20C0F6010151F8200080474EF2802011
:10185000CEF200000221016080BD80B540F22C1064
:10186000C0F6010000680068D0F80811B1F1FF3F30
:101870000ADCD0F8080140F298116FF39F20C0F6FF
:10188000010151F8200080474EF28020CEF2000086
:101890000421016080BD80B540F22C10C0F601002B
:1018A00000680068D0F80C11B1F1FF3F0ADCD0F8F5
:1018B0000C0140F298116FF39F20C0F6010151F81E
:1018C000200080474EF28020CEF200000821016007
:1018D00080BD80B540F22C10C0F6010000680068A1
:1018E000D0F81011B1F1FF3F0ADCD0F8100140F23E
:1018F00098116FF39F20C0F6010151F82000804736
:101900004EF28020CEF200001021016080BD80B533
:1019100040F22C10C0F6010000680068D0F81411E5
:10192000B1F1FF3F0ADCD0F8140140F298116FF3D7
:101930009F20C0F6010151F8200080474EF2802020
:10194000CEF200002021016080BD80B540F22C1055
:10195000C0F6010000680068D0F81811B1F1FF3F2F
:101960000ADCD0F8180140F298116FF39F20C0F6FE
:10197000010151F8200080474EF28020CEF2000095
:101980004021016080BD80B540F22C10C0F60100FE
:1019900000680068D0F81C11B1F1FF3F0ADCD0F8F4
:1019A0001C0140F298116FF39F20C0F6010151F81D
:1019B000200080474EF28020CEF20000802101609E
:1019C00080BD10B50020FEF782FE40F29871C0F68F
:1019D00001010860FEF72BFE40F29C74C0F6010482
:1019E00020600020FEF773FE216844F23F22C0F21F
:1019F0000F024DF683630A44C4F21B33A2FB032398
:101A000044F6D35201F2E731C1F26202A1FB0212A5
:101A100040F2A071C0F60101086040F2A471980C78
:101A2000C0F60101087040F2A8719009C0F60101EA
:101A300008600020FEF74BFE40F2AC71C0F60101D9
:101A4000086010BD80B542F24420C1F20400FEF7E8
:101A5000DDFDFFF7B3FEFFF7B4FF4FF6042140F2C0
:101A6000981040F23532CFF6FF71C0F60100C1F296
:101A7000040200BF43180431C3F8FC25FAD140F238
:101A80009471C0F60101086080BD000084460428FE
:101A900040F6005002BF0A460C214FF0050CBCF185
:101AA0001D0FC0F2024088BF70472DE9F04142F29D
:101AB0007234C1F20404BCF11D0F1ABF04EB4C07D1
:101AC000B7F802E040F20A2E34F81C80012440F6F8
:101AD000283504FA0CF4C0F60A452C4219D0ACF1B2
:101AE0000307102F19D842F234250224C1F204054D
:101AF000DFE807F0331F091F1F19221F281F1F1FB0
:101B00001F1F191F190042F208351A24C1F20405DB
:101B100023E008EB01021A8031E0BCF11A0F17D064
:101B2000BCF11B0F05D142F2D4450124C1F20405DA
:101B300013E0A3F800E021E042F238250224C1F2CC
:101B400004050AE042F23C351824C1F2040504E021
:101B500042F26C350324C1F20405A142A3F800E06F
:101B60000CD235F81170424401313A44A1421A8036
:101B700005D235F8111001EB080E00E072461FFA8D
:101B80008EF192B28A4238BF0020BDE8F041704722
:101B900070B5884208BF70BD0C460546164600BFAA
:101BA0002B685BB128793040B04207D16879800753
:101BB00004D4AA6830460221984700BFED68A542C8
:101BC000EED170BD2DE9F041044640F289708442A7
:101BD0001DD01D461646884623689BB120793040AB
:101BE000B0420FD160792840A8420BD0A2686F1E86
:101BF0003046294618BF012798473843012888F8FE
:101C0000000006D1E46840F289708442E4D140F2D9
:101C100089742046BDE8F081012909D140F2BC0059
:101C2000C0F60100008818B1FF20C0F242007047E2
:101C30000846022100F008B80846082100F038B82C
:101C400008460121AFF3008010B5044600F030F8DB
:101C5000082C18D0042C2AD14EF2100140F2BE03F9
:101C6000CEF20001C0F601030A681B781A4040F268
:101C7000201312F00102C0F601031A7017D0096890
:101C800021F001010EE040F22011C0F601010978B7
:101C9000002908BF10BD4EF21001CEF20001096804
:101CA00041F001014EF21002CEF20002116010BDAF
:101CB0002DE9F04381B0894600F050F80546012037
:101CC000102D8DF803000FD840F20411A840C0F287
:101CD0000101084208D040F2880040F28401C0F6B9
:101CE0000100C0F6010107E040F2840040F28801E3
:101CF000C0F60100C0F6010106680F680DF103018E
:101D000030464A462B46FFF75DFF9DF8031080469C
:101D100069B10DF1030138464A462B46FFF752FFE1
:101D20009DF803200146B2FA82F0440901E0012443
:101D3000394654B1012D08D138464A46FFF728FFED
:101D4000304641464A46FFF723FF002C1CBFFF24C4
:101D5000C0F24204204601B0BDE8F0830138C1B2B0
:101D6000082904D28B2222FA01F1C90702D10120ED
:101D700001BE704742F23C2140B2C1F20401085C4E
:101D800070470000FEE710B500F033F8044618B9BC
:101D900000F06FF8044628B100F01BF800F022F8BC
:101DA000204610BD002040F6E44100F0A8F800F005
:101DB00010F800F017F840F28C00C0F60100FFF7B1
:101DC00039FC0024C0F20264002818BF0024E7E7B1
:101DD000FEE780B500F0D4F800F09AF8BDE8804046
:101DE00000F0A6B880B500F0D5F9BDE8804000F05D
:101DF000D7B900207047F0B581B00546FEF7D4F999
:101E00002E786978AA7804466B463046FFF73EFE86
:101E1000064640BBBDF8000040F23817C0F3C701CA
:101E2000C0F60107795C00F0070021FA00F0C00756
:101E300004D040F60156C0F2024614E028786978D2
:101E4000AA780DF10203FFF721FE064658B9BDF846
:101E50000200012200F00701C0F3C7003B5C02FA58
:101E600001F1194339542046FEF7A2F9304601B07A
:101E7000F0BD2DE9F04381B0FFF7BCFB08B1FFF7DF
:101E8000C1FB42F21820C1F2040000F1040940F243
:101E9000001041F64141C0F60100C1F2040199E889
:101EA000F00380E8F20300210171FFF7C3FBF8B1F2
:101EB00040F2C80041F61941C0F60100C1F2040128
:101EC00080E8F20301210171FFF7B4FB80B140F219
:101ED000E40041F63941C0F60100C1F2040180E896
:101EE000F20302210171FFF7A5FB08B1002003E016
:101EF00041F60120C0F2024001B0BDE8F08300B11C
:101F000001BE40F21C12C0F6010242F820107047D8
:101F100080B500200321FFF788F90020032100226B
:101F2000FFF78DF900200321BDE88040FFF782B95B
:101F300010B540F68034C4F2310442F2B032A4F558
:101F40002070C1F204020521FEF748FA42F2F03295
:101F5000C1F2040220460421FEF740FA42F2284270
:101F6000C1F2040220460521FEF738FA42F260422F
:101F7000C1F2040220460621BDE81040FEF72EBA49
:101F800070B582B00125002000210322C0F24A056D
:101F90000026FFF748F90020B421FFF7C7FAFFF742
:101FA0008BFBFEF705FF0020FEF764FB0020FFF728
:101FB00058F800200121FFF766F80120FFF751F8DB
:101FC00001200121FFF75FF840F68024C4F23104BC
:101FD00020460221002200230096FEF7ACF920469D
:101FE0000321002200230096FEF7A5F942F20040EB
:101FF000C0F2F400122132226423FEF799FCA842B9
:1020000002D10120FFF7E4FE40F6B830FEF792FE61
:10201000691C884202D10120FFF7DAFE0020FEF79A
:102020009FFB0020FEF726FB0120FEF748FC012065
:102030000021FEF71CFC02200021FEF718FC032003
:102040000021FEF714FC0120FFF7ECF942F2BC413D
:10205000C1F204010120FFF7F4F910B10320FFF7EA
:10206000B7FE012042F21071FFF7E4F910B103202E
:10207000FFF7AEFE01200021FEF75DFB01200021ED
:10208000FEF745FB0120FEF704FB02200021FEF7CE
:1020900052FB02200021FEF73AFB0220FEF7F9FA7C
:1020A0000120FEF7B9FA00206421FFF73FFA002073
:1020B0000021FEF7DCFB42F29C40C1F20400FEF777
:1020C00063FF10B10420FFF783FE40F64050C0F2DA
:1020D0000300FEF79FFE10B10420FFF779FE0020F9
:1020E0000121FEF728FB00200021FEF710FBFFF77F
:1020F00068FC42F2B040C1F20400FFF77CFE00B180
:1021000001BE42F2B340C1F20400FFF774FE00B119
:1021100001BE42F2B640C1F20400FFF76CFE00B10E
:1021200001BE42F2B940C1F20400FFF764FE00B103
:1021300001BE02B070BD000082B0FFF724FE00B106
:1021400001BE40F60014C4F2310462B600252046F8
:1021500005210E2201230095FEF7EDF842F2004121
:10216000C0F2F4010420FFF7C2FA42F2EF11C1F20B
:1021700004010020FFF714FBFFF7ACFA40F2241033
:10218000C0F60100202100BF02680B2AFCD30560C5
:10219000E160F9E742F29740C1F20400FFF72BBE7D
:1021A00080B542F2E430C1F20400FFF724FE42F2AF
:1021B000E730C1F20400FFF71EFE42F2EA30C1F23E
:1021C0000400FFF718FE42F22440C1F20400FFF7BA
:1021D00012FE42F25C40C1F20400FFF70CFE42F234
:1021E0009440C1F20400BDE88040FFF704BE40F215
:1021F0002410C0F601000168013101607047F1EE62
:10220000100A4FF6FF71C0F2C03120EA010040F021
:102210004070E1EE100A704700000000000000006E
:1022200000000000C00001080000000000000000E5
:102230000A0000000000040000005C00010201042C
:10224000010101080000204000002440000000407F
:10225000000000000000234000003040000031403A
:10226000000090400000224000001040000090401C
:10227000202020202020202020202008085C2C80E6
:1022800000002E00FF03040103007C00400000005A
:102290007FFE000000040000000000000019324B27
:1022A000647D0702020000804000080B100000005F
:1022B0000000FF012002001F00800004FF0810182A
:1022C000001000140018001C4044484C500000004E
:1022D00008100000080000000400000004100000C6
:1022E0000012000004210000002100000016000080
:1022F00040114002C41300138013A013401388132D
:10230000A81320001C000000000020003000300056
:10231000380039003A003B003C003D003F004000DF
:1023200041004500460047004700480049004C0076
:102330004D004E004F0050005100520000000800B8
:10234000100018002000280030003800400048002D
:10235000500058006000680070007800800088001D
:1023600090009800A000A800B000B80000003F0056
:102370004B0000000300030003000B000B005E0095
:102380005F005F006300EB00EB00AB01AB01AB0152
:10239000AB01AB01AC01AC01AE01AE01AE01AE01CF
:1023A000AF01B701B701B7010A020A020A02000031
:1023B0000100000006000000000000000000000016
:1023C000000000000000000001000000010000000B
:1023D00000000000000000000000000000000000FD
:1023E000000000000B12050B15020B150300000086
:1023F00001000000060000001D00000000000000B9
:1024000000000000000000000000000001000000CB
:1024100000000000000000000000000000000000BC
:10242000000000000B170400010000000B0000007A
:102430001D0000000000000000000000000000007F
:10244000000000000100000000000000000000008B
:102450000000000000000000000000000B17050055
:10246000010000000A0000001D0000000000000044
:10247000000000000000000000000000010000005B
:10248000000000000000000000000000000000004C
:10249000000000000B17060500030000F401000017
:1024A000140004010A00090508000300630100008C
:1024B00004000004010004020004030028010200DB
:1024C000000000000000000000000000000000000C
:1024D0000000000000000000FC240410800001083F
:1024E00028000000BC00041024250410A8000108E6
:1024F000F0000000D80004104DF5FFFF01000000BF
:102500008907000089070000DD08041001000000B1
:102510000000000030010108000000000000000081
:04252000FF000000B8
:040000051004008162
:00000001FF
