:020000040800F2
:100000000000022041660108A1610108A961010800
:10001000B1610108B9610108C16101080000000077
:10002000000000000000000000000000C96101089D
:10003000D761010800000000E5610108F3610108D3
:1000400095660108956601089566010895660108A0
:100050009566010895660108956601089566010890
:100060009566010895660108956601089566010880
:100070009566010895660108956601089566010870
:100080009566010895660108956601089566010860
:100090009566010895660108956601089566010850
:1000A0009566010895660108956601089566010840
:1000B0009566010895660108956601089566010830
:1000C0009566010895660108956601089566010820
:1000D0009566010895660108956601089566010810
:1000E0009566010895660108000000009566010804
:1000F00095660108956601089566010895660108F0
:1001000095660108956601089566010895660108DF
:1001100095660108956601089566010895660108CF
:1001200095660108956601089566010895660108BF
:1001300095660108016201081562010895660108CB
:1001400000000000000000000000000000000000AF
:10015000956601089566010895660108956601088F
:10016000956601089566010895660108956601087F
:100170009566010895660108956601080000000073
:10018000956601089566010895660108956601085F
:10019000956601089566010895660108956601084F
:1001A0009566010895660108956601080000000043
:1001B000956601089566010895660108956601082F
:1001C0009566010895660108000000000000000027
:1001D000000000000000000095660108000000001B
:1001E000000000000000000000000000000000000F
:1001F00000000000000000009566010895660108F7
:1002000095660108956601080000000095660108E2
:1002100095660108956601089566010895660108CE
:1002200095660108000000009566010800000000C6
:1002300095660108956601080000000095660108B2
:10024000956601089566010895660108956601089E
:10025000956601089566010895660108956601088E
:10026000956601089566010895660108956601087E
:1002700095660108956601082962010800000000E2
:10028000956601089566010895660108956601085E
:100290000000000095660108956601080000000056
:1002A0000000000095660108956601089566010842
:1002B000956601089566010895660108956601082E
:0C02C00095660108956601089566010826
:1002D00010B5054C237833B9044B13B10448AFF380
:1002E00000800123237010BDE40100200000000005
:1002F0005CC7010808B5034B1BB103490348AFF3C2
:10030000008008BD00000000E80100205CC7010873
:1003100053B94AB9002908BF00281CBF4FF0FF316C
:100320004FF0FF3000F088B9ADF1080C6DE904CE54
:1003300000F006F8DDF804E0DDE9022304B07047C0
:100340002DE9F047089D0F4604468C46002B48D106
:100350008A42164661D9B2FA82F34BB1C3F1200248
:1003600001FA03FC20FA02F29E4042EA0C0C9C4087
:100370004FEA164EB7B2BCFBFEF1220C0EFB11CCBD
:1003800042EA0C4201FB07F0904209D9B21801F190
:10039000FF3C80F0EE80904240F2EB800239324424
:1003A000121AA4B2B2FBFEF00EFB102244EA024481
:1003B00000FB07F7A74209D9341900F1FF3280F09A
:1003C000DA80A74240F2D7803444023840EA014044
:1003D000E41B00211DB1DC400023C5E90043BDE85A
:1003E000F0878B4206D90DB1C5E90001002108460E
:1003F000BDE8F087B3FA83F1002948D1BB4202D3AC
:10040000824200F20781841A67EB030201209446BE
:10041000002DE4D0C5E9004CE1E7002A00F092800D
:10042000B2FA82F3002B40F0A8808A1A4FEA164EE7
:100430001FFA86FC0121200CB2FBFEF70EFB1722EF
:1004400040EA02420CFB07F0904207D9B21807F1CC
:10045000FF3802D2904200F2E2804746121AA4B25C
:10046000B2FBFEF00EFB102244EA02440CFB00FC3F
:10047000A44507D9341900F1FF3202D2A44500F295
:10048000CB801046A4EB0C0440EA0740A2E7C1F180
:1004900020068B4022FA06FC4CEA030C07FA01F412
:1004A00020FA06F3F7404FEA1C49234300FA01F80B
:1004B0001FFA8CFEB7FBF9F01C0C09FB107744EA1D
:1004C000074400FB0EF7A74202FA01F20AD91CEB1F
:1004D000040400F1FF3A80F09B80A74240F298802C
:1004E00002386444E41B9FB2B4FBF9F309FB1344E4
:1004F00047EA044403FB0EFEA64509D91CEB04049D
:1005000003F1FF3780F08280A6457FD9023B644427
:1005100043EA0040A4EB0E04A0FB02E7BC42734692
:10052000B94663D360D05DB1B8EB030264EB090454
:1005300004FA06F622FA01F31E43CC40C5E9006432
:1005400000214CE76208480842EAC1710B0C43EAFB
:1005500000438AB242EA0342B3FBF6F1E407B44631
:100560003746B6461F23B0FBF6F0D21B41EA0041E6
:1005700061E7614614E7104628E7C3F1200120FA3D
:1005800001F29E4027FA01F19F403A434FEA164E8E
:100590001FFA86FCB1FBFEF70EFB1710110C41EAA7
:1005A000004107FB0CF8884504FA03F43AD97118A6
:1005B00007F1FF3001D288451FD8A1EB0801B1FB3C
:1005C000FEF808FB0CF70EFB181192B242EA01424A
:1005D000BA422FD2B21808F1FF31C6D2BA42C4D201
:1005E000A8F102013244C0E7F0459CD2BEEB020301
:1005F00067EB0C070138B94695E7A6EB08084144BC
:10060000B81EB1FBFEF808FB0CF7DCE73B467FE7C2
:10061000504667E70846FBE63444023832E7023FBB
:1006200032441BE7A1EB08013846B1FBFEF808FB9A
:100630000CF7C8E7414698E7704700BF10F8012B58
:1006400011F8013B012A28BF9A42F7D0D01A70470F
:10065000034613F8012B002AFBD1181A0138704702
:1006600001F0FF01102A2BDB10F0070F08D010F863
:10067000013B013A8B422DD010F0070F42B3F6D167
:10068000F0B441EA012141EA014122F007047FF080
:1006900000070023F0E80256083C85EA010586EAD7
:1006A000010685FA47F5A3FA87F586FA47F6A5FA13
:1006B00087F68EB9EED1F0BC01F0FF0102F007021F
:1006C00032B110F8013B013A83EA010313B1F8D1CA
:1006D0000020704701387047002D06BF35460338AB
:1006E000073815F0010F07D1013015F4807F02BFE4
:1006F000013015F4C03F0130F0BC0138704700BF35
:1007000080B400AF3E4BD3F888303D4A43F47003C9
:10071000C2F888303B4B1B6803F00F03062B07D849
:10072000384B1B6823F00F03364A43F0070313606E
:10073000354B1B68344A43F001031360324B0022EF
:100740001A61314B1A683049304B13400B602D4B06
:100750001B6803F00803002B07D02A4B1B6823F00B
:100760000F03284A43F007031360274B00229A61C6
:10077000254B0022DA61244B00221A62224B244AC4
:100780009A62214B234ADA621F4B234A1A631E4B9B
:1007900000225A631C4B204A9A631B4B0022DA63E7
:1007A000194B1D4A1A64184B00225A64164B1B68D9
:1007B000154A23F480231360134B00221A66124B50
:1007C000D3F8D43003F48053002B13D10E4BD3F85D
:1007D000D4300D4A43F48053C2F8D4300F4B43F267
:1007E000D2021A60084BD3F8D430074A23F480535E
:1007F000C2F8D43000BFBD465DF8047B704700BF2F
:1008000000ED00E000200052004402587FEDF6EABF
:10081000000202020000FF018002010100400052BC
:10082000044BDA6842F00202DA605A689204FCD59E
:10083000704700BF0048025880B584B000AF7860B0
:100840007B68002B01D10123E3E07B68D3F884307F
:10085000002B06D17B682022C3F88420786815F02D
:1008600079FD6E4BD3F8F4306C4A43F00203C2F8C2
:10087000F4306A4BD3F8F43003F00203BB60BB687A
:100880007B681B7A002B03D1002005F059FC03E0A4
:100890004FF4000005F054FC614B5B687B681B68FB
:1008A00003F580531B687A68126843F0010302F570
:1008B0008052136005F014FCF86011E005F010FCA4
:1008C0000246FB68D31AB3F5FA7F09D97B68042284
:1008D000C3F888207B68E022C3F88420012398E0D5
:1008E0007B681B6803F580531B6803F00103002B32
:1008F000E4D1786800F000FF02F044FC0346494A66
:10090000A2FB03239A0C7B681B68013AC3F8DC2026
:10091000786801F0E3F87B681B6803F58053D3F82F
:10092000003123F4E0137A68126843F4002302F5DF
:100930008052C2F800317B685B6903F00303002B2F
:1009400009D07B680122C3F888207B68E022C3F8C5
:10095000842001235DE07B681B6803F58053D3F896
:100960000821314B13407A68526951007A68126845
:100970000B4302F58052C2F80831786801F04BF958
:10098000786801F091F97B685B6805331B781A027F
:100990007B685B6804331B7819467B681B680A43D5
:1009A000C3F800237B685B6803331B781A067B68F7
:1009B0005B6802331B781B041A437B685B68013356
:1009C0001B781B021A437B685B681B7819467B689F
:1009D0001B680A43C3F804237B681B68D3F80C1711
:1009E0007B681A68114B0B43C2F80C377B681B6895
:1009F000D3F810177B681A680D4B0B43C2F81037F9
:100A00007B680022C3F888207B681022C3F884200A
:100A1000002318461037BD4680BD00BF0044025871
:100A20000004005883DE1B430180FFFF6000020CBE
:100A300000C0200C80B582B000AF78607B68D3F82E
:100A40008430102B53D17B682022C3F884207B682C
:100A50000422DA66786800F00BFA7B681B681A6873
:100A60007B681B6842F002021A607B681B681A6888
:100A70007B681B6842F001021A607B681B68D3F830
:100A8000002D7B681B6842F00102C3F8002D7B68D3
:100A90001B6803F58053D3F804317A68126843F079
:100AA000010302F58052C2F804317B681B6803F52C
:100AB0008053D3F808317A68126843F0010302F5D5
:100AC0008052C2F808317B681B6803F58053D3F865
:100AD00060317A68126843F4817302F58052C2F87B
:100AE00060317B684022C3F88420002300E00123AA
:100AF00018460837BD4680BD80B483B000AF78602B
:100B00007B68D3F88430402B3FD17B682022C3F828
:100B100084207B681B6803F58053D3F804317A681E
:100B2000126823F0010302F58052C2F804317B6899
:100B30001B6803F58053D3F808317A68126823F0F4
:100B4000010302F58052C2F808317B681B681A68FD
:100B50007B681B6822F001021A607B681B68D3F86F
:100B6000002D7B681B6842F00102C3F8002D7B68F2
:100B70001B681A687B681B6822F002021A607B6897
:100B80001022C3F88420002300E0012318460C370C
:100B9000BD465DF8047B704780B586B000AFF86055
:100BA000B9607A60BB68002B09D1FB68D3F8883044
:100BB00043F00102FB68C3F8882001237FE0FB6853
:100BC000D3F88430402B79D10022B968F86801F05D
:100BD000C9F80346002B09D0FB68D3F8883043F0EE
:100BE0000202FB68C3F88820012368E0BFF34F8F3F
:100BF00000BFFB689A6AFB68063253F822307B61BB
:100C0000FB689B6A5A1CFB689A62FB689B6A032B11
:100C100004D9FB689B6A1A1FFB689A62FB68996A91
:100C2000FB681A68FB68063153F8213002F58052E0
:100C3000C2F8203105F054FA386139E0FB681B68CE
:100C400003F58053D3F8603103F48053002B12D0A6
:100C5000FB68D3F8883043F00802FB68C3F88820AB
:100C6000FB681B6803F58053D3F86021FB68C3F869
:100C70008C20012323E07B68B3F1FF3F18D005F0FF
:100C80002FFA02463B69D31A7A689A4202D37B68EC
:100C9000002B0DD1FB68D3F8883043F00402FB68C9
:100CA000C3F888207B694FF04052DA60012306E0E8
:100CB0007B69DB68002BC1DB002300E001231846C1
:100CC0001837BD4680BD80B58AB000AF7860396006
:100CD0000023BB610023FB753B68002B09D17B68B7
:100CE000D3F8883043F001027B68C3F888200123E1
:100CF000BAE07B68D3F88430402B01D00123B3E005
:100D00007B68DB6D7B627B687A6A123253F8223033
:100D1000FB617B68DB6EC3F104033B617BE0FB6935
:100D2000DB6803F00053002B03D17B68DB6F002BE3
:100D30005FD0FB69DB6803F00053002B05D07B68B4
:100D400000221A667B6800225A66FB69DB68C3F3DF
:100D50000E027B685B6ED31AFB60FB69DB6803F0F5
:100D60008053002B2AD0FB69DA687B681A6701235D
:100D7000FB75FB695B6803F48043002B1ED07B6A24
:100D80003B623B6A01333B623B6A032B02D93B6AFD
:100D9000043B3B627B683A6A123253F82230BB60F4
:100DA000BB68DB6803F08043002B07D0BB685A6840
:100DB0007B689A67BB681A687B685A677B6803F12F
:100DC0007C007B6803F18001FB691B691A46FB68A4
:100DD0009BB213F04BFD7B681B6E5A1C7B681A6636
:100DE0007B685A6EFB681A447B685A66FB6900226E
:100DF0001A617B6A01337B627B6A032B02D97B6AAF
:100E0000043B7B627B687A6A123253F82230FB61C2
:100E1000BB690133BB61FB69DB68002B07DBBA6987
:100E20003B699A4203D2FB7D002B3FF478AF7B688D
:100E3000DA6EBB691A447B68DA667B68DB6E002B6E
:100E400002D0786800F014F87B687A6ADA65FB7D76
:100E5000012B08D17B68DA6F3B681A607B6800223F
:100E6000DA67002300E0012318462837BD4680BD1D
:100E700080B588B000AF78600023BB600123FB74AD
:100E80007B689B6EFB617B68FA69123253F82230F3
:100E90007B617B68DB6EBB613DE07B691B69002B7E
:100EA00013D107F10803184613F09AFCBB68002B16
:100EB00002D10023FB740CE0BB681A467B691A61FF
:100EC000BB681A467B691A6003E07B691A697B6913
:100ED0001A60FB7C002B1ED07B689B6D002B04D01E
:100EE0007B694FF04142DA6003E07B694FF00142D9
:100EF000DA60FB690133FB61FB69032B02D9FB69F3
:100F0000043BFB617B68FA69123253F822307B6143
:100F1000BB69013BBB61BB69002B02D0FB7C002B92
:100F2000BBD17B68DB6EBA699A421BD0FB69033385
:100F300003F00303FB60BFF35F8F00BF7B68196999
:100F4000FA6813465B001344DB00CA187B681B6811
:100F500003F58053C3F828217B68FA699A667B6899
:100F6000BA69DA6600BF2037BD4680BD80B586B05D
:100F700000AF78607B681B68D3F8B0307B617B681A
:100F80001B6803F58053D3F860313B617B681B68B5
:100F900003F58053D3F83431FB606D4B9B6ABB6023
:100FA0003B6903F04003002B10D0FB6803F04003C3
:100FB000002B0BD07B681B6803F580531A4648F260
:100FC0004003C2F86031786800F0CEF83B6903F066
:100FD0000103002B10D0FB6803F00103002B0BD0A2
:100FE0007B681B6803F580531A4648F20103C2F878
:100FF0006031786800F0AEF83B6903F48043002B61
:1010000047D0FB6803F48043002B42D07B68D3F8C1
:10101000883043F008027B68C3F888203B6903F4FA
:101020008053002B1ED07B681B6803F58053D3F8D8
:10103000602141F2021313407A68C2F88C307B6859
:101040001B6803F58053D3F834317A68126823F4AF
:10105000404302F58052C2F834317B68E022C3F885
:10106000842013E07B681B6803F58053D3F860315C
:1010700003F4CD427B68C3F88C207B681B6803F5C2
:1010800080531A464FF4CD43C2F86031786800F0BF
:1010900075F87B6903F48043002B04D17B6903F46A
:1010A0000053002B19D07B68D3F8883043F010022E
:1010B0007B68C3F888207B681B68D3F8B8207B68FE
:1010C000C3F890207B68E022C3F88420786800F0A1
:1010D00055F87B680022C3F890207B6903F0100369
:1010E000002B0FD07B681B68D3F8C03003F0600280
:1010F0007B68C3F89420786800F04AF87B68002287
:10110000C3F894207B6903F02003002B0FD07B6889
:101110001B68D3F8D03003F00F027B68C3F8982027
:10112000786800F03FF87B680022C3F89820BB681D
:1011300003F48003002B06D0054B4FF480029A6223
:10114000786800F039F800BF1837BD4680BD00BF91
:101150008000005880B483B000AF786000BF0C37C7
:10116000BD465DF8047B704780B483B000AF786003
:1011700000BF0C37BD465DF8047B704780B483B078
:1011800000AF786000BF0C37BD465DF8047B704748
:1011900080B483B000AF786000BF0C37BD465DF807
:1011A000047B704780B483B000AF786000BF0C3719
:1011B000BD465DF8047B704780B483B000AF7860B3
:1011C00000BF0C37BD465DF8047B704780B586B024
:1011D00000AFF860B9607A603B60FB681B68D3F8C9
:1011E000003203F00103002B01D001233EE0FB6835
:1011F0001B68D3F800327B617B6923F07872BB688F
:101200005B0513437B617B6923F4F8127B681B0445
:1012100013437B617B6943F00C037B617B6943F083
:1012200001037B61FB681B687A69C3F8002204F044
:1012300057FF386109E004F053FF02463B69D31AB7
:10124000B3F57A7F01D9012310E0FB681B68D3F85E
:10125000003203F00103002BEDD1FB681B68D3F8CB
:1012600004329BB21A463B681A60002318461837AE
:10127000BD4680BD80B586B000AFF860B9607A60C9
:101280003B60FB681B68D3F8003203F00103002BBE
:1012900001D001233CE0FB681B68D3F800327B617E
:1012A0007B6923F07872BB685B0513437B617B69C4
:1012B00023F4F8127B681B0413437B617B6923F0E2
:1012C0000C0343F004037B617B6943F001037B6102
:1012D0003B689AB2104BC3F804220F4A7B69C2F8EC
:1012E000003204F0FDFE386109E004F0F9FE024628
:1012F0003B69D31AB3F57A7F01D9012308E0FB6873
:101300001B68D3F8003203F00103002BEDD100235A
:1013100018461837BD4680BD0080024080B483B0B7
:1013200000AF786039603B68002B01D10123C3E135
:101330007B681B681B6803F00C023B68DA627B6801
:101340001B681B6803F01003002B14BF012300234C
:10135000DBB21A463B6883F828207B681B681B6851
:1013600003F060023B685A627B681B681B6803F4E9
:101370008073002B0CBF01230023DBB21A463B68AD
:1013800083F820207B681B681B6803F40073002B24
:1013900014BF01230023DBB21A463B68DA777B686F
:1013A0001B681B6803F48063002B0CBF0123002320
:1013B000DBB21A463B689A777B681B681B6803F4AC
:1013C0000063002B14BF01230023DBB21A463B68E5
:1013D0005A777B681B681B6803F48053002B14BF8B
:1013E00001230023DBB21A463B681A777B681B682F
:1013F0001B6803F400523B689A617B681B681B689A
:1014000003F480423B685A617B681B681B6803F4E5
:101410008033002B14BF01230023DBB21A463B6844
:101420009A747B681B681B6803F40033002B0CBFA5
:1014300001230023DBB21A463B685A747B681B68A1
:101440001B6803F40023002B0CBF01230023DBB235
:101450001A463B681A747B681B681B6803F4801388
:10146000002B14BF01230023DBB21A463B68DA735A
:101470007B681B681B6803F40013002B14BF012357
:101480000023DBB21A463B689A737B681B681B68B3
:1014900003F48003002B14BF01230023DBB21A46A0
:1014A0003B685A737B681B681B6803F40003002BBE
:1014B00014BF01230023DBB21A463B681A737B6812
:1014C0001B681B6803F0E0623B689A607B681B68DE
:1014D0001B6803F00063002B14BF01230023DBB261
:1014E0001A463B681A717B681B681B6803F0E04270
:1014F0003B681A607B681B685B68C3F30D023B683E
:101500005A637B681B685B6803F48033002B0CBF55
:1015100001230023DBB21A463B6883F832207B6844
:101520001B685B6803F40033002B14BF0123002306
:10153000DBB21A463B6883F831207B681B685B6826
:1015400003F48023002B14BF01230023DBB21A46CF
:101550003B6883F830207B681B685B6803F080730E
:10156000002B14BF01230023DBB21A463B6883F82B
:1015700038207B681B685B685B0E03F01F023B68CA
:10158000DA637B681B68DB6803F48073002B14BF8D
:1015900001230023DBB21A463B6883F840207B68B6
:1015A0001B68DB6803F00F023B685A647B681B68AA
:1015B0001B6F03F00203002B14BF01230023DBB2D7
:1015C0001A463B6883F854207B681B681B6F03F046
:1015D0008003002B0CBF01230023DBB21A463B68BB
:1015E00083F84C207B681B681B6F03F070023B681C
:1015F0001A657B681B681B6F1B0C9AB23B689A6468
:101600007B681B68D3F8903003F00103002B14BFF4
:1016100001230023DBB21A463B6883F856207B681F
:101620001B68D3F8903003F00203002B14BF012392
:101630000023DBB21A463B6883F855207B681B68A1
:10164000D3F8003D03F072023B689A657B681B6823
:10165000D3F8303D03F023023B68DA657B681B68F2
:10166000D3F8303D03F00803002B14BF01230023FF
:10167000DBB21A463B6883F862207B681B68D3F8AC
:10168000303D03F01003002B14BF01230023DBB215
:101690001A463B6883F861207B681B68D3F8303DAD
:1016A00003F04003002B0CBF01230023DBB21A46DA
:1016B0003B6883F86020002318460C37BD465DF870
:1016C000047B704780B582B000AF786039603B68BA
:1016D000002B01D101230BE07B68D3F88430102B61
:1016E00005D13968786800F057F8002300E001233D
:1016F00018460837BD4680BD80B584B000AF78601D
:101700007B681B68D3F80032FB60FB6823F47063CE
:10171000FB6001F037FDB860BB681A4A934204D8F9
:10172000FB6843F40073FB6022E0BB68164A9342F7
:1017300004D2FB6843F44073FB6019E0BB68134AB2
:10174000934215D9BB68124A934204D8FB6843F40C
:101750008073FB600CE0BB680E4A934204D8FB68C0
:1017600043F48063FB6003E0FB6843F4A063FB6029
:101770007B681B68FA68C3F8002200BF1037BD46BB
:1017800080BD00BFBF0E160200879303FFE0F50582
:101790007FD1F0087FB2E60E80B485B000AF7860EC
:1017A00039603B689A683B681B681A433B681B7941
:1017B000DB061A433B681B7BDB051A433B685B7BFC
:1017C0009B051A433B689B7B5B051A433B68DB7BAD
:1017D0001B0513433A68127C002A02D14FF4002201
:1017E00000E0002213433A68527C002A02D14FF4F1
:1017F000003200E000221A433B689B7C1B041A4322
:101800003B685B691A433B689B691A433B681B7FD3
:101810001B031A433B685B7FDB0213433A68927FEA
:10182000002A02D14FF4806200E000221A433B6894
:10183000DB7F5B0213433A6892F82020002A02D132
:101840004FF4807200E000221A433B685B6A1A433F
:101850003B6893F828301B011A433B68DB6A13434B
:10186000FB607B681B681A68564B13407A681268E5
:10187000F9680B4313603B68DB6B5A063B6893F8CF
:1018800038301B061A433B6893F830309B041A43E8
:101890003B6893F831305B0413433A6892F8322086
:1018A000002A02D14FF4803200E000221A433B6844
:1018B0005B6B1343FB607B681B685A68424B1340A9
:1018C0007A681268F9680B4353603B6893F84030BC
:1018D0001A023B685B6C1343FB607B681B68DA6829
:1018E0003A4B13407A681268F9680B43D3603B683F
:1018F00093F854305A003B681B6D13433A6892F8D2
:101900004C20002A01D1802200E000221A433B68CB
:101910009B6C1B041343FB607B681B681A6F4FF6BC
:101920000D7313407A681268F9680B4313673B68BC
:1019300093F856301A463B6893F855305B001343D2
:10194000FB607B681B68D3F8903023F003017B6851
:101950001B68FA680A43C3F890207B681B68D3F8B9
:10196000003D23F072013B689A6D7B681B680A4357
:10197000C3F8002D3B68DB6D3A6892F86020002ABE
:1019800001D1402200E000221A433B6893F8613005
:101990001B011A433B6893F86230DB001343FB6082
:1019A0007B681B68D3F8303D23F07B017B681B68A4
:1019B000FA680A43C3F8302D00BF1437BD465DF8FE
:1019C000047B7047838004000080F8C0F0FEFFFFB6
:1019D00080B485B000AF786039607B681B6803F520
:1019E00080531A68384B13403A6811687A68126855
:1019F0000B4302F5805213603B681B791A033B6866
:101A00009B681A433B681B7BDB031343FB607B68CB
:101A10001B6803F580535A682C4B13407A68126890
:101A2000F9680B4302F5805253603B685B7B1A04F4
:101A30003B681B6A1343FB607B681B6803F580539C
:101A4000D3F80021224B13407A681268F9680B43DF
:101A500002F58052C2F800313B681A693B681B7D71
:101A60001B011A433B685B7F1B031343FB607B68CE
:101A70001B6803F58053D3F80421164B13407A6892
:101A80001268F9680B4302F58052C2F804313B68D2
:101A90001B7FDA073B689B691343FB607B681B680D
:101AA00003F58053D3F808210B4B13407A68126872
:101AB000F9680B4302F58052C2F8083100BF1437B1
:101AC000BD465DF8047B7047FD87FFFFFE2FFFFFDB
:101AD00000C0FEFFEFEFC0FFFFFFC07F80B5A4B0E6
:101AE00000AF7860012387F83B3000233B6500237B
:101AF00087F84930002387F84B30012387F83030CE
:101B0000012387F85E30012387F83A30002387F8F5
:101B10005430012387F88C304FF400537B6400234A
:101B200087F864300023BB66002387F88D300023DC
:101B300087F88E304FF4C3633B66002387F8383054
:101B400000237B63012387F83D30002387F83E3074
:101B5000002387F848300023FB6700237B670023BE
:101B6000BB65002387F86C30002387F8823001239F
:101B700087F84A302023C7F88830012387F84C3093
:101B8000002387F85D304FF04053FB624FF48043F1
:101B90003B64002387F839300223C7F884300023E0
:101BA00087F88030002387F88130002387F85C3085
:101BB000012387F83C3000233B67012387F8783006
:101BC00007F12C0319467868FFF7E6FD01233B7304
:101BD00001233B610023BB60002387F824300023EE
:101BE0007B7500233B754FF400133B6200233B776A
:101BF0004FF40013BB61002387F825304FF40673C0
:101C0000BB6207F1080319467868FFF7E1FE00BFE1
:101C10009037BD4680BD80B485B000AF78600023AA
:101C2000FB601DE07B68D968FA6813465B001344CB
:101C3000DB000B44BB60BB6800221A60BB6800225B
:101C40005A60BB6800229A60BB680022DA60B968FB
:101C50007B68FA68063243F82210FB680133FB60A8
:101C6000FB68032BDED97B6800229A627B681B68C5
:101C700003F580531A460323C2F82C317B68DA68D7
:101C80007B681B6803F58053C3F814217B68DA680E
:101C90007B681B6803F58053C3F8202100BF14370D
:101CA000BD465DF8047B704780B485B000AF7860B6
:101CB0000023FB6023E07B681969FA6813465B0028
:101CC0001344DB000B44BB60BB6800221A60BB6896
:101CD00000225A60BB6800229A60BB680022DA606A
:101CE000BB6800221A61BB6800225A61B9687B6830
:101CF000FA68123243F82210FB680133FB60FB687C
:101D0000032BD8D97B680022DA657B6800221A662B
:101D10007B6800229A667B680022DA667B68002274
:101D20009A657B681B6803F580531A460323C2F843
:101D300030317B681A697B681B6803F58053C3F8F0
:101D40001C217B681B6903F148027B681B6803F553
:101D50008053C3F8282100BF1437BD465DF8047BCB
:101D60007047000080B491B000AFF860B9607A604D
:101D7000FB6818337B627B6A1B69FB637B6A1B69A8
:101D80003B6200237B637B6AFA6B53F822303B6330
:101D9000BB689B68FB620023BB623B6BDB6803F0A4
:101DA0000043B3F1004F07D07A6AFB6B04339B000A
:101DB00013445B68002B01D0022366E2BB681B68FA
:101DC00003F00403002B44D03B6BDA68754B1340DF
:101DD000BA68526A1A433B6BDA603B6BDB6843F4C8
:101DE00080323B6BDA60FB681B681A6EFB681B680D
:101DF00042F480121A66BB681B6803F00803002BCC
:101E000027D03B6B9B689AB2BB68DB6A1B041A4302
:101E10003B6B9A603B6BDB6843F400323B6BDA60F0
:101E20003B6BDB6823F44022BB681B6B1A433B6BA4
:101E3000DA60FB681B685A6EFB681B6842F480120C
:101E40005A66FB681B681A6DFB681B6842F080626B
:101E50001A65BB681B6803F01003002B0ED03B6BA8
:101E60009A68514B1340BA6892691A433B6B9A6067
:101E70003B6BDB6843F080623B6BDA60BB681B68DE
:101E800003F00403002B05D1BB681B6803F01003AB
:101E9000002B36D03B6BDB6843F080423B6BDA6053
:101EA000BFF35F8F00BF3B6BDB6843F000423B6BCF
:101EB000DA60FB6B0133FB63FB6B032B02D9FB6B1B
:101EC000043BFB637B6AFA6B53F822303B637B6B0A
:101ED00001337B633B6BDB6803F00043B3F1004FDE
:101EE0000FD17B6A3A6A53F822303B63BFF35F8FAE
:101EF00000BF3B6BDB6823F000423B6BDA600223E0
:101F0000C3E17B6B01337B63FB6A1B681A463B6B47
:101F10001A603B6B9A68244B1340FA6A52681A4362
:101F20003B6B9A60FB6A9B68002B12D0FB6A9B6834
:101F3000FB62FB6A1B681A463B6B5A603B6B9A68F4
:101F40001A4B1340FA6A526812041A433B6B9A60A8
:101F500008E03B6B00225A603B6B9A68134B1340BE
:101F60003A6B9360BB681B6803F01003002B21D011
:101F70003B6BDB6823F4F002BB681B6ADB041A438B
:101F80003B6BDA603B6BDA68094B1340BA68D26985
:101F90001A433B6BDA603B6BDB6843F480223B6B9C
:101FA000DA602EE00000FFFF00C0FFFFFFFF00C06F
:101FB0000000FCFF3B6BDA687B4B1340BA68526849
:101FC0001A433B6BDA60BB681B6803F00103002B0C
:101FD00008D03B6BDB6823F44032BB685B691A4373
:101FE0003B6BDA60BB681B6803F02003002B08D052
:101FF0003B6BDB6823F04062BB681B691A433B6B99
:10200000DA60BB681B6803F00403002B08D03B6B4D
:102010009B6823F44042BB689B6A1A433B6B9A60FF
:102020003B6BDB6843F000523B6BDA603B6BDB6879
:1020300023F080423B6BDA60BFF35F8F00BF3B6BE6
:10204000DB6843F000423B6BDA60BB681B6803F05F
:102050000203002B00F0DA803B6BDB6823F0607238
:10206000BB68DB681A433B6BDA60CFE03B6BDB6835
:1020700023F080523B6BDA60FB6B0133FB63FB6B3D
:10208000032B02D9FB6B043BFB637B6AFA6B53F8AF
:1020900022303B633B6BDB6823F000523B6BDA6022
:1020A0003B6BDB6803F00043B3F1004F07D07A6A63
:1020B000FB6B04339B0013445B68002B29D03B6A05
:1020C000FB637B6AFA6B53F822303B630023BB63EC
:1020D00019E0BFF35F8F00BF3B6BDB6823F000426A
:1020E0003B6BDA60FB6B0133FB63FB6B032B02D9A9
:1020F000FB6B043BFB637B6AFA6B53F822303B6358
:10210000BB6B0133BB63BA6B7B6B9A42E1D3022397
:10211000BBE07B6B01337B63FB6A9B68FB62FB6A02
:102120001B681A463B6B1A603B6B9A681F4B134047
:10213000FA6A52681A433B6B9A60FB6A9B68002BF1
:1021400012D0FB6A9B68FB62FB6A1B681A463B6BFA
:102150005A603B6B9A68164B1340FA6A5268120435
:102160001A433B6B9A6008E03B6B00225A603B6B62
:102170009A680F4B13403A6B9360BB681B6803F07F
:102180001003002B18D03B6BDA680A4B1340BA6877
:10219000D2691A433B6BDA603B6BDB6843F4802205
:1021A0003B6BDA6020E000BF0080FFFF00C0FFFF54
:1021B000FFFF00C00000FCFF3B6BDA68364B1340AA
:1021C000BA6852681A433B6BDA60BB681B6803F05D
:1021D0000103002B08D03B6BDB6823F44032BB6863
:1021E0005B691A433B6BDA60BB6A0133BB62BFF3C6
:1021F0005F8F00BF3B6BDB6843F000423B6BDA60F4
:102200003B6BDB6823F080423B6BDA60FB6A9B68C8
:10221000002B7FF42BAF7B68002B06D03B6B9B68B9
:1022200043F000423B6B9A6005E03B6B9B6823F0F8
:1022300000423B6B9A603B6BDB6843F080523B6B28
:10224000DA607B6A5A6A796AFB6B04339B000B4441
:102250005A607B6AFA6B1A61EFF31083BB61BB694A
:10226000FB6101237B617B6983F3108800BF7B6A7C
:102270009A6ABB6A13445A1C7B6A9A62FB693B6187
:102280003B6983F3108800BF002318464437BD46DE
:102290005DF8047B704700BF0080FFFF80B58CB005
:1022A00000AF78607B68002B01D10123C8E37B6815
:1022B0001B6803F00103002B00F08780884B1B692B
:1022C00003F03803FB62864B9B6ABB62FB6A102BF0
:1022D00007D0FB6A182B10D1BB6A03F00303022B53
:1022E0000BD17F4B1B6803F40033002B6CD07B6851
:1022F0005B68002B68D10123A2E37B685B68B3F5C0
:10230000803F06D1764B1B68754A43F480331360D7
:102310002EE07B685B68002B0CD1714B1B68704A08
:1023200023F4803313606E4B1B686D4A23F48023C3
:1023300013601DE07B685B68B3F5A02F0CD1684B80
:102340001B68674A43F480231360654B1B68644A2B
:1023500043F4803313600BE0614B1B68604A23F445
:10236000803313605E4B1B685D4A23F48023136047
:102370007B685B68002B13D003F0B2FE786208E044
:1023800003F0AEFE02467B6AD31A642B01D9032305
:1023900056E3534B1B6803F40033002BF0D014E0DA
:1023A00003F09EFE786208E003F09AFE02467B6A24
:1023B000D31A642B01D9032342E3494B1B6803F46E
:1023C0000033002BF0D100E000BF7B681B6803F0F6
:1023D0000203002B00F08C80414B1B6903F0380393
:1023E0003B623F4B9B6AFB613B6A002B07D03B6A19
:1023F000182B37D1FB6903F00303002B32D1384B84
:102400001B6803F00403002B05D07B68DB68002BFE
:1024100001D1012314E3324B1B6823F019027B68BE
:10242000DB682F4913430B6003F05AFE786208E023
:1024300003F056FE02467B6AD31A022B01D903230E
:10244000FEE2274B1B6803F00403002BF0D0244B63
:102450005B6823F0FE427B681B691B06204913431F
:102460004B6045E07B68DB68002B26D01C4B1B686B
:1024700023F019027B68DB68194913430B6003F0F2
:102480002FFE786208E003F02BFE02467B6AD31A27
:10249000022B01D90323D3E2114B1B6803F0040381
:1024A000002BF0D00E4B5B6823F0FE427B681B696B
:1024B0001B060B4913434B601AE0094B1B68084A83
:1024C00023F00103136003F00BFE78620AE003F0CF
:1024D00007FE02467B6AD31A022B03D90323AFE21D
:1024E00000440258964B1B6803F00403002BEED106
:1024F0007B681B6803F01003002B6AD0904B1B69AC
:1025000003F03803BB618E4B9B6A7B61BB69082B70
:1025100007D0BB69182B1BD17B6903F00303012B88
:1025200016D1874B1B6803F48073002B05D07B68A2
:10253000DB69802B01D0012382E2814BDB6823F031
:102540007C527B681B6A1B067D491343CB6040E0CD
:102550007B68DB69002B23D0794B1B68784A43F0FA
:102560008003136003F0BCFD786208E003F0B8FD5F
:1025700002467B6AD31A022B01D9032360E2704B17
:102580001B6803F48073002BF0D06D4BDB6823F0E5
:102590007C527B681B6A1B0669491343CB6018E0B9
:1025A000674B1B68664A23F08003136003F098FDB5
:1025B000786208E003F094FD02467B6AD31A022B8E
:1025C00001D903233CE25E4B1B6803F48073002BAC
:1025D000F0D17B681B6803F00803002B36D07B68C2
:1025E0005B69002B19D0564B5B6F554A43F00103D2
:1025F000536703F075FD786208E003F071FD024651
:102600007B6AD31A022B01D9032319E24C4B5B6F6F
:1026100003F00203002BF0D018E0494B5B6F484AEF
:1026200023F00103536703F05BFD786208E003F0D9
:1026300057FD02467B6AD31A022B01D90323FFE11F
:102640003F4B5B6F03F00203002BF0D17B681B68EC
:1026500003F02003002B36D07B689B69002B19D038
:10266000374B1B68364A43F48053136003F038FD40
:10267000786208E003F034FD02467B6AD31A022B2D
:1026800001D90323DCE12E4B1B6803F40053002B1C
:10269000F0D018E02A4B1B68294A23F480531360BA
:1026A00003F01EFD786208E003F01AFD02467B6A23
:1026B000D31A022B01D90323C2E1214B1B6803F477
:1026C0000053002BF0D17B681B6803F00403002B40
:1026D00000F086801B4B1B681A4A43F4807313601A
:1026E00003F0FEFC786208E003F0FAFC02467B6A25
:1026F000D31A642B01D90323A2E1124B1B6803F404
:102700008073002BF0D07B689B68012B06D10C4BAB
:102710001B6F0B4A43F00103136732E07B689B6831
:10272000002B11D1064B1B6F054A23F001031367E1
:10273000034B1B6F024A23F00403136721E000BF21
:1027400000440258004802587B689B68052B0CD156
:10275000834B1B6F824A43F004031367804B1B6F4C
:102760007F4A43F0010313670BE07D4B1B6F7C4AEC
:1027700023F0010313677A4B1B6F794A23F004039C
:1027800013677B689B68002B15D003F0A9FC786267
:102790000AE003F0A5FC02467B6AD31A41F28832B4
:1027A000934201D903234BE16D4B1B6F03F00203EE
:1027B000002BEED014E003F093FC78620AE003F003
:1027C0008FFC02467B6AD31A41F28832934201D9C8
:1027D000032335E1624B1B6F03F00203002BEED1A4
:1027E0007B685B6A002B00F02A815D4B1B6903F05C
:1027F0003803182B00F0BA807B685B6A022B40F02C
:102800009580574B1B68564A23F08073136003F082
:1028100067FC786208E003F063FC02467B6AD31A27
:10282000022B01D903230BE14D4B1B6803F000730E
:10283000002BF0D14A4B9A6A4A4B13407A68916A4E
:102840007A68D26A12010A43454913438B627B6856
:102850001B6B013BC3F308027B685B6B013B5B02B4
:102860009BB21A437B689B6B013B1B0403F4FE0382
:102870001A437B68DB6B013B1B0603F0FE433849C0
:1028800013430B63364BDB6A354A23F00103D362F3
:10289000334B5A6B344B13407A68926CD2003049F8
:1028A00013434B632E4BDB6A23F00C027B681B6CDB
:1028B0002B491343CB622A4BDB6A23F002027B686D
:1028C0005B6C27491343CB62254BDB6A244A43F4F4
:1028D0008033D362224BDB6A214A43F40033D36254
:1028E0001F4BDB6A1E4A43F48023D3621C4BDB6A16
:1028F0001B4A43F00103D362194B1B68184A43F08B
:102900008073136003F0ECFB786208E003F0E8FBEF
:1029100002467B6AD31A022B01D9032390E0104BA5
:102920001B6803F00073002BF0D088E00C4B1B6891
:102930000B4A23F08073136003F0D2FB786208E047
:1029400003F0CEFB02467B6AD31A022B01D9032384
:1029500076E0034B1B6803F00073002BF0D16EE0B0
:10296000004402580CFCFFFF0700FFFF364B9B6A38
:102970003B61354B1B6BFB607B685B6A012B31D085
:102980003B6903F003027B689B6A9A422AD13B6948
:102990001B0903F03F027B68DB6A9A4222D1FB6885
:1029A000C3F308027B681B6B013B9A421AD1FB6898
:1029B0005B0A03F07F027B685B6B013B9A4211D19B
:1029C000FB681B0C03F07F027B689B6B013B9A4208
:1029D00008D1FB681B0E03F07F027B68DB6B013BB9
:1029E0009A4201D001232BE0174B5B6BDB08C3F34A
:1029F0000C033B617B689B6C3A699A421FD0124B77
:102A0000DB6A114A23F00103D36203F069FB7862A9
:102A100000BF03F065FB02467B6A9342F9D00A4B84
:102A20005A6B0A4B13407A68926CD20006491343E2
:102A30004B63054BDB6A044A43F00103D362002376
:102A400018463037BD4680BD004402580700FFFFDE
:102A500080B586B000AF786039607B68002B01D10B
:102A600001239CE18A4B1B6803F00F033A689A42EA
:102A700010D9874B1B6823F00F0285493B6813432D
:102A80000B60834B1B6803F00F033A689A4201D036
:102A9000012384E17B681B6803F00403002B10D042
:102AA0007B681A697B4B9B6903F070039A4208D9D3
:102AB000784B9B6923F070027B681B69754913434F
:102AC0008B617B681B6803F00803002B10D07B68C8
:102AD0005A69704BDB6903F070039A4208D96D4B59
:102AE000DB6923F070027B685B696A491343CB6141
:102AF0007B681B6803F01003002B10D07B689A6979
:102B0000644BDB6903F4E0639A4208D9614BDB69EB
:102B100023F4E0627B689B695E491343CB617B6869
:102B20001B6803F02003002B10D07B68DA69594B37
:102B30001B6A03F070039A4208D9564B1B6A23F0B4
:102B400070027B68DB69534913430B627B681B6827
:102B500003F00203002B10D07B68DA684D4B9B69B1
:102B600003F00F039A4208D94A4B9B6923F00F02E6
:102B70007B68DB68474913438B617B681B6803F004
:102B80000103002B55D0434B9B6923F470627B6893
:102B90009B68404913438B617B685B68022B07D1BC
:102BA0003C4B1B6803F40033002B21D10123F6E0DA
:102BB0007B685B68032B07D1364B1B6803F00073FF
:102BC000002B15D10123EAE07B685B68012B07D15C
:102BD000304B1B6803F48073002B09D10123DEE026
:102BE0002C4B1B6803F00403002B01D10123D6E01A
:102BF000284B1B6923F007027B685B682549134358
:102C00000B6103F06DFA78610AE003F069FA02469D
:102C10007B69D31A41F28832934201D90323BEE083
:102C20001C4B1B6903F038027B685B68DB009A422F
:102C3000EBD17B681B6803F00203002B10D07B688C
:102C4000DA68144B9B6903F00F039A4208D2114BC8
:102C50009B6923F00F027B68DB680E4913438B618D
:102C60000B4B1B6803F00F033A689A4214D2084BCF
:102C70001B6823F00F0206493B6813430B60044BAB
:102C80001B6803F00F033A689A4205D0012386E0DF
:102C900000200052004402587B681B6803F00403C4
:102CA000002B10D07B681A693F4B9B6903F07003BF
:102CB0009A4208D23C4B9B6923F070027B681B69E7
:102CC000394913438B617B681B6803F00803002BB1
:102CD00010D07B685A69344BDB6903F070039A4269
:102CE00008D2314BDB6923F070027B685B692E49A7
:102CF0001343CB617B681B6803F01003002B10D0DB
:102D00007B689A69284BDB6903F4E0639A4208D236
:102D1000254BDB6923F4E0627B689B6922491343FE
:102D2000CB617B681B6803F02003002B10D07B680D
:102D3000DA691D4B1B6A03F070039A4208D21A4BE2
:102D40001B6A23F070027B68DB69174913430B622F
:102D500000F09EF80246144B9B691B0A03F00F0318
:102D60001249CB5C03F01F0322FA03F33B610E4BC5
:102D70009B6903F00F030D4AD35C03F01F033A690C
:102D800022FA03F30A4A13600A4A3B6913600A4BAA
:102D90001B68184603F05AF90346FB73FB7B184681
:102DA0001837BD4680BD00BF0044025874C70108F3
:102DB00004000020000000200800002080B58CB036
:102DC00000AFF860B9607A60FB68002B2AD12D4B08
:102DD000D3F8E0302B4A43F00103C2F8E030294B2E
:102DE000D3F8E03003F00103BB61BB694FF480739B
:102DF000FB6102233B620323BB6200237B6200234F
:102E0000FB6207F11C0319461F4801F0D9FF1D4B57
:102E10001B6923F0FE72B9687B680B4319491343A1
:102E20000B612AE0174BD3F8E030164A43F0040355
:102E3000C2F8E030134BD3F8E03003F004037B61B9
:102E40007B694FF40073FB6102233B620323BB6287
:102E500000237B620023FB6207F11C0319460B4829
:102E600001F0AEFF074B1B6923F07E427B68D9015E
:102E7000BB680B43034913430B6100BF3037BD46AA
:102E800080BD00BF004402580000025800080258EC
:102E900080B489B000AFB34B1B6903F03803182B23
:102EA00000F2558101A252F823F000BF112F000853
:102EB0004F3100084F3100084F3100084F310008F2
:102EC0004F3100084F3100084F310008372F0008FC
:102ED0004F3100084F3100084F3100084F310008D2
:102EE0004F3100084F3100084F3100083D2F0008D6
:102EF0004F3100084F3100084F3100084F310008B2
:102F00004F3100084F3100084F310008432F0008AF
:102F1000944B1B6803F02003002B09D0914B1B68D6
:102F2000DB0803F00303904A22FA03F3BB6111E1CB
:102F30008D4BBB610EE18D4BBB610BE18C4BBB61DB
:102F400008E1884B9B6A03F003037B61854B9B6A16
:102F50001B0903F03F033B61824BDB6A03F0010373
:102F6000FB60804B5B6BDB08C3F30C03FA6802FB6E
:102F700003F307EE903AF8EE677AC7ED027A3B6901
:102F8000002B00F0E1807B69022B00F083807B69DD
:102F9000022B00F2A1807B69002B03D07B69012BFF
:102FA00056D099E06F4B1B6803F02003002B2DD007
:102FB0006C4B1B68DB0803F003036B4A22FA03F334
:102FC0007B607B6807EE903AF8EE676A3B6907EE34
:102FD000903AF8EE677A86EEA77A624B1B6BC3F3E2
:102FE000080307EE903AF8EE676A97ED026ADFEDA4
:102FF000615AC6EE257A76EEA77AF7EE006A77EE8A
:10300000A67A67EE277AC7ED077A87E03B6907EE75
:10301000903AF8EE677ADFED586A86EEA77A514B60
:103020001B6BC3F3080307EE903AF8EE676A97ED5F
:10303000026ADFED505AC6EE257A76EEA77AF7EEF1
:10304000006A77EEA67A67EE277AC7ED077A65E021
:103050003B6907EE903AF8EE677ADFED486A86EE54
:10306000A77A404B1B6BC3F3080307EE903AF8EEC8
:10307000676A97ED026ADFED3F5AC6EE257A76EE73
:10308000A77AF7EE006A77EEA67A67EE277AC7EDA1
:10309000077A43E03B6907EE903AF8EE677ADFED96
:1030A000386A86EEA77A2F4B1B6BC3F3080307EE33
:1030B000903AF8EE676A97ED026ADFED2E5AC6EE97
:1030C000257A76EEA77AF7EE006A77EEA67A67EEB3
:1030D000277AC7ED077A21E03B6907EE903AF8EED0
:1030E000677ADFED266A86EEA77A1E4B1B6BC3F369
:1030F000080307EE903AF8EE676A97ED026ADFED93
:103100001D5AC6EE257A76EEA77AF7EE006A77EEBC
:10311000A67A67EE277AC7ED077A00BF114B1B6BC3
:103120005B0A03F07F0301333B603B6807EE903A94
:10313000B8EE677AD7ED076AC6EE877AFCEEE77AD3
:1031400017EE903ABB6105E00023BB6102E0074B3C
:10315000BB6100BFBB6918462437BD465DF8047BE0
:10316000704700BF004402580090D00300093D00A2
:1031700040787D01000000460024744C0024744A0D
:1031800020BCBE4B80B582B000AFFFF781FE024687
:10319000104B9B691B0A03F00F030F49CB5C03F034
:1031A0001F0322FA03F37B600A4B9B6903F00F03B2
:1031B000094AD35C03F01F037A6822FA03F3074A33
:1031C0001360074A7B681360044B1B681846083776
:1031D000BD4680BD0044025874C7010804000020A9
:1031E0000000002080B500AFFFF7CCFF0246064B81
:1031F000DB691B0903F007030449CB5C03F01F03E1
:1032000022FA03F3184680BD0044025874C701082F
:1032100080B500AFFFF7B6FF0246064BDB691B0A1D
:1032200003F007030449CB5C03F01F0322FA03F306
:10323000184680BD0044025874C701082DE9B04FFC
:10324000C6B000AFC7F80401002387F81731002388
:1032500087F81631D7F80431D3E9002302F000646F
:10326000002554EA050349D0D7F804315B6EB3F565
:10327000401F2FD0B3F5401F28D8B3F5001F1AD038
:10328000B3F5001F22D8002B03D0B3F5801F07D061
:103290001CE0AB4BDB6AAA4A43F40033D3621AE06A
:1032A000D7F8043108330221184601F025FC034603
:1032B00087F817310FE0D7F8043128330221184678
:1032C00001F0CCFC034687F8173104E0012387F8AE
:1032D000173100E000BF97F81731002B0AD1984B47
:1032E0001B6D23F44011D7F804315B6E944A0B43F5
:1032F000136503E097F8173187F81631D7F80431D2
:10330000D3E9002302F480784FF0000958EA09035A
:1033100047D0D7F804319B6D042B2AD801A252F86C
:1033200023F000BF39330008473300085D3300083D
:103330007B3300087B330008814BDB6A804A43F40F
:103340000033D3621AE0D7F804310833002118465D
:1033500001F0D2FB034687F817310FE0D7F80431AC
:1033600028330021184601F079FC034687F817310D
:1033700004E0012387F8173100E000BF97F8173108
:10338000002B0AD16E4B1B6D23F00701D7F80431D7
:103390009B6D6B4A0B43136503E097F8173187F871
:1033A0001631D7F80431D3E9002302F4806A4FF0D4
:1033B000000B5AEA0B035BD0D7F80431D3F8A430E2
:1033C000B3F5200F3BD0B3F5200F34D8B3F5000F81
:1033D00037D0B3F5000F2ED8B3F5C00F33D0B3F507
:1033E000C00F28D8B3F5800F1AD0B3F5800F22D8BC
:1033F000002B03D0B3F5001F07D01CE0504BDB6A55
:103400004F4A43F40033D3621EE0D7F80431083347
:103410000021184601F070FB034687F8173113E0CE
:10342000D7F8043128330021184601F017FC034671
:1034300087F8173108E0012387F8173104E000BF4F
:1034400002E000BF00E000BF97F81731002B0BD15E
:103450003B4B9B6D23F46001D7F80431D3F8A430C3
:10346000374A0B43936503E097F8173187F8163115
:10347000D7F80431D3E9002302F40063C7F8F83029
:103480000023C7F8FC30D7E93E120B4613435DD04A
:10349000D7F80431D3F8A830B3F1A06F3BD0B3F123
:1034A000A06F34D8B3F1806F37D0B3F1806F2ED8CE
:1034B000B3F1407F33D0B3F1407F28D8B3F1007F20
:1034C0001AD0B3F1007F22D8002B03D0B3F1807F54
:1034D00007D01CE01A4BDB6A194A43F40033D3626D
:1034E0001EE0D7F8043108330021184601F004FB30
:1034F000034687F8173113E0D7F804312833002149
:10350000184601F0ABFB034687F8173108E00123AA
:1035100087F8173104E000BF02E000BF00E000BF01
:1035200097F81731002B0DD1054B9B6D23F0E0610F
:10353000D7F80431D3F8A830014A0B43936505E06E
:103540000044025897F8173187F81631D7F804313C
:10355000D3E9002302F00073C7F8F0300023C7F866
:10356000F430D7E93C120B4613433AD0D7F8043174
:10357000DB6C302B1FD0302B19D8202B0CD0202BFC
:1035800015D8002B19D0102B11D1AA4BDB6AA94AF0
:1035900043F40033D36211E0D7F804310833022139
:1035A000184601F0A9FA034687F8173106E001230F
:1035B00087F8173102E000BF00E000BF97F817312D
:1035C000002B0AD19B4BDB6C23F03001D7F8043180
:1035D000DB6C984A0B43D36403E097F8173187F804
:1035E0001631D7F80431D3E9002302F48053C7F829
:1035F000E8300023C7F8EC30D7E93A120B46134302
:1036000051D0D7F80431DB6DB3F5804F35D0B3F529
:10361000804F2ED8B3F5405F31D0B3F5405F28D846
:10362000B3F5005F1AD0B3F5005F22D8002B03D0AA
:10363000B3F5805F07D01CE07E4BDB6A7D4A43F424
:103640000033D3621CE0D7F8043108330021184658
:1036500001F052FA034687F8173111E0D7F8043128
:1036600028330021184601F0F9FA034687F817318C
:1036700006E0012387F8173102E000BF00E000BF39
:1036800097F81731002B0AD16A4B1B6D23F4E041E8
:10369000D7F80431DB6D674A0B43136503E097F8F5
:1036A000173187F81631D7F80431D3E9002302F433
:1036B0000053C7F8E0300023C7F8E430D7E93812E8
:1036C0000B46134353D0D7F804311B6EB3F5A02F2C
:1036D00033D0B3F5A02F2CD8B3F5802F2FD0B3F56E
:1036E000802F26D8B3F5403F2BD0B3F5403F20D8EC
:1036F000B3F5003F12D0B3F5003F1AD8002B22D00B
:10370000B3F5803F15D1D7F80431083301211846AD
:1037100001F0F2F9034687F8173115E0D7F80431C4
:1037200028330121184601F099FA034687F817312A
:103730000AE0012387F8173106E000BF04E000BF6C
:1037400002E000BF00E000BF97F81731002B0AD15C
:10375000384B1B6D23F4E021D7F804311B6E354A3A
:103760000B43136503E097F8173187F81631D7F844
:103770000431D3E9002302F48043C7F8D830002392
:10378000C7F8DC30D7E936120B46134358D0D7F8C8
:103790000431D3F8AC30B3F1A04F33D0B3F1A04F24
:1037A0002CD8B3F1804F2FD0B3F1804F26D8B3F18E
:1037B000405F2BD0B3F1405F20D8B3F1005F12D04F
:1037C000B3F1005F1AD8002B22D0B3F1805F15D17E
:1037D000D7F8043108330121184601F08DF903466A
:1037E00087F8173115E0D7F804312833012118463E
:1037F00001F034FA034687F817310AE0012387F80D
:10380000173106E000BF04E000BF02E000BF00E0A7
:1038100000BF97F81731002B0ED1064B9B6D23F09C
:10382000E041D7F80431D3F8AC30024A0B4393653A
:1038300006E000BF0044025897F8173187F81631A8
:10384000D7F80431D3E9002302F40043C7F8D0309D
:103850000023C7F8D430D7E934120B46134337D0CE
:10386000D7F80431DB6EB3F1005F0ED0B3F1005F27
:1038700016D8002B18D0B3F1805F11D1C44BDB6A8E
:10388000C34A43F40033D3620FE0D7F8043108335E
:103890000121184601F030F9034687F8173104E09A
:1038A000012387F8173100E000BF97F81731002B8C
:1038B0000AD1B74B1B6D23F04051D7F80431DB6EB2
:1038C000B34A0B43136503E097F8173187F81631B5
:1038D000D7F80431D3E9002302F08073C7F8C83069
:1038E0000023C7F8CC30D7E932120B46134339D046
:1038F000D7F804319B6C032B1CD801A252F823F09B
:103900003D390008113900081F3900083D39000809
:103910009F4BDB6A9E4A43F40033D3620FE0D7F833
:10392000043108330221184601F0E6F8034687F80F
:10393000173104E0012387F8173100E000BF97F842
:103940001731002B0AD1924BDB6C23F00301D7F81F
:1039500004319B6C8E4A0B43D36403E097F8173114
:1039600087F81631D7F80431D3E9002302F4800335
:10397000C7F8C0300023C7F8C430D7E930120B466F
:10398000134300F09980834B1B68824A43F4807391
:10399000136002F0A5FBC7F810010BE002F0A0FBDA
:1039A0000246D7F81031D31A642B03D9032387F8C2
:1039B000173105E0774B1B6803F48073002BEDD0C3
:1039C00097F81731002B73D1714B1A6FD7F8043168
:1039D000D3F8B030534003F44073002B15D06C4B38
:1039E0001B6F23F44073C7F80C31694B1B6F684A97
:1039F00043F480331367664B1B6F654A23F48033AF
:103A00001367634AD7F80C311367D7F80431D3F83A
:103A1000B030B3F5807F18D102F062FBC7F8100117
:103A20000DE002F05DFB0246D7F81031D21A41F2E8
:103A300088339A4203D9032387F8173105E0544BA2
:103A40001B6F03F00203002BEBD097F81731002B0C
:103A500029D1D7F80431D3F8B03003F44073B3F56B
:103A6000407F0ED14A4B1B6923F47C51D7F80431B7
:103A7000D3F8B0301A09484B1340454A0B43136141
:103A800005E0434B1B69424A23F47C531361404BCE
:103A9000196FD7F80431D3F8B030C3F30B033C4AA5
:103AA0000B43136708E097F8173187F8163103E0E6
:103AB00097F8173187F81631D7F80431D3E9002386
:103AC00002F00103C7F8B8300023C7F8BC30D7E9CB
:103AD0002E120B46134300F08F80D7F804319B6FF2
:103AE000282B71D801A252F823F000BFD13B000867
:103AF000C93B0008C93B0008C93B0008C93B000896
:103B0000C93B0008C93B0008C93B00089D3B0008B1
:103B1000C93B0008C93B0008C93B0008C93B000875
:103B2000C93B0008C93B0008C93B0008B33B00087B
:103B3000C93B0008C93B0008C93B0008C93B000855
:103B4000C93B0008C93B0008C93B0008D13B00083D
:103B5000C93B0008C93B0008C93B0008C93B000835
:103B6000C93B0008C93B0008C93B0008D13B00081D
:103B7000C93B0008C93B0008C93B0008C93B000815
:103B8000C93B0008C93B0008C93B0008D13B0008FD
:103B90000044025800480258CFFFFF00D7F8043114
:103BA00008330121184600F0A7FF034687F81731B4
:103BB0000FE0D7F8043128330121184601F04EF800
:103BC000034687F8173104E0012387F8173100E036
:103BD00000BF97F81731002B0AD1BF4B5B6D23F064
:103BE0003801D7F804319B6FBB4A0B43536503E0A0
:103BF00097F8173187F81631D7F80431D3E9002345
:103C000002F00203C7F8B0300023C7F8B430D7E998
:103C10002C120B46134341D0D7F804315B6F052BB0
:103C200024D801A252F823F0753C0008413C00085A
:103C3000573C0008753C0008753C0008753C0008BE
:103C4000D7F8043108330121184600F055FF034628
:103C500087F817310FE0D7F80431283301211846CF
:103C600000F0FCFF034687F8173104E0012387F8D2
:103C7000173100E000BF97F81731002B0AD1964B9F
:103C80005B6D23F00701D7F804315B6F924A0B4359
:103C9000536503E097F8173187F81631D7F80431E8
:103CA000D3E9002302F00403C7F8A8300023C7F8C3
:103CB000AC30D7E92A120B46134344D0D7F804316D
:103CC000D3F89030052B25D801A252F823F000BF7D
:103CD0001D3D0008E93C0008FF3C00081D3D0008B0
:103CE0001D3D00081D3D0008D7F8043108330121AF
:103CF000184600F001FF034687F817310FE0D7F8A8
:103D0000043128330121184600F0A8FF034687F844
:103D1000173104E0012387F8173100E000BF97F85E
:103D20001731002B0BD16C4B9B6D23F00701D7F89B
:103D30000431D3F89030684A0B43936503E097F859
:103D4000173187F81631D7F80431D3E9002302F090
:103D50002003C7F8A0300023C7F8A430D7E9281201
:103D60000B46134355D0D7F80431D3F88C30B3F158
:103D7000A04F33D0B3F1A04F2CD8B3F1804F2FD048
:103D8000B3F1804F26D8B3F1405F2BD0B3F1405F41
:103D900020D8B3F1005F12D0B3F1005F1AD8002B26
:103DA00022D0B3F1805F15D1D7F804310833002158
:103DB000184600F0A1FE034687F8173115E0D7F842
:103DC000043128330221184600F048FF034687F8E3
:103DD00017310AE0012387F8173106E000BF04E03D
:103DE00000BF02E000BF00E000BF97F81731002BD2
:103DF0000BD1394B5B6D23F0E041D7F80431D3F898
:103E00008C30354A0B43536503E097F8173187F838
:103E10001631D7F80431D3E9002302F04003C7F884
:103E200098300023C7F89C30D7E926120B4613437D
:103E300058D0D7F80431D3F89830B3F5A05F33D019
:103E4000B3F5A05F2CD8B3F5805F2FD0B3F5805FBA
:103E500026D8B3F5406F2BD0B3F5406F20D8B3F51B
:103E6000006F12D0B3F5006F1AD8002B22D0B3F533
:103E7000806F15D1D7F8043108330021184600F0BF
:103E80003BFE034687F8173115E0D7F80431283395
:103E90000221184600F0E2FE034687F817310AE0D7
:103EA000012387F8173106E000BF04E000BF02E0FD
:103EB00000BF00E000BF97F81731002B0ED1064B72
:103EC0009B6D23F4E051D7F80431D3F89830024ABF
:103ED0000B43936506E000BF0044025897F8173182
:103EE00087F81631D7F80431D3E9002302F08003B4
:103EF000C7F890300023C7F89430D7E924120B4656
:103F0000134355D0D7F80431D3F89C30B3F5204F84
:103F100033D0B3F5204F2CD8B3F5004F2FD0B3F5E5
:103F2000004F26D8B3F5C04F2BD0B3F5C04F20D8E3
:103F3000B3F5804F12D0B3F5804F1AD8002B22D0A2
:103F4000B3F5005F15D1D7F80431083300211846C6
:103F500000F0D2FD034687F8173115E0D7F8043199
:103F600028330221184600F079FE034687F81731FE
:103F70000AE0012387F8173106E000BF04E000BF24
:103F800002E000BF00E000BF97F81731002B0BD113
:103F9000A04B9B6D23F46041D7F80431D3F89C30DB
:103FA0009C4A0B43936503E097F8173187F8163165
:103FB000D7F80431D3E9002302F00803C7F88830AA
:103FC0000023C7F88C30D7E922120B4613431ED0CA
:103FD000D7F80431D3F88030B3F5805F0CD1D7F82F
:103FE000043128330221184600F038FE0346002B26
:103FF00002D0012387F81631864B5B6D23F44051C4
:10400000D7F80431D3F88030824A0B435365D7F890
:104010000431D3E9002302F01003C7F880300023F5
:10402000C7F88430D7E920120B4613431ED0D7F8C7
:104030000431D3F89430B3F5807F0CD1D7F8043134
:1040400028330221184600F009FE0346002B02D057
:10405000012387F816316F4B9B6D23F44071D7F81D
:104060000431D3F894306B4A0B439365D7F804318D
:10407000D3E9002302F40023BB670023FB67D7E9E1
:104080001E120B4613433ED0D7F80431D3F8A030AC
:10409000B3F5003F22D0B3F5003F1BD8002B03D06F
:1040A000B3F5803F0BD015E0D7F804310833002179
:1040B000184600F021FD034687F817310FE0D7F8C6
:1040C000043128330221184600F0C8FD034687F862
:1040D000173104E0012387F8173100E000BF97F89B
:1040E0001731002B0BD14B4B9B6D23F44031D7F88C
:1040F0000431D3F8A030474A0B43936503E097F8A7
:10410000173187F81631D7F80431D3E9002302F4C8
:1041100080233B6700237B67D7E91C120B461343C0
:104120003BD0D7F80431D3F88430B3F5401F1FD00B
:10413000B3F5401F18D8B3F5801F03D0B3F5001FA7
:1041400007D011E0334BDB6A324A43F40033D362C9
:104150000FE0D7F8043128330121184600F07EFD26
:10416000034687F8173104E0012387F8173100E090
:1041700000BF97F81731002B0BD1264B5B6D23F452
:104180004011D7F80431D3F88430224A0B435365E9
:1041900003E097F8173187F81631D7F80431D3E9DF
:1041A000002302F48033BB660023FB66D7E91A12B2
:1041B0000B46134334D0D7F804311B6D002B03D0CA
:1041C000B3F5803F07D011E0124BDB6A114A43F48C
:1041D0000033D3620EE0D7F80431083302211846C9
:1041E00000F08AFC034687F8173103E0012387F8C3
:1041F000173100BF97F81731002B0DD1054BDB6C41
:1042000023F48031D7F804311B6D024A0B43D36489
:1042100006E000BF0044025897F8173187F81631BE
:10422000D7F80431D3E9002302F000533B660023A2
:104230007B66D7E918120B4613430CD0D7F804312C
:1042400028330221184600F009FD0346002B02D056
:10425000012387F81631D7F80431D3E9002302F49B
:104260000033BB650023FB65D7E916120B461343E9
:1042700036D0D7F80431DB6FB3F5407F18D0B3F5F3
:10428000407F11D8B3F5007F14D0B3F5007F0BD871
:10429000002B11D0B3F5807F06D1B74BDB6AB64A4D
:1042A00043F40033D36208E0012387F8173104E0B8
:1042B00000BF02E000BF00E000BF97F81731002BFD
:1042C0000AD1AD4B5B6D23F44071D7F80431DB6F3D
:1042D000A94A0B43536503E097F8173187F8163165
:1042E000D7F80431D3E9002302F480133B6500239F
:1042F0007B65D7E914120B46134309D09E4B1B6D07
:1043000023F00041D7F804311B6F9B4A0B43136520
:10431000D7F80431D3E9002302F40013BB6400236F
:10432000FB64D7E912120B46134309D0924B1B6D65
:1043300023F08071D7F804319B6E8F4A0B431365CD
:10434000D7F80431D3E9002302F080433B64002313
:104350007B64D7E910120B4613430ED0864B1B69C2
:10436000854A23F400431361834B1969D7F804315C
:10437000D3F8B430804A0B431361D7F80431D3E942
:10438000002302F00043BB630023FB63D7E90E1256
:104390000B46134309D0784BDB6C23F04051D7F820
:1043A00004315B6D744A0B43D364D7F80431D3E90D
:1043B000002302F400033B6300237B63D7E90C1264
:1043C0000B4613430AD06C4B5B6D23F44001D7F8C6
:1043D0000431D3F88830684A0B435365D7F8043169
:1043E000D3E900230021B96203F00103FB62D7E99E
:1043F0000A120B46134311D0D7F8043108330021B9
:10440000184600F079FB034687F8173197F8173103
:10441000002B03D097F8173187F81631D7F80431FD
:10442000D3E900230021396203F002037B62D7E95C
:1044300008120B46134311D0D7F804310833012179
:10444000184600F059FB034687F8173197F81731E3
:10445000002B03D097F8173187F81631D7F80431BD
:10446000D3E900230021B96103F00403FB61D7E91C
:1044700006120B46134311D0D7F80431083302213A
:10448000184600F039FB034687F8173197F81731C3
:10449000002B03D097F8173187F81631D7F804317D
:1044A000D3E900230021396103F008037B61D7E9D8
:1044B00004120B46134311D0D7F8043128330021DE
:1044C000184600F0CBFB034687F8173197F81731F1
:1044D000002B03D097F8173187F81631D7F804313D
:1044E000D3E900230021B96003F01003FB60D7E992
:1044F00002120B46134311D0D7F80431283301219F
:10450000184600F0ABFB034687F8173197F81731D0
:10451000002B03D097F8173187F81631D7F80431FC
:10452000D3E900230021396003F020037B60D7E941
:1045300000120B46134311D0D7F80431283302215F
:10454000184600F08BFB034687F8173197F81731B0
:10455000002B03D097F8173187F8163197F81631EA
:10456000002B01D1002300E00123184607F58C77CA
:10457000BD46BDE8B08F00BF0044025880B500AF13
:10458000FEF700FE0246064B1B6A1B0903F00703F9
:104590000449CB5C03F01F0322FA03F3184680BDE5
:1045A0000044025874C7010880B489B000AF786035
:1045B000A14B9B6A03F00303BB619F4B9B6A1B0BE0
:1045C00003F03F037B619C4BDB6A1B0903F0010393
:1045D0003B61994BDB6BDB08C3F30C033A6902FBCD
:1045E00003F307EE903AF8EE677AC7ED037A7B693A
:1045F000002B00F01181BB69022B00F08380BB69A6
:10460000022B00F2A180BB69002B03D0BB69012BF8
:1046100056D099E0884B1B6803F02003002B2DD067
:10462000854B1B68DB0803F00303844A22FA03F37B
:10463000BB60BB6807EE903AF8EE676A7B6907EEED
:10464000903AF8EE677A86EEA77A7B4B9B6BC3F3C2
:10465000080307EE903AF8EE676A97ED036ADFED1C
:10466000785AC6EE257A76EEA77AF7EE006A77EEEC
:10467000A67A67EE277AC7ED077A87E07B6907EEAF
:10468000903AF8EE677ADFED6F6A86EEA77A6A4BAA
:104690009B6BC3F3080307EE903AF8EE676A97ED59
:1046A000036ADFED675AC6EE257A76EEA77AF7EE53
:1046B000006A77EEA67A67EE277AC7ED077A65E09B
:1046C0007B6907EE903AF8EE677ADFED5F6A86EE77
:1046D000A77A594B9B6BC3F3080307EE903AF8EEA9
:1046E000676A97ED036ADFED565AC6EE257A76EED5
:1046F000A77AF7EE006A77EEA67A67EE277AC7ED1B
:10470000077A43E07B6907EE903AF8EE677ADFEDCF
:104710004F6A86EEA77A484B9B6BC3F3080307EEFC
:10472000903AF8EE676A97ED036ADFED455AC6EEF8
:10473000257A76EEA77AF7EE006A77EEA67A67EE2C
:10474000277AC7ED077A21E07B6907EE903AF8EE09
:10475000677ADFED3D6A86EEA77A374B9B6BC3F332
:10476000080307EE903AF8EE676A97ED036ADFED0B
:10477000345AC6EE257A76EEA77AF7EE006A77EE1F
:10478000A67A67EE277AC7ED077A00BF2A4B9B6BA4
:104790005B0A03F07F0307EE903AF8EE677AB7EE14
:1047A000007A37EE877AD7ED076AC6EE877AFCEE95
:1047B000E77A17EE902A7B681A601F4B9B6B1B0CE5
:1047C00003F07F0307EE903AF8EE677AB7EE007ACF
:1047D00037EE877AD7ED076AC6EE877AFCEEE77A7E
:1047E00017EE902A7B685A60134B9B6B1B0E03F0ED
:1047F0007F0307EE903AF8EE677AB7EE007A37EE6D
:10480000877AD7ED076AC6EE877AFCEEE77A17EE6D
:10481000902A7B689A6008E07B6800221A607B68B7
:1048200000225A607B6800229A6000BF2437BD4690
:104830005DF8047B704700BF004402580090D0032D
:10484000000000460024744C0024744A20BCBE4B77
:1048500080B489B000AF7860A14B9B6A03F003037A
:10486000BB619F4B9B6A1B0D03F03F037B619C4B1D
:10487000DB6A1B0A03F001033B61994B5B6CDB08AD
:10488000C3F30C033A6902FB03F307EE903AF8EE28
:10489000677AC7ED037A7B69002B00F01181BB6951
:1048A000022B00F08380BB69022B00F2A180BB6960
:1048B000002B03D0BB69012B56D099E0884B1B68B5
:1048C00003F02003002B2DD0854B1B68DB0803F081
:1048D0000303844A22FA03F3BB60BB6807EE903AF5
:1048E000F8EE676A7B6907EE903AF8EE677A86EE33
:1048F000A77A7B4B1B6CC3F3080307EE903AF8EEE4
:10490000676A97ED036ADFED785AC6EE257A76EE90
:10491000A77AF7EE006A77EEA67A67EE277AC7EDF8
:10492000077A87E07B6907EE903AF8EE677ADFED69
:104930006F6A86EEA77A6A4B1B6CC3F3080307EE17
:10494000903AF8EE676A97ED036ADFED675AC6EEB4
:10495000257A76EEA77AF7EE006A77EEA67A67EE0A
:10496000277AC7ED077A65E07B6907EE903AF8EEA3
:10497000677ADFED5F6A86EEA77A594B1B6CC3F34B
:10498000080307EE903AF8EE676A97ED036ADFEDE9
:10499000565AC6EE257A76EEA77AF7EE006A77EEDB
:1049A000A67A67EE277AC7ED077A43E07B6907EEC0
:1049B000903AF8EE677ADFED4F6A86EEA77A484BB9
:1049C0001B6CC3F3080307EE903AF8EE676A97EDA5
:1049D000036ADFED455AC6EE257A76EEA77AF7EE42
:1049E000006A77EEA67A67EE277AC7ED077A21E0AC
:1049F0007B6907EE903AF8EE677ADFED3D6A86EE66
:104A0000A77A374B1B6CC3F3080307EE903AF8EE16
:104A1000676A97ED036ADFED345AC6EE257A76EEC3
:104A2000A77AF7EE006A77EEA67A67EE277AC7EDE7
:104A3000077A00BF2A4B1B6C5B0A03F07F0307EE6B
:104A4000903AF8EE677AB7EE007A37EE877AD7EDCC
:104A5000076AC6EE877AFCEEE77A17EE902A7B6843
:104A60001A601F4B1B6C1B0C03F07F0307EE903A80
:104A7000F8EE677AB7EE007A37EE877AD7ED076AF5
:104A8000C6EE877AFCEEE77A17EE902A7B685A60CA
:104A9000134B1B6C1B0E03F07F0307EE903AF8EEEE
:104AA000677AB7EE007A37EE877AD7ED076AC6EEF7
:104AB000877AFCEEE77A17EE902A7B689A6008E026
:104AC0007B6800221A607B6800225A607B680022A3
:104AD0009A6000BF2437BD465DF8047B704700BF75
:104AE000004402580090D003000000460024744C9B
:104AF0000024744A20BCBE4B80B584B000AF7860FF
:104B000039600023FB73534B9B6A03F00303032BB1
:104B100001D1012399E04F4B1B684E4A23F080637B
:104B2000136001F0DDFAB86008E001F0D9FA02463E
:104B3000BB68D31A022B01D9032386E0454B1B68BF
:104B400003F00063002BF0D1424B9B6A23F47C32CC
:104B50007B681B681B033F4913438B627B685B6860
:104B6000013BC3F308027B689B68013B5B029BB27D
:104B70001A437B68DB68013B1B0403F4FE031A4302
:104B80007B681B69013B1B0603F0FE43314913435D
:104B90008B63304BDB6A23F0C0027B685B692D4975
:104BA0001343CB622B4BDB6A23F020027B689B69AB
:104BB00028491343CB62274BDB6A264A23F01003B4
:104BC000D362244BDA6B244B13407A68D269D2004B
:104BD00020491343CB631F4BDB6A1E4A43F010038B
:104BE000D3623B68002B06D11A4BDB6A194A43F4A7
:104BF0000023D3620FE03B68012B06D1154BDB6A23
:104C0000144A43F48013D36205E0124BDB6A114A65
:104C100043F40013D3620F4B1B680E4A43F08063CA
:104C2000136001F05DFAB86008E001F059FA02463D
:104C3000BB68D31A022B01D9032306E0054B1B687E
:104C400003F00063002BF0D0FB7B18461037BD4605
:104C500080BD00BF004402580700FFFF80B584B04C
:104C600000AF786039600023FB73534B9B6A03F0FD
:104C70000303032B01D1012399E04F4B1B684E4ADC
:104C800023F08053136001F02BFAB86008E001F0C4
:104C900027FA0246BB68D31A022B01D9032386E008
:104CA000454B1B6803F00053002BF0D1424B9B6A2D
:104CB00023F07C727B681B681B053F4913438B62A2
:104CC0007B685B68013BC3F308027B689B68013B20
:104CD0005B029BB21A437B68DB68013B1B0403F455
:104CE000FE031A437B681B69013B1B0603F0FE436E
:104CF000314913430B64304BDB6A23F440627B6819
:104D00005B692D491343CB622B4BDB6A23F40072A2
:104D10007B689B6928491343CB62274BDB6A264A91
:104D200023F48073D362244B5A6C244B13407A686B
:104D3000D269D200204913434B641F4BDB6A1E4AE1
:104D400043F48073D3623B68002B06D11A4BDB6AB5
:104D5000194A43F48003D3620FE03B68012B06D16C
:104D6000154BDB6A144A43F40003D36205E0124B8F
:104D7000DB6A114A43F08073D3620F4B1B680E4A03
:104D800043F08053136001F0ABF9B86008E001F024
:104D9000A7F90246BB68D31A022B01D9032306E008
:104DA000054B1B6803F00053002BF0D0FB7B18462B
:104DB0001037BD4680BD00BF004402580700FFFF0A
:104DC00080B489B000AF786039600023FB618B4B01
:104DD0007B6196E13B681A680121FB6901FA03F3E4
:104DE00013403B613B69002B00F088813B685B68A6
:104DF00003F00303012B05D03B685B6803F003035A
:104E0000022B30D17B689B68BB61FB695B0003228E
:104E100002FA03F3DB43BA691340BB613B68DA680B
:104E2000FB695B0002FA03F3BA691343BB617B6859
:104E3000BA699A607B685B68BB610122FB6902FA10
:104E400003F3DB43BA691340BB613B685B681B0932
:104E500003F00102FB6902FA03F3BA691343BB6171
:104E60007B68BA695A603B685B6803F00303032BF5
:104E700009D13B685B6803F00303032B1BD13B683C
:104E80009B68012B17D07B68DB68BB61FB695B000B
:104E9000032202FA03F3DB43BA691340BB613B68A8
:104EA0009A68FB695B0002FA03F3BA691343BB61BA
:104EB0007B68BA69DA603B685B6803F00303022B26
:104EC00023D1FB69DA087B68083253F82230BB61D2
:104ED000FB6903F007039B000F2202FA03F3DB4395
:104EE000BA691340BB613B681A69FB6903F00703A9
:104EF0009B0002FA03F3BA691343BB61FB69DA084A
:104F00007B680832B96943F822107B681B68BB6173
:104F1000FB695B00032202FA03F3DB43BA69134027
:104F2000BB613B685B6803F00302FB695B0002FA4C
:104F300003F3BA691343BB617B68BA691A603B68C3
:104F40005B6803F44033002B00F0D8802C4BD3F87F
:104F5000F4302B4A43F00203C2F8F430284BD3F864
:104F6000F43003F00203FB60FB68264AFB699B08F0
:104F7000023352F82330BB61FB6903F003039B004B
:104F80000F2202FA03F3DB43BA691340BB617B686B
:104F90001D4A93424AD07B681C4A93422BD07B68BF
:104FA0001B4A934225D07B681A4A93421FD07B68E4
:104FB000194A934219D07B68184A934213D07B68F0
:104FC000174A93420DD07B68164A934207D07B68FC
:104FD000154A934201D1092329E00A2327E0072338
:104FE00025E0062323E0052321E004231FE003231B
:104FF0001DE002231BE0012319E000BF80000058E0
:1050000000440258000400580000025800040258EE
:1050100000080258000C02580010025800140258F0
:1050200000180258001C0258002402580023FA6994
:1050300002F0030292009340BA691343BB613849FE
:10504000FB699B080233BA6941F823204FF0B04353
:105050001B68BB613B69DB43BA691340BB613B68BA
:105060005B6803F48013002B03D0BA693B691343D8
:10507000BB614FF0B042BB6913604FF0B0435B6857
:10508000BB613B69DB43BA691340BB613B685B684A
:1050900003F40013002B03D0BA693B691343BB61CF
:1050A0004FF0B042BB6953607B695B68BB613B6991
:1050B000DB43BA691340BB613B685B6803F40033B0
:1050C000002B03D0BA693B691343BB617B69BA69A2
:1050D0005A607B691B68BB613B69DB43BA6913405B
:1050E000BB613B685B6803F48033002B03D0BA6973
:1050F0003B691343BB617B69BA691A60FB69013381
:10510000FB613B681A68FB6922FA03F3002B7FF40A
:1051100061AE00BF00BF2437BD465DF8047B704719
:105120000004005880B485B000AF78600B467B80E7
:105130007B681A697B881340002B02D00123FB7324
:1051400001E00023FB73FB7B18461437BD465DF876
:10515000047B704780B483B000AF78600B467B80DF
:1051600013467B707B78002B03D07A887B689A612A
:1051700003E07B881A047B689A6100BF0C37BD4648
:105180005DF8047B7047000080B586B000AF7860A2
:1051900000F0A6FF38617B68002B01D10123DCE21F
:1051A0007B6893F83530DBB2022B08D07B68802215
:1051B0005A657B68002283F834200123CDE27B68A6
:1051C0001B68644A93424AD07B681B68624A9342D8
:1051D00045D07B681B68614A934240D07B681B685E
:1051E0005F4A93423BD07B681B685E4A934236D04D
:1051F0007B681B685C4A934231D07B681B685B4AC2
:1052000093422CD07B681B68594A934227D07B6815
:105210001B68584A934222D07B681B68564A9342C7
:105220001DD07B681B68554A934218D07B681B6869
:10523000534A934213D07B681B68524A93420ED064
:105240007B681B68504A934209D07B681B684F4AB1
:10525000934204D07B681B684D4A934208D17B6817
:105260001B681A687B681B6822F001021A6007E05D
:105270007B681B681A687B681B6822F001021A6051
:105280007B681B68334A93424AD07B681B68324A6A
:10529000934245D07B681B68304A934240D07B687C
:1052A0001B682F4A93423BD07B681B682D4A934270
:1052B00036D07B681B682C4A934231D07B681B68D0
:1052C0002A4A93422CD07B681B68294A934227D0F4
:1052D0007B681B68274A934222D07B681B68264A5A
:1052E00093421DD07B681B68244A934218D07B6888
:1052F0001B68234A934213D07B681B68214A934260
:105300000ED07B681B68204A934209D07B681B68DB
:105310001E4A934204D07B681B681D4A934201D108
:10532000012300E00023002B34D07B681B681A683F
:105330007B681B6822F01E021A607B681B685A6932
:105340007B681B6822F080025A617B681B687B6166
:105350002BE000BF10000240280002404000024045
:10536000580002407000024088000240A000024045
:10537000B8000240100402402804024040040240E9
:10538000580402407004024088040240A004024015
:10539000B80402407B681B681A687B681B6822F0AF
:1053A0000E021A607B681B687B617B681B687F4A02
:1053B000934272D07B681B687D4A93426DD07B68B4
:1053C0001B687C4A934268D07B681B687A4A934288
:1053D00063D07B681B68794A93425ED07B681B6808
:1053E000774A934259D07B681B68764A934254D0DF
:1053F0007B681B68744A93424FD07B681B68734A72
:1054000093424AD07B681B68714A934245D07B68BF
:105410001B68704A934240D07B681B686E4A934277
:105420003BD07B681B686D4A934236D07B681B6813
:105430006B4A934231D07B681B686A4A93422CD0F6
:105440007B681B68684A934227D07B681B68674A61
:10545000934222D07B681B68654A93421DD07B68CB
:105460001B68644A934218D07B681B68624A934267
:1054700013D07B681B68614A93420ED07B681B681F
:105480005F4A934209D07B681B685E4A934204D00E
:105490007B681B685C4A934201D1012300E0002332
:1054A000002B1CD07B681B6E1A687B681B6E22F475
:1054B00080721A6013E000F013FE02463B69D31AB3
:1054C000052B0CD97B6820225A657B68032283F860
:1054D00035207B68002283F8342001233DE17B697D
:1054E0001B6803F00103002BE5D17B681B682F4A82
:1054F00093424AD07B681B682D4A934245D07B6813
:105500001B682C4A934240D07B681B682A4A93420E
:105510003BD07B681B68294A934236D07B681B6866
:10552000274A934231D07B681B68264A93422CD08D
:105530007B681B68244A934227D07B681B68234AF8
:10554000934222D07B681B68214A93421DD07B681E
:105550001B68204A934218D07B681B681E4A9342FE
:1055600013D07B681B681D4A93420ED07B681B6872
:105570001B4A934209D07B681B681A4A934204D0A5
:105580007B681B68184A934201D1012300E0002385
:10559000002B3BD07B689B6DBB607B68DB6D03F0B1
:1055A0001F033F229A40BB689A603AE01000024015
:1055B00028000240400002405800024070000240B3
:1055C00088000240A0000240B800024010040240DF
:1055D0002804024040040240580402407004024083
:1055E00088040240A0040240B80402400854025853
:1055F0001C5402583054025844540258585402580B
:105600006C54025880540258945402587B689B6D25
:10561000FB607B68DB6D03F01F0301229A40FB688F
:105620005A607B681B684F4A934272D07B681B6844
:105630004D4A93426DD07B681B684C4A934268D0B8
:105640007B681B684A4A934263D07B681B68494A5F
:1056500093425ED07B681B68474A934259D07B686F
:105660001B68464A934254D07B681B68444A934265
:105670004FD07B681B68434A93424AD07B681B68C3
:10568000414A934245D07B681B68404A934240D0D0
:105690007B681B683E4A93423BD07B681B683D4A4F
:1056A000934236D07B681B683B4A934231D07B687B
:1056B0001B683A4A93422CD07B681B68384A934255
:1056C00027D07B681B68374A934222D07B681B68CF
:1056D000354A93421DD07B681B68344A934218D0E8
:1056E0007B681B68324A934213D07B681B68314A3F
:1056F00093420ED07B681B682F4A934209D07B6887
:105700001B682E4A934204D07B681B682C4A934244
:1057100001D1012300E00023002B15D07B685B6ED4
:105720007A68926E5A607B68DB6E002B0CD07B68C7
:10573000DB6E1A687B68DB6E22F480721A607B680D
:105740001B6F7A68526F5A607B68012283F835209C
:105750007B68002283F83420002318461837BD46A2
:1057600080BD00BF100002402800024040000240FF
:10577000580002407000024088000240A000024031
:10578000B8000240100402402804024040040240D5
:10579000580402407004024088040240A004024001
:1057A000B8040240085402581C540258305402589D
:1057B00044540258585402586C54025880540258A9
:1057C0009454025880B584B000AF78607B68002B99
:1057D00001D1012337E27B6893F83530DBB2022B2D
:1057E00004D07B6880225A6501232CE27B681B6809
:1057F0005C4A93424AD07B681B685B4A934245D01F
:105800007B681B68594A934240D07B681B68584AA2
:1058100093423BD07B681B68564A934236D07B68E4
:105820001B68554A934231D07B681B68534A9342A8
:105830002CD07B681B68524A934227D07B681B6838
:10584000504A934222D07B681B684F4A93421DD036
:105850007B681B684D4A934218D07B681B684C4A92
:10586000934213D07B681B684A4A93420ED07B68F0
:105870001B68494A934209D07B681B68474A934298
:1058800004D07B681B68464A934201D1012300E0A3
:105890000023002B00F086807B68042283F83520EB
:1058A0007B681B682F4A93424AD07B681B682E4A4C
:1058B000934245D07B681B682C4A934240D07B685A
:1058C0001B682B4A93423BD07B681B68294A934252
:1058D00036D07B681B68284A934231D07B681B68AE
:1058E000264A93422CD07B681B68254A934227D0D6
:1058F0007B681B68234A934222D07B681B68224A3C
:1059000093421DD07B681B68204A934218D07B6865
:105910001B681F4A934213D07B681B681D4A934241
:105920000ED07B681B681C4A934209D07B681B68B9
:105930001A4A934204D07B681B68194A934208D1E3
:105940007B681B681A687B681B6822F001021A607A
:1059500078E17B681B681A687B681B6822F001028B
:105960001A606FE11000024028000240400002402F
:10597000580002407000024088000240A00002402F
:10598000B8000240100402402804024040040240D3
:10599000580402407004024088040240A0040240FF
:1059A000B80402407B681B68704A93424AD07B6807
:1059B0001B686F4A934245D07B681B686D4A9342CF
:1059C00040D07B681B686C4A93423BD07B681B6865
:1059D0006A4A934236D07B681B68694A934231D049
:1059E0007B681B68674A93422CD07B681B68664AB9
:1059F000934227D07B681B68644A934222D07B681D
:105A00001B68634A93421DD07B681B68614A9342BE
:105A100018D07B681B68604A934213D07B681B6870
:105A20005E4A93420ED07B681B685D4A934209D060
:105A30007B681B685B4A934204D07B681B685A4AA8
:105A4000934208D17B681B681A687B681B6822F048
:105A500001021A6007E07B681B681A687B681B6894
:105A600022F001021A607B681B681A687B681B6859
:105A700022F00E021A607B681B683C4A934272D087
:105A80007B681B683A4A93426DD07B681B68394A31
:105A9000934268D07B681B68374A934263D07B6827
:105AA0001B68364A93425ED07B681B68344A934237
:105AB00059D07B681B68334A934254D07B681B687B
:105AC000314A93424FD07B681B68304A93424AD098
:105AD0007B681B682E4A934245D07B681B682D4A21
